{
  "contractName": "PKIAuthold",
  "abi": [
    {
      "anonymous": false,
      "inputs": [
        {
          "indexed": true,
          "internalType": "address",
          "name": "user",
          "type": "address"
        }
      ],
      "name": "PublicKeyDeleted",
      "type": "event"
    },
    {
      "anonymous": false,
      "inputs": [
        {
          "indexed": true,
          "internalType": "address",
          "name": "user",
          "type": "address"
        },
        {
          "indexed": false,
          "internalType": "bytes",
          "name": "publicKey",
          "type": "bytes"
        }
      ],
      "name": "PublicKeyRegistered",
      "type": "event"
    },
    {
      "anonymous": false,
      "inputs": [
        {
          "indexed": true,
          "internalType": "address",
          "name": "user",
          "type": "address"
        },
        {
          "indexed": false,
          "internalType": "bytes",
          "name": "newPublicKey",
          "type": "bytes"
        }
      ],
      "name": "PublicKeyUpdated",
      "type": "event"
    },
    {
      "inputs": [
        {
          "internalType": "address",
          "name": "",
          "type": "address"
        }
      ],
      "name": "publicKeys",
      "outputs": [
        {
          "internalType": "bytes",
          "name": "",
          "type": "bytes"
        }
      ],
      "stateMutability": "view",
      "type": "function"
    },
    {
      "inputs": [
        {
          "internalType": "bytes",
          "name": "publicKey",
          "type": "bytes"
        }
      ],
      "name": "registerPublicKey",
      "outputs": [],
      "stateMutability": "nonpayable",
      "type": "function"
    },
    {
      "inputs": [
        {
          "internalType": "address",
          "name": "user",
          "type": "address"
        }
      ],
      "name": "isPublicKeyRegistered",
      "outputs": [
        {
          "internalType": "bool",
          "name": "",
          "type": "bool"
        }
      ],
      "stateMutability": "view",
      "type": "function"
    },
    {
      "inputs": [
        {
          "internalType": "bytes",
          "name": "_newPublicKey",
          "type": "bytes"
        }
      ],
      "name": "updatePublicKey",
      "outputs": [],
      "stateMutability": "nonpayable",
      "type": "function"
    },
    {
      "inputs": [],
      "name": "deletePublicKey",
      "outputs": [],
      "stateMutability": "nonpayable",
      "type": "function"
    }
  ],
  "bytecode": "0x608060405234801561001057600080fd5b50610c42806100206000396000f3fe608060405234801561001057600080fd5b50600436106100575760003560e01c806374e66d101461005c5780638562359414610078578063a3d6f9a914610094578063e01fe5a9146100c4578063ee437bed146100ce575b600080fd5b61007660048036038101906100719190610837565b6100fe565b005b610092600480360381019061008d9190610837565b610273565b005b6100ae60048036038101906100a991906108de565b6103e8565b6040516100bb9190610993565b60405180910390f35b6100cc610488565b005b6100e860048036038101906100e391906108de565b6105a4565b6040516100f591906109d0565b60405180910390f35b6000815111610142576040517f08c379a000000000000000000000000000000000000000000000000000000000815260040161013990610a48565b60405180910390fd5b60008060003373ffffffffffffffffffffffffffffffffffffffff1673ffffffffffffffffffffffffffffffffffffffff168152602001908152602001600020805461018d90610a97565b9050116101cf576040517f08c379a00000000000000000000000000000000000000000000000000000000081526004016101c690610b14565b60405180910390fd5b806000803373ffffffffffffffffffffffffffffffffffffffff1673ffffffffffffffffffffffffffffffffffffffff16815260200190815260200160002090805190602001906102219291906105fa565b503373ffffffffffffffffffffffffffffffffffffffff167ff957f077e5d2d5a2c4a2793d09cb9c5d45b475d07bbd0b82abf99a5669b95e08826040516102689190610993565b60405180910390a250565b60008151116102b7576040517f08c379a00000000000000000000000000000000000000000000000000000000081526004016102ae90610b80565b60405180910390fd5b60008060003373ffffffffffffffffffffffffffffffffffffffff1673ffffffffffffffffffffffffffffffffffffffff168152602001908152602001600020805461030290610a97565b905014610344576040517f08c379a000000000000000000000000000000000000000000000000000000000815260040161033b90610bec565b60405180910390fd5b806000803373ffffffffffffffffffffffffffffffffffffffff1673ffffffffffffffffffffffffffffffffffffffff16815260200190815260200160002090805190602001906103969291906105fa565b503373ffffffffffffffffffffffffffffffffffffffff167fb3ec32f104accdf61583b5b94e7b80414c5dc5845ffc42e00f5f19775a358a0a826040516103dd9190610993565b60405180910390a250565b6000602052806000526040600020600091509050805461040790610a97565b80601f016020809104026020016040519081016040528092919081815260200182805461043390610a97565b80156104805780601f1061045557610100808354040283529160200191610480565b820191906000526020600020905b81548152906001019060200180831161046357829003601f168201915b505050505081565b60008060003373ffffffffffffffffffffffffffffffffffffffff1673ffffffffffffffffffffffffffffffffffffffff16815260200190815260200160002080546104d390610a97565b905011610515576040517f08c379a000000000000000000000000000000000000000000000000000000000815260040161050c90610b14565b60405180910390fd5b6000803373ffffffffffffffffffffffffffffffffffffffff1673ffffffffffffffffffffffffffffffffffffffff168152602001908152602001600020600061055f9190610680565b3373ffffffffffffffffffffffffffffffffffffffff167f3ec24ed5dc848e6436f04001a840fdc37635d9f7823341a2027e8309d917442d60405160405180910390a2565b6000806000808473ffffffffffffffffffffffffffffffffffffffff1673ffffffffffffffffffffffffffffffffffffffff16815260200190815260200160002080546105f090610a97565b9050119050919050565b82805461060690610a97565b90600052602060002090601f016020900481019282610628576000855561066f565b82601f1061064157805160ff191683800117855561066f565b8280016001018555821561066f579182015b8281111561066e578251825591602001919060010190610653565b5b50905061067c91906106c0565b5090565b50805461068c90610a97565b6000825580601f1061069e57506106bd565b601f0160209004906000526020600020908101906106bc91906106c0565b5b50565b5b808211156106d95760008160009055506001016106c1565b5090565b6000604051905090565b600080fd5b600080fd5b600080fd5b600080fd5b6000601f19601f8301169050919050565b7f4e487b7100000000000000000000000000000000000000000000000000000000600052604160045260246000fd5b610744826106fb565b810181811067ffffffffffffffff821117156107635761076261070c565b5b80604052505050565b60006107766106dd565b9050610782828261073b565b919050565b600067ffffffffffffffff8211156107a2576107a161070c565b5b6107ab826106fb565b9050602081019050919050565b82818337600083830152505050565b60006107da6107d584610787565b61076c565b9050828152602081018484840111156107f6576107f56106f6565b5b6108018482856107b8565b509392505050565b600082601f83011261081e5761081d6106f1565b5b813561082e8482602086016107c7565b91505092915050565b60006020828403121561084d5761084c6106e7565b5b600082013567ffffffffffffffff81111561086b5761086a6106ec565b5b61087784828501610809565b91505092915050565b600073ffffffffffffffffffffffffffffffffffffffff82169050919050565b60006108ab82610880565b9050919050565b6108bb816108a0565b81146108c657600080fd5b50565b6000813590506108d8816108b2565b92915050565b6000602082840312156108f4576108f36106e7565b5b6000610902848285016108c9565b91505092915050565b600081519050919050565b600082825260208201905092915050565b60005b8381101561094557808201518184015260208101905061092a565b83811115610954576000848401525b50505050565b60006109658261090b565b61096f8185610916565b935061097f818560208601610927565b610988816106fb565b840191505092915050565b600060208201905081810360008301526109ad818461095a565b905092915050565b60008115159050919050565b6109ca816109b5565b82525050565b60006020820190506109e560008301846109c1565b92915050565b600082825260208201905092915050565b7f496e76616c6964207075626c6963206b65790000000000000000000000000000600082015250565b6000610a326012836109eb565b9150610a3d826109fc565b602082019050919050565b60006020820190508181036000830152610a6181610a25565b9050919050565b7f4e487b7100000000000000000000000000000000000000000000000000000000600052602260045260246000fd5b60006002820490506001821680610aaf57607f821691505b602082108103610ac257610ac1610a68565b5b50919050565b7f5075626c6963206b6579206e6f74207265676973746572656400000000000000600082015250565b6000610afe6019836109eb565b9150610b0982610ac8565b602082019050919050565b60006020820190508181036000830152610b2d81610af1565b9050919050565b7f5075626c6963206b65792063616e6e6f7420626520656d707479000000000000600082015250565b6000610b6a601a836109eb565b9150610b7582610b34565b602082019050919050565b60006020820190508181036000830152610b9981610b5d565b9050919050565b7f5075626c6963206b657920616c72656164792072656769737465726564000000600082015250565b6000610bd6601d836109eb565b9150610be182610ba0565b602082019050919050565b60006020820190508181036000830152610c0581610bc9565b905091905056fea2646970667358221220933ba73024f2386968961be1412b92679d07194856673f16d931edaf9f74c51b64736f6c634300080d0033",
  "immutableReferences": {},
  "source": "// SPDX-License-Identifier: MIT\npragma solidity >=0.4.22 <0.9.0;\n\n/**\n * @title PKIAuth\n * @dev A smart contract for managing public key authentication.\n *      Users can register and verify their public keys to enable authentication.\n *     The user data along with Public key is stored here\n */\n\n//truffle console //await web3.eth.getAccounts();\n\ncontract PKIAuth {\n    struct User {\n        bool exists;\n        string username;\n        string email;\n        bytes[] publicKeys;\n    }\n    mapping(address => User) private users;\n    address[] private userAddresses;\n\n    //Events notify the applications about the change made to the contracts and applications which can be used to execute the dependent logic.\n    event PublicKeyRegistered(\n        address indexed user,\n        string email,\n        string username,\n        bytes publicKey\n    );\n    event PublicKeyUpdated(address indexed user, bytes newPublicKey);\n    event PublicKeyDeleted(address indexed user, string email, string username);\n\n    /**\n     * @dev Registers a public key for the sender.\n     * @param email The email of the user.\n     * @param username The username of the user.\n     * @param publicKey The public key to register (must be a valid ECDSA public key).\n     * Requirements:\n     * - `email` cannot be empty.\n     * - `username` cannot be empty.\n     * - `publicKey` cannot be empty.\n     */\n    function registerPublicKey(\n        string memory email,\n        string memory username,\n        bytes memory publicKey\n    ) public {\n        require(bytes(email).length > 0, \"Email cannot be empty\");\n        require(bytes(username).length > 0, \"Username cannot be empty\");\n        require(publicKey.length > 0, \"Public key cannot be empty\");\n        require(!users[msg.sender].exists, \"User already registered\");\n\n        users[msg.sender] = User({\n            exists: true,\n            username: username,\n            email: email,\n            publicKeys: new bytes[](0)\n        });\n        users[msg.sender].publicKeys.push(publicKey);\n\n        emit PublicKeyRegistered(msg.sender, email, username, publicKey);\n    }\n    // Update public key for an existing user\n    function updatePublicKey(bytes memory newPublicKey) public {\n        require(users[msg.sender].exists, \"User not registered\");\n        require(newPublicKey.length > 0, \"Invalid public key\");\n\n        users[msg.sender].publicKeys.push(newPublicKey);\n        emit PublicKeyUpdated(msg.sender, newPublicKey);\n    }\n    // Retrieve user details\n    function getUserDetails(\n        address user\n    ) public view returns (string memory, bytes[] memory) {\n        require(users[user].exists, \"User not found\");\n        return (users[user].username, users[user].publicKeys);\n    }\n    // Check if a user is registered\n    function isUserRegistered(address user) public view returns (bool) {\n        return users[user].exists;\n    }\n    //Function to delete a public key\n    function deletePublicKey() external {\n        require(users[msg.sender].exists, \"User not registered\");\n        // Store user data before deletion\n        string memory email = users[msg.sender].email;\n        string memory username = users[msg.sender].username;\n\n        emit PublicKeyDeleted(msg.sender, email, username);\n        delete users[msg.sender]; // Removes user from mapping\n    }\n\n    function getAllUsers() public view returns (address[] memory) {\n        return userAddresses; // Returns the list of user addresses\n    }\n}\n\ncontract PKIAuthold {\n    // Mapping to store public keys by user address (this is a hash table)\n    mapping(address => bytes) public publicKeys;\n\n    // Event emitted when a public key is registered\n    event PublicKeyRegistered(address indexed user, bytes publicKey);\n    event PublicKeyUpdated(address indexed user, bytes newPublicKey);\n    event PublicKeyDeleted(address indexed user);\n\n    /**\n     * @dev Registers a public key for the sender.\n     * @param publicKey The public key to register (must be a valid ECDSA public key).\n     * Requirements:\n     * - `publicKey` cannot be empty.\n     */\n    function registerPublicKey(bytes memory publicKey) public {\n        require(publicKey.length > 0, \"Public key cannot be empty\");\n        require(\n            publicKeys[msg.sender].length == 0,\n            \"Public key already registered\"\n        );\n\n        publicKeys[msg.sender] = publicKey;\n\n        emit PublicKeyRegistered(msg.sender, publicKey);\n    }\n\n    /**\n     * @dev Checks if a user has registered a public key.\n     * @param user The address of the user to verify.\n     * @return True if the user has a registered public key, false otherwise.\n     */\n    function isPublicKeyRegistered(address user) public view returns (bool) {\n        return publicKeys[user].length > 0;\n    }\n\n    //Function to update a public key\n    function updatePublicKey(bytes memory _newPublicKey) external {\n        require(_newPublicKey.length > 0, \"Invalid public key\");\n        require(publicKeys[msg.sender].length > 0, \"Public key not registered\");\n\n        publicKeys[msg.sender] = _newPublicKey;\n        emit PublicKeyUpdated(msg.sender, _newPublicKey);\n    }\n\n    //Function to delete a public key\n    function deletePublicKey() external {\n        require(publicKeys[msg.sender].length > 0, \"Public key not registered\");\n        delete publicKeys[msg.sender];\n        emit PublicKeyDeleted(msg.sender);\n    }\n}\n",
  "sourcePath": "D:\\Praveen\\Personal\\projects\\trustkey\\truffle-pkibckckn\\contracts\\PKIAuth.sol",
  "compiler": {
    "name": "solc",
    "version": "0.8.13+commit.abaa5c0e.Emscripten.clang"
  },
  "schemaVersion": "3.4.16",
  "updatedAt": "2025-04-22T06:17:36.249Z",
  "devdoc": {
    "kind": "dev",
    "methods": {
      "isPublicKeyRegistered(address)": {
        "details": "Checks if a user has registered a public key.",
        "params": {
          "user": "The address of the user to verify."
        },
        "returns": {
          "_0": "True if the user has a registered public key, false otherwise."
        }
      },
      "registerPublicKey(bytes)": {
        "details": "Registers a public key for the sender.",
        "params": {
          "publicKey": "The public key to register (must be a valid ECDSA public key). Requirements: - `publicKey` cannot be empty."
        }
      }
    },
    "version": 1
  },
  "userdoc": {
    "kind": "user",
    "methods": {},
    "version": 1
  }
}