{
  "contractName": "PKIAuth",
  "abi": [
    {
      "anonymous": false,
      "inputs": [
        {
          "indexed": true,
          "internalType": "address",
          "name": "user",
          "type": "address"
        },
        {
          "indexed": false,
          "internalType": "string",
          "name": "email",
          "type": "string"
        },
        {
          "indexed": false,
          "internalType": "string",
          "name": "username",
          "type": "string"
        }
      ],
      "name": "PublicKeyDeleted",
      "type": "event"
    },
    {
      "anonymous": false,
      "inputs": [
        {
          "indexed": true,
          "internalType": "address",
          "name": "user",
          "type": "address"
        },
        {
          "indexed": false,
          "internalType": "string",
          "name": "email",
          "type": "string"
        },
        {
          "indexed": false,
          "internalType": "string",
          "name": "username",
          "type": "string"
        },
        {
          "indexed": false,
          "internalType": "bytes",
          "name": "publicKey",
          "type": "bytes"
        }
      ],
      "name": "PublicKeyRegistered",
      "type": "event"
    },
    {
      "anonymous": false,
      "inputs": [
        {
          "indexed": true,
          "internalType": "address",
          "name": "user",
          "type": "address"
        },
        {
          "indexed": false,
          "internalType": "bytes",
          "name": "newPublicKey",
          "type": "bytes"
        }
      ],
      "name": "PublicKeyUpdated",
      "type": "event"
    },
    {
      "inputs": [
        {
          "internalType": "string",
          "name": "email",
          "type": "string"
        },
        {
          "internalType": "string",
          "name": "username",
          "type": "string"
        },
        {
          "internalType": "bytes",
          "name": "publicKey",
          "type": "bytes"
        }
      ],
      "name": "registerPublicKey",
      "outputs": [],
      "stateMutability": "nonpayable",
      "type": "function"
    },
    {
      "inputs": [
        {
          "internalType": "bytes",
          "name": "newPublicKey",
          "type": "bytes"
        }
      ],
      "name": "updatePublicKey",
      "outputs": [],
      "stateMutability": "nonpayable",
      "type": "function"
    },
    {
      "inputs": [
        {
          "internalType": "address",
          "name": "user",
          "type": "address"
        }
      ],
      "name": "getUserDetails",
      "outputs": [
        {
          "internalType": "string",
          "name": "",
          "type": "string"
        },
        {
          "internalType": "string",
          "name": "",
          "type": "string"
        },
        {
          "internalType": "bytes[]",
          "name": "",
          "type": "bytes[]"
        }
      ],
      "stateMutability": "view",
      "type": "function"
    },
    {
      "inputs": [
        {
          "internalType": "address",
          "name": "user",
          "type": "address"
        }
      ],
      "name": "isUserRegistered",
      "outputs": [
        {
          "internalType": "bool",
          "name": "",
          "type": "bool"
        }
      ],
      "stateMutability": "view",
      "type": "function"
    },
    {
      "inputs": [],
      "name": "deletePublicKey",
      "outputs": [],
      "stateMutability": "nonpayable",
      "type": "function"
    },
    {
      "inputs": [],
      "name": "getAllUsers",
      "outputs": [
        {
          "internalType": "address[]",
          "name": "",
          "type": "address[]"
        }
      ],
      "stateMutability": "view",
      "type": "function"
    }
  ],
  "bytecode": "0x608060405234801561001057600080fd5b50611a93806100206000396000f3fe608060405234801561001057600080fd5b50600436106100625760003560e01c8063163f75221461006757806374e66d1014610097578063b2490982146100b3578063cc3d967b146100cf578063e01fe5a914610101578063e2842d791461010b575b600080fd5b610081600480360381019061007c9190611015565b610129565b60405161008e919061105d565b60405180910390f35b6100b160048036038101906100ac91906111be565b610181565b005b6100cd60048036038101906100c891906112a8565b61031f565b005b6100e960048036038101906100e49190611015565b610676565b6040516100f8939291906114ee565b60405180910390f35b6101096109c4565b005b610113610cc7565b60405161012091906115f8565b60405180910390f35b60008060008373ffffffffffffffffffffffffffffffffffffffff1673ffffffffffffffffffffffffffffffffffffffff16815260200190815260200160002060000160009054906101000a900460ff169050919050565b6000803373ffffffffffffffffffffffffffffffffffffffff1673ffffffffffffffffffffffffffffffffffffffff16815260200190815260200160002060000160009054906101000a900460ff1661020f576040517f08c379a000000000000000000000000000000000000000000000000000000000815260040161020690611666565b60405180910390fd5b6000815111610253576040517f08c379a000000000000000000000000000000000000000000000000000000000815260040161024a906116d2565b60405180910390fd5b6000803373ffffffffffffffffffffffffffffffffffffffff1673ffffffffffffffffffffffffffffffffffffffff168152602001908152602001600020600301819080600181540180825580915050600190039060005260206000200160009091909190915090805190602001906102cd929190610d55565b503373ffffffffffffffffffffffffffffffffffffffff167ff957f077e5d2d5a2c4a2793d09cb9c5d45b475d07bbd0b82abf99a5669b95e0882604051610314919061173c565b60405180910390a250565b6000835111610363576040517f08c379a000000000000000000000000000000000000000000000000000000000815260040161035a906117aa565b60405180910390fd5b60008251116103a7576040517f08c379a000000000000000000000000000000000000000000000000000000000815260040161039e90611816565b60405180910390fd5b60008151116103eb576040517f08c379a00000000000000000000000000000000000000000000000000000000081526004016103e290611882565b60405180910390fd5b6000803373ffffffffffffffffffffffffffffffffffffffff1673ffffffffffffffffffffffffffffffffffffffff16815260200190815260200160002060000160009054906101000a900460ff161561047a576040517f08c379a0000000000000000000000000000000000000000000000000000000008152600401610471906118ee565b60405180910390fd5b6040518060800160405280600115158152602001838152602001848152602001600067ffffffffffffffff8111156104b5576104b4611093565b5b6040519080825280602002602001820160405280156104e857816020015b60608152602001906001900390816104d35790505b508152506000803373ffffffffffffffffffffffffffffffffffffffff1673ffffffffffffffffffffffffffffffffffffffff16815260200190815260200160002060008201518160000160006101000a81548160ff0219169083151502179055506020820151816001019080519060200190610566929190610ddb565b506040820151816002019080519060200190610583929190610ddb565b5060608201518160030190805190602001906105a0929190610e61565b509050506000803373ffffffffffffffffffffffffffffffffffffffff1673ffffffffffffffffffffffffffffffffffffffff1681526020019081526020016000206003018190806001815401808255809150506001900390600052602060002001600090919091909150908051906020019061061e929190610d55565b503373ffffffffffffffffffffffffffffffffffffffff167f53aa51165b210ef6b95e108a6eb65bd6af666da3e600866bdce0276d9f093bec8484846040516106699392919061190e565b60405180910390a2505050565b60608060606000808573ffffffffffffffffffffffffffffffffffffffff1673ffffffffffffffffffffffffffffffffffffffff16815260200190815260200160002060000160009054906101000a900460ff16610709576040517f08c379a0000000000000000000000000000000000000000000000000000000008152600401610700906119a6565b60405180910390fd5b6000808573ffffffffffffffffffffffffffffffffffffffff1673ffffffffffffffffffffffffffffffffffffffff1681526020019081526020016000206001016000808673ffffffffffffffffffffffffffffffffffffffff1673ffffffffffffffffffffffffffffffffffffffff1681526020019081526020016000206002016000808773ffffffffffffffffffffffffffffffffffffffff1673ffffffffffffffffffffffffffffffffffffffff1681526020019081526020016000206003018280546107d8906119f5565b80601f0160208091040260200160405190810160405280929190818152602001828054610804906119f5565b80156108515780601f1061082657610100808354040283529160200191610851565b820191906000526020600020905b81548152906001019060200180831161083457829003601f168201915b50505050509250818054610864906119f5565b80601f0160208091040260200160405190810160405280929190818152602001828054610890906119f5565b80156108dd5780601f106108b2576101008083540402835291602001916108dd565b820191906000526020600020905b8154815290600101906020018083116108c057829003601f168201915b5050505050915080805480602002602001604051908101604052809291908181526020016000905b828210156109b1578382906000526020600020018054610924906119f5565b80601f0160208091040260200160405190810160405280929190818152602001828054610950906119f5565b801561099d5780601f106109725761010080835404028352916020019161099d565b820191906000526020600020905b81548152906001019060200180831161098057829003601f168201915b505050505081526020019060010190610905565b5050505090509250925092509193909250565b6000803373ffffffffffffffffffffffffffffffffffffffff1673ffffffffffffffffffffffffffffffffffffffff16815260200190815260200160002060000160009054906101000a900460ff16610a52576040517f08c379a0000000000000000000000000000000000000000000000000000000008152600401610a4990611666565b60405180910390fd5b60008060003373ffffffffffffffffffffffffffffffffffffffff1673ffffffffffffffffffffffffffffffffffffffff1681526020019081526020016000206002018054610aa0906119f5565b80601f0160208091040260200160405190810160405280929190818152602001828054610acc906119f5565b8015610b195780601f10610aee57610100808354040283529160200191610b19565b820191906000526020600020905b815481529060010190602001808311610afc57829003601f168201915b5050505050905060008060003373ffffffffffffffffffffffffffffffffffffffff1673ffffffffffffffffffffffffffffffffffffffff1681526020019081526020016000206001018054610b6e906119f5565b80601f0160208091040260200160405190810160405280929190818152602001828054610b9a906119f5565b8015610be75780601f10610bbc57610100808354040283529160200191610be7565b820191906000526020600020905b815481529060010190602001808311610bca57829003601f168201915b505050505090503373ffffffffffffffffffffffffffffffffffffffff167ff5d679eb76da07513231fb466c28b20566df5dd5236a4cb4f12ab96773cb4ed78383604051610c36929190611a26565b60405180910390a26000803373ffffffffffffffffffffffffffffffffffffffff1673ffffffffffffffffffffffffffffffffffffffff168152602001908152602001600020600080820160006101000a81549060ff0219169055600182016000610ca19190610ec1565b600282016000610cb19190610ec1565b600382016000610cc19190610f01565b50505050565b60606001805480602002602001604051908101604052809291908181526020018280548015610d4b57602002820191906000526020600020905b8160009054906101000a900473ffffffffffffffffffffffffffffffffffffffff1673ffffffffffffffffffffffffffffffffffffffff1681526020019060010190808311610d01575b5050505050905090565b828054610d61906119f5565b90600052602060002090601f016020900481019282610d835760008555610dca565b82601f10610d9c57805160ff1916838001178555610dca565b82800160010185558215610dca579182015b82811115610dc9578251825591602001919060010190610dae565b5b509050610dd79190610f22565b5090565b828054610de7906119f5565b90600052602060002090601f016020900481019282610e095760008555610e50565b82601f10610e2257805160ff1916838001178555610e50565b82800160010185558215610e50579182015b82811115610e4f578251825591602001919060010190610e34565b5b509050610e5d9190610f22565b5090565b828054828255906000526020600020908101928215610eb0579160200282015b82811115610eaf578251829080519060200190610e9f929190610d55565b5091602001919060010190610e81565b5b509050610ebd9190610f3f565b5090565b508054610ecd906119f5565b6000825580601f10610edf5750610efe565b601f016020900490600052602060002090810190610efd9190610f22565b5b50565b5080546000825590600052602060002090810190610f1f9190610f3f565b50565b5b80821115610f3b576000816000905550600101610f23565b5090565b5b80821115610f5f5760008181610f569190610f63565b50600101610f40565b5090565b508054610f6f906119f5565b6000825580601f10610f815750610fa0565b601f016020900490600052602060002090810190610f9f9190610f22565b5b50565b6000604051905090565b600080fd5b600080fd5b600073ffffffffffffffffffffffffffffffffffffffff82169050919050565b6000610fe282610fb7565b9050919050565b610ff281610fd7565b8114610ffd57600080fd5b50565b60008135905061100f81610fe9565b92915050565b60006020828403121561102b5761102a610fad565b5b600061103984828501611000565b91505092915050565b60008115159050919050565b61105781611042565b82525050565b6000602082019050611072600083018461104e565b92915050565b600080fd5b600080fd5b6000601f19601f8301169050919050565b7f4e487b7100000000000000000000000000000000000000000000000000000000600052604160045260246000fd5b6110cb82611082565b810181811067ffffffffffffffff821117156110ea576110e9611093565b5b80604052505050565b60006110fd610fa3565b905061110982826110c2565b919050565b600067ffffffffffffffff82111561112957611128611093565b5b61113282611082565b9050602081019050919050565b82818337600083830152505050565b600061116161115c8461110e565b6110f3565b90508281526020810184848401111561117d5761117c61107d565b5b61118884828561113f565b509392505050565b600082601f8301126111a5576111a4611078565b5b81356111b584826020860161114e565b91505092915050565b6000602082840312156111d4576111d3610fad565b5b600082013567ffffffffffffffff8111156111f2576111f1610fb2565b5b6111fe84828501611190565b91505092915050565b600067ffffffffffffffff82111561122257611221611093565b5b61122b82611082565b9050602081019050919050565b600061124b61124684611207565b6110f3565b9050828152602081018484840111156112675761126661107d565b5b61127284828561113f565b509392505050565b600082601f83011261128f5761128e611078565b5b813561129f848260208601611238565b91505092915050565b6000806000606084860312156112c1576112c0610fad565b5b600084013567ffffffffffffffff8111156112df576112de610fb2565b5b6112eb8682870161127a565b935050602084013567ffffffffffffffff81111561130c5761130b610fb2565b5b6113188682870161127a565b925050604084013567ffffffffffffffff81111561133957611338610fb2565b5b61134586828701611190565b9150509250925092565b600081519050919050565b600082825260208201905092915050565b60005b8381101561138957808201518184015260208101905061136e565b83811115611398576000848401525b50505050565b60006113a98261134f565b6113b3818561135a565b93506113c381856020860161136b565b6113cc81611082565b840191505092915050565b600081519050919050565b600082825260208201905092915050565b6000819050602082019050919050565b600081519050919050565b600082825260208201905092915050565b600061142a82611403565b611434818561140e565b935061144481856020860161136b565b61144d81611082565b840191505092915050565b6000611464838361141f565b905092915050565b6000602082019050919050565b6000611484826113d7565b61148e81856113e2565b9350836020820285016114a0856113f3565b8060005b858110156114dc57848403895281516114bd8582611458565b94506114c88361146c565b925060208a019950506001810190506114a4565b50829750879550505050505092915050565b60006060820190508181036000830152611508818661139e565b9050818103602083015261151c818561139e565b905081810360408301526115308184611479565b9050949350505050565b600081519050919050565b600082825260208201905092915050565b6000819050602082019050919050565b61156f81610fd7565b82525050565b60006115818383611566565b60208301905092915050565b6000602082019050919050565b60006115a58261153a565b6115af8185611545565b93506115ba83611556565b8060005b838110156115eb5781516115d28882611575565b97506115dd8361158d565b9250506001810190506115be565b5085935050505092915050565b60006020820190508181036000830152611612818461159a565b905092915050565b7f55736572206e6f74207265676973746572656400000000000000000000000000600082015250565b600061165060138361135a565b915061165b8261161a565b602082019050919050565b6000602082019050818103600083015261167f81611643565b9050919050565b7f496e76616c6964207075626c6963206b65790000000000000000000000000000600082015250565b60006116bc60128361135a565b91506116c782611686565b602082019050919050565b600060208201905081810360008301526116eb816116af565b9050919050565b600082825260208201905092915050565b600061170e82611403565b61171881856116f2565b935061172881856020860161136b565b61173181611082565b840191505092915050565b600060208201905081810360008301526117568184611703565b905092915050565b7f456d61696c2063616e6e6f7420626520656d7074790000000000000000000000600082015250565b600061179460158361135a565b915061179f8261175e565b602082019050919050565b600060208201905081810360008301526117c381611787565b9050919050565b7f557365726e616d652063616e6e6f7420626520656d7074790000000000000000600082015250565b600061180060188361135a565b915061180b826117ca565b602082019050919050565b6000602082019050818103600083015261182f816117f3565b9050919050565b7f5075626c6963206b65792063616e6e6f7420626520656d707479000000000000600082015250565b600061186c601a8361135a565b915061187782611836565b602082019050919050565b6000602082019050818103600083015261189b8161185f565b9050919050565b7f5573657220616c72656164792072656769737465726564000000000000000000600082015250565b60006118d860178361135a565b91506118e3826118a2565b602082019050919050565b60006020820190508181036000830152611907816118cb565b9050919050565b60006060820190508181036000830152611928818661139e565b9050818103602083015261193c818561139e565b905081810360408301526119508184611703565b9050949350505050565b7f55736572206e6f7420666f756e64000000000000000000000000000000000000600082015250565b6000611990600e8361135a565b915061199b8261195a565b602082019050919050565b600060208201905081810360008301526119bf81611983565b9050919050565b7f4e487b7100000000000000000000000000000000000000000000000000000000600052602260045260246000fd5b60006002820490506001821680611a0d57607f821691505b602082108103611a2057611a1f6119c6565b5b50919050565b60006040820190508181036000830152611a40818561139e565b90508181036020830152611a54818461139e565b9050939250505056fea26469706673582212207ea4a96f1b9d475b7acd1641e5915c2800d6ac519da2515f8e1237bf46f25a8264736f6c634300080d0033",
  "immutableReferences": {},
  "source": "// SPDX-License-Identifier: MIT\npragma solidity >=0.4.22 <0.9.0;\n\n/**\n * @title PKIAuth\n * @dev A smart contract for managing public key authentication.\n *      Users can register and verify their public keys to enable authentication.\n *     The user data along with Public key is stored here\n */\n\n//truffle console //await web3.eth.getAccounts();\n\ncontract PKIAuth {\n    struct User {\n        bool exists;\n        string username;\n        string email;\n        bytes[] publicKeys;\n    }\n    mapping(address => User) private users;\n    address[] private userAddresses;\n\n    //Events notify the applications about the change made to the contracts and applications which can be used to execute the dependent logic.\n    event PublicKeyRegistered(\n        address indexed user,\n        string email,\n        string username,\n        bytes publicKey\n    );\n    event PublicKeyUpdated(address indexed user, bytes newPublicKey);\n    event PublicKeyDeleted(address indexed user, string email, string username);\n\n    /**\n     * @dev Registers a public key for the sender.\n     * @param email The email of the user.\n     * @param username The username of the user.\n     * @param publicKey The public key to register (must be a valid ECDSA public key).\n     * Requirements:\n     * - `email` cannot be empty.\n     * - `username` cannot be empty.\n     * - `publicKey` cannot be empty.\n     */\n    function registerPublicKey(\n        string memory email,\n        string memory username,\n        bytes memory publicKey\n    ) public {\n        require(bytes(email).length > 0, \"Email cannot be empty\");\n        require(bytes(username).length > 0, \"Username cannot be empty\");\n        require(publicKey.length > 0, \"Public key cannot be empty\");\n        require(!users[msg.sender].exists, \"User already registered\");\n\n        users[msg.sender] = User({\n            exists: true,\n            username: username,\n            email: email,\n            publicKeys: new bytes[](0)\n        });\n        users[msg.sender].publicKeys.push(publicKey);\n\n        emit PublicKeyRegistered(msg.sender, email, username, publicKey);\n    }\n    // Update public key for an existing user\n    function updatePublicKey(bytes memory newPublicKey) public {\n        require(users[msg.sender].exists, \"User not registered\");\n        require(newPublicKey.length > 0, \"Invalid public key\");\n\n        users[msg.sender].publicKeys.push(newPublicKey);\n        emit PublicKeyUpdated(msg.sender, newPublicKey);\n    }\n    // Retrieve user details\n    function getUserDetails(\n        address user\n    ) public view returns (string memory, string memory, bytes[] memory) {\n        require(users[user].exists, \"User not found\");\n        return (\n            users[user].username,\n            users[user].email,\n            users[user].publicKeys\n        );\n    }\n    // Check if a user is registered\n    function isUserRegistered(address user) public view returns (bool) {\n        return users[user].exists;\n    }\n    //Function to delete a public key\n    function deletePublicKey() external {\n        require(users[msg.sender].exists, \"User not registered\");\n        // Store user data before deletion\n        string memory email = users[msg.sender].email;\n        string memory username = users[msg.sender].username;\n\n        emit PublicKeyDeleted(msg.sender, email, username);\n        delete users[msg.sender]; // Removes user from mapping\n    }\n\n    function getAllUsers() public view returns (address[] memory) {\n        return userAddresses; // Returns the list of user addresses\n    }\n}\n",
  "sourcePath": "D:\\Praveen\\Personal\\projects\\trustkey\\truffle-pkibckckn\\contracts\\PKIAuth.sol",
  "compiler": {
    "name": "solc",
    "version": "0.8.13+commit.abaa5c0e.Emscripten.clang"
  },
  "schemaVersion": "3.4.16",
  "updatedAt": "2025-05-24T02:41:09.678Z",
  "devdoc": {
    "details": "A smart contract for managing public key authentication.      Users can register and verify their public keys to enable authentication.     The user data along with Public key is stored here",
    "kind": "dev",
    "methods": {
      "registerPublicKey(string,string,bytes)": {
        "details": "Registers a public key for the sender.",
        "params": {
          "email": "The email of the user.",
          "publicKey": "The public key to register (must be a valid ECDSA public key). Requirements: - `email` cannot be empty. - `username` cannot be empty. - `publicKey` cannot be empty.",
          "username": "The username of the user."
        }
      }
    },
    "title": "PKIAuth",
    "version": 1
  },
  "userdoc": {
    "kind": "user",
    "methods": {},
    "version": 1
  }
}