{
  "contractName": "UserCertificateManager",
  "abi": [
    {
      "anonymous": false,
      "inputs": [
        {
          "indexed": true,
          "internalType": "address",
          "name": "user",
          "type": "address"
        },
        {
          "indexed": false,
          "internalType": "string",
          "name": "serialNumber",
          "type": "string"
        }
      ],
      "name": "CertificateIssued",
      "type": "event"
    },
    {
      "anonymous": false,
      "inputs": [
        {
          "indexed": true,
          "internalType": "address",
          "name": "user",
          "type": "address"
        },
        {
          "indexed": false,
          "internalType": "string",
          "name": "reason",
          "type": "string"
        }
      ],
      "name": "CertificateRevoked",
      "type": "event"
    },
    {
      "anonymous": false,
      "inputs": [
        {
          "indexed": true,
          "internalType": "address",
          "name": "user",
          "type": "address"
        },
        {
          "indexed": false,
          "internalType": "string",
          "name": "keyData",
          "type": "string"
        }
      ],
      "name": "PublicKeyAdded",
      "type": "event"
    },
    {
      "anonymous": false,
      "inputs": [
        {
          "indexed": true,
          "internalType": "address",
          "name": "user",
          "type": "address"
        },
        {
          "indexed": false,
          "internalType": "uint256",
          "name": "keyIndex",
          "type": "uint256"
        }
      ],
      "name": "PublicKeyDeactivated",
      "type": "event"
    },
    {
      "anonymous": false,
      "inputs": [
        {
          "indexed": true,
          "internalType": "address",
          "name": "user",
          "type": "address"
        },
        {
          "indexed": false,
          "internalType": "string",
          "name": "keyData",
          "type": "string"
        }
      ],
      "name": "PublicKeyUpdated",
      "type": "event"
    },
    {
      "anonymous": false,
      "inputs": [
        {
          "indexed": true,
          "internalType": "address",
          "name": "user",
          "type": "address"
        },
        {
          "indexed": false,
          "internalType": "string",
          "name": "email",
          "type": "string"
        },
        {
          "indexed": false,
          "internalType": "string",
          "name": "username",
          "type": "string"
        }
      ],
      "name": "UserRegistered",
      "type": "event"
    },
    {
      "inputs": [
        {
          "internalType": "address",
          "name": "",
          "type": "address"
        }
      ],
      "name": "activeKeyIndex",
      "outputs": [
        {
          "internalType": "uint256",
          "name": "",
          "type": "uint256"
        }
      ],
      "stateMutability": "view",
      "type": "function",
      "constant": true
    },
    {
      "inputs": [
        {
          "internalType": "bytes",
          "name": "",
          "type": "bytes"
        }
      ],
      "name": "publicKeyToAddress",
      "outputs": [
        {
          "internalType": "address",
          "name": "",
          "type": "address"
        }
      ],
      "stateMutability": "view",
      "type": "function",
      "constant": true
    },
    {
      "inputs": [
        {
          "internalType": "address",
          "name": "",
          "type": "address"
        }
      ],
      "name": "userCertificates",
      "outputs": [
        {
          "internalType": "string",
          "name": "serialNumber",
          "type": "string"
        },
        {
          "internalType": "string",
          "name": "country",
          "type": "string"
        },
        {
          "internalType": "string",
          "name": "state",
          "type": "string"
        },
        {
          "internalType": "string",
          "name": "locality",
          "type": "string"
        },
        {
          "internalType": "string",
          "name": "organization",
          "type": "string"
        },
        {
          "internalType": "string",
          "name": "commonName",
          "type": "string"
        },
        {
          "internalType": "string",
          "name": "publicKey",
          "type": "string"
        },
        {
          "internalType": "string",
          "name": "signatureAlgorithm",
          "type": "string"
        },
        {
          "internalType": "uint256",
          "name": "validFrom",
          "type": "uint256"
        },
        {
          "internalType": "uint256",
          "name": "validTo",
          "type": "uint256"
        },
        {
          "internalType": "bool",
          "name": "isRevoked",
          "type": "bool"
        }
      ],
      "stateMutability": "view",
      "type": "function",
      "constant": true
    },
    {
      "inputs": [
        {
          "internalType": "address",
          "name": "",
          "type": "address"
        },
        {
          "internalType": "uint256",
          "name": "",
          "type": "uint256"
        }
      ],
      "name": "userPublicKeys",
      "outputs": [
        {
          "internalType": "string",
          "name": "keyData",
          "type": "string"
        },
        {
          "internalType": "bool",
          "name": "isActive",
          "type": "bool"
        },
        {
          "internalType": "uint256",
          "name": "addedAt",
          "type": "uint256"
        }
      ],
      "stateMutability": "view",
      "type": "function",
      "constant": true
    },
    {
      "inputs": [
        {
          "internalType": "address",
          "name": "",
          "type": "address"
        }
      ],
      "name": "users",
      "outputs": [
        {
          "internalType": "bool",
          "name": "exists",
          "type": "bool"
        },
        {
          "internalType": "string",
          "name": "username",
          "type": "string"
        },
        {
          "internalType": "string",
          "name": "email",
          "type": "string"
        },
        {
          "internalType": "bytes",
          "name": "publicKey",
          "type": "bytes"
        }
      ],
      "stateMutability": "view",
      "type": "function",
      "constant": true
    },
    {
      "inputs": [
        {
          "internalType": "string",
          "name": "email",
          "type": "string"
        },
        {
          "internalType": "string",
          "name": "username",
          "type": "string"
        },
        {
          "internalType": "bytes",
          "name": "publicKey",
          "type": "bytes"
        }
      ],
      "name": "registerUser",
      "outputs": [],
      "stateMutability": "nonpayable",
      "type": "function"
    },
    {
      "inputs": [
        {
          "internalType": "string",
          "name": "_serialNumber",
          "type": "string"
        },
        {
          "internalType": "string",
          "name": "_country",
          "type": "string"
        },
        {
          "internalType": "string",
          "name": "_state",
          "type": "string"
        },
        {
          "internalType": "string",
          "name": "_locality",
          "type": "string"
        },
        {
          "internalType": "string",
          "name": "_organization",
          "type": "string"
        },
        {
          "internalType": "string",
          "name": "_commonName",
          "type": "string"
        },
        {
          "internalType": "string",
          "name": "_publicKey",
          "type": "string"
        },
        {
          "internalType": "string",
          "name": "_signatureAlgorithm",
          "type": "string"
        },
        {
          "internalType": "uint256",
          "name": "_validDays",
          "type": "uint256"
        }
      ],
      "name": "issueCertificate",
      "outputs": [],
      "stateMutability": "nonpayable",
      "type": "function"
    },
    {
      "inputs": [
        {
          "internalType": "string",
          "name": "_keyData",
          "type": "string"
        }
      ],
      "name": "addPublicKey",
      "outputs": [],
      "stateMutability": "nonpayable",
      "type": "function"
    },
    {
      "inputs": [
        {
          "internalType": "uint256",
          "name": "_keyIndex",
          "type": "uint256"
        }
      ],
      "name": "deactivatePublicKey",
      "outputs": [],
      "stateMutability": "nonpayable",
      "type": "function"
    },
    {
      "inputs": [
        {
          "internalType": "string",
          "name": "_reason",
          "type": "string"
        }
      ],
      "name": "revokeCertificate",
      "outputs": [],
      "stateMutability": "nonpayable",
      "type": "function"
    },
    {
      "inputs": [
        {
          "internalType": "address",
          "name": "_user",
          "type": "address"
        }
      ],
      "name": "getActivePublicKey",
      "outputs": [
        {
          "internalType": "string",
          "name": "",
          "type": "string"
        }
      ],
      "stateMutability": "view",
      "type": "function",
      "constant": true
    },
    {
      "inputs": [
        {
          "internalType": "address",
          "name": "_user",
          "type": "address"
        }
      ],
      "name": "getUserPublicKeys",
      "outputs": [
        {
          "components": [
            {
              "internalType": "string",
              "name": "keyData",
              "type": "string"
            },
            {
              "internalType": "bool",
              "name": "isActive",
              "type": "bool"
            },
            {
              "internalType": "uint256",
              "name": "addedAt",
              "type": "uint256"
            }
          ],
          "internalType": "struct UserCertificateManager.PublicKey[]",
          "name": "",
          "type": "tuple[]"
        }
      ],
      "stateMutability": "view",
      "type": "function",
      "constant": true
    },
    {
      "inputs": [
        {
          "internalType": "address",
          "name": "_user",
          "type": "address"
        }
      ],
      "name": "getCertificateInfo",
      "outputs": [
        {
          "internalType": "string",
          "name": "serialNumber",
          "type": "string"
        },
        {
          "internalType": "string",
          "name": "commonName",
          "type": "string"
        },
        {
          "internalType": "string",
          "name": "organization",
          "type": "string"
        },
        {
          "internalType": "uint256",
          "name": "validFrom",
          "type": "uint256"
        },
        {
          "internalType": "uint256",
          "name": "validTo",
          "type": "uint256"
        },
        {
          "internalType": "bool",
          "name": "isRevoked",
          "type": "bool"
        }
      ],
      "stateMutability": "view",
      "type": "function",
      "constant": true
    },
    {
      "inputs": [
        {
          "internalType": "address",
          "name": "user",
          "type": "address"
        }
      ],
      "name": "generateChallenge",
      "outputs": [
        {
          "internalType": "bytes",
          "name": "challenge",
          "type": "bytes"
        }
      ],
      "stateMutability": "view",
      "type": "function",
      "constant": true
    },
    {
      "inputs": [
        {
          "internalType": "bytes32",
          "name": "messageHash",
          "type": "bytes32"
        },
        {
          "internalType": "bytes",
          "name": "signature",
          "type": "bytes"
        },
        {
          "internalType": "address",
          "name": "signer",
          "type": "address"
        }
      ],
      "name": "verifySignature",
      "outputs": [
        {
          "internalType": "bool",
          "name": "",
          "type": "bool"
        }
      ],
      "stateMutability": "view",
      "type": "function",
      "constant": true
    }
  ],
  "bytecode": "0x608060405234801561001057600080fd5b506144e2806100206000396000f3fe608060405234801561001057600080fd5b50600436106100f55760003560e01c80636c433b6111610097578063ce09197e11610066578063ce09197e146102bf578063d31253cb146102db578063ebbcf74f14610315578063f62a2a7e1461034a576100f5565b80636c433b6114610224578063a87430ba14610240578063c84450f914610273578063cdd4139b146102a3576100f5565b806343ae656c116100d357806343ae656c146101785780635ea975db146101a85780635f0b3249146101c4578063645e1415146101f4576100f5565b806310eefaf1146100fa578063142e15421461012c57806331cd419914610148575b600080fd5b610114600480360381019061010f9190612dc5565b61037a565b60405161012393929190612ec8565b60405180910390f35b6101466004803603810190610141919061303b565b610456565b005b610162600480360381019061015d919061315b565b61078d565b60405161016f91906131ca565b60405180910390f35b610192600480360381019061018d91906131e5565b610890565b60405161019f919061323d565b60405180910390f35b6101c260048036038101906101bd9190613258565b6108d9565b005b6101de60048036038101906101d991906132ff565b610de6565b6040516101eb919061332c565b60405180910390f35b61020e600480360381019061020991906132ff565b6110e1565b60405161021b91906134c8565b60405180910390f35b61023e600480360381019061023991906134ea565b6112c4565b005b61025a600480360381019061025591906132ff565b611698565b60405161026a94939291906136e9565b60405180910390f35b61028d600480360381019061028891906132ff565b61186d565b60405161029a9190613743565b60405180910390f35b6102bd60048036038101906102b89190613765565b611957565b005b6102d960048036038101906102d4919061303b565b611ddb565b005b6102f560048036038101906102f091906132ff565b612065565b60405161030c9b9a99989796959493929190613792565b60405180910390f35b61032f600480360381019061032a91906132ff565b61250c565b60405161034196959493929190613875565b60405180910390f35b610364600480360381019061035f91906132ff565b612ae9565b60405161037191906138eb565b60405180910390f35b6003602052816000526040600020818154811061039657600080fd5b9060005260206000209060030201600091509150508060000180546103ba90613935565b80601f01602080910402602001604051908101604052809291908181526020018280546103e690613935565b80156104335780601f1061040857610100808354040283529160200191610433565b820191906000526020600020905b81548152906001019060200180831161041657829003601f168201915b5050505050908060010160009054906101000a900460ff16908060020154905083565b6000803373ffffffffffffffffffffffffffffffffffffffff1673ffffffffffffffffffffffffffffffffffffffff16815260200190815260200160002060000160009054906101000a900460ff166104e4576040517f08c379a00000000000000000000000000000000000000000000000000000000081526004016104db906139b2565b60405180910390fd5b6000600260003373ffffffffffffffffffffffffffffffffffffffff1673ffffffffffffffffffffffffffffffffffffffff168152602001908152602001600020600001805461053390613935565b905003610575576040517f08c379a000000000000000000000000000000000000000000000000000000000815260040161056c90613a1e565b60405180910390fd5b600260003373ffffffffffffffffffffffffffffffffffffffff1673ffffffffffffffffffffffffffffffffffffffff168152602001908152602001600020600a0160009054906101000a900460ff1615610605576040517f08c379a00000000000000000000000000000000000000000000000000000000081526004016105fc90613a8a565b60405180910390fd5b6001600260003373ffffffffffffffffffffffffffffffffffffffff1673ffffffffffffffffffffffffffffffffffffffff168152602001908152602001600020600a0160006101000a81548160ff02191690831515021790555060005b600360003373ffffffffffffffffffffffffffffffffffffffff1673ffffffffffffffffffffffffffffffffffffffff1681526020019081526020016000208054905081101561073b576000600360003373ffffffffffffffffffffffffffffffffffffffff1673ffffffffffffffffffffffffffffffffffffffff1681526020019081526020016000208281548110610700576106ff613aaa565b5b906000526020600020906003020160010160006101000a81548160ff021916908315150217905550808061073390613b08565b915050610663565b503373ffffffffffffffffffffffffffffffffffffffff167fea1842a7488747c3224eb14e1621c64aa824ec84dadb16e6122fa8223086d04882604051610782919061332c565b60405180910390a250565b60008060008373ffffffffffffffffffffffffffffffffffffffff1673ffffffffffffffffffffffffffffffffffffffff16815260200190815260200160002060000160009054906101000a900460ff1661081d576040517f08c379a000000000000000000000000000000000000000000000000000000000815260040161081490613b9c565b60405180910390fd5b6000846040516020016108309190613c34565b60405160208183030381529060405280519060200120905060006108548286612b01565b90508373ffffffffffffffffffffffffffffffffffffffff168173ffffffffffffffffffffffffffffffffffffffff1614925050509392505050565b6001818051602081018201805184825260208301602085012081835280955050505050506000915054906101000a900473ffffffffffffffffffffffffffffffffffffffff1681565b600083511161091d576040517f08c379a000000000000000000000000000000000000000000000000000000000815260040161091490613ca6565b60405180910390fd5b6000825111610961576040517f08c379a000000000000000000000000000000000000000000000000000000000815260040161095890613d12565b60405180910390fd5b60008151116109a5576040517f08c379a000000000000000000000000000000000000000000000000000000000815260040161099c90613d7e565b60405180910390fd5b6000803373ffffffffffffffffffffffffffffffffffffffff1673ffffffffffffffffffffffffffffffffffffffff16815260200190815260200160002060000160009054906101000a900460ff1615610a34576040517f08c379a0000000000000000000000000000000000000000000000000000000008152600401610a2b90613dea565b60405180910390fd5b600073ffffffffffffffffffffffffffffffffffffffff16600182604051610a5c9190613e46565b908152602001604051809103902060009054906101000a900473ffffffffffffffffffffffffffffffffffffffff1673ffffffffffffffffffffffffffffffffffffffff1614610ae1576040517f08c379a0000000000000000000000000000000000000000000000000000000008152600401610ad890613ea9565b60405180910390fd5b6040518060800160405280600115158152602001838152602001848152602001828152506000803373ffffffffffffffffffffffffffffffffffffffff1673ffffffffffffffffffffffffffffffffffffffff16815260200190815260200160002060008201518160000160006101000a81548160ff0219169083151502179055506020820151816001019080519060200190610b7f929190612bf4565b506040820151816002019080519060200190610b9c929190612bf4565b506060820151816003019080519060200190610bb9929190612c7a565b5090505033600182604051610bce9190613e46565b908152602001604051809103902060006101000a81548173ffffffffffffffffffffffffffffffffffffffff021916908373ffffffffffffffffffffffffffffffffffffffff1602179055506005339080600181540180825580915050600190039060005260206000200160009091909190916101000a81548173ffffffffffffffffffffffffffffffffffffffff021916908373ffffffffffffffffffffffffffffffffffffffff160217905550600360003373ffffffffffffffffffffffffffffffffffffffff1673ffffffffffffffffffffffffffffffffffffffff16815260200190815260200160002060405180606001604052808381526020016001151581526020014281525090806001815401808255809150506001900390600052602060002090600302016000909190919091506000820151816000019080519060200190610d1f929190612bf4565b5060208201518160010160006101000a81548160ff0219169083151502179055506040820151816002015550506000600460003373ffffffffffffffffffffffffffffffffffffffff1673ffffffffffffffffffffffffffffffffffffffff168152602001908152602001600020819055503373ffffffffffffffffffffffffffffffffffffffff167f92822564bab8864c3a47b34e8d23fbce5c46234eb5da261f94087b995ac0f33b8484604051610dd9929190613ec9565b60405180910390a2505050565b60606000808373ffffffffffffffffffffffffffffffffffffffff1673ffffffffffffffffffffffffffffffffffffffff16815260200190815260200160002060000160009054906101000a900460ff16610e76576040517f08c379a0000000000000000000000000000000000000000000000000000000008152600401610e6d906139b2565b60405180910390fd5b6000600460008473ffffffffffffffffffffffffffffffffffffffff1673ffffffffffffffffffffffffffffffffffffffff1681526020019081526020016000205490506000600360008573ffffffffffffffffffffffffffffffffffffffff1673ffffffffffffffffffffffffffffffffffffffff1681526020019081526020016000208054905011610f3f576040517f08c379a0000000000000000000000000000000000000000000000000000000008152600401610f3690613f4c565b60405180910390fd5b600360008473ffffffffffffffffffffffffffffffffffffffff1673ffffffffffffffffffffffffffffffffffffffff1681526020019081526020016000208181548110610f9057610f8f613aaa565b5b906000526020600020906003020160010160009054906101000a900460ff16610fee576040517f08c379a0000000000000000000000000000000000000000000000000000000008152600401610fe590613fb8565b60405180910390fd5b600360008473ffffffffffffffffffffffffffffffffffffffff1673ffffffffffffffffffffffffffffffffffffffff168152602001908152602001600020818154811061103f5761103e613aaa565b5b9060005260206000209060030201600001805461105b90613935565b80601f016020809104026020016040519081016040528092919081815260200182805461108790613935565b80156110d45780601f106110a9576101008083540402835291602001916110d4565b820191906000526020600020905b8154815290600101906020018083116110b757829003601f168201915b5050505050915050919050565b60606000808373ffffffffffffffffffffffffffffffffffffffff1673ffffffffffffffffffffffffffffffffffffffff16815260200190815260200160002060000160009054906101000a900460ff16611171576040517f08c379a0000000000000000000000000000000000000000000000000000000008152600401611168906139b2565b60405180910390fd5b600360008373ffffffffffffffffffffffffffffffffffffffff1673ffffffffffffffffffffffffffffffffffffffff168152602001908152602001600020805480602002602001604051908101604052809291908181526020016000905b828210156112b9578382906000526020600020906003020160405180606001604052908160008201805461120390613935565b80601f016020809104026020016040519081016040528092919081815260200182805461122f90613935565b801561127c5780601f106112515761010080835404028352916020019161127c565b820191906000526020600020905b81548152906001019060200180831161125f57829003601f168201915b505050505081526020016001820160009054906101000a900460ff16151515158152602001600282015481525050815260200190600101906111d0565b505050509050919050565b6000803373ffffffffffffffffffffffffffffffffffffffff1673ffffffffffffffffffffffffffffffffffffffff16815260200190815260200160002060000160009054906101000a900460ff16611352576040517f08c379a0000000000000000000000000000000000000000000000000000000008152600401611349906139b2565b60405180910390fd5b6000835111611396576040517f08c379a000000000000000000000000000000000000000000000000000000000815260040161138d90613d7e565b60405180910390fd5b600081116113d9576040517f08c379a00000000000000000000000000000000000000000000000000000000081526004016113d090614024565b60405180910390fd5b6000600260003373ffffffffffffffffffffffffffffffffffffffff1673ffffffffffffffffffffffffffffffffffffffff168152602001908152602001600020600001805461142890613935565b90501461146a576040517f08c379a000000000000000000000000000000000000000000000000000000000815260040161146190614090565b60405180910390fd5b60004290506000620151808361148091906140b0565b8261148b919061410a565b90506040518061016001604052808c81526020018b81526020018a815260200189815260200188815260200187815260200186815260200185815260200183815260200182815260200160001515815250600260003373ffffffffffffffffffffffffffffffffffffffff1673ffffffffffffffffffffffffffffffffffffffff1681526020019081526020016000206000820151816000019080519060200190611537929190612bf4565b506020820151816001019080519060200190611554929190612bf4565b506040820151816002019080519060200190611571929190612bf4565b50606082015181600301908051906020019061158e929190612bf4565b5060808201518160040190805190602001906115ab929190612bf4565b5060a08201518160050190805190602001906115c8929190612bf4565b5060c08201518160060190805190602001906115e5929190612bf4565b5060e0820151816007019080519060200190611602929190612bf4565b506101008201518160080155610120820151816009015561014082015181600a0160006101000a81548160ff0219169083151502179055509050503373ffffffffffffffffffffffffffffffffffffffff167f4514a45e6f56567008e790fe2158e66d34e8b8254c060ad061d57027487914798c604051611683919061332c565b60405180910390a25050505050505050505050565b60006020528060005260406000206000915090508060000160009054906101000a900460ff16908060010180546116ce90613935565b80601f01602080910402602001604051908101604052809291908181526020018280546116fa90613935565b80156117475780601f1061171c57610100808354040283529160200191611747565b820191906000526020600020905b81548152906001019060200180831161172a57829003601f168201915b50505050509080600201805461175c90613935565b80601f016020809104026020016040519081016040528092919081815260200182805461178890613935565b80156117d55780601f106117aa576101008083540402835291602001916117d5565b820191906000526020600020905b8154815290600101906020018083116117b857829003601f168201915b5050505050908060030180546117ea90613935565b80601f016020809104026020016040519081016040528092919081815260200182805461181690613935565b80156118635780601f1061183857610100808354040283529160200191611863565b820191906000526020600020905b81548152906001019060200180831161184657829003601f168201915b5050505050905084565b60606000808373ffffffffffffffffffffffffffffffffffffffff1673ffffffffffffffffffffffffffffffffffffffff16815260200190815260200160002060000160009054906101000a900460ff166118fd576040517f08c379a00000000000000000000000000000000000000000000000000000000081526004016118f4906139b2565b60405180910390fd5b6000424484604051602001611914939291906141c9565b6040516020818303038152906040528051906020012060001c9050806040516020016119409190614206565b604051602081830303815290604052915050919050565b6000803373ffffffffffffffffffffffffffffffffffffffff1673ffffffffffffffffffffffffffffffffffffffff16815260200190815260200160002060000160009054906101000a900460ff166119e5576040517f08c379a00000000000000000000000000000000000000000000000000000000081526004016119dc906139b2565b60405180910390fd5b600360003373ffffffffffffffffffffffffffffffffffffffff1673ffffffffffffffffffffffffffffffffffffffff168152602001908152602001600020805490508110611a69576040517f08c379a0000000000000000000000000000000000000000000000000000000008152600401611a609061426d565b60405180910390fd5b600360003373ffffffffffffffffffffffffffffffffffffffff1673ffffffffffffffffffffffffffffffffffffffff1681526020019081526020016000208181548110611aba57611ab9613aaa565b5b906000526020600020906003020160010160009054906101000a900460ff16611b18576040517f08c379a0000000000000000000000000000000000000000000000000000000008152600401611b0f906142d9565b60405180910390fd5b6001600360003373ffffffffffffffffffffffffffffffffffffffff1673ffffffffffffffffffffffffffffffffffffffff1681526020019081526020016000208054905011611b9d576040517f08c379a0000000000000000000000000000000000000000000000000000000008152600401611b9490614345565b60405180910390fd5b6000600360003373ffffffffffffffffffffffffffffffffffffffff1673ffffffffffffffffffffffffffffffffffffffff1681526020019081526020016000208281548110611bf057611bef613aaa565b5b906000526020600020906003020160010160006101000a81548160ff02191690831515021790555080600460003373ffffffffffffffffffffffffffffffffffffffff1673ffffffffffffffffffffffffffffffffffffffff1681526020019081526020016000205403611d8a5760005b600360003373ffffffffffffffffffffffffffffffffffffffff1673ffffffffffffffffffffffffffffffffffffffff16815260200190815260200160002080549050811015611d8857818114158015611d275750600360003373ffffffffffffffffffffffffffffffffffffffff1673ffffffffffffffffffffffffffffffffffffffff1681526020019081526020016000208181548110611d0757611d06613aaa565b5b906000526020600020906003020160010160009054906101000a900460ff165b15611d755780600460003373ffffffffffffffffffffffffffffffffffffffff1673ffffffffffffffffffffffffffffffffffffffff16815260200190815260200160002081905550611d88565b8080611d8090613b08565b915050611c61565b505b3373ffffffffffffffffffffffffffffffffffffffff167f6a0d45f87f64b1fea67d665c12179ba198d35a60fd48a200f61c493ae06b859182604051611dd091906138eb565b60405180910390a250565b6000803373ffffffffffffffffffffffffffffffffffffffff1673ffffffffffffffffffffffffffffffffffffffff16815260200190815260200160002060000160009054906101000a900460ff16611e69576040517f08c379a0000000000000000000000000000000000000000000000000000000008152600401611e60906139b2565b60405180910390fd5b6000815111611ead576040517f08c379a0000000000000000000000000000000000000000000000000000000008152600401611ea490613d7e565b60405180910390fd5b600360003373ffffffffffffffffffffffffffffffffffffffff1673ffffffffffffffffffffffffffffffffffffffff16815260200190815260200160002060405180606001604052808381526020016001151581526020014281525090806001815401808255809150506001900390600052602060002090600302016000909190919091506000820151816000019080519060200190611f4f929190612bf4565b5060208201518160010160006101000a81548160ff02191690831515021790555060408201518160020155505060006001600360003373ffffffffffffffffffffffffffffffffffffffff1673ffffffffffffffffffffffffffffffffffffffff16815260200190815260200160002080549050611fcd9190614365565b905080600460003373ffffffffffffffffffffffffffffffffffffffff1673ffffffffffffffffffffffffffffffffffffffff168152602001908152602001600020819055503373ffffffffffffffffffffffffffffffffffffffff167fae3c25feee9ffe53f654a0494566502413eea9041dd7db07da82a2c6bb8ca34e83604051612059919061332c565b60405180910390a25050565b600260205280600052604060002060009150905080600001805461208890613935565b80601f01602080910402602001604051908101604052809291908181526020018280546120b490613935565b80156121015780601f106120d657610100808354040283529160200191612101565b820191906000526020600020905b8154815290600101906020018083116120e457829003601f168201915b50505050509080600101805461211690613935565b80601f016020809104026020016040519081016040528092919081815260200182805461214290613935565b801561218f5780601f106121645761010080835404028352916020019161218f565b820191906000526020600020905b81548152906001019060200180831161217257829003601f168201915b5050505050908060020180546121a490613935565b80601f01602080910402602001604051908101604052809291908181526020018280546121d090613935565b801561221d5780601f106121f25761010080835404028352916020019161221d565b820191906000526020600020905b81548152906001019060200180831161220057829003601f168201915b50505050509080600301805461223290613935565b80601f016020809104026020016040519081016040528092919081815260200182805461225e90613935565b80156122ab5780601f10612280576101008083540402835291602001916122ab565b820191906000526020600020905b81548152906001019060200180831161228e57829003601f168201915b5050505050908060040180546122c090613935565b80601f01602080910402602001604051908101604052809291908181526020018280546122ec90613935565b80156123395780601f1061230e57610100808354040283529160200191612339565b820191906000526020600020905b81548152906001019060200180831161231c57829003601f168201915b50505050509080600501805461234e90613935565b80601f016020809104026020016040519081016040528092919081815260200182805461237a90613935565b80156123c75780601f1061239c576101008083540402835291602001916123c7565b820191906000526020600020905b8154815290600101906020018083116123aa57829003601f168201915b5050505050908060060180546123dc90613935565b80601f016020809104026020016040519081016040528092919081815260200182805461240890613935565b80156124555780601f1061242a57610100808354040283529160200191612455565b820191906000526020600020905b81548152906001019060200180831161243857829003601f168201915b50505050509080600701805461246a90613935565b80601f016020809104026020016040519081016040528092919081815260200182805461249690613935565b80156124e35780601f106124b8576101008083540402835291602001916124e3565b820191906000526020600020905b8154815290600101906020018083116124c657829003601f168201915b50505050509080600801549080600901549080600a0160009054906101000a900460ff1690508b565b606080606060008060008060008873ffffffffffffffffffffffffffffffffffffffff1673ffffffffffffffffffffffffffffffffffffffff16815260200190815260200160002060000160009054906101000a900460ff166125a4576040517f08c379a000000000000000000000000000000000000000000000000000000000815260040161259b906139b2565b60405180910390fd5b6000600260008973ffffffffffffffffffffffffffffffffffffffff1673ffffffffffffffffffffffffffffffffffffffff1681526020019081526020016000206040518061016001604052908160008201805461260190613935565b80601f016020809104026020016040519081016040528092919081815260200182805461262d90613935565b801561267a5780601f1061264f5761010080835404028352916020019161267a565b820191906000526020600020905b81548152906001019060200180831161265d57829003601f168201915b5050505050815260200160018201805461269390613935565b80601f01602080910402602001604051908101604052809291908181526020018280546126bf90613935565b801561270c5780601f106126e15761010080835404028352916020019161270c565b820191906000526020600020905b8154815290600101906020018083116126ef57829003601f168201915b5050505050815260200160028201805461272590613935565b80601f016020809104026020016040519081016040528092919081815260200182805461275190613935565b801561279e5780601f106127735761010080835404028352916020019161279e565b820191906000526020600020905b81548152906001019060200180831161278157829003601f168201915b505050505081526020016003820180546127b790613935565b80601f01602080910402602001604051908101604052809291908181526020018280546127e390613935565b80156128305780601f1061280557610100808354040283529160200191612830565b820191906000526020600020905b81548152906001019060200180831161281357829003601f168201915b5050505050815260200160048201805461284990613935565b80601f016020809104026020016040519081016040528092919081815260200182805461287590613935565b80156128c25780601f10612897576101008083540402835291602001916128c2565b820191906000526020600020905b8154815290600101906020018083116128a557829003601f168201915b505050505081526020016005820180546128db90613935565b80601f016020809104026020016040519081016040528092919081815260200182805461290790613935565b80156129545780601f1061292957610100808354040283529160200191612954565b820191906000526020600020905b81548152906001019060200180831161293757829003601f168201915b5050505050815260200160068201805461296d90613935565b80601f016020809104026020016040519081016040528092919081815260200182805461299990613935565b80156129e65780601f106129bb576101008083540402835291602001916129e6565b820191906000526020600020905b8154815290600101906020018083116129c957829003601f168201915b505050505081526020016007820180546129ff90613935565b80601f0160208091040260200160405190810160405280929190818152602001828054612a2b90613935565b8015612a785780601f10612a4d57610100808354040283529160200191612a78565b820191906000526020600020905b815481529060010190602001808311612a5b57829003601f168201915b505050505081526020016008820154815260200160098201548152602001600a820160009054906101000a900460ff161515151581525050905080600001518160a0015182608001518361010001518461012001518561014001519650965096509650965096505091939550919395565b60046020528060005260406000206000915090505481565b600080600080612b1085612b70565b92509250925060018682858560405160008152602001604052604051612b3994939291906143c4565b6020604051602081039080840390855afa158015612b5b573d6000803e3d6000fd5b50505060206040510351935050505092915050565b60008060006041845114612bb9576040517f08c379a0000000000000000000000000000000000000000000000000000000008152600401612bb090614455565b60405180910390fd5b6020840151925060408401519150606084015160001a9050601b8160ff161015612bed57601b81612bea9190614475565b90505b9193909250565b828054612c0090613935565b90600052602060002090601f016020900481019282612c225760008555612c69565b82601f10612c3b57805160ff1916838001178555612c69565b82800160010185558215612c69579182015b82811115612c68578251825591602001919060010190612c4d565b5b509050612c769190612d00565b5090565b828054612c8690613935565b90600052602060002090601f016020900481019282612ca85760008555612cef565b82601f10612cc157805160ff1916838001178555612cef565b82800160010185558215612cef579182015b82811115612cee578251825591602001919060010190612cd3565b5b509050612cfc9190612d00565b5090565b5b80821115612d19576000816000905550600101612d01565b5090565b6000604051905090565b600080fd5b600080fd5b600073ffffffffffffffffffffffffffffffffffffffff82169050919050565b6000612d5c82612d31565b9050919050565b612d6c81612d51565b8114612d7757600080fd5b50565b600081359050612d8981612d63565b92915050565b6000819050919050565b612da281612d8f565b8114612dad57600080fd5b50565b600081359050612dbf81612d99565b92915050565b60008060408385031215612ddc57612ddb612d27565b5b6000612dea85828601612d7a565b9250506020612dfb85828601612db0565b9150509250929050565b600081519050919050565b600082825260208201905092915050565b60005b83811015612e3f578082015181840152602081019050612e24565b83811115612e4e576000848401525b50505050565b6000601f19601f8301169050919050565b6000612e7082612e05565b612e7a8185612e10565b9350612e8a818560208601612e21565b612e9381612e54565b840191505092915050565b60008115159050919050565b612eb381612e9e565b82525050565b612ec281612d8f565b82525050565b60006060820190508181036000830152612ee28186612e65565b9050612ef16020830185612eaa565b612efe6040830184612eb9565b949350505050565b600080fd5b600080fd5b7f4e487b7100000000000000000000000000000000000000000000000000000000600052604160045260246000fd5b612f4882612e54565b810181811067ffffffffffffffff82111715612f6757612f66612f10565b5b80604052505050565b6000612f7a612d1d565b9050612f868282612f3f565b919050565b600067ffffffffffffffff821115612fa657612fa5612f10565b5b612faf82612e54565b9050602081019050919050565b82818337600083830152505050565b6000612fde612fd984612f8b565b612f70565b905082815260208101848484011115612ffa57612ff9612f0b565b5b613005848285612fbc565b509392505050565b600082601f83011261302257613021612f06565b5b8135613032848260208601612fcb565b91505092915050565b60006020828403121561305157613050612d27565b5b600082013567ffffffffffffffff81111561306f5761306e612d2c565b5b61307b8482850161300d565b91505092915050565b6000819050919050565b61309781613084565b81146130a257600080fd5b50565b6000813590506130b48161308e565b92915050565b600067ffffffffffffffff8211156130d5576130d4612f10565b5b6130de82612e54565b9050602081019050919050565b60006130fe6130f9846130ba565b612f70565b90508281526020810184848401111561311a57613119612f0b565b5b613125848285612fbc565b509392505050565b600082601f83011261314257613141612f06565b5b81356131528482602086016130eb565b91505092915050565b60008060006060848603121561317457613173612d27565b5b6000613182868287016130a5565b935050602084013567ffffffffffffffff8111156131a3576131a2612d2c565b5b6131af8682870161312d565b92505060406131c086828701612d7a565b9150509250925092565b60006020820190506131df6000830184612eaa565b92915050565b6000602082840312156131fb576131fa612d27565b5b600082013567ffffffffffffffff81111561321957613218612d2c565b5b6132258482850161312d565b91505092915050565b61323781612d51565b82525050565b6000602082019050613252600083018461322e565b92915050565b60008060006060848603121561327157613270612d27565b5b600084013567ffffffffffffffff81111561328f5761328e612d2c565b5b61329b8682870161300d565b935050602084013567ffffffffffffffff8111156132bc576132bb612d2c565b5b6132c88682870161300d565b925050604084013567ffffffffffffffff8111156132e9576132e8612d2c565b5b6132f58682870161312d565b9150509250925092565b60006020828403121561331557613314612d27565b5b600061332384828501612d7a565b91505092915050565b600060208201905081810360008301526133468184612e65565b905092915050565b600081519050919050565b600082825260208201905092915050565b6000819050602082019050919050565b600082825260208201905092915050565b600061339682612e05565b6133a0818561337a565b93506133b0818560208601612e21565b6133b981612e54565b840191505092915050565b6133cd81612e9e565b82525050565b6133dc81612d8f565b82525050565b600060608301600083015184820360008601526133ff828261338b565b915050602083015161341460208601826133c4565b50604083015161342760408601826133d3565b508091505092915050565b600061343e83836133e2565b905092915050565b6000602082019050919050565b600061345e8261334e565b6134688185613359565b93508360208202850161347a8561336a565b8060005b858110156134b657848403895281516134978582613432565b94506134a283613446565b925060208a0199505060018101905061347e565b50829750879550505050505092915050565b600060208201905081810360008301526134e28184613453565b905092915050565b60008060008060008060008060006101208a8c03121561350d5761350c612d27565b5b60008a013567ffffffffffffffff81111561352b5761352a612d2c565b5b6135378c828d0161300d565b99505060208a013567ffffffffffffffff81111561355857613557612d2c565b5b6135648c828d0161300d565b98505060408a013567ffffffffffffffff81111561358557613584612d2c565b5b6135918c828d0161300d565b97505060608a013567ffffffffffffffff8111156135b2576135b1612d2c565b5b6135be8c828d0161300d565b96505060808a013567ffffffffffffffff8111156135df576135de612d2c565b5b6135eb8c828d0161300d565b95505060a08a013567ffffffffffffffff81111561360c5761360b612d2c565b5b6136188c828d0161300d565b94505060c08a013567ffffffffffffffff81111561363957613638612d2c565b5b6136458c828d0161300d565b93505060e08a013567ffffffffffffffff81111561366657613665612d2c565b5b6136728c828d0161300d565b9250506101006136848c828d01612db0565b9150509295985092959850929598565b600081519050919050565b600082825260208201905092915050565b60006136bb82613694565b6136c5818561369f565b93506136d5818560208601612e21565b6136de81612e54565b840191505092915050565b60006080820190506136fe6000830187612eaa565b81810360208301526137108186612e65565b905081810360408301526137248185612e65565b9050818103606083015261373881846136b0565b905095945050505050565b6000602082019050818103600083015261375d81846136b0565b905092915050565b60006020828403121561377b5761377a612d27565b5b600061378984828501612db0565b91505092915050565b60006101608201905081810360008301526137ad818e612e65565b905081810360208301526137c1818d612e65565b905081810360408301526137d5818c612e65565b905081810360608301526137e9818b612e65565b905081810360808301526137fd818a612e65565b905081810360a08301526138118189612e65565b905081810360c08301526138258188612e65565b905081810360e08301526138398187612e65565b9050613849610100830186612eb9565b613857610120830185612eb9565b613865610140830184612eaa565b9c9b505050505050505050505050565b600060c082019050818103600083015261388f8189612e65565b905081810360208301526138a38188612e65565b905081810360408301526138b78187612e65565b90506138c66060830186612eb9565b6138d36080830185612eb9565b6138e060a0830184612eaa565b979650505050505050565b60006020820190506139006000830184612eb9565b92915050565b7f4e487b7100000000000000000000000000000000000000000000000000000000600052602260045260246000fd5b6000600282049050600182168061394d57607f821691505b6020821081036139605761395f613906565b5b50919050565b7f55736572206e6f74207265676973746572656400000000000000000000000000600082015250565b600061399c601383612e10565b91506139a782613966565b602082019050919050565b600060208201905081810360008301526139cb8161398f565b9050919050565b7f4e6f20636572746966696361746520666f756e64000000000000000000000000600082015250565b6000613a08601483612e10565b9150613a13826139d2565b602082019050919050565b60006020820190508181036000830152613a37816139fb565b9050919050565b7f436572746966696361746520616c7265616479207265766f6b65640000000000600082015250565b6000613a74601b83612e10565b9150613a7f82613a3e565b602082019050919050565b60006020820190508181036000830152613aa381613a67565b9050919050565b7f4e487b7100000000000000000000000000000000000000000000000000000000600052603260045260246000fd5b7f4e487b7100000000000000000000000000000000000000000000000000000000600052601160045260246000fd5b6000613b1382612d8f565b91507fffffffffffffffffffffffffffffffffffffffffffffffffffffffffffffffff8203613b4557613b44613ad9565b5b600182019050919050565b7f5369676e6572206e6f7420726567697374657265640000000000000000000000600082015250565b6000613b86601583612e10565b9150613b9182613b50565b602082019050919050565b60006020820190508181036000830152613bb581613b79565b9050919050565b600081905092915050565b7f19457468657265756d205369676e6564204d6573736167653a0a333200000000600082015250565b6000613bfd601c83613bbc565b9150613c0882613bc7565b601c82019050919050565b6000819050919050565b613c2e613c2982613084565b613c13565b82525050565b6000613c3f82613bf0565b9150613c4b8284613c1d565b60208201915081905092915050565b7f456d61696c2063616e6e6f7420626520656d7074790000000000000000000000600082015250565b6000613c90601583612e10565b9150613c9b82613c5a565b602082019050919050565b60006020820190508181036000830152613cbf81613c83565b9050919050565b7f557365726e616d652063616e6e6f7420626520656d7074790000000000000000600082015250565b6000613cfc601883612e10565b9150613d0782613cc6565b602082019050919050565b60006020820190508181036000830152613d2b81613cef565b9050919050565b7f5075626c6963206b65792063616e6e6f7420626520656d707479000000000000600082015250565b6000613d68601a83612e10565b9150613d7382613d32565b602082019050919050565b60006020820190508181036000830152613d9781613d5b565b9050919050565b7f5573657220616c72656164792072656769737465726564000000000000000000600082015250565b6000613dd4601783612e10565b9150613ddf82613d9e565b602082019050919050565b60006020820190508181036000830152613e0381613dc7565b9050919050565b600081905092915050565b6000613e2082613694565b613e2a8185613e0a565b9350613e3a818560208601612e21565b80840191505092915050565b6000613e528284613e15565b915081905092915050565b7f5075626c6963206b657920616c72656164792072656769737465726564000000600082015250565b6000613e93601d83612e10565b9150613e9e82613e5d565b602082019050919050565b60006020820190508181036000830152613ec281613e86565b9050919050565b60006040820190508181036000830152613ee38185612e65565b90508181036020830152613ef78184612e65565b90509392505050565b7f4e6f207075626c6963206b65797320666f756e64000000000000000000000000600082015250565b6000613f36601483612e10565b9150613f4182613f00565b602082019050919050565b60006020820190508181036000830152613f6581613f29565b9050919050565b7f4e6f20616374697665207075626c6963206b6579000000000000000000000000600082015250565b6000613fa2601483612e10565b9150613fad82613f6c565b602082019050919050565b60006020820190508181036000830152613fd181613f95565b9050919050565b7f56616c696469747920706572696f64206d75737420626520706f736974697665600082015250565b600061400e602083612e10565b915061401982613fd8565b602082019050919050565b6000602082019050818103600083015261403d81614001565b9050919050565b7f436572746966696361746520616c726561647920657869737473000000000000600082015250565b600061407a601a83612e10565b915061408582614044565b602082019050919050565b600060208201905081810360008301526140a98161406d565b9050919050565b60006140bb82612d8f565b91506140c683612d8f565b9250817fffffffffffffffffffffffffffffffffffffffffffffffffffffffffffffffff04831182151516156140ff576140fe613ad9565b5b828202905092915050565b600061411582612d8f565b915061412083612d8f565b9250827fffffffffffffffffffffffffffffffffffffffffffffffffffffffffffffffff0382111561415557614154613ad9565b5b828201905092915050565b6000819050919050565b61417b61417682612d8f565b614160565b82525050565b60008160601b9050919050565b600061419982614181565b9050919050565b60006141ab8261418e565b9050919050565b6141c36141be82612d51565b6141a0565b82525050565b60006141d5828661416a565b6020820191506141e5828561416a565b6020820191506141f582846141b2565b601482019150819050949350505050565b6000614212828461416a565b60208201915081905092915050565b7f496e76616c6964206b657920696e646578000000000000000000000000000000600082015250565b6000614257601183612e10565b915061426282614221565b602082019050919050565b600060208201905081810360008301526142868161424a565b9050919050565b7f4b657920616c726561647920696e616374697665000000000000000000000000600082015250565b60006142c3601483612e10565b91506142ce8261428d565b602082019050919050565b600060208201905081810360008301526142f2816142b6565b9050919050565b7f43616e6e6f74206465616374697661746520746865206f6e6c79206b65790000600082015250565b600061432f601e83612e10565b915061433a826142f9565b602082019050919050565b6000602082019050818103600083015261435e81614322565b9050919050565b600061437082612d8f565b915061437b83612d8f565b92508282101561438e5761438d613ad9565b5b828203905092915050565b6143a281613084565b82525050565b600060ff82169050919050565b6143be816143a8565b82525050565b60006080820190506143d96000830187614399565b6143e660208301866143b5565b6143f36040830185614399565b6144006060830184614399565b95945050505050565b7f496e76616c6964207369676e6174757265206c656e6774680000000000000000600082015250565b600061443f601883612e10565b915061444a82614409565b602082019050919050565b6000602082019050818103600083015261446e81614432565b9050919050565b6000614480826143a8565b915061448b836143a8565b92508260ff038211156144a1576144a0613ad9565b5b82820190509291505056fea26469706673582212201cb1549c46fcdd6f57199523b9d44067d157b3141692aac5be39777c13a1b40264736f6c634300080d0033",
  "immutableReferences": {},
  "source": "// SPDX-License-Identifier: MIT\npragma solidity ^0.8.0;\n\ncontract UserCertificateManager {\n    // User Management\n    struct User {\n        bool exists;\n        string username;\n        string email;\n        bytes publicKey;  // Keep the original public key for backward compatibility\n    }\n\n    // Certificate Management\n    struct PublicKey {\n        string keyData;\n        bool isActive;\n        uint256 addedAt;\n    }\n\n    struct Certificate {\n        string serialNumber;\n        string country;\n        string state;\n        string locality;\n        string organization;\n        string commonName;\n        string publicKey;\n        string signatureAlgorithm;\n        uint256 validFrom;\n        uint256 validTo;\n        bool isRevoked;\n    }\n\n    // Mappings\n    mapping(address => User) public users;\n    mapping(bytes => address) public publicKeyToAddress;\n    mapping(address => Certificate) public userCertificates;\n    mapping(address => PublicKey[]) public userPublicKeys;\n    mapping(address => uint256) public activeKeyIndex;\n    address[] private registeredUsers;\n\n    // Events\n    event UserRegistered(address indexed user, string email, string username);\n    event PublicKeyUpdated(address indexed user, string keyData);\n    event CertificateIssued(address indexed user, string serialNumber);\n    event PublicKeyAdded(address indexed user, string keyData);\n    event PublicKeyDeactivated(address indexed user, uint256 keyIndex);\n    event CertificateRevoked(address indexed user, string reason);\n\n    // User Registration\n    function registerUser(\n        string memory email, \n        string memory username, \n        bytes memory publicKey\n    ) public {\n        require(bytes(email).length > 0, \"Email cannot be empty\");\n        require(bytes(username).length > 0, \"Username cannot be empty\");\n        require(publicKey.length > 0, \"Public key cannot be empty\");\n        require(!users[msg.sender].exists, \"User already registered\");\n        require(publicKeyToAddress[publicKey] == address(0), \"Public key already registered\");\n\n        users[msg.sender] = User({\n            exists: true,\n            username: username,\n            email: email,\n            publicKey: publicKey\n        });\n\n        publicKeyToAddress[publicKey] = msg.sender;\n        registeredUsers.push(msg.sender);\n\n        // Add the public key to the keys array\n        userPublicKeys[msg.sender].push(PublicKey({\n            keyData: string(publicKey),\n            isActive: true,\n            addedAt: block.timestamp\n        }));\n        activeKeyIndex[msg.sender] = 0;\n\n        emit UserRegistered(msg.sender, email, username);\n    }\n\n    // Certificate Management\n    function issueCertificate(\n        string memory _serialNumber,\n        string memory _country,\n        string memory _state,\n        string memory _locality,\n        string memory _organization,\n        string memory _commonName,\n        string memory _publicKey,\n        string memory _signatureAlgorithm,\n        uint256 _validDays\n    ) external {\n        require(users[msg.sender].exists, \"User not registered\");\n        require(bytes(_publicKey).length > 0, \"Public key cannot be empty\");\n        require(_validDays > 0, \"Validity period must be positive\");\n        require(bytes(userCertificates[msg.sender].serialNumber).length == 0, \"Certificate already exists\");\n\n        uint256 validFrom = block.timestamp;\n        uint256 validTo = validFrom + (_validDays * 1 days);\n\n        userCertificates[msg.sender] = Certificate({\n            serialNumber: _serialNumber,\n            country: _country,\n            state: _state,\n            locality: _locality,\n            organization: _organization,\n            commonName: _commonName,\n            publicKey: _publicKey,\n            signatureAlgorithm: _signatureAlgorithm,\n            validFrom: validFrom,\n            validTo: validTo,\n            isRevoked: false\n        });\n\n        emit CertificateIssued(msg.sender, _serialNumber);\n    }\n\n    // Public Key Management\n    function addPublicKey(string memory _keyData) public {\n        require(users[msg.sender].exists, \"User not registered\");\n        require(bytes(_keyData).length > 0, \"Public key cannot be empty\");\n        \n        // Add new public key\n        userPublicKeys[msg.sender].push(PublicKey({\n            keyData: _keyData,\n            isActive: true,\n            addedAt: block.timestamp\n        }));\n\n        // Set the new key as active\n        uint256 newKeyIndex = userPublicKeys[msg.sender].length - 1;\n        activeKeyIndex[msg.sender] = newKeyIndex;\n\n        emit PublicKeyAdded(msg.sender, _keyData);\n    }\n\n    function deactivatePublicKey(uint256 _keyIndex) external {\n        require(users[msg.sender].exists, \"User not registered\");\n        require(_keyIndex < userPublicKeys[msg.sender].length, \"Invalid key index\");\n        require(userPublicKeys[msg.sender][_keyIndex].isActive, \"Key already inactive\");\n        require(userPublicKeys[msg.sender].length > 1, \"Cannot deactivate the only key\");\n        \n        userPublicKeys[msg.sender][_keyIndex].isActive = false;\n        \n        if (activeKeyIndex[msg.sender] == _keyIndex) {\n            for (uint256 i = 0; i < userPublicKeys[msg.sender].length; i++) {\n                if (i != _keyIndex && userPublicKeys[msg.sender][i].isActive) {\n                    activeKeyIndex[msg.sender] = i;\n                    break;\n                }\n            }\n        }\n\n        emit PublicKeyDeactivated(msg.sender, _keyIndex);\n    }\n\n    function revokeCertificate(string memory _reason) external {\n        require(users[msg.sender].exists, \"User not registered\");\n        require(bytes(userCertificates[msg.sender].serialNumber).length != 0, \"No certificate found\");\n        require(!userCertificates[msg.sender].isRevoked, \"Certificate already revoked\");\n        \n        userCertificates[msg.sender].isRevoked = true;\n        \n        // Deactivate all public keys\n        for (uint256 i = 0; i < userPublicKeys[msg.sender].length; i++) {\n            userPublicKeys[msg.sender][i].isActive = false;\n        }\n        \n        emit CertificateRevoked(msg.sender, _reason);\n    }\n\n    // View Functions\n    function getActivePublicKey(address _user) external view returns (string memory) {\n        require(users[_user].exists, \"User not registered\");\n        uint256 activeIndex = activeKeyIndex[_user];\n        require(userPublicKeys[_user].length > 0, \"No public keys found\");\n        require(userPublicKeys[_user][activeIndex].isActive, \"No active public key\");\n        \n        return userPublicKeys[_user][activeIndex].keyData;\n    }\n\n    function getUserPublicKeys(address _user) external view returns (PublicKey[] memory) {\n        require(users[_user].exists, \"User not registered\");\n        return userPublicKeys[_user];\n    }\n\n    function getCertificateInfo(address _user) external view returns (\n        string memory serialNumber,\n        string memory commonName,\n        string memory organization,\n        uint256 validFrom,\n        uint256 validTo,\n        bool isRevoked\n    ) {\n        require(users[_user].exists, \"User not registered\");\n        Certificate memory cert = userCertificates[_user];\n        return (\n            cert.serialNumber,\n            cert.commonName,\n            cert.organization,\n            cert.validFrom,\n            cert.validTo,\n            cert.isRevoked\n        );\n    }\n\n    function generateChallenge(address user) public view returns (bytes memory challenge) {\n        require(users[user].exists, \"User not registered\");\n        \n        // Generate random number for challenge\n        uint256 random = uint256(keccak256(\n            abi.encodePacked(\n                block.timestamp,\n                block.difficulty,\n                user\n            )\n        ));\n        \n        return abi.encodePacked(random);\n    }\n\n    function verifySignature(\n        bytes32 messageHash,\n        bytes memory signature,\n        address signer\n    ) public view returns (bool) {\n        require(users[signer].exists, \"Signer not registered\");\n        \n        // This is a simplified version - in production, you'd want to implement proper ECDSA recovery\n        bytes32 ethSignedMessageHash = keccak256(\n            abi.encodePacked(\"\\x19Ethereum Signed Message:\\n32\", messageHash)\n        );\n        \n        address recovered = recoverSigner(ethSignedMessageHash, signature);\n        return recovered == signer;\n    }\n    \n    function recoverSigner(bytes32 _ethSignedMessageHash, bytes memory _signature) \n        internal pure returns (address) \n    {\n        (bytes32 r, bytes32 s, uint8 v) = splitSignature(_signature);\n        return ecrecover(_ethSignedMessageHash, v, r, s);\n    }\n    \n    function splitSignature(bytes memory sig)\n        internal pure returns (bytes32 r, bytes32 s, uint8 v)\n    {\n        require(sig.length == 65, \"Invalid signature length\");\n        \n        assembly {\n            r := mload(add(sig, 32))\n            s := mload(add(sig, 64))\n            v := byte(0, mload(add(sig, 96)))\n        }\n        \n        if (v < 27) v += 27;\n    }\n}\n",
  "sourcePath": "D:\\Praveen\\Personal\\projects\\trustkey\\truffle-pkibckckn\\contracts\\UserCertificateManager.sol",
  "compiler": {
    "name": "solc",
    "version": "0.8.13+commit.abaa5c0e.Emscripten.clang"
  },
  "schemaVersion": "3.4.16",
  "updatedAt": "2025-06-18T06:09:06.674Z",
  "networkType": "ethereum",
  "devdoc": {
    "kind": "dev",
    "methods": {},
    "version": 1
  },
  "userdoc": {
    "kind": "user",
    "methods": {},
    "version": 1
  }
}