{
  "contractName": "UserCertificateManager",
  "abi": [
    {
      "anonymous": false,
      "inputs": [
        {
          "indexed": true,
          "internalType": "address",
          "name": "user",
          "type": "address"
        },
        {
          "indexed": false,
          "internalType": "string",
          "name": "serialNumber",
          "type": "string"
        }
      ],
      "name": "CertificateIssued",
      "type": "event"
    },
    {
      "anonymous": false,
      "inputs": [
        {
          "indexed": true,
          "internalType": "address",
          "name": "user",
          "type": "address"
        },
        {
          "indexed": false,
          "internalType": "string",
          "name": "reason",
          "type": "string"
        }
      ],
      "name": "CertificateRevoked",
      "type": "event"
    },
    {
      "anonymous": false,
      "inputs": [
        {
          "indexed": true,
          "internalType": "address",
          "name": "user",
          "type": "address"
        },
        {
          "indexed": false,
          "internalType": "string",
          "name": "keyData",
          "type": "string"
        }
      ],
      "name": "PublicKeyAdded",
      "type": "event"
    },
    {
      "anonymous": false,
      "inputs": [
        {
          "indexed": true,
          "internalType": "address",
          "name": "user",
          "type": "address"
        },
        {
          "indexed": false,
          "internalType": "uint256",
          "name": "keyIndex",
          "type": "uint256"
        }
      ],
      "name": "PublicKeyDeactivated",
      "type": "event"
    },
    {
      "anonymous": false,
      "inputs": [
        {
          "indexed": true,
          "internalType": "address",
          "name": "user",
          "type": "address"
        },
        {
          "indexed": false,
          "internalType": "string",
          "name": "keyData",
          "type": "string"
        }
      ],
      "name": "PublicKeyUpdated",
      "type": "event"
    },
    {
      "anonymous": false,
      "inputs": [
        {
          "indexed": true,
          "internalType": "address",
          "name": "user",
          "type": "address"
        },
        {
          "indexed": false,
          "internalType": "string",
          "name": "email",
          "type": "string"
        },
        {
          "indexed": false,
          "internalType": "string",
          "name": "username",
          "type": "string"
        }
      ],
      "name": "UserRegistered",
      "type": "event"
    },
    {
      "inputs": [
        {
          "internalType": "address",
          "name": "",
          "type": "address"
        }
      ],
      "name": "activeKeyIndex",
      "outputs": [
        {
          "internalType": "uint256",
          "name": "",
          "type": "uint256"
        }
      ],
      "stateMutability": "view",
      "type": "function",
      "constant": true
    },
    {
      "inputs": [
        {
          "internalType": "bytes",
          "name": "",
          "type": "bytes"
        }
      ],
      "name": "publicKeyToAddress",
      "outputs": [
        {
          "internalType": "address",
          "name": "",
          "type": "address"
        }
      ],
      "stateMutability": "view",
      "type": "function",
      "constant": true
    },
    {
      "inputs": [
        {
          "internalType": "address",
          "name": "",
          "type": "address"
        }
      ],
      "name": "userCertificates",
      "outputs": [
        {
          "internalType": "string",
          "name": "serialNumber",
          "type": "string"
        },
        {
          "internalType": "string",
          "name": "country",
          "type": "string"
        },
        {
          "internalType": "string",
          "name": "state",
          "type": "string"
        },
        {
          "internalType": "string",
          "name": "locality",
          "type": "string"
        },
        {
          "internalType": "string",
          "name": "organization",
          "type": "string"
        },
        {
          "internalType": "string",
          "name": "commonName",
          "type": "string"
        },
        {
          "internalType": "string",
          "name": "publicKey",
          "type": "string"
        },
        {
          "internalType": "string",
          "name": "signatureAlgorithm",
          "type": "string"
        },
        {
          "internalType": "uint256",
          "name": "validFrom",
          "type": "uint256"
        },
        {
          "internalType": "uint256",
          "name": "validTo",
          "type": "uint256"
        },
        {
          "internalType": "bool",
          "name": "isRevoked",
          "type": "bool"
        }
      ],
      "stateMutability": "view",
      "type": "function",
      "constant": true
    },
    {
      "inputs": [
        {
          "internalType": "address",
          "name": "",
          "type": "address"
        },
        {
          "internalType": "uint256",
          "name": "",
          "type": "uint256"
        }
      ],
      "name": "userPublicKeys",
      "outputs": [
        {
          "internalType": "bytes",
          "name": "keyData",
          "type": "bytes"
        },
        {
          "internalType": "bool",
          "name": "isActive",
          "type": "bool"
        },
        {
          "internalType": "uint256",
          "name": "addedAt",
          "type": "uint256"
        }
      ],
      "stateMutability": "view",
      "type": "function",
      "constant": true
    },
    {
      "inputs": [
        {
          "internalType": "address",
          "name": "",
          "type": "address"
        }
      ],
      "name": "users",
      "outputs": [
        {
          "internalType": "bool",
          "name": "exists",
          "type": "bool"
        },
        {
          "internalType": "string",
          "name": "username",
          "type": "string"
        },
        {
          "internalType": "string",
          "name": "email",
          "type": "string"
        },
        {
          "internalType": "bytes",
          "name": "publicKey",
          "type": "bytes"
        }
      ],
      "stateMutability": "view",
      "type": "function",
      "constant": true
    },
    {
      "inputs": [
        {
          "internalType": "string",
          "name": "email",
          "type": "string"
        },
        {
          "internalType": "string",
          "name": "username",
          "type": "string"
        },
        {
          "internalType": "bytes",
          "name": "publicKey",
          "type": "bytes"
        }
      ],
      "name": "registerUser",
      "outputs": [],
      "stateMutability": "nonpayable",
      "type": "function"
    },
    {
      "inputs": [
        {
          "internalType": "string",
          "name": "_serialNumber",
          "type": "string"
        },
        {
          "internalType": "string",
          "name": "_country",
          "type": "string"
        },
        {
          "internalType": "string",
          "name": "_state",
          "type": "string"
        },
        {
          "internalType": "string",
          "name": "_locality",
          "type": "string"
        },
        {
          "internalType": "string",
          "name": "_organization",
          "type": "string"
        },
        {
          "internalType": "string",
          "name": "_commonName",
          "type": "string"
        },
        {
          "internalType": "string",
          "name": "_publicKey",
          "type": "string"
        },
        {
          "internalType": "string",
          "name": "_signatureAlgorithm",
          "type": "string"
        },
        {
          "internalType": "uint256",
          "name": "_validDays",
          "type": "uint256"
        }
      ],
      "name": "issueCertificate",
      "outputs": [],
      "stateMutability": "nonpayable",
      "type": "function"
    },
    {
      "inputs": [
        {
          "internalType": "bytes",
          "name": "_keyData",
          "type": "bytes"
        }
      ],
      "name": "addPublicKey",
      "outputs": [],
      "stateMutability": "nonpayable",
      "type": "function"
    },
    {
      "inputs": [
        {
          "internalType": "uint256",
          "name": "_keyIndex",
          "type": "uint256"
        }
      ],
      "name": "deactivatePublicKey",
      "outputs": [],
      "stateMutability": "nonpayable",
      "type": "function"
    },
    {
      "inputs": [
        {
          "internalType": "string",
          "name": "_reason",
          "type": "string"
        }
      ],
      "name": "revokeCertificate",
      "outputs": [],
      "stateMutability": "nonpayable",
      "type": "function"
    },
    {
      "inputs": [
        {
          "internalType": "address",
          "name": "_user",
          "type": "address"
        }
      ],
      "name": "getActivePublicKey",
      "outputs": [
        {
          "internalType": "bytes",
          "name": "",
          "type": "bytes"
        }
      ],
      "stateMutability": "view",
      "type": "function",
      "constant": true
    },
    {
      "inputs": [
        {
          "internalType": "address",
          "name": "_user",
          "type": "address"
        }
      ],
      "name": "getUserPublicKeys",
      "outputs": [
        {
          "components": [
            {
              "internalType": "bytes",
              "name": "keyData",
              "type": "bytes"
            },
            {
              "internalType": "bool",
              "name": "isActive",
              "type": "bool"
            },
            {
              "internalType": "uint256",
              "name": "addedAt",
              "type": "uint256"
            }
          ],
          "internalType": "struct UserCertificateManager.PublicKey[]",
          "name": "",
          "type": "tuple[]"
        }
      ],
      "stateMutability": "view",
      "type": "function",
      "constant": true
    },
    {
      "inputs": [
        {
          "internalType": "address",
          "name": "_user",
          "type": "address"
        }
      ],
      "name": "getCertificateInfo",
      "outputs": [
        {
          "internalType": "string",
          "name": "serialNumber",
          "type": "string"
        },
        {
          "internalType": "string",
          "name": "commonName",
          "type": "string"
        },
        {
          "internalType": "string",
          "name": "organization",
          "type": "string"
        },
        {
          "internalType": "uint256",
          "name": "validFrom",
          "type": "uint256"
        },
        {
          "internalType": "uint256",
          "name": "validTo",
          "type": "uint256"
        },
        {
          "internalType": "bool",
          "name": "isRevoked",
          "type": "bool"
        }
      ],
      "stateMutability": "view",
      "type": "function",
      "constant": true
    },
    {
      "inputs": [
        {
          "internalType": "address",
          "name": "user",
          "type": "address"
        }
      ],
      "name": "generateChallenge",
      "outputs": [
        {
          "internalType": "bytes",
          "name": "challenge",
          "type": "bytes"
        }
      ],
      "stateMutability": "view",
      "type": "function",
      "constant": true
    },
    {
      "inputs": [
        {
          "internalType": "bytes32",
          "name": "messageHash",
          "type": "bytes32"
        },
        {
          "internalType": "bytes",
          "name": "signature",
          "type": "bytes"
        },
        {
          "internalType": "address",
          "name": "signer",
          "type": "address"
        }
      ],
      "name": "verifySignature",
      "outputs": [
        {
          "internalType": "bool",
          "name": "",
          "type": "bool"
        }
      ],
      "stateMutability": "view",
      "type": "function",
      "constant": true
    },
    {
      "inputs": [
        {
          "internalType": "address",
          "name": "user",
          "type": "address"
        }
      ],
      "name": "getUserDetails",
      "outputs": [
        {
          "internalType": "string",
          "name": "",
          "type": "string"
        },
        {
          "internalType": "string",
          "name": "",
          "type": "string"
        },
        {
          "internalType": "bytes",
          "name": "",
          "type": "bytes"
        }
      ],
      "stateMutability": "view",
      "type": "function",
      "constant": true
    },
    {
      "inputs": [
        {
          "internalType": "address",
          "name": "user",
          "type": "address"
        }
      ],
      "name": "isUserRegistered",
      "outputs": [
        {
          "internalType": "bool",
          "name": "",
          "type": "bool"
        }
      ],
      "stateMutability": "view",
      "type": "function",
      "constant": true
    },
    {
      "inputs": [],
      "name": "getUserCount",
      "outputs": [
        {
          "internalType": "uint256",
          "name": "",
          "type": "uint256"
        }
      ],
      "stateMutability": "view",
      "type": "function",
      "constant": true
    },
    {
      "inputs": [
        {
          "internalType": "uint256",
          "name": "index",
          "type": "uint256"
        }
      ],
      "name": "getUserByIndex",
      "outputs": [
        {
          "internalType": "address",
          "name": "",
          "type": "address"
        }
      ],
      "stateMutability": "view",
      "type": "function",
      "constant": true
    },
    {
      "inputs": [],
      "name": "getAllUsers",
      "outputs": [
        {
          "internalType": "address[]",
          "name": "",
          "type": "address[]"
        }
      ],
      "stateMutability": "view",
      "type": "function",
      "constant": true
    },
    {
      "inputs": [
        {
          "internalType": "address",
          "name": "user",
          "type": "address"
        },
        {
          "internalType": "bytes",
          "name": "solution",
          "type": "bytes"
        }
      ],
      "name": "verifySolution",
      "outputs": [
        {
          "internalType": "bool",
          "name": "",
          "type": "bool"
        }
      ],
      "stateMutability": "view",
      "type": "function",
      "constant": true
    }
  ],
  "bytecode": "0x608060405234801561001057600080fd5b50614d56806100206000396000f3fe608060405234801561001057600080fd5b50600436106101375760003560e01c8063a6c5d5a9116100b8578063cdd4139b1161007c578063cdd4139b146103b1578063d31253cb146103cd578063e2842d7914610407578063ebbcf74f14610425578063f62a2a7e1461045a578063ff5d32fe1461048a57610137565b8063a6c5d5a9146102ce578063a87430ba146102fe578063b5cb15f714610331578063c84450f91461034f578063cc3d967b1461037f57610137565b80634e21a517116100ff5780634e21a5171461021a5780635ea975db146102365780635f0b324914610252578063645e1415146102825780636c433b61146102b257610137565b806310eefaf11461013c578063142e15421461016e578063163f75221461018a57806331cd4199146101ba57806343ae656c146101ea575b600080fd5b61015660048036038101906101519190613445565b6104ba565b60405161016593929190613548565b60405180910390f35b610188600480360381019061018391906136bb565b610596565b005b6101a4600480360381019061019f9190613704565b6108cd565b6040516101b19190613731565b60405180910390f35b6101d460048036038101906101cf9190613823565b610925565b6040516101e19190613731565b60405180910390f35b61020460048036038101906101ff9190613892565b610a28565b60405161021191906138ea565b60405180910390f35b610234600480360381019061022f9190613892565b610a71565b005b610250600480360381019061024b9190613905565b610cfb565b005b61026c60048036038101906102679190613704565b611208565b60405161027991906139ac565b60405180910390f35b61029c60048036038101906102979190613704565b611503565b6040516102a99190613b48565b60405180910390f35b6102cc60048036038101906102c79190613b6a565b6116e6565b005b6102e860048036038101906102e39190613d14565b611aba565b6040516102f59190613731565b60405180910390f35b61031860048036038101906103139190613704565b611b71565b6040516103289493929190613dc5565b60405180910390f35b610339611d46565b6040516103469190613e1f565b60405180910390f35b61036960048036038101906103649190613704565b611d53565b60405161037691906139ac565b60405180910390f35b61039960048036038101906103949190613704565b611e3d565b6040516103a893929190613e3a565b60405180910390f35b6103cb60048036038101906103c69190613e86565b612144565b005b6103e760048036038101906103e29190613704565b6125c8565b6040516103fe9b9a99989796959493929190613eb3565b60405180910390f35b61040f612a6f565b60405161041c9190614054565b60405180910390f35b61043f600480360381019061043a9190613704565b612afd565b60405161045196959493929190614076565b60405180910390f35b610474600480360381019061046f9190613704565b6130da565b6040516104819190613e1f565b60405180910390f35b6104a4600480360381019061049f9190613e86565b6130f2565b6040516104b191906138ea565b60405180910390f35b600360205281600052604060002081815481106104d657600080fd5b9060005260206000209060030201600091509150508060000180546104fa9061411b565b80601f01602080910402602001604051908101604052809291908181526020018280546105269061411b565b80156105735780601f1061054857610100808354040283529160200191610573565b820191906000526020600020905b81548152906001019060200180831161055657829003601f168201915b5050505050908060010160009054906101000a900460ff16908060020154905083565b6000803373ffffffffffffffffffffffffffffffffffffffff1673ffffffffffffffffffffffffffffffffffffffff16815260200190815260200160002060000160009054906101000a900460ff16610624576040517f08c379a000000000000000000000000000000000000000000000000000000000815260040161061b90614198565b60405180910390fd5b6000600260003373ffffffffffffffffffffffffffffffffffffffff1673ffffffffffffffffffffffffffffffffffffffff16815260200190815260200160002060000180546106739061411b565b9050036106b5576040517f08c379a00000000000000000000000000000000000000000000000000000000081526004016106ac90614204565b60405180910390fd5b600260003373ffffffffffffffffffffffffffffffffffffffff1673ffffffffffffffffffffffffffffffffffffffff168152602001908152602001600020600a0160009054906101000a900460ff1615610745576040517f08c379a000000000000000000000000000000000000000000000000000000000815260040161073c90614270565b60405180910390fd5b6001600260003373ffffffffffffffffffffffffffffffffffffffff1673ffffffffffffffffffffffffffffffffffffffff168152602001908152602001600020600a0160006101000a81548160ff02191690831515021790555060005b600360003373ffffffffffffffffffffffffffffffffffffffff1673ffffffffffffffffffffffffffffffffffffffff1681526020019081526020016000208054905081101561087b576000600360003373ffffffffffffffffffffffffffffffffffffffff1673ffffffffffffffffffffffffffffffffffffffff16815260200190815260200160002082815481106108405761083f614290565b5b906000526020600020906003020160010160006101000a81548160ff0219169083151502179055508080610873906142ee565b9150506107a3565b503373ffffffffffffffffffffffffffffffffffffffff167fea1842a7488747c3224eb14e1621c64aa824ec84dadb16e6122fa8223086d048826040516108c29190614336565b60405180910390a250565b60008060008373ffffffffffffffffffffffffffffffffffffffff1673ffffffffffffffffffffffffffffffffffffffff16815260200190815260200160002060000160009054906101000a900460ff169050919050565b60008060008373ffffffffffffffffffffffffffffffffffffffff1673ffffffffffffffffffffffffffffffffffffffff16815260200190815260200160002060000160009054906101000a900460ff166109b5576040517f08c379a00000000000000000000000000000000000000000000000000000000081526004016109ac906143a4565b60405180910390fd5b6000846040516020016109c8919061443c565b60405160208183030381529060405280519060200120905060006109ec8286613181565b90508373ffffffffffffffffffffffffffffffffffffffff168173ffffffffffffffffffffffffffffffffffffffff1614925050509392505050565b6001818051602081018201805184825260208301602085012081835280955050505050506000915054906101000a900473ffffffffffffffffffffffffffffffffffffffff1681565b6000803373ffffffffffffffffffffffffffffffffffffffff1673ffffffffffffffffffffffffffffffffffffffff16815260200190815260200160002060000160009054906101000a900460ff16610aff576040517f08c379a0000000000000000000000000000000000000000000000000000000008152600401610af690614198565b60405180910390fd5b6000815111610b43576040517f08c379a0000000000000000000000000000000000000000000000000000000008152600401610b3a906144ae565b60405180910390fd5b600360003373ffffffffffffffffffffffffffffffffffffffff1673ffffffffffffffffffffffffffffffffffffffff16815260200190815260200160002060405180606001604052808381526020016001151581526020014281525090806001815401808255809150506001900390600052602060002090600302016000909190919091506000820151816000019080519060200190610be5929190613274565b5060208201518160010160006101000a81548160ff02191690831515021790555060408201518160020155505060006001600360003373ffffffffffffffffffffffffffffffffffffffff1673ffffffffffffffffffffffffffffffffffffffff16815260200190815260200160002080549050610c6391906144ce565b905080600460003373ffffffffffffffffffffffffffffffffffffffff1673ffffffffffffffffffffffffffffffffffffffff168152602001908152602001600020819055503373ffffffffffffffffffffffffffffffffffffffff167fae3c25feee9ffe53f654a0494566502413eea9041dd7db07da82a2c6bb8ca34e83604051610cef9190614336565b60405180910390a25050565b6000835111610d3f576040517f08c379a0000000000000000000000000000000000000000000000000000000008152600401610d369061454e565b60405180910390fd5b6000825111610d83576040517f08c379a0000000000000000000000000000000000000000000000000000000008152600401610d7a906145ba565b60405180910390fd5b6000815111610dc7576040517f08c379a0000000000000000000000000000000000000000000000000000000008152600401610dbe906144ae565b60405180910390fd5b6000803373ffffffffffffffffffffffffffffffffffffffff1673ffffffffffffffffffffffffffffffffffffffff16815260200190815260200160002060000160009054906101000a900460ff1615610e56576040517f08c379a0000000000000000000000000000000000000000000000000000000008152600401610e4d90614626565b60405180910390fd5b600073ffffffffffffffffffffffffffffffffffffffff16600182604051610e7e9190614682565b908152602001604051809103902060009054906101000a900473ffffffffffffffffffffffffffffffffffffffff1673ffffffffffffffffffffffffffffffffffffffff1614610f03576040517f08c379a0000000000000000000000000000000000000000000000000000000008152600401610efa906146e5565b60405180910390fd5b6040518060800160405280600115158152602001838152602001848152602001828152506000803373ffffffffffffffffffffffffffffffffffffffff1673ffffffffffffffffffffffffffffffffffffffff16815260200190815260200160002060008201518160000160006101000a81548160ff0219169083151502179055506020820151816001019080519060200190610fa19291906132fa565b506040820151816002019080519060200190610fbe9291906132fa565b506060820151816003019080519060200190610fdb929190613274565b5090505033600182604051610ff09190614682565b908152602001604051809103902060006101000a81548173ffffffffffffffffffffffffffffffffffffffff021916908373ffffffffffffffffffffffffffffffffffffffff1602179055506005339080600181540180825580915050600190039060005260206000200160009091909190916101000a81548173ffffffffffffffffffffffffffffffffffffffff021916908373ffffffffffffffffffffffffffffffffffffffff160217905550600360003373ffffffffffffffffffffffffffffffffffffffff1673ffffffffffffffffffffffffffffffffffffffff16815260200190815260200160002060405180606001604052808381526020016001151581526020014281525090806001815401808255809150506001900390600052602060002090600302016000909190919091506000820151816000019080519060200190611141929190613274565b5060208201518160010160006101000a81548160ff0219169083151502179055506040820151816002015550506000600460003373ffffffffffffffffffffffffffffffffffffffff1673ffffffffffffffffffffffffffffffffffffffff168152602001908152602001600020819055503373ffffffffffffffffffffffffffffffffffffffff167f92822564bab8864c3a47b34e8d23fbce5c46234eb5da261f94087b995ac0f33b84846040516111fb929190614705565b60405180910390a2505050565b60606000808373ffffffffffffffffffffffffffffffffffffffff1673ffffffffffffffffffffffffffffffffffffffff16815260200190815260200160002060000160009054906101000a900460ff16611298576040517f08c379a000000000000000000000000000000000000000000000000000000000815260040161128f90614198565b60405180910390fd5b6000600460008473ffffffffffffffffffffffffffffffffffffffff1673ffffffffffffffffffffffffffffffffffffffff1681526020019081526020016000205490506000600360008573ffffffffffffffffffffffffffffffffffffffff1673ffffffffffffffffffffffffffffffffffffffff1681526020019081526020016000208054905011611361576040517f08c379a000000000000000000000000000000000000000000000000000000000815260040161135890614788565b60405180910390fd5b600360008473ffffffffffffffffffffffffffffffffffffffff1673ffffffffffffffffffffffffffffffffffffffff16815260200190815260200160002081815481106113b2576113b1614290565b5b906000526020600020906003020160010160009054906101000a900460ff16611410576040517f08c379a0000000000000000000000000000000000000000000000000000000008152600401611407906147f4565b60405180910390fd5b600360008473ffffffffffffffffffffffffffffffffffffffff1673ffffffffffffffffffffffffffffffffffffffff168152602001908152602001600020818154811061146157611460614290565b5b9060005260206000209060030201600001805461147d9061411b565b80601f01602080910402602001604051908101604052809291908181526020018280546114a99061411b565b80156114f65780601f106114cb576101008083540402835291602001916114f6565b820191906000526020600020905b8154815290600101906020018083116114d957829003601f168201915b5050505050915050919050565b60606000808373ffffffffffffffffffffffffffffffffffffffff1673ffffffffffffffffffffffffffffffffffffffff16815260200190815260200160002060000160009054906101000a900460ff16611593576040517f08c379a000000000000000000000000000000000000000000000000000000000815260040161158a90614198565b60405180910390fd5b600360008373ffffffffffffffffffffffffffffffffffffffff1673ffffffffffffffffffffffffffffffffffffffff168152602001908152602001600020805480602002602001604051908101604052809291908181526020016000905b828210156116db57838290600052602060002090600302016040518060600160405290816000820180546116259061411b565b80601f01602080910402602001604051908101604052809291908181526020018280546116519061411b565b801561169e5780601f106116735761010080835404028352916020019161169e565b820191906000526020600020905b81548152906001019060200180831161168157829003601f168201915b505050505081526020016001820160009054906101000a900460ff16151515158152602001600282015481525050815260200190600101906115f2565b505050509050919050565b6000803373ffffffffffffffffffffffffffffffffffffffff1673ffffffffffffffffffffffffffffffffffffffff16815260200190815260200160002060000160009054906101000a900460ff16611774576040517f08c379a000000000000000000000000000000000000000000000000000000000815260040161176b90614198565b60405180910390fd5b60008351116117b8576040517f08c379a00000000000000000000000000000000000000000000000000000000081526004016117af906144ae565b60405180910390fd5b600081116117fb576040517f08c379a00000000000000000000000000000000000000000000000000000000081526004016117f290614860565b60405180910390fd5b6000600260003373ffffffffffffffffffffffffffffffffffffffff1673ffffffffffffffffffffffffffffffffffffffff168152602001908152602001600020600001805461184a9061411b565b90501461188c576040517f08c379a0000000000000000000000000000000000000000000000000000000008152600401611883906148cc565b60405180910390fd5b6000429050600062015180836118a291906148ec565b826118ad9190614946565b90506040518061016001604052808c81526020018b81526020018a815260200189815260200188815260200187815260200186815260200185815260200183815260200182815260200160001515815250600260003373ffffffffffffffffffffffffffffffffffffffff1673ffffffffffffffffffffffffffffffffffffffff16815260200190815260200160002060008201518160000190805190602001906119599291906132fa565b5060208201518160010190805190602001906119769291906132fa565b5060408201518160020190805190602001906119939291906132fa565b5060608201518160030190805190602001906119b09291906132fa565b5060808201518160040190805190602001906119cd9291906132fa565b5060a08201518160050190805190602001906119ea9291906132fa565b5060c0820151816006019080519060200190611a079291906132fa565b5060e0820151816007019080519060200190611a249291906132fa565b506101008201518160080155610120820151816009015561014082015181600a0160006101000a81548160ff0219169083151502179055509050503373ffffffffffffffffffffffffffffffffffffffff167f4514a45e6f56567008e790fe2158e66d34e8b8254c060ad061d57027487914798c604051611aa59190614336565b60405180910390a25050505050505050505050565b60008060008473ffffffffffffffffffffffffffffffffffffffff1673ffffffffffffffffffffffffffffffffffffffff16815260200190815260200160002060000160009054906101000a900460ff16611b4a576040517f08c379a0000000000000000000000000000000000000000000000000000000008152600401611b4190614198565b60405180910390fd5b6000611b5584611d53565b9050808051906020012083805190602001201491505092915050565b60006020528060005260406000206000915090508060000160009054906101000a900460ff1690806001018054611ba79061411b565b80601f0160208091040260200160405190810160405280929190818152602001828054611bd39061411b565b8015611c205780601f10611bf557610100808354040283529160200191611c20565b820191906000526020600020905b815481529060010190602001808311611c0357829003601f168201915b505050505090806002018054611c359061411b565b80601f0160208091040260200160405190810160405280929190818152602001828054611c619061411b565b8015611cae5780601f10611c8357610100808354040283529160200191611cae565b820191906000526020600020905b815481529060010190602001808311611c9157829003601f168201915b505050505090806003018054611cc39061411b565b80601f0160208091040260200160405190810160405280929190818152602001828054611cef9061411b565b8015611d3c5780601f10611d1157610100808354040283529160200191611d3c565b820191906000526020600020905b815481529060010190602001808311611d1f57829003601f168201915b5050505050905084565b6000600580549050905090565b60606000808373ffffffffffffffffffffffffffffffffffffffff1673ffffffffffffffffffffffffffffffffffffffff16815260200190815260200160002060000160009054906101000a900460ff16611de3576040517f08c379a0000000000000000000000000000000000000000000000000000000008152600401611dda90614198565b60405180910390fd5b6000424484604051602001611dfa93929190614a05565b6040516020818303038152906040528051906020012060001c905080604051602001611e269190614a42565b604051602081830303815290604052915050919050565b60608060606000808573ffffffffffffffffffffffffffffffffffffffff1673ffffffffffffffffffffffffffffffffffffffff16815260200190815260200160002060000160009054906101000a900460ff16611ed0576040517f08c379a0000000000000000000000000000000000000000000000000000000008152600401611ec790614198565b60405180910390fd5b6000808573ffffffffffffffffffffffffffffffffffffffff1673ffffffffffffffffffffffffffffffffffffffff1681526020019081526020016000206001016000808673ffffffffffffffffffffffffffffffffffffffff1673ffffffffffffffffffffffffffffffffffffffff1681526020019081526020016000206002016000808773ffffffffffffffffffffffffffffffffffffffff1673ffffffffffffffffffffffffffffffffffffffff168152602001908152602001600020600301828054611f9f9061411b565b80601f0160208091040260200160405190810160405280929190818152602001828054611fcb9061411b565b80156120185780601f10611fed57610100808354040283529160200191612018565b820191906000526020600020905b815481529060010190602001808311611ffb57829003601f168201915b5050505050925081805461202b9061411b565b80601f01602080910402602001604051908101604052809291908181526020018280546120579061411b565b80156120a45780601f10612079576101008083540402835291602001916120a4565b820191906000526020600020905b81548152906001019060200180831161208757829003601f168201915b505050505091508080546120b79061411b565b80601f01602080910402602001604051908101604052809291908181526020018280546120e39061411b565b80156121305780601f1061210557610100808354040283529160200191612130565b820191906000526020600020905b81548152906001019060200180831161211357829003601f168201915b505050505090509250925092509193909250565b6000803373ffffffffffffffffffffffffffffffffffffffff1673ffffffffffffffffffffffffffffffffffffffff16815260200190815260200160002060000160009054906101000a900460ff166121d2576040517f08c379a00000000000000000000000000000000000000000000000000000000081526004016121c990614198565b60405180910390fd5b600360003373ffffffffffffffffffffffffffffffffffffffff1673ffffffffffffffffffffffffffffffffffffffff168152602001908152602001600020805490508110612256576040517f08c379a000000000000000000000000000000000000000000000000000000000815260040161224d90614aa9565b60405180910390fd5b600360003373ffffffffffffffffffffffffffffffffffffffff1673ffffffffffffffffffffffffffffffffffffffff16815260200190815260200160002081815481106122a7576122a6614290565b5b906000526020600020906003020160010160009054906101000a900460ff16612305576040517f08c379a00000000000000000000000000000000000000000000000000000000081526004016122fc90614b15565b60405180910390fd5b6001600360003373ffffffffffffffffffffffffffffffffffffffff1673ffffffffffffffffffffffffffffffffffffffff168152602001908152602001600020805490501161238a576040517f08c379a000000000000000000000000000000000000000000000000000000000815260040161238190614b81565b60405180910390fd5b6000600360003373ffffffffffffffffffffffffffffffffffffffff1673ffffffffffffffffffffffffffffffffffffffff16815260200190815260200160002082815481106123dd576123dc614290565b5b906000526020600020906003020160010160006101000a81548160ff02191690831515021790555080600460003373ffffffffffffffffffffffffffffffffffffffff1673ffffffffffffffffffffffffffffffffffffffff16815260200190815260200160002054036125775760005b600360003373ffffffffffffffffffffffffffffffffffffffff1673ffffffffffffffffffffffffffffffffffffffff16815260200190815260200160002080549050811015612575578181141580156125145750600360003373ffffffffffffffffffffffffffffffffffffffff1673ffffffffffffffffffffffffffffffffffffffff16815260200190815260200160002081815481106124f4576124f3614290565b5b906000526020600020906003020160010160009054906101000a900460ff165b156125625780600460003373ffffffffffffffffffffffffffffffffffffffff1673ffffffffffffffffffffffffffffffffffffffff16815260200190815260200160002081905550612575565b808061256d906142ee565b91505061244e565b505b3373ffffffffffffffffffffffffffffffffffffffff167f6a0d45f87f64b1fea67d665c12179ba198d35a60fd48a200f61c493ae06b8591826040516125bd9190613e1f565b60405180910390a250565b60026020528060005260406000206000915090508060000180546125eb9061411b565b80601f01602080910402602001604051908101604052809291908181526020018280546126179061411b565b80156126645780601f1061263957610100808354040283529160200191612664565b820191906000526020600020905b81548152906001019060200180831161264757829003601f168201915b5050505050908060010180546126799061411b565b80601f01602080910402602001604051908101604052809291908181526020018280546126a59061411b565b80156126f25780601f106126c7576101008083540402835291602001916126f2565b820191906000526020600020905b8154815290600101906020018083116126d557829003601f168201915b5050505050908060020180546127079061411b565b80601f01602080910402602001604051908101604052809291908181526020018280546127339061411b565b80156127805780601f1061275557610100808354040283529160200191612780565b820191906000526020600020905b81548152906001019060200180831161276357829003601f168201915b5050505050908060030180546127959061411b565b80601f01602080910402602001604051908101604052809291908181526020018280546127c19061411b565b801561280e5780601f106127e35761010080835404028352916020019161280e565b820191906000526020600020905b8154815290600101906020018083116127f157829003601f168201915b5050505050908060040180546128239061411b565b80601f016020809104026020016040519081016040528092919081815260200182805461284f9061411b565b801561289c5780601f106128715761010080835404028352916020019161289c565b820191906000526020600020905b81548152906001019060200180831161287f57829003601f168201915b5050505050908060050180546128b19061411b565b80601f01602080910402602001604051908101604052809291908181526020018280546128dd9061411b565b801561292a5780601f106128ff5761010080835404028352916020019161292a565b820191906000526020600020905b81548152906001019060200180831161290d57829003601f168201915b50505050509080600601805461293f9061411b565b80601f016020809104026020016040519081016040528092919081815260200182805461296b9061411b565b80156129b85780601f1061298d576101008083540402835291602001916129b8565b820191906000526020600020905b81548152906001019060200180831161299b57829003601f168201915b5050505050908060070180546129cd9061411b565b80601f01602080910402602001604051908101604052809291908181526020018280546129f99061411b565b8015612a465780601f10612a1b57610100808354040283529160200191612a46565b820191906000526020600020905b815481529060010190602001808311612a2957829003601f168201915b50505050509080600801549080600901549080600a0160009054906101000a900460ff1690508b565b60606005805480602002602001604051908101604052809291908181526020018280548015612af357602002820191906000526020600020905b8160009054906101000a900473ffffffffffffffffffffffffffffffffffffffff1673ffffffffffffffffffffffffffffffffffffffff1681526020019060010190808311612aa9575b5050505050905090565b606080606060008060008060008873ffffffffffffffffffffffffffffffffffffffff1673ffffffffffffffffffffffffffffffffffffffff16815260200190815260200160002060000160009054906101000a900460ff16612b95576040517f08c379a0000000000000000000000000000000000000000000000000000000008152600401612b8c90614198565b60405180910390fd5b6000600260008973ffffffffffffffffffffffffffffffffffffffff1673ffffffffffffffffffffffffffffffffffffffff16815260200190815260200160002060405180610160016040529081600082018054612bf29061411b565b80601f0160208091040260200160405190810160405280929190818152602001828054612c1e9061411b565b8015612c6b5780601f10612c4057610100808354040283529160200191612c6b565b820191906000526020600020905b815481529060010190602001808311612c4e57829003601f168201915b50505050508152602001600182018054612c849061411b565b80601f0160208091040260200160405190810160405280929190818152602001828054612cb09061411b565b8015612cfd5780601f10612cd257610100808354040283529160200191612cfd565b820191906000526020600020905b815481529060010190602001808311612ce057829003601f168201915b50505050508152602001600282018054612d169061411b565b80601f0160208091040260200160405190810160405280929190818152602001828054612d429061411b565b8015612d8f5780601f10612d6457610100808354040283529160200191612d8f565b820191906000526020600020905b815481529060010190602001808311612d7257829003601f168201915b50505050508152602001600382018054612da89061411b565b80601f0160208091040260200160405190810160405280929190818152602001828054612dd49061411b565b8015612e215780601f10612df657610100808354040283529160200191612e21565b820191906000526020600020905b815481529060010190602001808311612e0457829003601f168201915b50505050508152602001600482018054612e3a9061411b565b80601f0160208091040260200160405190810160405280929190818152602001828054612e669061411b565b8015612eb35780601f10612e8857610100808354040283529160200191612eb3565b820191906000526020600020905b815481529060010190602001808311612e9657829003601f168201915b50505050508152602001600582018054612ecc9061411b565b80601f0160208091040260200160405190810160405280929190818152602001828054612ef89061411b565b8015612f455780601f10612f1a57610100808354040283529160200191612f45565b820191906000526020600020905b815481529060010190602001808311612f2857829003601f168201915b50505050508152602001600682018054612f5e9061411b565b80601f0160208091040260200160405190810160405280929190818152602001828054612f8a9061411b565b8015612fd75780601f10612fac57610100808354040283529160200191612fd7565b820191906000526020600020905b815481529060010190602001808311612fba57829003601f168201915b50505050508152602001600782018054612ff09061411b565b80601f016020809104026020016040519081016040528092919081815260200182805461301c9061411b565b80156130695780601f1061303e57610100808354040283529160200191613069565b820191906000526020600020905b81548152906001019060200180831161304c57829003601f168201915b505050505081526020016008820154815260200160098201548152602001600a820160009054906101000a900460ff161515151581525050905080600001518160a0015182608001518361010001518461012001518561014001519650965096509650965096505091939550919395565b60046020528060005260406000206000915090505481565b6000600580549050821061313b576040517f08c379a000000000000000000000000000000000000000000000000000000000815260040161313290614bed565b60405180910390fd5b6005828154811061314f5761314e614290565b5b9060005260206000200160009054906101000a900473ffffffffffffffffffffffffffffffffffffffff169050919050565b600080600080613190856131f0565b925092509250600186828585604051600081526020016040526040516131b99493929190614c38565b6020604051602081039080840390855afa1580156131db573d6000803e3d6000fd5b50505060206040510351935050505092915050565b60008060006041845114613239576040517f08c379a000000000000000000000000000000000000000000000000000000000815260040161323090614cc9565b60405180910390fd5b6020840151925060408401519150606084015160001a9050601b8160ff16101561326d57601b8161326a9190614ce9565b90505b9193909250565b8280546132809061411b565b90600052602060002090601f0160209004810192826132a257600085556132e9565b82601f106132bb57805160ff19168380011785556132e9565b828001600101855582156132e9579182015b828111156132e85782518255916020019190600101906132cd565b5b5090506132f69190613380565b5090565b8280546133069061411b565b90600052602060002090601f016020900481019282613328576000855561336f565b82601f1061334157805160ff191683800117855561336f565b8280016001018555821561336f579182015b8281111561336e578251825591602001919060010190613353565b5b50905061337c9190613380565b5090565b5b80821115613399576000816000905550600101613381565b5090565b6000604051905090565b600080fd5b600080fd5b600073ffffffffffffffffffffffffffffffffffffffff82169050919050565b60006133dc826133b1565b9050919050565b6133ec816133d1565b81146133f757600080fd5b50565b600081359050613409816133e3565b92915050565b6000819050919050565b6134228161340f565b811461342d57600080fd5b50565b60008135905061343f81613419565b92915050565b6000806040838503121561345c5761345b6133a7565b5b600061346a858286016133fa565b925050602061347b85828601613430565b9150509250929050565b600081519050919050565b600082825260208201905092915050565b60005b838110156134bf5780820151818401526020810190506134a4565b838111156134ce576000848401525b50505050565b6000601f19601f8301169050919050565b60006134f082613485565b6134fa8185613490565b935061350a8185602086016134a1565b613513816134d4565b840191505092915050565b60008115159050919050565b6135338161351e565b82525050565b6135428161340f565b82525050565b6000606082019050818103600083015261356281866134e5565b9050613571602083018561352a565b61357e6040830184613539565b949350505050565b600080fd5b600080fd5b7f4e487b7100000000000000000000000000000000000000000000000000000000600052604160045260246000fd5b6135c8826134d4565b810181811067ffffffffffffffff821117156135e7576135e6613590565b5b80604052505050565b60006135fa61339d565b905061360682826135bf565b919050565b600067ffffffffffffffff82111561362657613625613590565b5b61362f826134d4565b9050602081019050919050565b82818337600083830152505050565b600061365e6136598461360b565b6135f0565b90508281526020810184848401111561367a5761367961358b565b5b61368584828561363c565b509392505050565b600082601f8301126136a2576136a1613586565b5b81356136b284826020860161364b565b91505092915050565b6000602082840312156136d1576136d06133a7565b5b600082013567ffffffffffffffff8111156136ef576136ee6133ac565b5b6136fb8482850161368d565b91505092915050565b60006020828403121561371a576137196133a7565b5b6000613728848285016133fa565b91505092915050565b6000602082019050613746600083018461352a565b92915050565b6000819050919050565b61375f8161374c565b811461376a57600080fd5b50565b60008135905061377c81613756565b92915050565b600067ffffffffffffffff82111561379d5761379c613590565b5b6137a6826134d4565b9050602081019050919050565b60006137c66137c184613782565b6135f0565b9050828152602081018484840111156137e2576137e161358b565b5b6137ed84828561363c565b509392505050565b600082601f83011261380a57613809613586565b5b813561381a8482602086016137b3565b91505092915050565b60008060006060848603121561383c5761383b6133a7565b5b600061384a8682870161376d565b935050602084013567ffffffffffffffff81111561386b5761386a6133ac565b5b613877868287016137f5565b9250506040613888868287016133fa565b9150509250925092565b6000602082840312156138a8576138a76133a7565b5b600082013567ffffffffffffffff8111156138c6576138c56133ac565b5b6138d2848285016137f5565b91505092915050565b6138e4816133d1565b82525050565b60006020820190506138ff60008301846138db565b92915050565b60008060006060848603121561391e5761391d6133a7565b5b600084013567ffffffffffffffff81111561393c5761393b6133ac565b5b6139488682870161368d565b935050602084013567ffffffffffffffff811115613969576139686133ac565b5b6139758682870161368d565b925050604084013567ffffffffffffffff811115613996576139956133ac565b5b6139a2868287016137f5565b9150509250925092565b600060208201905081810360008301526139c681846134e5565b905092915050565b600081519050919050565b600082825260208201905092915050565b6000819050602082019050919050565b600082825260208201905092915050565b6000613a1682613485565b613a2081856139fa565b9350613a308185602086016134a1565b613a39816134d4565b840191505092915050565b613a4d8161351e565b82525050565b613a5c8161340f565b82525050565b60006060830160008301518482036000860152613a7f8282613a0b565b9150506020830151613a946020860182613a44565b506040830151613aa76040860182613a53565b508091505092915050565b6000613abe8383613a62565b905092915050565b6000602082019050919050565b6000613ade826139ce565b613ae881856139d9565b935083602082028501613afa856139ea565b8060005b85811015613b365784840389528151613b178582613ab2565b9450613b2283613ac6565b925060208a01995050600181019050613afe565b50829750879550505050505092915050565b60006020820190508181036000830152613b628184613ad3565b905092915050565b60008060008060008060008060006101208a8c031215613b8d57613b8c6133a7565b5b60008a013567ffffffffffffffff811115613bab57613baa6133ac565b5b613bb78c828d0161368d565b99505060208a013567ffffffffffffffff811115613bd857613bd76133ac565b5b613be48c828d0161368d565b98505060408a013567ffffffffffffffff811115613c0557613c046133ac565b5b613c118c828d0161368d565b97505060608a013567ffffffffffffffff811115613c3257613c316133ac565b5b613c3e8c828d0161368d565b96505060808a013567ffffffffffffffff811115613c5f57613c5e6133ac565b5b613c6b8c828d0161368d565b95505060a08a013567ffffffffffffffff811115613c8c57613c8b6133ac565b5b613c988c828d0161368d565b94505060c08a013567ffffffffffffffff811115613cb957613cb86133ac565b5b613cc58c828d0161368d565b93505060e08a013567ffffffffffffffff811115613ce657613ce56133ac565b5b613cf28c828d0161368d565b925050610100613d048c828d01613430565b9150509295985092959850929598565b60008060408385031215613d2b57613d2a6133a7565b5b6000613d39858286016133fa565b925050602083013567ffffffffffffffff811115613d5a57613d596133ac565b5b613d66858286016137f5565b9150509250929050565b600081519050919050565b600082825260208201905092915050565b6000613d9782613d70565b613da18185613d7b565b9350613db18185602086016134a1565b613dba816134d4565b840191505092915050565b6000608082019050613dda600083018761352a565b8181036020830152613dec8186613d8c565b90508181036040830152613e008185613d8c565b90508181036060830152613e1481846134e5565b905095945050505050565b6000602082019050613e346000830184613539565b92915050565b60006060820190508181036000830152613e548186613d8c565b90508181036020830152613e688185613d8c565b90508181036040830152613e7c81846134e5565b9050949350505050565b600060208284031215613e9c57613e9b6133a7565b5b6000613eaa84828501613430565b91505092915050565b6000610160820190508181036000830152613ece818e613d8c565b90508181036020830152613ee2818d613d8c565b90508181036040830152613ef6818c613d8c565b90508181036060830152613f0a818b613d8c565b90508181036080830152613f1e818a613d8c565b905081810360a0830152613f328189613d8c565b905081810360c0830152613f468188613d8c565b905081810360e0830152613f5a8187613d8c565b9050613f6a610100830186613539565b613f78610120830185613539565b613f8661014083018461352a565b9c9b505050505050505050505050565b600081519050919050565b600082825260208201905092915050565b6000819050602082019050919050565b613fcb816133d1565b82525050565b6000613fdd8383613fc2565b60208301905092915050565b6000602082019050919050565b600061400182613f96565b61400b8185613fa1565b935061401683613fb2565b8060005b8381101561404757815161402e8882613fd1565b975061403983613fe9565b92505060018101905061401a565b5085935050505092915050565b6000602082019050818103600083015261406e8184613ff6565b905092915050565b600060c08201905081810360008301526140908189613d8c565b905081810360208301526140a48188613d8c565b905081810360408301526140b88187613d8c565b90506140c76060830186613539565b6140d46080830185613539565b6140e160a083018461352a565b979650505050505050565b7f4e487b7100000000000000000000000000000000000000000000000000000000600052602260045260246000fd5b6000600282049050600182168061413357607f821691505b602082108103614146576141456140ec565b5b50919050565b7f55736572206e6f74207265676973746572656400000000000000000000000000600082015250565b6000614182601383613d7b565b915061418d8261414c565b602082019050919050565b600060208201905081810360008301526141b181614175565b9050919050565b7f4e6f20636572746966696361746520666f756e64000000000000000000000000600082015250565b60006141ee601483613d7b565b91506141f9826141b8565b602082019050919050565b6000602082019050818103600083015261421d816141e1565b9050919050565b7f436572746966696361746520616c7265616479207265766f6b65640000000000600082015250565b600061425a601b83613d7b565b915061426582614224565b602082019050919050565b600060208201905081810360008301526142898161424d565b9050919050565b7f4e487b7100000000000000000000000000000000000000000000000000000000600052603260045260246000fd5b7f4e487b7100000000000000000000000000000000000000000000000000000000600052601160045260246000fd5b60006142f98261340f565b91507fffffffffffffffffffffffffffffffffffffffffffffffffffffffffffffffff820361432b5761432a6142bf565b5b600182019050919050565b600060208201905081810360008301526143508184613d8c565b905092915050565b7f5369676e6572206e6f7420726567697374657265640000000000000000000000600082015250565b600061438e601583613d7b565b915061439982614358565b602082019050919050565b600060208201905081810360008301526143bd81614381565b9050919050565b600081905092915050565b7f19457468657265756d205369676e6564204d6573736167653a0a333200000000600082015250565b6000614405601c836143c4565b9150614410826143cf565b601c82019050919050565b6000819050919050565b6144366144318261374c565b61441b565b82525050565b6000614447826143f8565b91506144538284614425565b60208201915081905092915050565b7f5075626c6963206b65792063616e6e6f7420626520656d707479000000000000600082015250565b6000614498601a83613d7b565b91506144a382614462565b602082019050919050565b600060208201905081810360008301526144c78161448b565b9050919050565b60006144d98261340f565b91506144e48361340f565b9250828210156144f7576144f66142bf565b5b828203905092915050565b7f456d61696c2063616e6e6f7420626520656d7074790000000000000000000000600082015250565b6000614538601583613d7b565b915061454382614502565b602082019050919050565b600060208201905081810360008301526145678161452b565b9050919050565b7f557365726e616d652063616e6e6f7420626520656d7074790000000000000000600082015250565b60006145a4601883613d7b565b91506145af8261456e565b602082019050919050565b600060208201905081810360008301526145d381614597565b9050919050565b7f5573657220616c72656164792072656769737465726564000000000000000000600082015250565b6000614610601783613d7b565b915061461b826145da565b602082019050919050565b6000602082019050818103600083015261463f81614603565b9050919050565b600081905092915050565b600061465c82613485565b6146668185614646565b93506146768185602086016134a1565b80840191505092915050565b600061468e8284614651565b915081905092915050565b7f5075626c6963206b657920616c72656164792072656769737465726564000000600082015250565b60006146cf601d83613d7b565b91506146da82614699565b602082019050919050565b600060208201905081810360008301526146fe816146c2565b9050919050565b6000604082019050818103600083015261471f8185613d8c565b905081810360208301526147338184613d8c565b90509392505050565b7f4e6f207075626c6963206b65797320666f756e64000000000000000000000000600082015250565b6000614772601483613d7b565b915061477d8261473c565b602082019050919050565b600060208201905081810360008301526147a181614765565b9050919050565b7f4e6f20616374697665207075626c6963206b6579000000000000000000000000600082015250565b60006147de601483613d7b565b91506147e9826147a8565b602082019050919050565b6000602082019050818103600083015261480d816147d1565b9050919050565b7f56616c696469747920706572696f64206d75737420626520706f736974697665600082015250565b600061484a602083613d7b565b915061485582614814565b602082019050919050565b600060208201905081810360008301526148798161483d565b9050919050565b7f436572746966696361746520616c726561647920657869737473000000000000600082015250565b60006148b6601a83613d7b565b91506148c182614880565b602082019050919050565b600060208201905081810360008301526148e5816148a9565b9050919050565b60006148f78261340f565b91506149028361340f565b9250817fffffffffffffffffffffffffffffffffffffffffffffffffffffffffffffffff048311821515161561493b5761493a6142bf565b5b828202905092915050565b60006149518261340f565b915061495c8361340f565b9250827fffffffffffffffffffffffffffffffffffffffffffffffffffffffffffffffff03821115614991576149906142bf565b5b828201905092915050565b6000819050919050565b6149b76149b28261340f565b61499c565b82525050565b60008160601b9050919050565b60006149d5826149bd565b9050919050565b60006149e7826149ca565b9050919050565b6149ff6149fa826133d1565b6149dc565b82525050565b6000614a1182866149a6565b602082019150614a2182856149a6565b602082019150614a3182846149ee565b601482019150819050949350505050565b6000614a4e82846149a6565b60208201915081905092915050565b7f496e76616c6964206b657920696e646578000000000000000000000000000000600082015250565b6000614a93601183613d7b565b9150614a9e82614a5d565b602082019050919050565b60006020820190508181036000830152614ac281614a86565b9050919050565b7f4b657920616c726561647920696e616374697665000000000000000000000000600082015250565b6000614aff601483613d7b565b9150614b0a82614ac9565b602082019050919050565b60006020820190508181036000830152614b2e81614af2565b9050919050565b7f43616e6e6f74206465616374697661746520746865206f6e6c79206b65790000600082015250565b6000614b6b601e83613d7b565b9150614b7682614b35565b602082019050919050565b60006020820190508181036000830152614b9a81614b5e565b9050919050565b7f496e646578206f7574206f6620626f756e647300000000000000000000000000600082015250565b6000614bd7601383613d7b565b9150614be282614ba1565b602082019050919050565b60006020820190508181036000830152614c0681614bca565b9050919050565b614c168161374c565b82525050565b600060ff82169050919050565b614c3281614c1c565b82525050565b6000608082019050614c4d6000830187614c0d565b614c5a6020830186614c29565b614c676040830185614c0d565b614c746060830184614c0d565b95945050505050565b7f496e76616c6964207369676e6174757265206c656e6774680000000000000000600082015250565b6000614cb3601883613d7b565b9150614cbe82614c7d565b602082019050919050565b60006020820190508181036000830152614ce281614ca6565b9050919050565b6000614cf482614c1c565b9150614cff83614c1c565b92508260ff03821115614d1557614d146142bf565b5b82820190509291505056fea26469706673582212205e61d1e95dc209c3e95834b3977ba937c323b47a7b493016d87eba5387cf30a964736f6c634300080d0033",
  "immutableReferences": {},
  "source": "// SPDX-License-Identifier: MIT\npragma solidity ^0.8.0;\n\ncontract UserCertificateManager {\n    // User Management\n    struct User {\n        bool exists;\n        string username;\n        string email;\n        bytes publicKey; // Keep the original public key for backward compatibility\n    }\n\n    // Certificate Management\n    struct PublicKey {\n        bytes keyData;\n        bool isActive;\n        uint256 addedAt;\n    }\n\n    struct Certificate {\n        string serialNumber;\n        string country;\n        string state;\n        string locality;\n        string organization;\n        string commonName;\n        string publicKey;\n        string signatureAlgorithm;\n        uint256 validFrom;\n        uint256 validTo;\n        bool isRevoked;\n    }\n\n    // Mappings\n    mapping(address => User) public users;\n    mapping(bytes => address) public publicKeyToAddress;\n    mapping(address => Certificate) public userCertificates;\n    mapping(address => PublicKey[]) public userPublicKeys;\n    mapping(address => uint256) public activeKeyIndex;\n    address[] private registeredUsers;\n\n    // Events\n    event UserRegistered(address indexed user, string email, string username);\n    event PublicKeyUpdated(address indexed user, string keyData);\n    event CertificateIssued(address indexed user, string serialNumber);\n    event PublicKeyAdded(address indexed user, string keyData);\n    event PublicKeyDeactivated(address indexed user, uint256 keyIndex);\n    event CertificateRevoked(address indexed user, string reason);\n\n    // User Registration\n    function registerUser(\n        string memory email,\n        string memory username,\n        bytes memory publicKey\n    ) public {\n        require(bytes(email).length > 0, \"Email cannot be empty\");\n        require(bytes(username).length > 0, \"Username cannot be empty\");\n        require(publicKey.length > 0, \"Public key cannot be empty\");\n        require(!users[msg.sender].exists, \"User already registered\");\n        require(\n            publicKeyToAddress[publicKey] == address(0),\n            \"Public key already registered\"\n        );\n\n        users[msg.sender] = User({\n            exists: true,\n            username: username,\n            email: email,\n            publicKey: publicKey\n        });\n\n        publicKeyToAddress[publicKey] = msg.sender;\n        registeredUsers.push(msg.sender);\n\n        // Add the public key to the keys array\n        userPublicKeys[msg.sender].push(\n            PublicKey({\n                keyData: publicKey,\n                isActive: true,\n                addedAt: block.timestamp\n            })\n        );\n        activeKeyIndex[msg.sender] = 0;\n\n        emit UserRegistered(msg.sender, email, username);\n    }\n\n    // Certificate Management\n    function issueCertificate(\n        string memory _serialNumber,\n        string memory _country,\n        string memory _state,\n        string memory _locality,\n        string memory _organization,\n        string memory _commonName,\n        string memory _publicKey,\n        string memory _signatureAlgorithm,\n        uint256 _validDays\n    ) external {\n        require(users[msg.sender].exists, \"User not registered\");\n        require(bytes(_publicKey).length > 0, \"Public key cannot be empty\");\n        require(_validDays > 0, \"Validity period must be positive\");\n        require(\n            bytes(userCertificates[msg.sender].serialNumber).length == 0,\n            \"Certificate already exists\"\n        );\n\n        uint256 validFrom = block.timestamp;\n        uint256 validTo = validFrom + (_validDays * 1 days);\n\n        userCertificates[msg.sender] = Certificate({\n            serialNumber: _serialNumber,\n            country: _country,\n            state: _state,\n            locality: _locality,\n            organization: _organization,\n            commonName: _commonName,\n            publicKey: _publicKey,\n            signatureAlgorithm: _signatureAlgorithm,\n            validFrom: validFrom,\n            validTo: validTo,\n            isRevoked: false\n        });\n\n        emit CertificateIssued(msg.sender, _serialNumber);\n    }\n\n    // Public Key Management\n    function addPublicKey(bytes memory _keyData) public {\n        require(users[msg.sender].exists, \"User not registered\");\n        require(_keyData.length > 0, \"Public key cannot be empty\");\n\n        // Add new public key\n        userPublicKeys[msg.sender].push(\n            PublicKey({\n                keyData: _keyData,\n                isActive: true,\n                addedAt: block.timestamp\n            })\n        );\n\n        // Set the new key as active\n        uint256 newKeyIndex = userPublicKeys[msg.sender].length - 1;\n        activeKeyIndex[msg.sender] = newKeyIndex;\n\n        emit PublicKeyAdded(msg.sender, string(_keyData));\n    }\n\n    function deactivatePublicKey(uint256 _keyIndex) external {\n        require(users[msg.sender].exists, \"User not registered\");\n        require(\n            _keyIndex < userPublicKeys[msg.sender].length,\n            \"Invalid key index\"\n        );\n        require(\n            userPublicKeys[msg.sender][_keyIndex].isActive,\n            \"Key already inactive\"\n        );\n        require(\n            userPublicKeys[msg.sender].length > 1,\n            \"Cannot deactivate the only key\"\n        );\n\n        userPublicKeys[msg.sender][_keyIndex].isActive = false;\n\n        if (activeKeyIndex[msg.sender] == _keyIndex) {\n            for (uint256 i = 0; i < userPublicKeys[msg.sender].length; i++) {\n                if (i != _keyIndex && userPublicKeys[msg.sender][i].isActive) {\n                    activeKeyIndex[msg.sender] = i;\n                    break;\n                }\n            }\n        }\n\n        emit PublicKeyDeactivated(msg.sender, _keyIndex);\n    }\n\n    function revokeCertificate(string memory _reason) external {\n        require(users[msg.sender].exists, \"User not registered\");\n        require(\n            bytes(userCertificates[msg.sender].serialNumber).length != 0,\n            \"No certificate found\"\n        );\n        require(\n            !userCertificates[msg.sender].isRevoked,\n            \"Certificate already revoked\"\n        );\n\n        userCertificates[msg.sender].isRevoked = true;\n\n        // Deactivate all public keys\n        for (uint256 i = 0; i < userPublicKeys[msg.sender].length; i++) {\n            userPublicKeys[msg.sender][i].isActive = false;\n        }\n\n        emit CertificateRevoked(msg.sender, _reason);\n    }\n\n    // View Functions\n    function getActivePublicKey(\n        address _user\n    ) external view returns (bytes memory) {\n        require(users[_user].exists, \"User not registered\");\n        uint256 activeIndex = activeKeyIndex[_user];\n        require(userPublicKeys[_user].length > 0, \"No public keys found\");\n        require(\n            userPublicKeys[_user][activeIndex].isActive,\n            \"No active public key\"\n        );\n\n        return userPublicKeys[_user][activeIndex].keyData;\n    }\n\n    function getUserPublicKeys(\n        address _user\n    ) external view returns (PublicKey[] memory) {\n        require(users[_user].exists, \"User not registered\");\n        return userPublicKeys[_user];\n    } // No change needed here, struct already updated\n\n    function getCertificateInfo(\n        address _user\n    )\n        external\n        view\n        returns (\n            string memory serialNumber,\n            string memory commonName,\n            string memory organization,\n            uint256 validFrom,\n            uint256 validTo,\n            bool isRevoked\n        )\n    {\n        require(users[_user].exists, \"User not registered\");\n        Certificate memory cert = userCertificates[_user];\n        return (\n            cert.serialNumber,\n            cert.commonName,\n            cert.organization,\n            cert.validFrom,\n            cert.validTo,\n            cert.isRevoked\n        );\n    }\n\n    function generateChallenge(\n        address user\n    ) public view returns (bytes memory challenge) {\n        require(users[user].exists, \"User not registered\");\n\n        // Generate random number for challenge\n        uint256 random = uint256(\n            keccak256(abi.encodePacked(block.timestamp, block.difficulty, user))\n        );\n\n        return abi.encodePacked(random);\n    }\n\n    function verifySignature(\n        bytes32 messageHash,\n        bytes memory signature,\n        address signer\n    ) public view returns (bool) {\n        require(users[signer].exists, \"Signer not registered\");\n\n        // This is a simplified version - in production, you'd want to implement proper ECDSA recovery\n        bytes32 ethSignedMessageHash = keccak256(\n            abi.encodePacked(\"\\x19Ethereum Signed Message:\\n32\", messageHash)\n        );\n\n        address recovered = recoverSigner(ethSignedMessageHash, signature);\n        return recovered == signer;\n    }\n\n    function recoverSigner(\n        bytes32 _ethSignedMessageHash,\n        bytes memory _signature\n    ) internal pure returns (address) {\n        (bytes32 r, bytes32 s, uint8 v) = splitSignature(_signature);\n        return ecrecover(_ethSignedMessageHash, v, r, s);\n    }\n\n    function splitSignature(\n        bytes memory sig\n    ) internal pure returns (bytes32 r, bytes32 s, uint8 v) {\n        require(sig.length == 65, \"Invalid signature length\");\n\n        assembly {\n            r := mload(add(sig, 32))\n            s := mload(add(sig, 64))\n            v := byte(0, mload(add(sig, 96)))\n        }\n\n        if (v < 27) v += 27;\n    }\n\n    // Get user details (from UserAuth)\n    function getUserDetails(\n        address user\n    ) public view returns (string memory, string memory, bytes memory) {\n        require(users[user].exists, \"User not registered\");\n        return (users[user].username, users[user].email, users[user].publicKey);\n    }\n\n    // Check if user exists (from UserAuth)\n    function isUserRegistered(address user) public view returns (bool) {\n        return users[user].exists;\n    }\n\n    // Get total number of registered users (from UserAuth)\n    function getUserCount() public view returns (uint) {\n        return registeredUsers.length;\n    }\n\n    // Get user address by index (from UserAuth)\n    function getUserByIndex(uint index) public view returns (address) {\n        require(index < registeredUsers.length, \"Index out of bounds\");\n        return registeredUsers[index];\n    }\n\n    // Get all registered users (from UserAuth)\n    function getAllUsers() public view returns (address[] memory) {\n        return registeredUsers;\n    }\n\n    // Verify solution (from UserAuth)\n    function verifySolution(\n        address user,\n        bytes memory solution\n    ) public view returns (bool) {\n        require(users[user].exists, \"User not registered\");\n        bytes memory challenge = generateChallenge(user);\n        return keccak256(solution) == keccak256(challenge);\n    }\n}\n",
  "sourcePath": "D:\\Praveen\\Personal\\projects\\trustkey\\truffle-pkibckckn\\contracts\\UserCertificateManager.sol",
  "compiler": {
    "name": "solc",
    "version": "0.8.13+commit.abaa5c0e.Emscripten.clang"
  },
  "schemaVersion": "3.4.16",
  "updatedAt": "2025-06-29T16:00:17.873Z",
  "networkType": "ethereum",
  "devdoc": {
    "kind": "dev",
    "methods": {},
    "version": 1
  },
  "userdoc": {
    "kind": "user",
    "methods": {},
    "version": 1
  }
}