{
  "contractName": "UserAuth",
  "abi": [
    {
      "anonymous": false,
      "inputs": [
        {
          "indexed": true,
          "internalType": "address",
          "name": "user",
          "type": "address"
        },
        {
          "indexed": false,
          "internalType": "bytes",
          "name": "publicKey",
          "type": "bytes"
        }
      ],
      "name": "PublicKeyUpdated",
      "type": "event"
    },
    {
      "anonymous": false,
      "inputs": [
        {
          "indexed": true,
          "internalType": "address",
          "name": "user",
          "type": "address"
        },
        {
          "indexed": false,
          "internalType": "string",
          "name": "email",
          "type": "string"
        },
        {
          "indexed": false,
          "internalType": "string",
          "name": "username",
          "type": "string"
        }
      ],
      "name": "UserRegistered",
      "type": "event"
    },
    {
      "inputs": [
        {
          "internalType": "string",
          "name": "email",
          "type": "string"
        },
        {
          "internalType": "string",
          "name": "username",
          "type": "string"
        },
        {
          "internalType": "bytes",
          "name": "publicKey",
          "type": "bytes"
        }
      ],
      "name": "registerUser",
      "outputs": [],
      "stateMutability": "nonpayable",
      "type": "function"
    },
    {
      "inputs": [
        {
          "internalType": "address",
          "name": "user",
          "type": "address"
        }
      ],
      "name": "generateChallenge",
      "outputs": [
        {
          "internalType": "bytes",
          "name": "challenge",
          "type": "bytes"
        }
      ],
      "stateMutability": "view",
      "type": "function"
    },
    {
      "inputs": [
        {
          "internalType": "address",
          "name": "user",
          "type": "address"
        },
        {
          "internalType": "bytes",
          "name": "solution",
          "type": "bytes"
        }
      ],
      "name": "verifySolution",
      "outputs": [
        {
          "internalType": "bool",
          "name": "",
          "type": "bool"
        }
      ],
      "stateMutability": "view",
      "type": "function"
    },
    {
      "inputs": [
        {
          "internalType": "address",
          "name": "user",
          "type": "address"
        }
      ],
      "name": "getUserDetails",
      "outputs": [
        {
          "internalType": "string",
          "name": "",
          "type": "string"
        },
        {
          "internalType": "string",
          "name": "",
          "type": "string"
        },
        {
          "internalType": "bytes",
          "name": "",
          "type": "bytes"
        }
      ],
      "stateMutability": "view",
      "type": "function"
    },
    {
      "inputs": [
        {
          "internalType": "address",
          "name": "user",
          "type": "address"
        }
      ],
      "name": "isUserRegistered",
      "outputs": [
        {
          "internalType": "bool",
          "name": "",
          "type": "bool"
        }
      ],
      "stateMutability": "view",
      "type": "function"
    },
    {
      "inputs": [],
      "name": "getUserCount",
      "outputs": [
        {
          "internalType": "uint256",
          "name": "",
          "type": "uint256"
        }
      ],
      "stateMutability": "view",
      "type": "function"
    },
    {
      "inputs": [
        {
          "internalType": "uint256",
          "name": "index",
          "type": "uint256"
        }
      ],
      "name": "getUserByIndex",
      "outputs": [
        {
          "internalType": "address",
          "name": "",
          "type": "address"
        }
      ],
      "stateMutability": "view",
      "type": "function"
    },
    {
      "inputs": [],
      "name": "getAllUsers",
      "outputs": [
        {
          "internalType": "address[]",
          "name": "",
          "type": "address[]"
        }
      ],
      "stateMutability": "view",
      "type": "function"
    }
  ],
  "bytecode": "0x608060405234801561001057600080fd5b506119ab806100206000396000f3fe608060405234801561001057600080fd5b50600436106100885760003560e01c8063c84450f91161005b578063c84450f914610127578063cc3d967b14610157578063e2842d7914610189578063ff5d32fe146101a757610088565b8063163f75221461008d5780635ea975db146100bd578063a6c5d5a9146100d9578063b5cb15f714610109575b600080fd5b6100a760048036038101906100a29190610dd7565b6101d7565b6040516100b49190610e1f565b60405180910390f35b6100d760048036038101906100d29190611021565b61022f565b005b6100f360048036038101906100ee91906110c8565b610628565b6040516101009190610e1f565b60405180910390f35b6101116106df565b60405161011e919061113d565b60405180910390f35b610141600480360381019061013c9190610dd7565b6106ec565b60405161014e91906111e0565b60405180910390f35b610171600480360381019061016c9190610dd7565b610818565b60405161018093929190611257565b60405180910390f35b610191610b1f565b60405161019e9190611361565b60405180910390f35b6101c160048036038101906101bc91906113af565b610bad565b6040516101ce91906113eb565b60405180910390f35b60008060008373ffffffffffffffffffffffffffffffffffffffff1673ffffffffffffffffffffffffffffffffffffffff16815260200190815260200160002060000160009054906101000a900460ff169050919050565b6000835111610273576040517f08c379a000000000000000000000000000000000000000000000000000000000815260040161026a90611452565b60405180910390fd5b60008251116102b7576040517f08c379a00000000000000000000000000000000000000000000000000000000081526004016102ae906114be565b60405180910390fd5b60008151116102fb576040517f08c379a00000000000000000000000000000000000000000000000000000000081526004016102f29061152a565b60405180910390fd5b6000803373ffffffffffffffffffffffffffffffffffffffff1673ffffffffffffffffffffffffffffffffffffffff16815260200190815260200160002060000160009054906101000a900460ff161561038a576040517f08c379a000000000000000000000000000000000000000000000000000000000815260040161038190611596565b60405180910390fd5b600073ffffffffffffffffffffffffffffffffffffffff166001826040516103b291906115f2565b908152602001604051809103902060009054906101000a900473ffffffffffffffffffffffffffffffffffffffff1673ffffffffffffffffffffffffffffffffffffffff1614610437576040517f08c379a000000000000000000000000000000000000000000000000000000000815260040161042e90611655565b60405180910390fd5b6040518060800160405280600115158152602001838152602001848152602001828152506000803373ffffffffffffffffffffffffffffffffffffffff1673ffffffffffffffffffffffffffffffffffffffff16815260200190815260200160002060008201518160000160006101000a81548160ff02191690831515021790555060208201518160010190805190602001906104d5929190610c3c565b5060408201518160020190805190602001906104f2929190610c3c565b50606082015181600301908051906020019061050f929190610cc2565b509050503360018260405161052491906115f2565b908152602001604051809103902060006101000a81548173ffffffffffffffffffffffffffffffffffffffff021916908373ffffffffffffffffffffffffffffffffffffffff1602179055506002339080600181540180825580915050600190039060005260206000200160009091909190916101000a81548173ffffffffffffffffffffffffffffffffffffffff021916908373ffffffffffffffffffffffffffffffffffffffff1602179055503373ffffffffffffffffffffffffffffffffffffffff167f92822564bab8864c3a47b34e8d23fbce5c46234eb5da261f94087b995ac0f33b848460405161061b929190611675565b60405180910390a2505050565b60008060008473ffffffffffffffffffffffffffffffffffffffff1673ffffffffffffffffffffffffffffffffffffffff16815260200190815260200160002060000160009054906101000a900460ff166106b8576040517f08c379a00000000000000000000000000000000000000000000000000000000081526004016106af906116f8565b60405180910390fd5b60006106c3846106ec565b9050808051906020012083805190602001201491505092915050565b6000600280549050905090565b60606000808373ffffffffffffffffffffffffffffffffffffffff1673ffffffffffffffffffffffffffffffffffffffff16815260200190815260200160002060000160009054906101000a900460ff1661077c576040517f08c379a0000000000000000000000000000000000000000000000000000000008152600401610773906116f8565b60405180910390fd5b600042448460405160200161079393929190611781565b6040516020818303038152906040528051906020012060001c9050806000808573ffffffffffffffffffffffffffffffffffffffff1673ffffffffffffffffffffffffffffffffffffffff1681526020019081526020016000206003016040516020016108019291906118b2565b604051602081830303815290604052915050919050565b60608060606000808573ffffffffffffffffffffffffffffffffffffffff1673ffffffffffffffffffffffffffffffffffffffff16815260200190815260200160002060000160009054906101000a900460ff166108ab576040517f08c379a00000000000000000000000000000000000000000000000000000000081526004016108a2906116f8565b60405180910390fd5b6000808573ffffffffffffffffffffffffffffffffffffffff1673ffffffffffffffffffffffffffffffffffffffff1681526020019081526020016000206001016000808673ffffffffffffffffffffffffffffffffffffffff1673ffffffffffffffffffffffffffffffffffffffff1681526020019081526020016000206002016000808773ffffffffffffffffffffffffffffffffffffffff1673ffffffffffffffffffffffffffffffffffffffff16815260200190815260200160002060030182805461097a906117ed565b80601f01602080910402602001604051908101604052809291908181526020018280546109a6906117ed565b80156109f35780601f106109c8576101008083540402835291602001916109f3565b820191906000526020600020905b8154815290600101906020018083116109d657829003601f168201915b50505050509250818054610a06906117ed565b80601f0160208091040260200160405190810160405280929190818152602001828054610a32906117ed565b8015610a7f5780601f10610a5457610100808354040283529160200191610a7f565b820191906000526020600020905b815481529060010190602001808311610a6257829003601f168201915b50505050509150808054610a92906117ed565b80601f0160208091040260200160405190810160405280929190818152602001828054610abe906117ed565b8015610b0b5780601f10610ae057610100808354040283529160200191610b0b565b820191906000526020600020905b815481529060010190602001808311610aee57829003601f168201915b505050505090509250925092509193909250565b60606002805480602002602001604051908101604052809291908181526020018280548015610ba357602002820191906000526020600020905b8160009054906101000a900473ffffffffffffffffffffffffffffffffffffffff1673ffffffffffffffffffffffffffffffffffffffff1681526020019060010190808311610b59575b5050505050905090565b60006002805490508210610bf6576040517f08c379a0000000000000000000000000000000000000000000000000000000008152600401610bed90611926565b60405180910390fd5b60028281548110610c0a57610c09611946565b5b9060005260206000200160009054906101000a900473ffffffffffffffffffffffffffffffffffffffff169050919050565b828054610c48906117ed565b90600052602060002090601f016020900481019282610c6a5760008555610cb1565b82601f10610c8357805160ff1916838001178555610cb1565b82800160010185558215610cb1579182015b82811115610cb0578251825591602001919060010190610c95565b5b509050610cbe9190610d48565b5090565b828054610cce906117ed565b90600052602060002090601f016020900481019282610cf05760008555610d37565b82601f10610d0957805160ff1916838001178555610d37565b82800160010185558215610d37579182015b82811115610d36578251825591602001919060010190610d1b565b5b509050610d449190610d48565b5090565b5b80821115610d61576000816000905550600101610d49565b5090565b6000604051905090565b600080fd5b600080fd5b600073ffffffffffffffffffffffffffffffffffffffff82169050919050565b6000610da482610d79565b9050919050565b610db481610d99565b8114610dbf57600080fd5b50565b600081359050610dd181610dab565b92915050565b600060208284031215610ded57610dec610d6f565b5b6000610dfb84828501610dc2565b91505092915050565b60008115159050919050565b610e1981610e04565b82525050565b6000602082019050610e346000830184610e10565b92915050565b600080fd5b600080fd5b6000601f19601f8301169050919050565b7f4e487b7100000000000000000000000000000000000000000000000000000000600052604160045260246000fd5b610e8d82610e44565b810181811067ffffffffffffffff82111715610eac57610eab610e55565b5b80604052505050565b6000610ebf610d65565b9050610ecb8282610e84565b919050565b600067ffffffffffffffff821115610eeb57610eea610e55565b5b610ef482610e44565b9050602081019050919050565b82818337600083830152505050565b6000610f23610f1e84610ed0565b610eb5565b905082815260208101848484011115610f3f57610f3e610e3f565b5b610f4a848285610f01565b509392505050565b600082601f830112610f6757610f66610e3a565b5b8135610f77848260208601610f10565b91505092915050565b600067ffffffffffffffff821115610f9b57610f9a610e55565b5b610fa482610e44565b9050602081019050919050565b6000610fc4610fbf84610f80565b610eb5565b905082815260208101848484011115610fe057610fdf610e3f565b5b610feb848285610f01565b509392505050565b600082601f83011261100857611007610e3a565b5b8135611018848260208601610fb1565b91505092915050565b60008060006060848603121561103a57611039610d6f565b5b600084013567ffffffffffffffff81111561105857611057610d74565b5b61106486828701610f52565b935050602084013567ffffffffffffffff81111561108557611084610d74565b5b61109186828701610f52565b925050604084013567ffffffffffffffff8111156110b2576110b1610d74565b5b6110be86828701610ff3565b9150509250925092565b600080604083850312156110df576110de610d6f565b5b60006110ed85828601610dc2565b925050602083013567ffffffffffffffff81111561110e5761110d610d74565b5b61111a85828601610ff3565b9150509250929050565b6000819050919050565b61113781611124565b82525050565b6000602082019050611152600083018461112e565b92915050565b600081519050919050565b600082825260208201905092915050565b60005b83811015611192578082015181840152602081019050611177565b838111156111a1576000848401525b50505050565b60006111b282611158565b6111bc8185611163565b93506111cc818560208601611174565b6111d581610e44565b840191505092915050565b600060208201905081810360008301526111fa81846111a7565b905092915050565b600081519050919050565b600082825260208201905092915050565b600061122982611202565b611233818561120d565b9350611243818560208601611174565b61124c81610e44565b840191505092915050565b60006060820190508181036000830152611271818661121e565b90508181036020830152611285818561121e565b9050818103604083015261129981846111a7565b9050949350505050565b600081519050919050565b600082825260208201905092915050565b6000819050602082019050919050565b6112d881610d99565b82525050565b60006112ea83836112cf565b60208301905092915050565b6000602082019050919050565b600061130e826112a3565b61131881856112ae565b9350611323836112bf565b8060005b8381101561135457815161133b88826112de565b9750611346836112f6565b925050600181019050611327565b5085935050505092915050565b6000602082019050818103600083015261137b8184611303565b905092915050565b61138c81611124565b811461139757600080fd5b50565b6000813590506113a981611383565b92915050565b6000602082840312156113c5576113c4610d6f565b5b60006113d38482850161139a565b91505092915050565b6113e581610d99565b82525050565b600060208201905061140060008301846113dc565b92915050565b7f456d61696c2063616e6e6f7420626520656d7074790000000000000000000000600082015250565b600061143c60158361120d565b915061144782611406565b602082019050919050565b6000602082019050818103600083015261146b8161142f565b9050919050565b7f557365726e616d652063616e6e6f7420626520656d7074790000000000000000600082015250565b60006114a860188361120d565b91506114b382611472565b602082019050919050565b600060208201905081810360008301526114d78161149b565b9050919050565b7f5075626c6963206b65792063616e6e6f7420626520656d707479000000000000600082015250565b6000611514601a8361120d565b915061151f826114de565b602082019050919050565b6000602082019050818103600083015261154381611507565b9050919050565b7f5573657220616c72656164792072656769737465726564000000000000000000600082015250565b600061158060178361120d565b915061158b8261154a565b602082019050919050565b600060208201905081810360008301526115af81611573565b9050919050565b600081905092915050565b60006115cc82611158565b6115d681856115b6565b93506115e6818560208601611174565b80840191505092915050565b60006115fe82846115c1565b915081905092915050565b7f5075626c6963206b657920616c72656164792072656769737465726564000000600082015250565b600061163f601d8361120d565b915061164a82611609565b602082019050919050565b6000602082019050818103600083015261166e81611632565b9050919050565b6000604082019050818103600083015261168f818561121e565b905081810360208301526116a3818461121e565b90509392505050565b7f55736572206e6f74207265676973746572656400000000000000000000000000600082015250565b60006116e260138361120d565b91506116ed826116ac565b602082019050919050565b60006020820190508181036000830152611711816116d5565b9050919050565b6000819050919050565b61173361172e82611124565b611718565b82525050565b60008160601b9050919050565b600061175182611739565b9050919050565b600061176382611746565b9050919050565b61177b61177682610d99565b611758565b82525050565b600061178d8286611722565b60208201915061179d8285611722565b6020820191506117ad828461176a565b601482019150819050949350505050565b7f4e487b7100000000000000000000000000000000000000000000000000000000600052602260045260246000fd5b6000600282049050600182168061180557607f821691505b602082108103611818576118176117be565b5b50919050565b60008190508160005260206000209050919050565b60008154611840816117ed565b61184a81866115b6565b945060018216600081146118655760018114611876576118a9565b60ff198316865281860193506118a9565b61187f8561181e565b60005b838110156118a157815481890152600182019150602081019050611882565b838801955050505b50505092915050565b60006118be8285611722565b6020820191506118ce8284611833565b91508190509392505050565b7f496e646578206f7574206f6620626f756e647300000000000000000000000000600082015250565b600061191060138361120d565b915061191b826118da565b602082019050919050565b6000602082019050818103600083015261193f81611903565b9050919050565b7f4e487b7100000000000000000000000000000000000000000000000000000000600052603260045260246000fdfea2646970667358221220b61fb34e4eaa044a2163681ae370b5e595625ac6e1da4c95770e4cf12d74c6c464736f6c634300080d0033",
  "immutableReferences": {},
  "source": "// SPDX-License-Identifier: MIT\npragma solidity ^0.8.0;\n\ncontract UserAuth {\n    struct User {\n        bool exists;\n        string username;\n        string email;\n        bytes publicKey;\n    }\n\n    mapping(address => User) private users;\n    mapping(bytes => address) private publicKeyToAddress;\n    address[] private registeredUsers; // Track all registered user addresses\n\n    event UserRegistered(address indexed user, string email, string username);\n    event PublicKeyUpdated(address indexed user, bytes publicKey);\n\n    // Register user with generated public key\n    function registerUser(string memory email, string memory username, bytes memory publicKey) public {\n        require(bytes(email).length > 0, \"Email cannot be empty\");\n        require(bytes(username).length > 0, \"Username cannot be empty\");\n        require(publicKey.length > 0, \"Public key cannot be empty\");\n        require(!users[msg.sender].exists, \"User already registered\");\n        require(publicKeyToAddress[publicKey] == address(0), \"Public key already registered\");\n\n        users[msg.sender] = User({\n            exists: true,\n            username: username,\n            email: email,\n            publicKey: publicKey\n        });\n\n        publicKeyToAddress[publicKey] = msg.sender;\n        registeredUsers.push(msg.sender);\n\n        emit UserRegistered(msg.sender, email, username);\n    }\n\n    // Generate challenge for authentication\n    function generateChallenge(address user) public view returns (bytes memory challenge) {\n        require(users[user].exists, \"User not registered\");\n        \n        // Generate random number for challenge\n        uint256 random = uint256(keccak256(\n            abi.encodePacked(\n                block.timestamp,\n                block.difficulty,\n                user\n            )\n        ));\n\n        // Combine random number with user's public key\n        challenge = abi.encodePacked(random, users[user].publicKey);\n        return challenge;\n    }\n\n    // Verify solution\n    function verifySolution(address user, bytes memory solution) public view returns (bool) {\n        require(users[user].exists, \"User not registered\");\n        \n        // Generate the same challenge\n        bytes memory challenge = generateChallenge(user);\n        \n        // Verify solution matches challenge\n        return keccak256(solution) == keccak256(challenge);\n    }\n\n    // Get user details\n    function getUserDetails(address user) public view returns (string memory, string memory, bytes memory) {\n        require(users[user].exists, \"User not registered\");\n        return (users[user].username, users[user].email, users[user].publicKey);\n    }\n\n    // Check if user exists\n    function isUserRegistered(address user) public view returns (bool) {\n        return users[user].exists;\n    }\n\n    // Get total number of registered users\n    function getUserCount() public view returns (uint) {\n        return registeredUsers.length;\n    }\n\n    // Get user address by index\n    function getUserByIndex(uint index) public view returns (address) {\n        require(index < registeredUsers.length, \"Index out of bounds\");\n        return registeredUsers[index];\n    }\n\n    // Get all registered users (use with caution for large numbers of users)\n    function getAllUsers() public view returns (address[] memory) {\n        return registeredUsers;\n    }\n}\n",
  "sourcePath": "D:\\Praveen\\Personal\\projects\\trustkey\\truffle-pkibckckn\\contracts\\UserAuth.sol",
  "compiler": {
    "name": "solc",
    "version": "0.8.13+commit.abaa5c0e.Emscripten.clang"
  },
  "schemaVersion": "3.4.16",
  "updatedAt": "2025-06-18T06:09:06.638Z",
  "networkType": "ethereum",
  "devdoc": {
    "kind": "dev",
    "methods": {},
    "version": 1
  },
  "userdoc": {
    "kind": "user",
    "methods": {},
    "version": 1
  }
}