{
  "contractName": "UserCertificateManager",
  "abi": [
    {
      "inputs": [],
      "stateMutability": "nonpayable",
      "type": "constructor"
    },
    {
      "anonymous": false,
      "inputs": [
        {
          "indexed": true,
          "internalType": "address",
          "name": "user",
          "type": "address"
        },
        {
          "indexed": false,
          "internalType": "string",
          "name": "serialNumber",
          "type": "string"
        }
      ],
      "name": "CertificateIssued",
      "type": "event"
    },
    {
      "anonymous": false,
      "inputs": [
        {
          "indexed": true,
          "internalType": "address",
          "name": "user",
          "type": "address"
        },
        {
          "indexed": false,
          "internalType": "string",
          "name": "reason",
          "type": "string"
        }
      ],
      "name": "CertificateRevoked",
      "type": "event"
    },
    {
      "anonymous": false,
      "inputs": [
        {
          "indexed": true,
          "internalType": "address",
          "name": "user",
          "type": "address"
        },
        {
          "indexed": false,
          "internalType": "string",
          "name": "keyData",
          "type": "string"
        }
      ],
      "name": "PublicKeyAdded",
      "type": "event"
    },
    {
      "anonymous": false,
      "inputs": [
        {
          "indexed": true,
          "internalType": "address",
          "name": "user",
          "type": "address"
        },
        {
          "indexed": false,
          "internalType": "uint256",
          "name": "keyIndex",
          "type": "uint256"
        }
      ],
      "name": "PublicKeyDeactivated",
      "type": "event"
    },
    {
      "anonymous": false,
      "inputs": [
        {
          "indexed": true,
          "internalType": "address",
          "name": "user",
          "type": "address"
        },
        {
          "indexed": false,
          "internalType": "string",
          "name": "keyData",
          "type": "string"
        }
      ],
      "name": "PublicKeyUpdated",
      "type": "event"
    },
    {
      "anonymous": false,
      "inputs": [
        {
          "indexed": true,
          "internalType": "address",
          "name": "user",
          "type": "address"
        },
        {
          "indexed": false,
          "internalType": "string",
          "name": "email",
          "type": "string"
        },
        {
          "indexed": false,
          "internalType": "string",
          "name": "username",
          "type": "string"
        }
      ],
      "name": "UserRegistered",
      "type": "event"
    },
    {
      "inputs": [
        {
          "internalType": "address",
          "name": "",
          "type": "address"
        }
      ],
      "name": "activeKeyIndex",
      "outputs": [
        {
          "internalType": "uint256",
          "name": "",
          "type": "uint256"
        }
      ],
      "stateMutability": "view",
      "type": "function",
      "constant": true
    },
    {
      "inputs": [],
      "name": "admin",
      "outputs": [
        {
          "internalType": "address",
          "name": "",
          "type": "address"
        }
      ],
      "stateMutability": "view",
      "type": "function",
      "constant": true
    },
    {
      "inputs": [
        {
          "internalType": "bytes",
          "name": "",
          "type": "bytes"
        }
      ],
      "name": "publicKeyToAddress",
      "outputs": [
        {
          "internalType": "address",
          "name": "",
          "type": "address"
        }
      ],
      "stateMutability": "view",
      "type": "function",
      "constant": true
    },
    {
      "inputs": [
        {
          "internalType": "address",
          "name": "",
          "type": "address"
        }
      ],
      "name": "userCertificates",
      "outputs": [
        {
          "internalType": "string",
          "name": "serialNumber",
          "type": "string"
        },
        {
          "internalType": "string",
          "name": "country",
          "type": "string"
        },
        {
          "internalType": "string",
          "name": "state",
          "type": "string"
        },
        {
          "internalType": "string",
          "name": "locality",
          "type": "string"
        },
        {
          "internalType": "string",
          "name": "organization",
          "type": "string"
        },
        {
          "internalType": "string",
          "name": "commonName",
          "type": "string"
        },
        {
          "internalType": "string",
          "name": "publicKey",
          "type": "string"
        },
        {
          "internalType": "string",
          "name": "signatureAlgorithm",
          "type": "string"
        },
        {
          "internalType": "uint256",
          "name": "validFrom",
          "type": "uint256"
        },
        {
          "internalType": "uint256",
          "name": "validTo",
          "type": "uint256"
        },
        {
          "internalType": "bool",
          "name": "isRevoked",
          "type": "bool"
        }
      ],
      "stateMutability": "view",
      "type": "function",
      "constant": true
    },
    {
      "inputs": [
        {
          "internalType": "address",
          "name": "",
          "type": "address"
        },
        {
          "internalType": "uint256",
          "name": "",
          "type": "uint256"
        }
      ],
      "name": "userPublicKeys",
      "outputs": [
        {
          "internalType": "bytes",
          "name": "keyData",
          "type": "bytes"
        },
        {
          "internalType": "bool",
          "name": "isActive",
          "type": "bool"
        },
        {
          "internalType": "uint256",
          "name": "addedAt",
          "type": "uint256"
        }
      ],
      "stateMutability": "view",
      "type": "function",
      "constant": true
    },
    {
      "inputs": [
        {
          "internalType": "address",
          "name": "",
          "type": "address"
        }
      ],
      "name": "users",
      "outputs": [
        {
          "internalType": "bool",
          "name": "exists",
          "type": "bool"
        },
        {
          "internalType": "string",
          "name": "username",
          "type": "string"
        },
        {
          "internalType": "string",
          "name": "email",
          "type": "string"
        }
      ],
      "stateMutability": "view",
      "type": "function",
      "constant": true
    },
    {
      "inputs": [
        {
          "internalType": "string",
          "name": "email",
          "type": "string"
        },
        {
          "internalType": "string",
          "name": "username",
          "type": "string"
        }
      ],
      "name": "registerUser",
      "outputs": [],
      "stateMutability": "nonpayable",
      "type": "function"
    },
    {
      "inputs": [
        {
          "internalType": "string",
          "name": "_serialNumber",
          "type": "string"
        },
        {
          "internalType": "string",
          "name": "_country",
          "type": "string"
        },
        {
          "internalType": "string",
          "name": "_state",
          "type": "string"
        },
        {
          "internalType": "string",
          "name": "_locality",
          "type": "string"
        },
        {
          "internalType": "string",
          "name": "_organization",
          "type": "string"
        },
        {
          "internalType": "string",
          "name": "_commonName",
          "type": "string"
        },
        {
          "internalType": "string",
          "name": "_publicKey",
          "type": "string"
        },
        {
          "internalType": "string",
          "name": "_signatureAlgorithm",
          "type": "string"
        },
        {
          "internalType": "uint256",
          "name": "_validDays",
          "type": "uint256"
        }
      ],
      "name": "issueCertificate",
      "outputs": [],
      "stateMutability": "nonpayable",
      "type": "function"
    },
    {
      "inputs": [
        {
          "internalType": "address",
          "name": "user",
          "type": "address"
        },
        {
          "internalType": "string",
          "name": "_serialNumber",
          "type": "string"
        },
        {
          "internalType": "string",
          "name": "_country",
          "type": "string"
        },
        {
          "internalType": "string",
          "name": "_state",
          "type": "string"
        },
        {
          "internalType": "string",
          "name": "_locality",
          "type": "string"
        },
        {
          "internalType": "string",
          "name": "_organization",
          "type": "string"
        },
        {
          "internalType": "string",
          "name": "_commonName",
          "type": "string"
        },
        {
          "internalType": "string",
          "name": "_publicKey",
          "type": "string"
        },
        {
          "internalType": "string",
          "name": "_signatureAlgorithm",
          "type": "string"
        },
        {
          "internalType": "uint256",
          "name": "_validDays",
          "type": "uint256"
        }
      ],
      "name": "issueCertificateFor",
      "outputs": [],
      "stateMutability": "nonpayable",
      "type": "function"
    },
    {
      "inputs": [
        {
          "internalType": "bytes",
          "name": "_keyData",
          "type": "bytes"
        }
      ],
      "name": "addPublicKey",
      "outputs": [],
      "stateMutability": "nonpayable",
      "type": "function"
    },
    {
      "inputs": [
        {
          "internalType": "address",
          "name": "user",
          "type": "address"
        },
        {
          "internalType": "bytes",
          "name": "_keyData",
          "type": "bytes"
        }
      ],
      "name": "addPublicKeyFor",
      "outputs": [],
      "stateMutability": "nonpayable",
      "type": "function"
    },
    {
      "inputs": [
        {
          "internalType": "address",
          "name": "user",
          "type": "address"
        },
        {
          "internalType": "uint256",
          "name": "_keyIndex",
          "type": "uint256"
        }
      ],
      "name": "deactivatePublicKeyFor",
      "outputs": [],
      "stateMutability": "nonpayable",
      "type": "function"
    },
    {
      "inputs": [
        {
          "internalType": "string",
          "name": "_reason",
          "type": "string"
        }
      ],
      "name": "revokeCertificate",
      "outputs": [],
      "stateMutability": "nonpayable",
      "type": "function"
    },
    {
      "inputs": [
        {
          "internalType": "address",
          "name": "_user",
          "type": "address"
        },
        {
          "internalType": "string",
          "name": "_reason",
          "type": "string"
        }
      ],
      "name": "revokeCertificate",
      "outputs": [],
      "stateMutability": "nonpayable",
      "type": "function"
    },
    {
      "inputs": [
        {
          "internalType": "address",
          "name": "_user",
          "type": "address"
        }
      ],
      "name": "getActivePublicKey",
      "outputs": [
        {
          "internalType": "bytes",
          "name": "",
          "type": "bytes"
        }
      ],
      "stateMutability": "view",
      "type": "function",
      "constant": true
    },
    {
      "inputs": [
        {
          "internalType": "address",
          "name": "_user",
          "type": "address"
        }
      ],
      "name": "getUserPublicKeys",
      "outputs": [
        {
          "components": [
            {
              "internalType": "bytes",
              "name": "keyData",
              "type": "bytes"
            },
            {
              "internalType": "bool",
              "name": "isActive",
              "type": "bool"
            },
            {
              "internalType": "uint256",
              "name": "addedAt",
              "type": "uint256"
            }
          ],
          "internalType": "struct UserCertificateManager.PublicKey[]",
          "name": "",
          "type": "tuple[]"
        }
      ],
      "stateMutability": "view",
      "type": "function",
      "constant": true
    },
    {
      "inputs": [
        {
          "internalType": "address",
          "name": "_user",
          "type": "address"
        }
      ],
      "name": "getCertificateInfo",
      "outputs": [
        {
          "internalType": "string",
          "name": "serialNumber",
          "type": "string"
        },
        {
          "internalType": "string",
          "name": "commonName",
          "type": "string"
        },
        {
          "internalType": "string",
          "name": "organization",
          "type": "string"
        },
        {
          "internalType": "uint256",
          "name": "validFrom",
          "type": "uint256"
        },
        {
          "internalType": "uint256",
          "name": "validTo",
          "type": "uint256"
        },
        {
          "internalType": "bool",
          "name": "isRevoked",
          "type": "bool"
        }
      ],
      "stateMutability": "view",
      "type": "function",
      "constant": true
    },
    {
      "inputs": [
        {
          "internalType": "address",
          "name": "user",
          "type": "address"
        }
      ],
      "name": "generateChallenge",
      "outputs": [
        {
          "internalType": "bytes",
          "name": "challenge",
          "type": "bytes"
        }
      ],
      "stateMutability": "view",
      "type": "function",
      "constant": true
    },
    {
      "inputs": [
        {
          "internalType": "bytes32",
          "name": "messageHash",
          "type": "bytes32"
        },
        {
          "internalType": "bytes",
          "name": "signature",
          "type": "bytes"
        },
        {
          "internalType": "address",
          "name": "signer",
          "type": "address"
        }
      ],
      "name": "verifySignature",
      "outputs": [
        {
          "internalType": "bool",
          "name": "",
          "type": "bool"
        }
      ],
      "stateMutability": "view",
      "type": "function",
      "constant": true
    },
    {
      "inputs": [
        {
          "internalType": "address",
          "name": "user",
          "type": "address"
        }
      ],
      "name": "getUserDetails",
      "outputs": [
        {
          "internalType": "string",
          "name": "",
          "type": "string"
        },
        {
          "internalType": "string",
          "name": "",
          "type": "string"
        }
      ],
      "stateMutability": "view",
      "type": "function",
      "constant": true
    },
    {
      "inputs": [
        {
          "internalType": "address",
          "name": "user",
          "type": "address"
        }
      ],
      "name": "isUserRegistered",
      "outputs": [
        {
          "internalType": "bool",
          "name": "",
          "type": "bool"
        }
      ],
      "stateMutability": "view",
      "type": "function",
      "constant": true
    },
    {
      "inputs": [],
      "name": "getUserCount",
      "outputs": [
        {
          "internalType": "uint256",
          "name": "",
          "type": "uint256"
        }
      ],
      "stateMutability": "view",
      "type": "function",
      "constant": true
    },
    {
      "inputs": [
        {
          "internalType": "uint256",
          "name": "index",
          "type": "uint256"
        }
      ],
      "name": "getUserByIndex",
      "outputs": [
        {
          "internalType": "address",
          "name": "",
          "type": "address"
        }
      ],
      "stateMutability": "view",
      "type": "function",
      "constant": true
    },
    {
      "inputs": [],
      "name": "getAllUsers",
      "outputs": [
        {
          "internalType": "address[]",
          "name": "",
          "type": "address[]"
        }
      ],
      "stateMutability": "view",
      "type": "function",
      "constant": true
    },
    {
      "inputs": [
        {
          "internalType": "address",
          "name": "user",
          "type": "address"
        },
        {
          "internalType": "bytes",
          "name": "solution",
          "type": "bytes"
        }
      ],
      "name": "verifySolution",
      "outputs": [
        {
          "internalType": "bool",
          "name": "",
          "type": "bool"
        }
      ],
      "stateMutability": "view",
      "type": "function",
      "constant": true
    }
  ],
  "bytecode": "0x608060405234801561001057600080fd5b50336000806101000a81548173ffffffffffffffffffffffffffffffffffffffff021916908373ffffffffffffffffffffffffffffffffffffffff1602179055506157f380620000616000396000f3fe608060405234801561001057600080fd5b50600436106101735760003560e01c80636c433b61116100de578063cc3d967b11610097578063ebbcf74f11610071578063ebbcf74f146104b3578063f62a2a7e146104e8578063f851a44014610518578063ff5d32fe1461053657610173565b8063cc3d967b1461042a578063d31253cb1461045b578063e2842d791461049557610173565b80636c433b611461034257806375a64ce81461035e578063a6c5d5a91461037a578063a87430ba146103aa578063b5cb15f7146103dc578063c84450f9146103fa57610173565b80631f16fb4d116101305780631f16fb4d1461024a57806331cd41991461026657806343ae656c146102965780634e21a517146102c65780635f0b3249146102e2578063645e14151461031257610173565b80630a72c060146101785780630d6deb381461019457806310eefaf1146101b0578063142e1542146101e2578063163f7522146101fe5780631d2e4afd1461022e575b600080fd5b610192600480360381019061018d9190613cf2565b610566565b005b6101ae60048036038101906101a99190613e78565b610a7a565b005b6101ca60048036038101906101c59190613cf2565b610d94565b6040516101d993929190613f86565b60405180910390f35b6101fc60048036038101906101f79190614065565b610e70565b005b610218600480360381019061021391906140ae565b6111a8565b60405161022591906140db565b60405180910390f35b610248600480360381019061024391906140f6565b611201565b005b610264600480360381019061025f919061416e565b61148a565b005b610280600480360381019061027b9190614200565b611831565b60405161028d91906140db565b60405180910390f35b6102b060048036038101906102ab919061426f565b611935565b6040516102bd91906142c7565b60405180910390f35b6102e060048036038101906102db919061426f565b61197e565b005b6102fc60048036038101906102f791906140ae565b611c09565b60405161030991906142e2565b60405180910390f35b61032c600480360381019061032791906140ae565b611f05565b604051610339919061447e565b60405180910390f35b61035c600480360381019061035791906144a0565b6120e9565b005b6103786004803603810190610373919061464a565b6124be565b005b610394600480360381019061038f9190613e78565b612922565b6040516103a191906140db565b60405180910390f35b6103c460048036038101906103bf91906140ae565b6129da565b6040516103d39392919061485e565b60405180910390f35b6103e4612b21565b6040516103f191906148a3565b60405180910390f35b610414600480360381019061040f91906140ae565b612b2e565b60405161042191906142e2565b60405180910390f35b610444600480360381019061043f91906140ae565b612c19565b6040516104529291906148be565b60405180910390f35b610475600480360381019061047091906140ae565b612e50565b60405161048c9b9a999897969594939291906148f5565b60405180910390f35b61049d6132f7565b6040516104aa9190614a96565b60405180910390f35b6104cd60048036038101906104c891906140ae565b613385565b6040516104df96959493929190614ab8565b60405180910390f35b61050260048036038101906104fd91906140ae565b613963565b60405161050f91906148a3565b60405180910390f35b61052061397b565b60405161052d91906142c7565b60405180910390f35b610550600480360381019061054b9190614b2e565b61399f565b60405161055d91906142c7565b60405180910390f35b60008054906101000a900473ffffffffffffffffffffffffffffffffffffffff1673ffffffffffffffffffffffffffffffffffffffff163373ffffffffffffffffffffffffffffffffffffffff16146105f4576040517f08c379a00000000000000000000000000000000000000000000000000000000081526004016105eb90614bcd565b60405180910390fd5b600160008373ffffffffffffffffffffffffffffffffffffffff1673ffffffffffffffffffffffffffffffffffffffff16815260200190815260200160002060000160009054906101000a900460ff16610683576040517f08c379a000000000000000000000000000000000000000000000000000000000815260040161067a90614c39565b60405180910390fd5b600460008373ffffffffffffffffffffffffffffffffffffffff1673ffffffffffffffffffffffffffffffffffffffff168152602001908152602001600020805490508110610707576040517f08c379a00000000000000000000000000000000000000000000000000000000081526004016106fe90614ca5565b60405180910390fd5b600460008373ffffffffffffffffffffffffffffffffffffffff1673ffffffffffffffffffffffffffffffffffffffff168152602001908152602001600020818154811061075857610757614cc5565b5b906000526020600020906003020160010160009054906101000a900460ff166107b6576040517f08c379a00000000000000000000000000000000000000000000000000000000081526004016107ad90614d40565b60405180910390fd5b6001600460008473ffffffffffffffffffffffffffffffffffffffff1673ffffffffffffffffffffffffffffffffffffffff168152602001908152602001600020805490501161083b576040517f08c379a000000000000000000000000000000000000000000000000000000000815260040161083290614dac565b60405180910390fd5b6000600460008473ffffffffffffffffffffffffffffffffffffffff1673ffffffffffffffffffffffffffffffffffffffff168152602001908152602001600020828154811061088e5761088d614cc5565b5b906000526020600020906003020160010160006101000a81548160ff02191690831515021790555080600560008473ffffffffffffffffffffffffffffffffffffffff1673ffffffffffffffffffffffffffffffffffffffff1681526020019081526020016000205403610a285760005b600460008473ffffffffffffffffffffffffffffffffffffffff1673ffffffffffffffffffffffffffffffffffffffff16815260200190815260200160002080549050811015610a26578181141580156109c55750600460008473ffffffffffffffffffffffffffffffffffffffff1673ffffffffffffffffffffffffffffffffffffffff16815260200190815260200160002081815481106109a5576109a4614cc5565b5b906000526020600020906003020160010160009054906101000a900460ff165b15610a135780600560008573ffffffffffffffffffffffffffffffffffffffff1673ffffffffffffffffffffffffffffffffffffffff16815260200190815260200160002081905550610a26565b8080610a1e90614dfb565b9150506108ff565b505b8173ffffffffffffffffffffffffffffffffffffffff167f6a0d45f87f64b1fea67d665c12179ba198d35a60fd48a200f61c493ae06b859182604051610a6e91906148a3565b60405180910390a25050565b60008054906101000a900473ffffffffffffffffffffffffffffffffffffffff1673ffffffffffffffffffffffffffffffffffffffff163373ffffffffffffffffffffffffffffffffffffffff1614610b08576040517f08c379a0000000000000000000000000000000000000000000000000000000008152600401610aff90614bcd565b60405180910390fd5b600160008373ffffffffffffffffffffffffffffffffffffffff1673ffffffffffffffffffffffffffffffffffffffff16815260200190815260200160002060000160009054906101000a900460ff16610b97576040517f08c379a0000000000000000000000000000000000000000000000000000000008152600401610b8e90614c39565b60405180910390fd5b6000815111610bdb576040517f08c379a0000000000000000000000000000000000000000000000000000000008152600401610bd290614e8f565b60405180910390fd5b600460008373ffffffffffffffffffffffffffffffffffffffff1673ffffffffffffffffffffffffffffffffffffffff16815260200190815260200160002060405180606001604052808381526020016001151581526020014281525090806001815401808255809150506001900390600052602060002090600302016000909190919091506000820151816000019080519060200190610c7d929190613b21565b5060208201518160010160006101000a81548160ff02191690831515021790555060408201518160020155505060006001600460008573ffffffffffffffffffffffffffffffffffffffff1673ffffffffffffffffffffffffffffffffffffffff16815260200190815260200160002080549050610cfb9190614eaf565b905080600560008573ffffffffffffffffffffffffffffffffffffffff1673ffffffffffffffffffffffffffffffffffffffff168152602001908152602001600020819055508273ffffffffffffffffffffffffffffffffffffffff167fae3c25feee9ffe53f654a0494566502413eea9041dd7db07da82a2c6bb8ca34e83604051610d879190614ee3565b60405180910390a2505050565b60046020528160005260406000208181548110610db057600080fd5b906000526020600020906003020160009150915050806000018054610dd490614f34565b80601f0160208091040260200160405190810160405280929190818152602001828054610e0090614f34565b8015610e4d5780601f10610e2257610100808354040283529160200191610e4d565b820191906000526020600020905b815481529060010190602001808311610e3057829003601f168201915b5050505050908060010160009054906101000a900460ff16908060020154905083565b600160003373ffffffffffffffffffffffffffffffffffffffff1673ffffffffffffffffffffffffffffffffffffffff16815260200190815260200160002060000160009054906101000a900460ff16610eff576040517f08c379a0000000000000000000000000000000000000000000000000000000008152600401610ef690614c39565b60405180910390fd5b6000600360003373ffffffffffffffffffffffffffffffffffffffff1673ffffffffffffffffffffffffffffffffffffffff1681526020019081526020016000206000018054610f4e90614f34565b905003610f90576040517f08c379a0000000000000000000000000000000000000000000000000000000008152600401610f8790614fb1565b60405180910390fd5b600360003373ffffffffffffffffffffffffffffffffffffffff1673ffffffffffffffffffffffffffffffffffffffff168152602001908152602001600020600a0160009054906101000a900460ff1615611020576040517f08c379a00000000000000000000000000000000000000000000000000000000081526004016110179061501d565b60405180910390fd5b6001600360003373ffffffffffffffffffffffffffffffffffffffff1673ffffffffffffffffffffffffffffffffffffffff168152602001908152602001600020600a0160006101000a81548160ff02191690831515021790555060005b600460003373ffffffffffffffffffffffffffffffffffffffff1673ffffffffffffffffffffffffffffffffffffffff16815260200190815260200160002080549050811015611156576000600460003373ffffffffffffffffffffffffffffffffffffffff1673ffffffffffffffffffffffffffffffffffffffff168152602001908152602001600020828154811061111b5761111a614cc5565b5b906000526020600020906003020160010160006101000a81548160ff021916908315150217905550808061114e90614dfb565b91505061107e565b503373ffffffffffffffffffffffffffffffffffffffff167fea1842a7488747c3224eb14e1621c64aa824ec84dadb16e6122fa8223086d0488260405161119d9190614ee3565b60405180910390a250565b6000600160008373ffffffffffffffffffffffffffffffffffffffff1673ffffffffffffffffffffffffffffffffffffffff16815260200190815260200160002060000160009054906101000a900460ff169050919050565b6000825111611245576040517f08c379a000000000000000000000000000000000000000000000000000000000815260040161123c90615089565b60405180910390fd5b6000815111611289576040517f08c379a0000000000000000000000000000000000000000000000000000000008152600401611280906150f5565b60405180910390fd5b600160003373ffffffffffffffffffffffffffffffffffffffff1673ffffffffffffffffffffffffffffffffffffffff16815260200190815260200160002060000160009054906101000a900460ff1615611319576040517f08c379a000000000000000000000000000000000000000000000000000000000815260040161131090615161565b60405180910390fd5b604051806060016040528060011515815260200182815260200183815250600160003373ffffffffffffffffffffffffffffffffffffffff1673ffffffffffffffffffffffffffffffffffffffff16815260200190815260200160002060008201518160000160006101000a81548160ff02191690831515021790555060208201518160010190805190602001906113b2929190613ba7565b5060408201518160020190805190602001906113cf929190613ba7565b509050506006339080600181540180825580915050600190039060005260206000200160009091909190916101000a81548173ffffffffffffffffffffffffffffffffffffffff021916908373ffffffffffffffffffffffffffffffffffffffff1602179055503373ffffffffffffffffffffffffffffffffffffffff167f92822564bab8864c3a47b34e8d23fbce5c46234eb5da261f94087b995ac0f33b838360405161147e9291906148be565b60405180910390a25050565b8173ffffffffffffffffffffffffffffffffffffffff163373ffffffffffffffffffffffffffffffffffffffff16146114f8576040517f08c379a00000000000000000000000000000000000000000000000000000000081526004016114ef906151f3565b60405180910390fd5b600160008373ffffffffffffffffffffffffffffffffffffffff1673ffffffffffffffffffffffffffffffffffffffff16815260200190815260200160002060000160009054906101000a900460ff16611587576040517f08c379a000000000000000000000000000000000000000000000000000000000815260040161157e90614c39565b60405180910390fd5b6000600360008473ffffffffffffffffffffffffffffffffffffffff1673ffffffffffffffffffffffffffffffffffffffff16815260200190815260200160002060000180546115d690614f34565b905003611618576040517f08c379a000000000000000000000000000000000000000000000000000000000815260040161160f90614fb1565b60405180910390fd5b600360008373ffffffffffffffffffffffffffffffffffffffff1673ffffffffffffffffffffffffffffffffffffffff168152602001908152602001600020600a0160009054906101000a900460ff16156116a8576040517f08c379a000000000000000000000000000000000000000000000000000000000815260040161169f9061501d565b60405180910390fd5b6001600360008473ffffffffffffffffffffffffffffffffffffffff1673ffffffffffffffffffffffffffffffffffffffff168152602001908152602001600020600a0160006101000a81548160ff02191690831515021790555060005b600460008473ffffffffffffffffffffffffffffffffffffffff1673ffffffffffffffffffffffffffffffffffffffff168152602001908152602001600020805490508110156117de576000600460008573ffffffffffffffffffffffffffffffffffffffff1673ffffffffffffffffffffffffffffffffffffffff16815260200190815260200160002082815481106117a3576117a2614cc5565b5b906000526020600020906003020160010160006101000a81548160ff02191690831515021790555080806117d690614dfb565b915050611706565b508173ffffffffffffffffffffffffffffffffffffffff167fea1842a7488747c3224eb14e1621c64aa824ec84dadb16e6122fa8223086d048826040516118259190614ee3565b60405180910390a25050565b6000600160008373ffffffffffffffffffffffffffffffffffffffff1673ffffffffffffffffffffffffffffffffffffffff16815260200190815260200160002060000160009054906101000a900460ff166118c2576040517f08c379a00000000000000000000000000000000000000000000000000000000081526004016118b99061525f565b60405180910390fd5b6000846040516020016118d591906152f7565b60405160208183030381529060405280519060200120905060006118f98286613a2e565b90508373ffffffffffffffffffffffffffffffffffffffff168173ffffffffffffffffffffffffffffffffffffffff1614925050509392505050565b6002818051602081018201805184825260208301602085012081835280955050505050506000915054906101000a900473ffffffffffffffffffffffffffffffffffffffff1681565b600160003373ffffffffffffffffffffffffffffffffffffffff1673ffffffffffffffffffffffffffffffffffffffff16815260200190815260200160002060000160009054906101000a900460ff16611a0d576040517f08c379a0000000000000000000000000000000000000000000000000000000008152600401611a0490614c39565b60405180910390fd5b6000815111611a51576040517f08c379a0000000000000000000000000000000000000000000000000000000008152600401611a4890614e8f565b60405180910390fd5b600460003373ffffffffffffffffffffffffffffffffffffffff1673ffffffffffffffffffffffffffffffffffffffff16815260200190815260200160002060405180606001604052808381526020016001151581526020014281525090806001815401808255809150506001900390600052602060002090600302016000909190919091506000820151816000019080519060200190611af3929190613b21565b5060208201518160010160006101000a81548160ff02191690831515021790555060408201518160020155505060006001600460003373ffffffffffffffffffffffffffffffffffffffff1673ffffffffffffffffffffffffffffffffffffffff16815260200190815260200160002080549050611b719190614eaf565b905080600560003373ffffffffffffffffffffffffffffffffffffffff1673ffffffffffffffffffffffffffffffffffffffff168152602001908152602001600020819055503373ffffffffffffffffffffffffffffffffffffffff167fae3c25feee9ffe53f654a0494566502413eea9041dd7db07da82a2c6bb8ca34e83604051611bfd9190614ee3565b60405180910390a25050565b6060600160008373ffffffffffffffffffffffffffffffffffffffff1673ffffffffffffffffffffffffffffffffffffffff16815260200190815260200160002060000160009054906101000a900460ff16611c9a576040517f08c379a0000000000000000000000000000000000000000000000000000000008152600401611c9190614c39565b60405180910390fd5b6000600560008473ffffffffffffffffffffffffffffffffffffffff1673ffffffffffffffffffffffffffffffffffffffff1681526020019081526020016000205490506000600460008573ffffffffffffffffffffffffffffffffffffffff1673ffffffffffffffffffffffffffffffffffffffff1681526020019081526020016000208054905011611d63576040517f08c379a0000000000000000000000000000000000000000000000000000000008152600401611d5a90615369565b60405180910390fd5b600460008473ffffffffffffffffffffffffffffffffffffffff1673ffffffffffffffffffffffffffffffffffffffff1681526020019081526020016000208181548110611db457611db3614cc5565b5b906000526020600020906003020160010160009054906101000a900460ff16611e12576040517f08c379a0000000000000000000000000000000000000000000000000000000008152600401611e09906153d5565b60405180910390fd5b600460008473ffffffffffffffffffffffffffffffffffffffff1673ffffffffffffffffffffffffffffffffffffffff1681526020019081526020016000208181548110611e6357611e62614cc5565b5b90600052602060002090600302016000018054611e7f90614f34565b80601f0160208091040260200160405190810160405280929190818152602001828054611eab90614f34565b8015611ef85780601f10611ecd57610100808354040283529160200191611ef8565b820191906000526020600020905b815481529060010190602001808311611edb57829003601f168201915b5050505050915050919050565b6060600160008373ffffffffffffffffffffffffffffffffffffffff1673ffffffffffffffffffffffffffffffffffffffff16815260200190815260200160002060000160009054906101000a900460ff16611f96576040517f08c379a0000000000000000000000000000000000000000000000000000000008152600401611f8d90614c39565b60405180910390fd5b600460008373ffffffffffffffffffffffffffffffffffffffff1673ffffffffffffffffffffffffffffffffffffffff168152602001908152602001600020805480602002602001604051908101604052809291908181526020016000905b828210156120de578382906000526020600020906003020160405180606001604052908160008201805461202890614f34565b80601f016020809104026020016040519081016040528092919081815260200182805461205490614f34565b80156120a15780601f10612076576101008083540402835291602001916120a1565b820191906000526020600020905b81548152906001019060200180831161208457829003601f168201915b505050505081526020016001820160009054906101000a900460ff1615151515815260200160028201548152505081526020019060010190611ff5565b505050509050919050565b600160003373ffffffffffffffffffffffffffffffffffffffff1673ffffffffffffffffffffffffffffffffffffffff16815260200190815260200160002060000160009054906101000a900460ff16612178576040517f08c379a000000000000000000000000000000000000000000000000000000000815260040161216f90614c39565b60405180910390fd5b60008351116121bc576040517f08c379a00000000000000000000000000000000000000000000000000000000081526004016121b390614e8f565b60405180910390fd5b600081116121ff576040517f08c379a00000000000000000000000000000000000000000000000000000000081526004016121f690615441565b60405180910390fd5b6000600360003373ffffffffffffffffffffffffffffffffffffffff1673ffffffffffffffffffffffffffffffffffffffff168152602001908152602001600020600001805461224e90614f34565b905014612290576040517f08c379a0000000000000000000000000000000000000000000000000000000008152600401612287906154ad565b60405180910390fd5b6000429050600062015180836122a691906154cd565b826122b19190615527565b90506040518061016001604052808c81526020018b81526020018a815260200189815260200188815260200187815260200186815260200185815260200183815260200182815260200160001515815250600360003373ffffffffffffffffffffffffffffffffffffffff1673ffffffffffffffffffffffffffffffffffffffff168152602001908152602001600020600082015181600001908051906020019061235d929190613ba7565b50602082015181600101908051906020019061237a929190613ba7565b506040820151816002019080519060200190612397929190613ba7565b5060608201518160030190805190602001906123b4929190613ba7565b5060808201518160040190805190602001906123d1929190613ba7565b5060a08201518160050190805190602001906123ee929190613ba7565b5060c082015181600601908051906020019061240b929190613ba7565b5060e0820151816007019080519060200190612428929190613ba7565b506101008201518160080155610120820151816009015561014082015181600a0160006101000a81548160ff0219169083151502179055509050503373ffffffffffffffffffffffffffffffffffffffff167f4514a45e6f56567008e790fe2158e66d34e8b8254c060ad061d57027487914798c6040516124a99190614ee3565b60405180910390a25050505050505050505050565b60008054906101000a900473ffffffffffffffffffffffffffffffffffffffff1673ffffffffffffffffffffffffffffffffffffffff163373ffffffffffffffffffffffffffffffffffffffff161461254c576040517f08c379a000000000000000000000000000000000000000000000000000000000815260040161254390614bcd565b60405180910390fd5b600160008b73ffffffffffffffffffffffffffffffffffffffff1673ffffffffffffffffffffffffffffffffffffffff16815260200190815260200160002060000160009054906101000a900460ff166125db576040517f08c379a00000000000000000000000000000000000000000000000000000000081526004016125d290614c39565b60405180910390fd5b600083511161261f576040517f08c379a000000000000000000000000000000000000000000000000000000000815260040161261690614e8f565b60405180910390fd5b60008111612662576040517f08c379a000000000000000000000000000000000000000000000000000000000815260040161265990615441565b60405180910390fd5b6000600360008c73ffffffffffffffffffffffffffffffffffffffff1673ffffffffffffffffffffffffffffffffffffffff16815260200190815260200160002060000180546126b190614f34565b9050146126f3576040517f08c379a00000000000000000000000000000000000000000000000000000000081526004016126ea906154ad565b60405180910390fd5b60004290506000620151808361270991906154cd565b826127149190615527565b90506040518061016001604052808c81526020018b81526020018a815260200189815260200188815260200187815260200186815260200185815260200183815260200182815260200160001515815250600360008e73ffffffffffffffffffffffffffffffffffffffff1673ffffffffffffffffffffffffffffffffffffffff16815260200190815260200160002060008201518160000190805190602001906127c0929190613ba7565b5060208201518160010190805190602001906127dd929190613ba7565b5060408201518160020190805190602001906127fa929190613ba7565b506060820151816003019080519060200190612817929190613ba7565b506080820151816004019080519060200190612834929190613ba7565b5060a0820151816005019080519060200190612851929190613ba7565b5060c082015181600601908051906020019061286e929190613ba7565b5060e082015181600701908051906020019061288b929190613ba7565b506101008201518160080155610120820151816009015561014082015181600a0160006101000a81548160ff0219169083151502179055509050508b73ffffffffffffffffffffffffffffffffffffffff167f4514a45e6f56567008e790fe2158e66d34e8b8254c060ad061d57027487914798c60405161290c9190614ee3565b60405180910390a2505050505050505050505050565b6000600160008473ffffffffffffffffffffffffffffffffffffffff1673ffffffffffffffffffffffffffffffffffffffff16815260200190815260200160002060000160009054906101000a900460ff166129b3576040517f08c379a00000000000000000000000000000000000000000000000000000000081526004016129aa90614c39565b60405180910390fd5b60006129be84612b2e565b9050808051906020012083805190602001201491505092915050565b60016020528060005260406000206000915090508060000160009054906101000a900460ff1690806001018054612a1090614f34565b80601f0160208091040260200160405190810160405280929190818152602001828054612a3c90614f34565b8015612a895780601f10612a5e57610100808354040283529160200191612a89565b820191906000526020600020905b815481529060010190602001808311612a6c57829003601f168201915b505050505090806002018054612a9e90614f34565b80601f0160208091040260200160405190810160405280929190818152602001828054612aca90614f34565b8015612b175780601f10612aec57610100808354040283529160200191612b17565b820191906000526020600020905b815481529060010190602001808311612afa57829003601f168201915b5050505050905083565b6000600680549050905090565b6060600160008373ffffffffffffffffffffffffffffffffffffffff1673ffffffffffffffffffffffffffffffffffffffff16815260200190815260200160002060000160009054906101000a900460ff16612bbf576040517f08c379a0000000000000000000000000000000000000000000000000000000008152600401612bb690614c39565b60405180910390fd5b6000424484604051602001612bd6939291906155e6565b6040516020818303038152906040528051906020012060001c905080604051602001612c029190615623565b604051602081830303815290604052915050919050565b606080600160008473ffffffffffffffffffffffffffffffffffffffff1673ffffffffffffffffffffffffffffffffffffffff16815260200190815260200160002060000160009054906101000a900460ff16612cab576040517f08c379a0000000000000000000000000000000000000000000000000000000008152600401612ca290614c39565b60405180910390fd5b600160008473ffffffffffffffffffffffffffffffffffffffff1673ffffffffffffffffffffffffffffffffffffffff168152602001908152602001600020600101600160008573ffffffffffffffffffffffffffffffffffffffff1673ffffffffffffffffffffffffffffffffffffffff168152602001908152602001600020600201818054612d3b90614f34565b80601f0160208091040260200160405190810160405280929190818152602001828054612d6790614f34565b8015612db45780601f10612d8957610100808354040283529160200191612db4565b820191906000526020600020905b815481529060010190602001808311612d9757829003601f168201915b50505050509150808054612dc790614f34565b80601f0160208091040260200160405190810160405280929190818152602001828054612df390614f34565b8015612e405780601f10612e1557610100808354040283529160200191612e40565b820191906000526020600020905b815481529060010190602001808311612e2357829003601f168201915b5050505050905091509150915091565b6003602052806000526040600020600091509050806000018054612e7390614f34565b80601f0160208091040260200160405190810160405280929190818152602001828054612e9f90614f34565b8015612eec5780601f10612ec157610100808354040283529160200191612eec565b820191906000526020600020905b815481529060010190602001808311612ecf57829003601f168201915b505050505090806001018054612f0190614f34565b80601f0160208091040260200160405190810160405280929190818152602001828054612f2d90614f34565b8015612f7a5780601f10612f4f57610100808354040283529160200191612f7a565b820191906000526020600020905b815481529060010190602001808311612f5d57829003601f168201915b505050505090806002018054612f8f90614f34565b80601f0160208091040260200160405190810160405280929190818152602001828054612fbb90614f34565b80156130085780601f10612fdd57610100808354040283529160200191613008565b820191906000526020600020905b815481529060010190602001808311612feb57829003601f168201915b50505050509080600301805461301d90614f34565b80601f016020809104026020016040519081016040528092919081815260200182805461304990614f34565b80156130965780601f1061306b57610100808354040283529160200191613096565b820191906000526020600020905b81548152906001019060200180831161307957829003601f168201915b5050505050908060040180546130ab90614f34565b80601f01602080910402602001604051908101604052809291908181526020018280546130d790614f34565b80156131245780601f106130f957610100808354040283529160200191613124565b820191906000526020600020905b81548152906001019060200180831161310757829003601f168201915b50505050509080600501805461313990614f34565b80601f016020809104026020016040519081016040528092919081815260200182805461316590614f34565b80156131b25780601f10613187576101008083540402835291602001916131b2565b820191906000526020600020905b81548152906001019060200180831161319557829003601f168201915b5050505050908060060180546131c790614f34565b80601f01602080910402602001604051908101604052809291908181526020018280546131f390614f34565b80156132405780601f1061321557610100808354040283529160200191613240565b820191906000526020600020905b81548152906001019060200180831161322357829003601f168201915b50505050509080600701805461325590614f34565b80601f016020809104026020016040519081016040528092919081815260200182805461328190614f34565b80156132ce5780601f106132a3576101008083540402835291602001916132ce565b820191906000526020600020905b8154815290600101906020018083116132b157829003601f168201915b50505050509080600801549080600901549080600a0160009054906101000a900460ff1690508b565b6060600680548060200260200160405190810160405280929190818152602001828054801561337b57602002820191906000526020600020905b8160009054906101000a900473ffffffffffffffffffffffffffffffffffffffff1673ffffffffffffffffffffffffffffffffffffffff1681526020019060010190808311613331575b5050505050905090565b60608060606000806000600160008873ffffffffffffffffffffffffffffffffffffffff1673ffffffffffffffffffffffffffffffffffffffff16815260200190815260200160002060000160009054906101000a900460ff1661341e576040517f08c379a000000000000000000000000000000000000000000000000000000000815260040161341590614c39565b60405180910390fd5b6000600360008973ffffffffffffffffffffffffffffffffffffffff1673ffffffffffffffffffffffffffffffffffffffff1681526020019081526020016000206040518061016001604052908160008201805461347b90614f34565b80601f01602080910402602001604051908101604052809291908181526020018280546134a790614f34565b80156134f45780601f106134c9576101008083540402835291602001916134f4565b820191906000526020600020905b8154815290600101906020018083116134d757829003601f168201915b5050505050815260200160018201805461350d90614f34565b80601f016020809104026020016040519081016040528092919081815260200182805461353990614f34565b80156135865780601f1061355b57610100808354040283529160200191613586565b820191906000526020600020905b81548152906001019060200180831161356957829003601f168201915b5050505050815260200160028201805461359f90614f34565b80601f01602080910402602001604051908101604052809291908181526020018280546135cb90614f34565b80156136185780601f106135ed57610100808354040283529160200191613618565b820191906000526020600020905b8154815290600101906020018083116135fb57829003601f168201915b5050505050815260200160038201805461363190614f34565b80601f016020809104026020016040519081016040528092919081815260200182805461365d90614f34565b80156136aa5780601f1061367f576101008083540402835291602001916136aa565b820191906000526020600020905b81548152906001019060200180831161368d57829003601f168201915b505050505081526020016004820180546136c390614f34565b80601f01602080910402602001604051908101604052809291908181526020018280546136ef90614f34565b801561373c5780601f106137115761010080835404028352916020019161373c565b820191906000526020600020905b81548152906001019060200180831161371f57829003601f168201915b5050505050815260200160058201805461375590614f34565b80601f016020809104026020016040519081016040528092919081815260200182805461378190614f34565b80156137ce5780601f106137a3576101008083540402835291602001916137ce565b820191906000526020600020905b8154815290600101906020018083116137b157829003601f168201915b505050505081526020016006820180546137e790614f34565b80601f016020809104026020016040519081016040528092919081815260200182805461381390614f34565b80156138605780601f1061383557610100808354040283529160200191613860565b820191906000526020600020905b81548152906001019060200180831161384357829003601f168201915b5050505050815260200160078201805461387990614f34565b80601f01602080910402602001604051908101604052809291908181526020018280546138a590614f34565b80156138f25780601f106138c7576101008083540402835291602001916138f2565b820191906000526020600020905b8154815290600101906020018083116138d557829003601f168201915b505050505081526020016008820154815260200160098201548152602001600a820160009054906101000a900460ff161515151581525050905080600001518160a0015182608001518361010001518461012001518561014001519650965096509650965096505091939550919395565b60056020528060005260406000206000915090505481565b60008054906101000a900473ffffffffffffffffffffffffffffffffffffffff1681565b600060068054905082106139e8576040517f08c379a00000000000000000000000000000000000000000000000000000000081526004016139df9061568a565b60405180910390fd5b600682815481106139fc576139fb614cc5565b5b9060005260206000200160009054906101000a900473ffffffffffffffffffffffffffffffffffffffff169050919050565b600080600080613a3d85613a9d565b92509250925060018682858560405160008152602001604052604051613a6694939291906156d5565b6020604051602081039080840390855afa158015613a88573d6000803e3d6000fd5b50505060206040510351935050505092915050565b60008060006041845114613ae6576040517f08c379a0000000000000000000000000000000000000000000000000000000008152600401613add90615766565b60405180910390fd5b6020840151925060408401519150606084015160001a9050601b8160ff161015613b1a57601b81613b179190615786565b90505b9193909250565b828054613b2d90614f34565b90600052602060002090601f016020900481019282613b4f5760008555613b96565b82601f10613b6857805160ff1916838001178555613b96565b82800160010185558215613b96579182015b82811115613b95578251825591602001919060010190613b7a565b5b509050613ba39190613c2d565b5090565b828054613bb390614f34565b90600052602060002090601f016020900481019282613bd55760008555613c1c565b82601f10613bee57805160ff1916838001178555613c1c565b82800160010185558215613c1c579182015b82811115613c1b578251825591602001919060010190613c00565b5b509050613c299190613c2d565b5090565b5b80821115613c46576000816000905550600101613c2e565b5090565b6000604051905090565b600080fd5b600080fd5b600073ffffffffffffffffffffffffffffffffffffffff82169050919050565b6000613c8982613c5e565b9050919050565b613c9981613c7e565b8114613ca457600080fd5b50565b600081359050613cb681613c90565b92915050565b6000819050919050565b613ccf81613cbc565b8114613cda57600080fd5b50565b600081359050613cec81613cc6565b92915050565b60008060408385031215613d0957613d08613c54565b5b6000613d1785828601613ca7565b9250506020613d2885828601613cdd565b9150509250929050565b600080fd5b600080fd5b6000601f19601f8301169050919050565b7f4e487b7100000000000000000000000000000000000000000000000000000000600052604160045260246000fd5b613d8582613d3c565b810181811067ffffffffffffffff82111715613da457613da3613d4d565b5b80604052505050565b6000613db7613c4a565b9050613dc38282613d7c565b919050565b600067ffffffffffffffff821115613de357613de2613d4d565b5b613dec82613d3c565b9050602081019050919050565b82818337600083830152505050565b6000613e1b613e1684613dc8565b613dad565b905082815260208101848484011115613e3757613e36613d37565b5b613e42848285613df9565b509392505050565b600082601f830112613e5f57613e5e613d32565b5b8135613e6f848260208601613e08565b91505092915050565b60008060408385031215613e8f57613e8e613c54565b5b6000613e9d85828601613ca7565b925050602083013567ffffffffffffffff811115613ebe57613ebd613c59565b5b613eca85828601613e4a565b9150509250929050565b600081519050919050565b600082825260208201905092915050565b60005b83811015613f0e578082015181840152602081019050613ef3565b83811115613f1d576000848401525b50505050565b6000613f2e82613ed4565b613f388185613edf565b9350613f48818560208601613ef0565b613f5181613d3c565b840191505092915050565b60008115159050919050565b613f7181613f5c565b82525050565b613f8081613cbc565b82525050565b60006060820190508181036000830152613fa08186613f23565b9050613faf6020830185613f68565b613fbc6040830184613f77565b949350505050565b600067ffffffffffffffff821115613fdf57613fde613d4d565b5b613fe882613d3c565b9050602081019050919050565b600061400861400384613fc4565b613dad565b90508281526020810184848401111561402457614023613d37565b5b61402f848285613df9565b509392505050565b600082601f83011261404c5761404b613d32565b5b813561405c848260208601613ff5565b91505092915050565b60006020828403121561407b5761407a613c54565b5b600082013567ffffffffffffffff81111561409957614098613c59565b5b6140a584828501614037565b91505092915050565b6000602082840312156140c4576140c3613c54565b5b60006140d284828501613ca7565b91505092915050565b60006020820190506140f06000830184613f68565b92915050565b6000806040838503121561410d5761410c613c54565b5b600083013567ffffffffffffffff81111561412b5761412a613c59565b5b61413785828601614037565b925050602083013567ffffffffffffffff81111561415857614157613c59565b5b61416485828601614037565b9150509250929050565b6000806040838503121561418557614184613c54565b5b600061419385828601613ca7565b925050602083013567ffffffffffffffff8111156141b4576141b3613c59565b5b6141c085828601614037565b9150509250929050565b6000819050919050565b6141dd816141ca565b81146141e857600080fd5b50565b6000813590506141fa816141d4565b92915050565b60008060006060848603121561421957614218613c54565b5b6000614227868287016141eb565b935050602084013567ffffffffffffffff81111561424857614247613c59565b5b61425486828701613e4a565b925050604061426586828701613ca7565b9150509250925092565b60006020828403121561428557614284613c54565b5b600082013567ffffffffffffffff8111156142a3576142a2613c59565b5b6142af84828501613e4a565b91505092915050565b6142c181613c7e565b82525050565b60006020820190506142dc60008301846142b8565b92915050565b600060208201905081810360008301526142fc8184613f23565b905092915050565b600081519050919050565b600082825260208201905092915050565b6000819050602082019050919050565b600082825260208201905092915050565b600061434c82613ed4565b6143568185614330565b9350614366818560208601613ef0565b61436f81613d3c565b840191505092915050565b61438381613f5c565b82525050565b61439281613cbc565b82525050565b600060608301600083015184820360008601526143b58282614341565b91505060208301516143ca602086018261437a565b5060408301516143dd6040860182614389565b508091505092915050565b60006143f48383614398565b905092915050565b6000602082019050919050565b600061441482614304565b61441e818561430f565b93508360208202850161443085614320565b8060005b8581101561446c578484038952815161444d85826143e8565b9450614458836143fc565b925060208a01995050600181019050614434565b50829750879550505050505092915050565b600060208201905081810360008301526144988184614409565b905092915050565b60008060008060008060008060006101208a8c0312156144c3576144c2613c54565b5b60008a013567ffffffffffffffff8111156144e1576144e0613c59565b5b6144ed8c828d01614037565b99505060208a013567ffffffffffffffff81111561450e5761450d613c59565b5b61451a8c828d01614037565b98505060408a013567ffffffffffffffff81111561453b5761453a613c59565b5b6145478c828d01614037565b97505060608a013567ffffffffffffffff81111561456857614567613c59565b5b6145748c828d01614037565b96505060808a013567ffffffffffffffff81111561459557614594613c59565b5b6145a18c828d01614037565b95505060a08a013567ffffffffffffffff8111156145c2576145c1613c59565b5b6145ce8c828d01614037565b94505060c08a013567ffffffffffffffff8111156145ef576145ee613c59565b5b6145fb8c828d01614037565b93505060e08a013567ffffffffffffffff81111561461c5761461b613c59565b5b6146288c828d01614037565b92505061010061463a8c828d01613cdd565b9150509295985092959850929598565b6000806000806000806000806000806101408b8d03121561466e5761466d613c54565b5b600061467c8d828e01613ca7565b9a505060208b013567ffffffffffffffff81111561469d5761469c613c59565b5b6146a98d828e01614037565b99505060408b013567ffffffffffffffff8111156146ca576146c9613c59565b5b6146d68d828e01614037565b98505060608b013567ffffffffffffffff8111156146f7576146f6613c59565b5b6147038d828e01614037565b97505060808b013567ffffffffffffffff81111561472457614723613c59565b5b6147308d828e01614037565b96505060a08b013567ffffffffffffffff81111561475157614750613c59565b5b61475d8d828e01614037565b95505060c08b013567ffffffffffffffff81111561477e5761477d613c59565b5b61478a8d828e01614037565b94505060e08b013567ffffffffffffffff8111156147ab576147aa613c59565b5b6147b78d828e01614037565b9350506101008b013567ffffffffffffffff8111156147d9576147d8613c59565b5b6147e58d828e01614037565b9250506101206147f78d828e01613cdd565b9150509295989b9194979a5092959850565b600081519050919050565b600082825260208201905092915050565b600061483082614809565b61483a8185614814565b935061484a818560208601613ef0565b61485381613d3c565b840191505092915050565b60006060820190506148736000830186613f68565b81810360208301526148858185614825565b905081810360408301526148998184614825565b9050949350505050565b60006020820190506148b86000830184613f77565b92915050565b600060408201905081810360008301526148d88185614825565b905081810360208301526148ec8184614825565b90509392505050565b6000610160820190508181036000830152614910818e614825565b90508181036020830152614924818d614825565b90508181036040830152614938818c614825565b9050818103606083015261494c818b614825565b90508181036080830152614960818a614825565b905081810360a08301526149748189614825565b905081810360c08301526149888188614825565b905081810360e083015261499c8187614825565b90506149ac610100830186613f77565b6149ba610120830185613f77565b6149c8610140830184613f68565b9c9b505050505050505050505050565b600081519050919050565b600082825260208201905092915050565b6000819050602082019050919050565b614a0d81613c7e565b82525050565b6000614a1f8383614a04565b60208301905092915050565b6000602082019050919050565b6000614a43826149d8565b614a4d81856149e3565b9350614a58836149f4565b8060005b83811015614a89578151614a708882614a13565b9750614a7b83614a2b565b925050600181019050614a5c565b5085935050505092915050565b60006020820190508181036000830152614ab08184614a38565b905092915050565b600060c0820190508181036000830152614ad28189614825565b90508181036020830152614ae68188614825565b90508181036040830152614afa8187614825565b9050614b096060830186613f77565b614b166080830185613f77565b614b2360a0830184613f68565b979650505050505050565b600060208284031215614b4457614b43613c54565b5b6000614b5284828501613cdd565b91505092915050565b7f4f6e6c792061646d696e2063616e20706572666f726d2074686973206163746960008201527f6f6e000000000000000000000000000000000000000000000000000000000000602082015250565b6000614bb7602283614814565b9150614bc282614b5b565b604082019050919050565b60006020820190508181036000830152614be681614baa565b9050919050565b7f55736572206e6f74207265676973746572656400000000000000000000000000600082015250565b6000614c23601383614814565b9150614c2e82614bed565b602082019050919050565b60006020820190508181036000830152614c5281614c16565b9050919050565b7f496e76616c6964206b657920696e646578000000000000000000000000000000600082015250565b6000614c8f601183614814565b9150614c9a82614c59565b602082019050919050565b60006020820190508181036000830152614cbe81614c82565b9050919050565b7f4e487b7100000000000000000000000000000000000000000000000000000000600052603260045260246000fd5b7f4b657920616c726561647920696e616374697665000000000000000000000000600082015250565b6000614d2a601483614814565b9150614d3582614cf4565b602082019050919050565b60006020820190508181036000830152614d5981614d1d565b9050919050565b7f43616e6e6f74206465616374697661746520746865206f6e6c79206b65790000600082015250565b6000614d96601e83614814565b9150614da182614d60565b602082019050919050565b60006020820190508181036000830152614dc581614d89565b9050919050565b7f4e487b7100000000000000000000000000000000000000000000000000000000600052601160045260246000fd5b6000614e0682613cbc565b91507fffffffffffffffffffffffffffffffffffffffffffffffffffffffffffffffff8203614e3857614e37614dcc565b5b600182019050919050565b7f5075626c6963206b65792063616e6e6f7420626520656d707479000000000000600082015250565b6000614e79601a83614814565b9150614e8482614e43565b602082019050919050565b60006020820190508181036000830152614ea881614e6c565b9050919050565b6000614eba82613cbc565b9150614ec583613cbc565b925082821015614ed857614ed7614dcc565b5b828203905092915050565b60006020820190508181036000830152614efd8184614825565b905092915050565b7f4e487b7100000000000000000000000000000000000000000000000000000000600052602260045260246000fd5b60006002820490506001821680614f4c57607f821691505b602082108103614f5f57614f5e614f05565b5b50919050565b7f4e6f20636572746966696361746520666f756e64000000000000000000000000600082015250565b6000614f9b601483614814565b9150614fa682614f65565b602082019050919050565b60006020820190508181036000830152614fca81614f8e565b9050919050565b7f436572746966696361746520616c7265616479207265766f6b65640000000000600082015250565b6000615007601b83614814565b915061501282614fd1565b602082019050919050565b6000602082019050818103600083015261503681614ffa565b9050919050565b7f456d61696c2063616e6e6f7420626520656d7074790000000000000000000000600082015250565b6000615073601583614814565b915061507e8261503d565b602082019050919050565b600060208201905081810360008301526150a281615066565b9050919050565b7f557365726e616d652063616e6e6f7420626520656d7074790000000000000000600082015250565b60006150df601883614814565b91506150ea826150a9565b602082019050919050565b6000602082019050818103600083015261510e816150d2565b9050919050565b7f5573657220616c72656164792072656769737465726564000000000000000000600082015250565b600061514b601783614814565b915061515682615115565b602082019050919050565b6000602082019050818103600083015261517a8161513e565b9050919050565b7f4e6f7420617574686f72697a65643a204f6e6c7920757365722063616e20726560008201527f766f6b6500000000000000000000000000000000000000000000000000000000602082015250565b60006151dd602483614814565b91506151e882615181565b604082019050919050565b6000602082019050818103600083015261520c816151d0565b9050919050565b7f5369676e6572206e6f7420726567697374657265640000000000000000000000600082015250565b6000615249601583614814565b915061525482615213565b602082019050919050565b600060208201905081810360008301526152788161523c565b9050919050565b600081905092915050565b7f19457468657265756d205369676e6564204d6573736167653a0a333200000000600082015250565b60006152c0601c8361527f565b91506152cb8261528a565b601c82019050919050565b6000819050919050565b6152f16152ec826141ca565b6152d6565b82525050565b6000615302826152b3565b915061530e82846152e0565b60208201915081905092915050565b7f4e6f207075626c6963206b65797320666f756e64000000000000000000000000600082015250565b6000615353601483614814565b915061535e8261531d565b602082019050919050565b6000602082019050818103600083015261538281615346565b9050919050565b7f4e6f20616374697665207075626c6963206b6579000000000000000000000000600082015250565b60006153bf601483614814565b91506153ca82615389565b602082019050919050565b600060208201905081810360008301526153ee816153b2565b9050919050565b7f56616c696469747920706572696f64206d75737420626520706f736974697665600082015250565b600061542b602083614814565b9150615436826153f5565b602082019050919050565b6000602082019050818103600083015261545a8161541e565b9050919050565b7f436572746966696361746520616c726561647920657869737473000000000000600082015250565b6000615497601a83614814565b91506154a282615461565b602082019050919050565b600060208201905081810360008301526154c68161548a565b9050919050565b60006154d882613cbc565b91506154e383613cbc565b9250817fffffffffffffffffffffffffffffffffffffffffffffffffffffffffffffffff048311821515161561551c5761551b614dcc565b5b828202905092915050565b600061553282613cbc565b915061553d83613cbc565b9250827fffffffffffffffffffffffffffffffffffffffffffffffffffffffffffffffff0382111561557257615571614dcc565b5b828201905092915050565b6000819050919050565b61559861559382613cbc565b61557d565b82525050565b60008160601b9050919050565b60006155b68261559e565b9050919050565b60006155c8826155ab565b9050919050565b6155e06155db82613c7e565b6155bd565b82525050565b60006155f28286615587565b6020820191506156028285615587565b60208201915061561282846155cf565b601482019150819050949350505050565b600061562f8284615587565b60208201915081905092915050565b7f496e646578206f7574206f6620626f756e647300000000000000000000000000600082015250565b6000615674601383614814565b915061567f8261563e565b602082019050919050565b600060208201905081810360008301526156a381615667565b9050919050565b6156b3816141ca565b82525050565b600060ff82169050919050565b6156cf816156b9565b82525050565b60006080820190506156ea60008301876156aa565b6156f760208301866156c6565b61570460408301856156aa565b61571160608301846156aa565b95945050505050565b7f496e76616c6964207369676e6174757265206c656e6774680000000000000000600082015250565b6000615750601883614814565b915061575b8261571a565b602082019050919050565b6000602082019050818103600083015261577f81615743565b9050919050565b6000615791826156b9565b915061579c836156b9565b92508260ff038211156157b2576157b1614dcc565b5b82820190509291505056fea2646970667358221220f6b51821afa535d6e75266d8dd00c6e88c28b0eb8c1b9ec84aba265e95a2838d64736f6c634300080d0033",
  "immutableReferences": {},
  "source": "// SPDX-License-Identifier: MIT\npragma solidity ^0.8.0;\n\ncontract UserCertificateManager {\n    address public admin;\n    \n    modifier onlyAdmin() {\n        require(msg.sender == admin, \"Only admin can perform this action\");\n        _;\n    }\n    // User Management\n    struct User {\n        bool exists;\n        string username;\n        string email;\n    }\n\n    // Certificate Management\n    struct PublicKey {\n        bytes keyData;\n        bool isActive;\n        uint256 addedAt;\n    }\n\n    struct Certificate {\n        string serialNumber;\n        string country;\n        string state;\n        string locality;\n        string organization;\n        string commonName;\n        string publicKey;\n        string signatureAlgorithm;\n        uint256 validFrom;\n        uint256 validTo;\n        bool isRevoked;\n    }\n\n    // Mappings\n    mapping(address => User) public users;\n    mapping(bytes => address) public publicKeyToAddress;\n    mapping(address => Certificate) public userCertificates;\n    mapping(address => PublicKey[]) public userPublicKeys;\n    mapping(address => uint256) public activeKeyIndex;\n    address[] private registeredUsers;\n\n    // Events\n    event UserRegistered(address indexed user, string email, string username);\n    event PublicKeyUpdated(address indexed user, string keyData);\n    event CertificateIssued(address indexed user, string serialNumber);\n    event PublicKeyAdded(address indexed user, string keyData);\n    event PublicKeyDeactivated(address indexed user, uint256 keyIndex);\n    event CertificateRevoked(address indexed user, string reason);\n\n    // User Registration\n    constructor() {\n        admin = msg.sender;\n    }\n\n    function registerUser(\n        string memory email,\n        string memory username\n    ) public {\n        require(bytes(email).length > 0, \"Email cannot be empty\");\n        require(bytes(username).length > 0, \"Username cannot be empty\");\n        require(!users[msg.sender].exists, \"User already registered\");\n        users[msg.sender] = User({\n            exists: true,\n            username: username,\n            email: email\n        });\n        registeredUsers.push(msg.sender);\n        emit UserRegistered(msg.sender, email, username);\n    }\n\n    // Certificate Management\n    function issueCertificate(\n        string memory _serialNumber,\n        string memory _country,\n        string memory _state,\n        string memory _locality,\n        string memory _organization,\n        string memory _commonName,\n        string memory _publicKey,\n        string memory _signatureAlgorithm,\n        uint256 _validDays\n    ) external {\n        require(users[msg.sender].exists, \"User not registered\");\n        require(bytes(_publicKey).length > 0, \"Public key cannot be empty\");\n        require(_validDays > 0, \"Validity period must be positive\");\n        require(\n            bytes(userCertificates[msg.sender].serialNumber).length == 0,\n            \"Certificate already exists\"\n        );\n\n        uint256 validFrom = block.timestamp;\n        uint256 validTo = validFrom + (_validDays * 1 days);\n\n        userCertificates[msg.sender] = Certificate({\n            serialNumber: _serialNumber,\n            country: _country,\n            state: _state,\n            locality: _locality,\n            organization: _organization,\n            commonName: _commonName,\n            publicKey: _publicKey,\n            signatureAlgorithm: _signatureAlgorithm,\n            validFrom: validFrom,\n            validTo: validTo,\n            isRevoked: false\n        });\n\n        emit CertificateIssued(msg.sender, _serialNumber);\n    }\n\n    // ADMIN: Issue certificate for any user\n    function issueCertificateFor(\n        address user,\n        string memory _serialNumber,\n        string memory _country,\n        string memory _state,\n        string memory _locality,\n        string memory _organization,\n        string memory _commonName,\n        string memory _publicKey,\n        string memory _signatureAlgorithm,\n        uint256 _validDays\n    ) external onlyAdmin {\n        require(users[user].exists, \"User not registered\");\n        require(bytes(_publicKey).length > 0, \"Public key cannot be empty\");\n        require(_validDays > 0, \"Validity period must be positive\");\n        require(\n            bytes(userCertificates[user].serialNumber).length == 0,\n            \"Certificate already exists\"\n        );\n        uint256 validFrom = block.timestamp;\n        uint256 validTo = validFrom + (_validDays * 1 days);\n        userCertificates[user] = Certificate({\n            serialNumber: _serialNumber,\n            country: _country,\n            state: _state,\n            locality: _locality,\n            organization: _organization,\n            commonName: _commonName,\n            publicKey: _publicKey,\n            signatureAlgorithm: _signatureAlgorithm,\n            validFrom: validFrom,\n            validTo: validTo,\n            isRevoked: false\n        });\n        emit CertificateIssued(user, _serialNumber);\n    }\n\n    // Public Key Management\n    function addPublicKey(bytes memory _keyData) public {\n        require(users[msg.sender].exists, \"User not registered\");\n        require(_keyData.length > 0, \"Public key cannot be empty\");\n\n        // Add new public key\n        userPublicKeys[msg.sender].push(\n            PublicKey({\n                keyData: _keyData,\n                isActive: true,\n                addedAt: block.timestamp\n            })\n        );\n\n        // Set the new key as active\n        uint256 newKeyIndex = userPublicKeys[msg.sender].length - 1;\n        activeKeyIndex[msg.sender] = newKeyIndex;\n\n        emit PublicKeyAdded(msg.sender, string(_keyData));\n    }\n\n    // ADMIN: Add public key for any user\n    function addPublicKeyFor(address user, bytes memory _keyData) external onlyAdmin {\n        require(users[user].exists, \"User not registered\");\n        require(_keyData.length > 0, \"Public key cannot be empty\");\n        userPublicKeys[user].push(\n            PublicKey({\n                keyData: _keyData,\n                isActive: true,\n                addedAt: block.timestamp\n            })\n        );\n        uint256 newKeyIndex = userPublicKeys[user].length - 1;\n        activeKeyIndex[user] = newKeyIndex;\n        emit PublicKeyAdded(user, string(_keyData));\n    }\n\n    function revokeCertificate(string memory _reason) external {\n        require(users[msg.sender].exists, \"User not registered\");\n        require(\n            bytes(userCertificates[msg.sender].serialNumber).length != 0,\n            \"No certificate found\"\n        );\n        require(\n            !userCertificates[msg.sender].isRevoked,\n            \"Certificate already revoked\"\n        );\n\n        userCertificates[msg.sender].isRevoked = true;\n        for (uint256 i = 0; i < userPublicKeys[msg.sender].length; i++) {\n            userPublicKeys[msg.sender][i].isActive = false;\n        }\n\n        emit CertificateRevoked(msg.sender, _reason);\n    }\n\n    // ADMIN: Deactivate public key for any user\n    function deactivatePublicKeyFor(address user, uint256 _keyIndex) external onlyAdmin {\n        require(users[user].exists, \"User not registered\");\n        require(_keyIndex < userPublicKeys[user].length, \"Invalid key index\");\n        require(userPublicKeys[user][_keyIndex].isActive, \"Key already inactive\");\n        require(userPublicKeys[user].length > 1, \"Cannot deactivate the only key\");\n        userPublicKeys[user][_keyIndex].isActive = false;\n        if (activeKeyIndex[user] == _keyIndex) {\n            for (uint256 i = 0; i < userPublicKeys[user].length; i++) {\n                if (i != _keyIndex && userPublicKeys[user][i].isActive) {\n                    activeKeyIndex[user] = i;\n                    break;\n                }\n            }\n        }\n        emit PublicKeyDeactivated(user, _keyIndex);\n    }\n\n    function revokeCertificate(address _user, string memory _reason) external {\n        // Allow admin or the user themselves to revoke\n        require(msg.sender == _user, \"Not authorized: Only user can revoke\");\n        \n        require(users[_user].exists, \"User not registered\");\n        require(\n            bytes(userCertificates[_user].serialNumber).length != 0,\n            \"No certificate found\"\n        );\n        require(\n            !userCertificates[_user].isRevoked,\n            \"Certificate already revoked\"\n        );\n\n        userCertificates[_user].isRevoked = true;\n\n        // Deactivate all public keys\n        for (uint256 i = 0; i < userPublicKeys[_user].length; i++) {\n            userPublicKeys[_user][i].isActive = false;\n        }\n\n        emit CertificateRevoked(_user, _reason);\n    }\n\n    // View Functions\n    function getActivePublicKey(\n        address _user\n    ) external view returns (bytes memory) {\n        require(users[_user].exists, \"User not registered\");\n        uint256 activeIndex = activeKeyIndex[_user];\n        require(userPublicKeys[_user].length > 0, \"No public keys found\");\n        require(\n            userPublicKeys[_user][activeIndex].isActive,\n            \"No active public key\"\n        );\n\n        return userPublicKeys[_user][activeIndex].keyData;\n    }\n\n    function getUserPublicKeys(\n        address _user\n    ) external view returns (PublicKey[] memory) {\n        require(users[_user].exists, \"User not registered\");\n        return userPublicKeys[_user];\n    } // No change needed here, struct already updated\n\n    function getCertificateInfo(\n        address _user\n    )\n        external\n        view\n        returns (\n            string memory serialNumber,\n            string memory commonName,\n            string memory organization,\n            uint256 validFrom,\n            uint256 validTo,\n            bool isRevoked\n        )\n    {\n        require(users[_user].exists, \"User not registered\");\n        Certificate memory cert = userCertificates[_user];\n        return (\n            cert.serialNumber,\n            cert.commonName,\n            cert.organization,\n            cert.validFrom,\n            cert.validTo,\n            cert.isRevoked\n        );\n    }\n\n    function generateChallenge(\n        address user\n    ) public view returns (bytes memory challenge) {\n        require(users[user].exists, \"User not registered\");\n\n        // Generate random number for challenge\n        uint256 random = uint256(\n            keccak256(abi.encodePacked(block.timestamp, block.difficulty, user))\n        );\n\n        return abi.encodePacked(random);\n    }\n\n    function verifySignature(\n        bytes32 messageHash,\n        bytes memory signature,\n        address signer\n    ) public view returns (bool) {\n        require(users[signer].exists, \"Signer not registered\");\n\n        // This is a simplified version - in production, you'd want to implement proper ECDSA recovery\n        bytes32 ethSignedMessageHash = keccak256(\n            abi.encodePacked(\"\\x19Ethereum Signed Message:\\n32\", messageHash)\n        );\n\n        address recovered = recoverSigner(ethSignedMessageHash, signature);\n        return recovered == signer;\n    }\n\n    function recoverSigner(\n        bytes32 _ethSignedMessageHash,\n        bytes memory _signature\n    ) internal pure returns (address) {\n        (bytes32 r, bytes32 s, uint8 v) = splitSignature(_signature);\n        return ecrecover(_ethSignedMessageHash, v, r, s);\n    }\n\n    function splitSignature(\n        bytes memory sig\n    ) internal pure returns (bytes32 r, bytes32 s, uint8 v) {\n        require(sig.length == 65, \"Invalid signature length\");\n\n        assembly {\n            r := mload(add(sig, 32))\n            s := mload(add(sig, 64))\n            v := byte(0, mload(add(sig, 96)))\n        }\n\n        if (v < 27) v += 27;\n    }\n\n    // Get user details (from UserAuth)\n    function getUserDetails(\n        address user\n    ) public view returns (string memory, string memory) {\n        require(users[user].exists, \"User not registered\");\n        return (users[user].username, users[user].email);\n    }\n\n    // Check if user exists (from UserAuth)\n    function isUserRegistered(address user) public view returns (bool) {\n        return users[user].exists;\n    }\n\n    // Get total number of registered users (from UserAuth)\n    function getUserCount() public view returns (uint) {\n        return registeredUsers.length;\n    }\n\n    // Get user address by index (from UserAuth)\n    function getUserByIndex(uint index) public view returns (address) {\n        require(index < registeredUsers.length, \"Index out of bounds\");\n        return registeredUsers[index];\n    }\n\n    // Get all registered users (from UserAuth)\n    function getAllUsers() public view returns (address[] memory) {\n        return registeredUsers;\n    }\n\n    // Verify solution (from UserAuth)\n    function verifySolution(\n        address user,\n        bytes memory solution\n    ) public view returns (bool) {\n        require(users[user].exists, \"User not registered\");\n        bytes memory challenge = generateChallenge(user);\n        return keccak256(solution) == keccak256(challenge);\n    }\n}\n",
  "sourcePath": "D:\\Praveen\\Personal\\projects\\trustkey\\truffle-pkibckckn\\contracts\\UserCertificateManager.sol",
  "compiler": {
    "name": "solc",
    "version": "0.8.13+commit.abaa5c0e.Emscripten.clang"
  },
  "schemaVersion": "3.4.16",
  "updatedAt": "2025-07-02T12:07:38.350Z",
  "networkType": "ethereum",
  "devdoc": {
    "kind": "dev",
    "methods": {},
    "version": 1
  },
  "userdoc": {
    "kind": "user",
    "methods": {},
    "version": 1
  }
}