{
  "contractName": "UserCertificateManager",
  "abi": [
    {
      "inputs": [],
      "stateMutability": "nonpayable",
      "type": "constructor"
    },
    {
      "anonymous": false,
      "inputs": [
        {
          "indexed": true,
          "internalType": "address",
          "name": "user",
          "type": "address"
        },
        {
          "indexed": false,
          "internalType": "string",
          "name": "serialNumber",
          "type": "string"
        }
      ],
      "name": "CertificateIssued",
      "type": "event"
    },
    {
      "anonymous": false,
      "inputs": [
        {
          "indexed": true,
          "internalType": "address",
          "name": "user",
          "type": "address"
        },
        {
          "indexed": false,
          "internalType": "string",
          "name": "reason",
          "type": "string"
        }
      ],
      "name": "CertificateRevoked",
      "type": "event"
    },
    {
      "anonymous": false,
      "inputs": [
        {
          "indexed": true,
          "internalType": "address",
          "name": "user",
          "type": "address"
        },
        {
          "indexed": false,
          "internalType": "string",
          "name": "keyData",
          "type": "string"
        }
      ],
      "name": "PublicKeyAdded",
      "type": "event"
    },
    {
      "anonymous": false,
      "inputs": [
        {
          "indexed": true,
          "internalType": "address",
          "name": "user",
          "type": "address"
        },
        {
          "indexed": false,
          "internalType": "uint256",
          "name": "keyIndex",
          "type": "uint256"
        }
      ],
      "name": "PublicKeyDeactivated",
      "type": "event"
    },
    {
      "anonymous": false,
      "inputs": [
        {
          "indexed": true,
          "internalType": "address",
          "name": "user",
          "type": "address"
        },
        {
          "indexed": false,
          "internalType": "string",
          "name": "keyData",
          "type": "string"
        }
      ],
      "name": "PublicKeyUpdated",
      "type": "event"
    },
    {
      "anonymous": false,
      "inputs": [
        {
          "indexed": true,
          "internalType": "address",
          "name": "user",
          "type": "address"
        },
        {
          "indexed": false,
          "internalType": "string",
          "name": "email",
          "type": "string"
        },
        {
          "indexed": false,
          "internalType": "string",
          "name": "username",
          "type": "string"
        }
      ],
      "name": "UserRegistered",
      "type": "event"
    },
    {
      "inputs": [
        {
          "internalType": "address",
          "name": "",
          "type": "address"
        }
      ],
      "name": "activeKeyIndex",
      "outputs": [
        {
          "internalType": "uint256",
          "name": "",
          "type": "uint256"
        }
      ],
      "stateMutability": "view",
      "type": "function",
      "constant": true
    },
    {
      "inputs": [],
      "name": "admin",
      "outputs": [
        {
          "internalType": "address",
          "name": "",
          "type": "address"
        }
      ],
      "stateMutability": "view",
      "type": "function",
      "constant": true
    },
    {
      "inputs": [
        {
          "internalType": "bytes",
          "name": "",
          "type": "bytes"
        }
      ],
      "name": "publicKeyToAddress",
      "outputs": [
        {
          "internalType": "address",
          "name": "",
          "type": "address"
        }
      ],
      "stateMutability": "view",
      "type": "function",
      "constant": true
    },
    {
      "inputs": [
        {
          "internalType": "address",
          "name": "",
          "type": "address"
        }
      ],
      "name": "userCertificates",
      "outputs": [
        {
          "internalType": "string",
          "name": "serialNumber",
          "type": "string"
        },
        {
          "internalType": "string",
          "name": "country",
          "type": "string"
        },
        {
          "internalType": "string",
          "name": "state",
          "type": "string"
        },
        {
          "internalType": "string",
          "name": "locality",
          "type": "string"
        },
        {
          "internalType": "string",
          "name": "organization",
          "type": "string"
        },
        {
          "internalType": "string",
          "name": "commonName",
          "type": "string"
        },
        {
          "internalType": "string",
          "name": "publicKey",
          "type": "string"
        },
        {
          "internalType": "string",
          "name": "signatureAlgorithm",
          "type": "string"
        },
        {
          "internalType": "uint256",
          "name": "validFrom",
          "type": "uint256"
        },
        {
          "internalType": "uint256",
          "name": "validTo",
          "type": "uint256"
        },
        {
          "internalType": "bool",
          "name": "isRevoked",
          "type": "bool"
        }
      ],
      "stateMutability": "view",
      "type": "function",
      "constant": true
    },
    {
      "inputs": [
        {
          "internalType": "address",
          "name": "",
          "type": "address"
        },
        {
          "internalType": "uint256",
          "name": "",
          "type": "uint256"
        }
      ],
      "name": "userPublicKeys",
      "outputs": [
        {
          "internalType": "bytes",
          "name": "keyData",
          "type": "bytes"
        },
        {
          "internalType": "bool",
          "name": "isActive",
          "type": "bool"
        },
        {
          "internalType": "uint256",
          "name": "addedAt",
          "type": "uint256"
        }
      ],
      "stateMutability": "view",
      "type": "function",
      "constant": true
    },
    {
      "inputs": [
        {
          "internalType": "address",
          "name": "",
          "type": "address"
        }
      ],
      "name": "users",
      "outputs": [
        {
          "internalType": "bool",
          "name": "exists",
          "type": "bool"
        },
        {
          "internalType": "string",
          "name": "username",
          "type": "string"
        },
        {
          "internalType": "string",
          "name": "email",
          "type": "string"
        }
      ],
      "stateMutability": "view",
      "type": "function",
      "constant": true
    },
    {
      "inputs": [
        {
          "internalType": "string",
          "name": "email",
          "type": "string"
        },
        {
          "internalType": "string",
          "name": "username",
          "type": "string"
        },
        {
          "internalType": "bytes",
          "name": "publicKey",
          "type": "bytes"
        }
      ],
      "name": "registerUser",
      "outputs": [],
      "stateMutability": "nonpayable",
      "type": "function"
    },
    {
      "inputs": [
        {
          "internalType": "string",
          "name": "_serialNumber",
          "type": "string"
        },
        {
          "internalType": "string",
          "name": "_country",
          "type": "string"
        },
        {
          "internalType": "string",
          "name": "_state",
          "type": "string"
        },
        {
          "internalType": "string",
          "name": "_locality",
          "type": "string"
        },
        {
          "internalType": "string",
          "name": "_organization",
          "type": "string"
        },
        {
          "internalType": "string",
          "name": "_commonName",
          "type": "string"
        },
        {
          "internalType": "string",
          "name": "_publicKey",
          "type": "string"
        },
        {
          "internalType": "string",
          "name": "_signatureAlgorithm",
          "type": "string"
        },
        {
          "internalType": "uint256",
          "name": "_validDays",
          "type": "uint256"
        }
      ],
      "name": "issueCertificate",
      "outputs": [],
      "stateMutability": "nonpayable",
      "type": "function"
    },
    {
      "inputs": [
        {
          "internalType": "address",
          "name": "user",
          "type": "address"
        },
        {
          "internalType": "string",
          "name": "_serialNumber",
          "type": "string"
        },
        {
          "internalType": "string",
          "name": "_country",
          "type": "string"
        },
        {
          "internalType": "string",
          "name": "_state",
          "type": "string"
        },
        {
          "internalType": "string",
          "name": "_locality",
          "type": "string"
        },
        {
          "internalType": "string",
          "name": "_organization",
          "type": "string"
        },
        {
          "internalType": "string",
          "name": "_commonName",
          "type": "string"
        },
        {
          "internalType": "string",
          "name": "_publicKey",
          "type": "string"
        },
        {
          "internalType": "string",
          "name": "_signatureAlgorithm",
          "type": "string"
        },
        {
          "internalType": "uint256",
          "name": "_validDays",
          "type": "uint256"
        }
      ],
      "name": "issueCertificateFor",
      "outputs": [],
      "stateMutability": "nonpayable",
      "type": "function"
    },
    {
      "inputs": [
        {
          "internalType": "bytes",
          "name": "_keyData",
          "type": "bytes"
        }
      ],
      "name": "addPublicKey",
      "outputs": [],
      "stateMutability": "nonpayable",
      "type": "function"
    },
    {
      "inputs": [
        {
          "internalType": "address",
          "name": "user",
          "type": "address"
        },
        {
          "internalType": "bytes",
          "name": "_keyData",
          "type": "bytes"
        }
      ],
      "name": "addPublicKeyFor",
      "outputs": [],
      "stateMutability": "nonpayable",
      "type": "function"
    },
    {
      "inputs": [
        {
          "internalType": "uint256",
          "name": "_keyIndex",
          "type": "uint256"
        }
      ],
      "name": "deactivatePublicKey",
      "outputs": [],
      "stateMutability": "nonpayable",
      "type": "function"
    },
    {
      "inputs": [
        {
          "internalType": "address",
          "name": "user",
          "type": "address"
        },
        {
          "internalType": "uint256",
          "name": "_keyIndex",
          "type": "uint256"
        }
      ],
      "name": "deactivatePublicKeyFor",
      "outputs": [],
      "stateMutability": "nonpayable",
      "type": "function"
    },
    {
      "inputs": [
        {
          "internalType": "string",
          "name": "_reason",
          "type": "string"
        }
      ],
      "name": "revokeCertificate",
      "outputs": [],
      "stateMutability": "nonpayable",
      "type": "function"
    },
    {
      "inputs": [
        {
          "internalType": "address",
          "name": "_user",
          "type": "address"
        }
      ],
      "name": "getActivePublicKey",
      "outputs": [
        {
          "internalType": "bytes",
          "name": "",
          "type": "bytes"
        }
      ],
      "stateMutability": "view",
      "type": "function",
      "constant": true
    },
    {
      "inputs": [
        {
          "internalType": "address",
          "name": "_user",
          "type": "address"
        }
      ],
      "name": "getUserPublicKeys",
      "outputs": [
        {
          "components": [
            {
              "internalType": "bytes",
              "name": "keyData",
              "type": "bytes"
            },
            {
              "internalType": "bool",
              "name": "isActive",
              "type": "bool"
            },
            {
              "internalType": "uint256",
              "name": "addedAt",
              "type": "uint256"
            }
          ],
          "internalType": "struct UserCertificateManager.PublicKey[]",
          "name": "",
          "type": "tuple[]"
        }
      ],
      "stateMutability": "view",
      "type": "function",
      "constant": true
    },
    {
      "inputs": [
        {
          "internalType": "address",
          "name": "_user",
          "type": "address"
        }
      ],
      "name": "getCertificateInfo",
      "outputs": [
        {
          "internalType": "string",
          "name": "serialNumber",
          "type": "string"
        },
        {
          "internalType": "string",
          "name": "commonName",
          "type": "string"
        },
        {
          "internalType": "string",
          "name": "organization",
          "type": "string"
        },
        {
          "internalType": "uint256",
          "name": "validFrom",
          "type": "uint256"
        },
        {
          "internalType": "uint256",
          "name": "validTo",
          "type": "uint256"
        },
        {
          "internalType": "bool",
          "name": "isRevoked",
          "type": "bool"
        }
      ],
      "stateMutability": "view",
      "type": "function",
      "constant": true
    },
    {
      "inputs": [
        {
          "internalType": "address",
          "name": "user",
          "type": "address"
        }
      ],
      "name": "generateChallenge",
      "outputs": [
        {
          "internalType": "bytes",
          "name": "challenge",
          "type": "bytes"
        }
      ],
      "stateMutability": "view",
      "type": "function",
      "constant": true
    },
    {
      "inputs": [
        {
          "internalType": "bytes32",
          "name": "messageHash",
          "type": "bytes32"
        },
        {
          "internalType": "bytes",
          "name": "signature",
          "type": "bytes"
        },
        {
          "internalType": "address",
          "name": "signer",
          "type": "address"
        }
      ],
      "name": "verifySignature",
      "outputs": [
        {
          "internalType": "bool",
          "name": "",
          "type": "bool"
        }
      ],
      "stateMutability": "view",
      "type": "function",
      "constant": true
    },
    {
      "inputs": [
        {
          "internalType": "address",
          "name": "user",
          "type": "address"
        }
      ],
      "name": "getUserDetails",
      "outputs": [
        {
          "internalType": "string",
          "name": "",
          "type": "string"
        },
        {
          "internalType": "string",
          "name": "",
          "type": "string"
        }
      ],
      "stateMutability": "view",
      "type": "function",
      "constant": true
    },
    {
      "inputs": [
        {
          "internalType": "address",
          "name": "user",
          "type": "address"
        }
      ],
      "name": "isUserRegistered",
      "outputs": [
        {
          "internalType": "bool",
          "name": "",
          "type": "bool"
        }
      ],
      "stateMutability": "view",
      "type": "function",
      "constant": true
    },
    {
      "inputs": [],
      "name": "getUserCount",
      "outputs": [
        {
          "internalType": "uint256",
          "name": "",
          "type": "uint256"
        }
      ],
      "stateMutability": "view",
      "type": "function",
      "constant": true
    },
    {
      "inputs": [
        {
          "internalType": "uint256",
          "name": "index",
          "type": "uint256"
        }
      ],
      "name": "getUserByIndex",
      "outputs": [
        {
          "internalType": "address",
          "name": "",
          "type": "address"
        }
      ],
      "stateMutability": "view",
      "type": "function",
      "constant": true
    },
    {
      "inputs": [],
      "name": "getAllUsers",
      "outputs": [
        {
          "internalType": "address[]",
          "name": "",
          "type": "address[]"
        }
      ],
      "stateMutability": "view",
      "type": "function",
      "constant": true
    },
    {
      "inputs": [
        {
          "internalType": "address",
          "name": "user",
          "type": "address"
        },
        {
          "internalType": "bytes",
          "name": "solution",
          "type": "bytes"
        }
      ],
      "name": "verifySolution",
      "outputs": [
        {
          "internalType": "bool",
          "name": "",
          "type": "bool"
        }
      ],
      "stateMutability": "view",
      "type": "function",
      "constant": true
    }
  ],
  "bytecode": "0x608060405234801561001057600080fd5b50336000806101000a81548173ffffffffffffffffffffffffffffffffffffffff021916908373ffffffffffffffffffffffffffffffffffffffff160217905550615af080620000616000396000f3fe608060405234801561001057600080fd5b50600436106101735760003560e01c806375a64ce8116100de578063cdd4139b11610097578063ebbcf74f11610071578063ebbcf74f146104b3578063f62a2a7e146104e8578063f851a44014610518578063ff5d32fe1461053657610173565b8063cdd4139b1461043f578063d31253cb1461045b578063e2842d791461049557610173565b806375a64ce814610342578063a6c5d5a91461035e578063a87430ba1461038e578063b5cb15f7146103c0578063c84450f9146103de578063cc3d967b1461040e57610173565b806343ae656c1161013057806343ae656c1461025e5780634e21a5171461028e5780635ea975db146102aa5780635f0b3249146102c6578063645e1415146102f65780636c433b611461032657610173565b80630a72c060146101785780630d6deb381461019457806310eefaf1146101b0578063142e1542146101e2578063163f7522146101fe57806331cd41991461022e575b600080fd5b610192600480360381019061018d9190613fef565b610566565b005b6101ae60048036038101906101a99190614175565b610a7a565b005b6101ca60048036038101906101c59190613fef565b610d94565b6040516101d993929190614283565b60405180910390f35b6101fc60048036038101906101f79190614362565b610e70565b005b610218600480360381019061021391906143ab565b6111a8565b60405161022591906143d8565b60405180910390f35b61024860048036038101906102439190614429565b611201565b60405161025591906143d8565b60405180910390f35b61027860048036038101906102739190614498565b611305565b60405161028591906144f0565b60405180910390f35b6102a860048036038101906102a39190614498565b61134e565b005b6102c460048036038101906102bf919061450b565b6115d9565b005b6102e060048036038101906102db91906143ab565b611a81565b6040516102ed91906145b2565b60405180910390f35b610310600480360381019061030b91906143ab565b611d7d565b60405161031d919061474e565b60405180910390f35b610340600480360381019061033b9190614770565b611f61565b005b61035c6004803603810190610357919061491a565b612336565b005b61037860048036038101906103739190614175565b61279a565b60405161038591906143d8565b60405180910390f35b6103a860048036038101906103a391906143ab565b612852565b6040516103b793929190614b2e565b60405180910390f35b6103c8612999565b6040516103d59190614b73565b60405180910390f35b6103f860048036038101906103f391906143ab565b6129a6565b60405161040591906145b2565b60405180910390f35b610428600480360381019061042391906143ab565b612a91565b604051610436929190614b8e565b60405180910390f35b61045960048036038101906104549190614bc5565b612cc8565b005b610475600480360381019061047091906143ab565b61314d565b60405161048c9b9a99989796959493929190614bf2565b60405180910390f35b61049d6135f4565b6040516104aa9190614d93565b60405180910390f35b6104cd60048036038101906104c891906143ab565b613682565b6040516104df96959493929190614db5565b60405180910390f35b61050260048036038101906104fd91906143ab565b613c60565b60405161050f9190614b73565b60405180910390f35b610520613c78565b60405161052d91906144f0565b60405180910390f35b610550600480360381019061054b9190614bc5565b613c9c565b60405161055d91906144f0565b60405180910390f35b60008054906101000a900473ffffffffffffffffffffffffffffffffffffffff1673ffffffffffffffffffffffffffffffffffffffff163373ffffffffffffffffffffffffffffffffffffffff16146105f4576040517f08c379a00000000000000000000000000000000000000000000000000000000081526004016105eb90614e9d565b60405180910390fd5b600160008373ffffffffffffffffffffffffffffffffffffffff1673ffffffffffffffffffffffffffffffffffffffff16815260200190815260200160002060000160009054906101000a900460ff16610683576040517f08c379a000000000000000000000000000000000000000000000000000000000815260040161067a90614f09565b60405180910390fd5b600460008373ffffffffffffffffffffffffffffffffffffffff1673ffffffffffffffffffffffffffffffffffffffff168152602001908152602001600020805490508110610707576040517f08c379a00000000000000000000000000000000000000000000000000000000081526004016106fe90614f75565b60405180910390fd5b600460008373ffffffffffffffffffffffffffffffffffffffff1673ffffffffffffffffffffffffffffffffffffffff168152602001908152602001600020818154811061075857610757614f95565b5b906000526020600020906003020160010160009054906101000a900460ff166107b6576040517f08c379a00000000000000000000000000000000000000000000000000000000081526004016107ad90615010565b60405180910390fd5b6001600460008473ffffffffffffffffffffffffffffffffffffffff1673ffffffffffffffffffffffffffffffffffffffff168152602001908152602001600020805490501161083b576040517f08c379a00000000000000000000000000000000000000000000000000000000081526004016108329061507c565b60405180910390fd5b6000600460008473ffffffffffffffffffffffffffffffffffffffff1673ffffffffffffffffffffffffffffffffffffffff168152602001908152602001600020828154811061088e5761088d614f95565b5b906000526020600020906003020160010160006101000a81548160ff02191690831515021790555080600560008473ffffffffffffffffffffffffffffffffffffffff1673ffffffffffffffffffffffffffffffffffffffff1681526020019081526020016000205403610a285760005b600460008473ffffffffffffffffffffffffffffffffffffffff1673ffffffffffffffffffffffffffffffffffffffff16815260200190815260200160002080549050811015610a26578181141580156109c55750600460008473ffffffffffffffffffffffffffffffffffffffff1673ffffffffffffffffffffffffffffffffffffffff16815260200190815260200160002081815481106109a5576109a4614f95565b5b906000526020600020906003020160010160009054906101000a900460ff165b15610a135780600560008573ffffffffffffffffffffffffffffffffffffffff1673ffffffffffffffffffffffffffffffffffffffff16815260200190815260200160002081905550610a26565b8080610a1e906150cb565b9150506108ff565b505b8173ffffffffffffffffffffffffffffffffffffffff167f6a0d45f87f64b1fea67d665c12179ba198d35a60fd48a200f61c493ae06b859182604051610a6e9190614b73565b60405180910390a25050565b60008054906101000a900473ffffffffffffffffffffffffffffffffffffffff1673ffffffffffffffffffffffffffffffffffffffff163373ffffffffffffffffffffffffffffffffffffffff1614610b08576040517f08c379a0000000000000000000000000000000000000000000000000000000008152600401610aff90614e9d565b60405180910390fd5b600160008373ffffffffffffffffffffffffffffffffffffffff1673ffffffffffffffffffffffffffffffffffffffff16815260200190815260200160002060000160009054906101000a900460ff16610b97576040517f08c379a0000000000000000000000000000000000000000000000000000000008152600401610b8e90614f09565b60405180910390fd5b6000815111610bdb576040517f08c379a0000000000000000000000000000000000000000000000000000000008152600401610bd29061515f565b60405180910390fd5b600460008373ffffffffffffffffffffffffffffffffffffffff1673ffffffffffffffffffffffffffffffffffffffff16815260200190815260200160002060405180606001604052808381526020016001151581526020014281525090806001815401808255809150506001900390600052602060002090600302016000909190919091506000820151816000019080519060200190610c7d929190613e1e565b5060208201518160010160006101000a81548160ff02191690831515021790555060408201518160020155505060006001600460008573ffffffffffffffffffffffffffffffffffffffff1673ffffffffffffffffffffffffffffffffffffffff16815260200190815260200160002080549050610cfb919061517f565b905080600560008573ffffffffffffffffffffffffffffffffffffffff1673ffffffffffffffffffffffffffffffffffffffff168152602001908152602001600020819055508273ffffffffffffffffffffffffffffffffffffffff167fae3c25feee9ffe53f654a0494566502413eea9041dd7db07da82a2c6bb8ca34e83604051610d8791906151b3565b60405180910390a2505050565b60046020528160005260406000208181548110610db057600080fd5b906000526020600020906003020160009150915050806000018054610dd490615204565b80601f0160208091040260200160405190810160405280929190818152602001828054610e0090615204565b8015610e4d5780601f10610e2257610100808354040283529160200191610e4d565b820191906000526020600020905b815481529060010190602001808311610e3057829003601f168201915b5050505050908060010160009054906101000a900460ff16908060020154905083565b600160003373ffffffffffffffffffffffffffffffffffffffff1673ffffffffffffffffffffffffffffffffffffffff16815260200190815260200160002060000160009054906101000a900460ff16610eff576040517f08c379a0000000000000000000000000000000000000000000000000000000008152600401610ef690614f09565b60405180910390fd5b6000600360003373ffffffffffffffffffffffffffffffffffffffff1673ffffffffffffffffffffffffffffffffffffffff1681526020019081526020016000206000018054610f4e90615204565b905003610f90576040517f08c379a0000000000000000000000000000000000000000000000000000000008152600401610f8790615281565b60405180910390fd5b600360003373ffffffffffffffffffffffffffffffffffffffff1673ffffffffffffffffffffffffffffffffffffffff168152602001908152602001600020600a0160009054906101000a900460ff1615611020576040517f08c379a0000000000000000000000000000000000000000000000000000000008152600401611017906152ed565b60405180910390fd5b6001600360003373ffffffffffffffffffffffffffffffffffffffff1673ffffffffffffffffffffffffffffffffffffffff168152602001908152602001600020600a0160006101000a81548160ff02191690831515021790555060005b600460003373ffffffffffffffffffffffffffffffffffffffff1673ffffffffffffffffffffffffffffffffffffffff16815260200190815260200160002080549050811015611156576000600460003373ffffffffffffffffffffffffffffffffffffffff1673ffffffffffffffffffffffffffffffffffffffff168152602001908152602001600020828154811061111b5761111a614f95565b5b906000526020600020906003020160010160006101000a81548160ff021916908315150217905550808061114e906150cb565b91505061107e565b503373ffffffffffffffffffffffffffffffffffffffff167fea1842a7488747c3224eb14e1621c64aa824ec84dadb16e6122fa8223086d0488260405161119d91906151b3565b60405180910390a250565b6000600160008373ffffffffffffffffffffffffffffffffffffffff1673ffffffffffffffffffffffffffffffffffffffff16815260200190815260200160002060000160009054906101000a900460ff169050919050565b6000600160008373ffffffffffffffffffffffffffffffffffffffff1673ffffffffffffffffffffffffffffffffffffffff16815260200190815260200160002060000160009054906101000a900460ff16611292576040517f08c379a000000000000000000000000000000000000000000000000000000000815260040161128990615359565b60405180910390fd5b6000846040516020016112a591906153f1565b60405160208183030381529060405280519060200120905060006112c98286613d2b565b90508373ffffffffffffffffffffffffffffffffffffffff168173ffffffffffffffffffffffffffffffffffffffff1614925050509392505050565b6002818051602081018201805184825260208301602085012081835280955050505050506000915054906101000a900473ffffffffffffffffffffffffffffffffffffffff1681565b600160003373ffffffffffffffffffffffffffffffffffffffff1673ffffffffffffffffffffffffffffffffffffffff16815260200190815260200160002060000160009054906101000a900460ff166113dd576040517f08c379a00000000000000000000000000000000000000000000000000000000081526004016113d490614f09565b60405180910390fd5b6000815111611421576040517f08c379a00000000000000000000000000000000000000000000000000000000081526004016114189061515f565b60405180910390fd5b600460003373ffffffffffffffffffffffffffffffffffffffff1673ffffffffffffffffffffffffffffffffffffffff168152602001908152602001600020604051806060016040528083815260200160011515815260200142815250908060018154018082558091505060019003906000526020600020906003020160009091909190915060008201518160000190805190602001906114c3929190613e1e565b5060208201518160010160006101000a81548160ff02191690831515021790555060408201518160020155505060006001600460003373ffffffffffffffffffffffffffffffffffffffff1673ffffffffffffffffffffffffffffffffffffffff16815260200190815260200160002080549050611541919061517f565b905080600560003373ffffffffffffffffffffffffffffffffffffffff1673ffffffffffffffffffffffffffffffffffffffff168152602001908152602001600020819055503373ffffffffffffffffffffffffffffffffffffffff167fae3c25feee9ffe53f654a0494566502413eea9041dd7db07da82a2c6bb8ca34e836040516115cd91906151b3565b60405180910390a25050565b600083511161161d576040517f08c379a000000000000000000000000000000000000000000000000000000000815260040161161490615463565b60405180910390fd5b6000825111611661576040517f08c379a0000000000000000000000000000000000000000000000000000000008152600401611658906154cf565b60405180910390fd5b600160003373ffffffffffffffffffffffffffffffffffffffff1673ffffffffffffffffffffffffffffffffffffffff16815260200190815260200160002060000160009054906101000a900460ff16156116f1576040517f08c379a00000000000000000000000000000000000000000000000000000000081526004016116e89061553b565b60405180910390fd5b600073ffffffffffffffffffffffffffffffffffffffff166002826040516117199190615597565b908152602001604051809103902060009054906101000a900473ffffffffffffffffffffffffffffffffffffffff1673ffffffffffffffffffffffffffffffffffffffff161461179e576040517f08c379a0000000000000000000000000000000000000000000000000000000008152600401611795906155fa565b60405180910390fd5b604051806060016040528060011515815260200183815260200184815250600160003373ffffffffffffffffffffffffffffffffffffffff1673ffffffffffffffffffffffffffffffffffffffff16815260200190815260200160002060008201518160000160006101000a81548160ff0219169083151502179055506020820151816001019080519060200190611837929190613ea4565b506040820151816002019080519060200190611854929190613ea4565b50905050336002826040516118699190615597565b908152602001604051809103902060006101000a81548173ffffffffffffffffffffffffffffffffffffffff021916908373ffffffffffffffffffffffffffffffffffffffff1602179055506006339080600181540180825580915050600190039060005260206000200160009091909190916101000a81548173ffffffffffffffffffffffffffffffffffffffff021916908373ffffffffffffffffffffffffffffffffffffffff160217905550600460003373ffffffffffffffffffffffffffffffffffffffff1673ffffffffffffffffffffffffffffffffffffffff168152602001908152602001600020604051806060016040528083815260200160011515815260200142815250908060018154018082558091505060019003906000526020600020906003020160009091909190915060008201518160000190805190602001906119ba929190613e1e565b5060208201518160010160006101000a81548160ff0219169083151502179055506040820151816002015550506000600560003373ffffffffffffffffffffffffffffffffffffffff1673ffffffffffffffffffffffffffffffffffffffff168152602001908152602001600020819055503373ffffffffffffffffffffffffffffffffffffffff167f92822564bab8864c3a47b34e8d23fbce5c46234eb5da261f94087b995ac0f33b8484604051611a74929190614b8e565b60405180910390a2505050565b6060600160008373ffffffffffffffffffffffffffffffffffffffff1673ffffffffffffffffffffffffffffffffffffffff16815260200190815260200160002060000160009054906101000a900460ff16611b12576040517f08c379a0000000000000000000000000000000000000000000000000000000008152600401611b0990614f09565b60405180910390fd5b6000600560008473ffffffffffffffffffffffffffffffffffffffff1673ffffffffffffffffffffffffffffffffffffffff1681526020019081526020016000205490506000600460008573ffffffffffffffffffffffffffffffffffffffff1673ffffffffffffffffffffffffffffffffffffffff1681526020019081526020016000208054905011611bdb576040517f08c379a0000000000000000000000000000000000000000000000000000000008152600401611bd290615666565b60405180910390fd5b600460008473ffffffffffffffffffffffffffffffffffffffff1673ffffffffffffffffffffffffffffffffffffffff1681526020019081526020016000208181548110611c2c57611c2b614f95565b5b906000526020600020906003020160010160009054906101000a900460ff16611c8a576040517f08c379a0000000000000000000000000000000000000000000000000000000008152600401611c81906156d2565b60405180910390fd5b600460008473ffffffffffffffffffffffffffffffffffffffff1673ffffffffffffffffffffffffffffffffffffffff1681526020019081526020016000208181548110611cdb57611cda614f95565b5b90600052602060002090600302016000018054611cf790615204565b80601f0160208091040260200160405190810160405280929190818152602001828054611d2390615204565b8015611d705780601f10611d4557610100808354040283529160200191611d70565b820191906000526020600020905b815481529060010190602001808311611d5357829003601f168201915b5050505050915050919050565b6060600160008373ffffffffffffffffffffffffffffffffffffffff1673ffffffffffffffffffffffffffffffffffffffff16815260200190815260200160002060000160009054906101000a900460ff16611e0e576040517f08c379a0000000000000000000000000000000000000000000000000000000008152600401611e0590614f09565b60405180910390fd5b600460008373ffffffffffffffffffffffffffffffffffffffff1673ffffffffffffffffffffffffffffffffffffffff168152602001908152602001600020805480602002602001604051908101604052809291908181526020016000905b82821015611f565783829060005260206000209060030201604051806060016040529081600082018054611ea090615204565b80601f0160208091040260200160405190810160405280929190818152602001828054611ecc90615204565b8015611f195780601f10611eee57610100808354040283529160200191611f19565b820191906000526020600020905b815481529060010190602001808311611efc57829003601f168201915b505050505081526020016001820160009054906101000a900460ff1615151515815260200160028201548152505081526020019060010190611e6d565b505050509050919050565b600160003373ffffffffffffffffffffffffffffffffffffffff1673ffffffffffffffffffffffffffffffffffffffff16815260200190815260200160002060000160009054906101000a900460ff16611ff0576040517f08c379a0000000000000000000000000000000000000000000000000000000008152600401611fe790614f09565b60405180910390fd5b6000835111612034576040517f08c379a000000000000000000000000000000000000000000000000000000000815260040161202b9061515f565b60405180910390fd5b60008111612077576040517f08c379a000000000000000000000000000000000000000000000000000000000815260040161206e9061573e565b60405180910390fd5b6000600360003373ffffffffffffffffffffffffffffffffffffffff1673ffffffffffffffffffffffffffffffffffffffff16815260200190815260200160002060000180546120c690615204565b905014612108576040517f08c379a00000000000000000000000000000000000000000000000000000000081526004016120ff906157aa565b60405180910390fd5b60004290506000620151808361211e91906157ca565b826121299190615824565b90506040518061016001604052808c81526020018b81526020018a815260200189815260200188815260200187815260200186815260200185815260200183815260200182815260200160001515815250600360003373ffffffffffffffffffffffffffffffffffffffff1673ffffffffffffffffffffffffffffffffffffffff16815260200190815260200160002060008201518160000190805190602001906121d5929190613ea4565b5060208201518160010190805190602001906121f2929190613ea4565b50604082015181600201908051906020019061220f929190613ea4565b50606082015181600301908051906020019061222c929190613ea4565b506080820151816004019080519060200190612249929190613ea4565b5060a0820151816005019080519060200190612266929190613ea4565b5060c0820151816006019080519060200190612283929190613ea4565b5060e08201518160070190805190602001906122a0929190613ea4565b506101008201518160080155610120820151816009015561014082015181600a0160006101000a81548160ff0219169083151502179055509050503373ffffffffffffffffffffffffffffffffffffffff167f4514a45e6f56567008e790fe2158e66d34e8b8254c060ad061d57027487914798c60405161232191906151b3565b60405180910390a25050505050505050505050565b60008054906101000a900473ffffffffffffffffffffffffffffffffffffffff1673ffffffffffffffffffffffffffffffffffffffff163373ffffffffffffffffffffffffffffffffffffffff16146123c4576040517f08c379a00000000000000000000000000000000000000000000000000000000081526004016123bb90614e9d565b60405180910390fd5b600160008b73ffffffffffffffffffffffffffffffffffffffff1673ffffffffffffffffffffffffffffffffffffffff16815260200190815260200160002060000160009054906101000a900460ff16612453576040517f08c379a000000000000000000000000000000000000000000000000000000000815260040161244a90614f09565b60405180910390fd5b6000835111612497576040517f08c379a000000000000000000000000000000000000000000000000000000000815260040161248e9061515f565b60405180910390fd5b600081116124da576040517f08c379a00000000000000000000000000000000000000000000000000000000081526004016124d19061573e565b60405180910390fd5b6000600360008c73ffffffffffffffffffffffffffffffffffffffff1673ffffffffffffffffffffffffffffffffffffffff168152602001908152602001600020600001805461252990615204565b90501461256b576040517f08c379a0000000000000000000000000000000000000000000000000000000008152600401612562906157aa565b60405180910390fd5b60004290506000620151808361258191906157ca565b8261258c9190615824565b90506040518061016001604052808c81526020018b81526020018a815260200189815260200188815260200187815260200186815260200185815260200183815260200182815260200160001515815250600360008e73ffffffffffffffffffffffffffffffffffffffff1673ffffffffffffffffffffffffffffffffffffffff1681526020019081526020016000206000820151816000019080519060200190612638929190613ea4565b506020820151816001019080519060200190612655929190613ea4565b506040820151816002019080519060200190612672929190613ea4565b50606082015181600301908051906020019061268f929190613ea4565b5060808201518160040190805190602001906126ac929190613ea4565b5060a08201518160050190805190602001906126c9929190613ea4565b5060c08201518160060190805190602001906126e6929190613ea4565b5060e0820151816007019080519060200190612703929190613ea4565b506101008201518160080155610120820151816009015561014082015181600a0160006101000a81548160ff0219169083151502179055509050508b73ffffffffffffffffffffffffffffffffffffffff167f4514a45e6f56567008e790fe2158e66d34e8b8254c060ad061d57027487914798c60405161278491906151b3565b60405180910390a2505050505050505050505050565b6000600160008473ffffffffffffffffffffffffffffffffffffffff1673ffffffffffffffffffffffffffffffffffffffff16815260200190815260200160002060000160009054906101000a900460ff1661282b576040517f08c379a000000000000000000000000000000000000000000000000000000000815260040161282290614f09565b60405180910390fd5b6000612836846129a6565b9050808051906020012083805190602001201491505092915050565b60016020528060005260406000206000915090508060000160009054906101000a900460ff169080600101805461288890615204565b80601f01602080910402602001604051908101604052809291908181526020018280546128b490615204565b80156129015780601f106128d657610100808354040283529160200191612901565b820191906000526020600020905b8154815290600101906020018083116128e457829003601f168201915b50505050509080600201805461291690615204565b80601f016020809104026020016040519081016040528092919081815260200182805461294290615204565b801561298f5780601f106129645761010080835404028352916020019161298f565b820191906000526020600020905b81548152906001019060200180831161297257829003601f168201915b5050505050905083565b6000600680549050905090565b6060600160008373ffffffffffffffffffffffffffffffffffffffff1673ffffffffffffffffffffffffffffffffffffffff16815260200190815260200160002060000160009054906101000a900460ff16612a37576040517f08c379a0000000000000000000000000000000000000000000000000000000008152600401612a2e90614f09565b60405180910390fd5b6000424484604051602001612a4e939291906158e3565b6040516020818303038152906040528051906020012060001c905080604051602001612a7a9190615920565b604051602081830303815290604052915050919050565b606080600160008473ffffffffffffffffffffffffffffffffffffffff1673ffffffffffffffffffffffffffffffffffffffff16815260200190815260200160002060000160009054906101000a900460ff16612b23576040517f08c379a0000000000000000000000000000000000000000000000000000000008152600401612b1a90614f09565b60405180910390fd5b600160008473ffffffffffffffffffffffffffffffffffffffff1673ffffffffffffffffffffffffffffffffffffffff168152602001908152602001600020600101600160008573ffffffffffffffffffffffffffffffffffffffff1673ffffffffffffffffffffffffffffffffffffffff168152602001908152602001600020600201818054612bb390615204565b80601f0160208091040260200160405190810160405280929190818152602001828054612bdf90615204565b8015612c2c5780601f10612c0157610100808354040283529160200191612c2c565b820191906000526020600020905b815481529060010190602001808311612c0f57829003601f168201915b50505050509150808054612c3f90615204565b80601f0160208091040260200160405190810160405280929190818152602001828054612c6b90615204565b8015612cb85780601f10612c8d57610100808354040283529160200191612cb8565b820191906000526020600020905b815481529060010190602001808311612c9b57829003601f168201915b5050505050905091509150915091565b600160003373ffffffffffffffffffffffffffffffffffffffff1673ffffffffffffffffffffffffffffffffffffffff16815260200190815260200160002060000160009054906101000a900460ff16612d57576040517f08c379a0000000000000000000000000000000000000000000000000000000008152600401612d4e90614f09565b60405180910390fd5b600460003373ffffffffffffffffffffffffffffffffffffffff1673ffffffffffffffffffffffffffffffffffffffff168152602001908152602001600020805490508110612ddb576040517f08c379a0000000000000000000000000000000000000000000000000000000008152600401612dd290614f75565b60405180910390fd5b600460003373ffffffffffffffffffffffffffffffffffffffff1673ffffffffffffffffffffffffffffffffffffffff1681526020019081526020016000208181548110612e2c57612e2b614f95565b5b906000526020600020906003020160010160009054906101000a900460ff16612e8a576040517f08c379a0000000000000000000000000000000000000000000000000000000008152600401612e8190615010565b60405180910390fd5b6001600460003373ffffffffffffffffffffffffffffffffffffffff1673ffffffffffffffffffffffffffffffffffffffff1681526020019081526020016000208054905011612f0f576040517f08c379a0000000000000000000000000000000000000000000000000000000008152600401612f069061507c565b60405180910390fd5b6000600460003373ffffffffffffffffffffffffffffffffffffffff1673ffffffffffffffffffffffffffffffffffffffff1681526020019081526020016000208281548110612f6257612f61614f95565b5b906000526020600020906003020160010160006101000a81548160ff02191690831515021790555080600560003373ffffffffffffffffffffffffffffffffffffffff1673ffffffffffffffffffffffffffffffffffffffff16815260200190815260200160002054036130fc5760005b600460003373ffffffffffffffffffffffffffffffffffffffff1673ffffffffffffffffffffffffffffffffffffffff168152602001908152602001600020805490508110156130fa578181141580156130995750600460003373ffffffffffffffffffffffffffffffffffffffff1673ffffffffffffffffffffffffffffffffffffffff168152602001908152602001600020818154811061307957613078614f95565b5b906000526020600020906003020160010160009054906101000a900460ff165b156130e75780600560003373ffffffffffffffffffffffffffffffffffffffff1673ffffffffffffffffffffffffffffffffffffffff168152602001908152602001600020819055506130fa565b80806130f2906150cb565b915050612fd3565b505b3373ffffffffffffffffffffffffffffffffffffffff167f6a0d45f87f64b1fea67d665c12179ba198d35a60fd48a200f61c493ae06b8591826040516131429190614b73565b60405180910390a250565b600360205280600052604060002060009150905080600001805461317090615204565b80601f016020809104026020016040519081016040528092919081815260200182805461319c90615204565b80156131e95780601f106131be576101008083540402835291602001916131e9565b820191906000526020600020905b8154815290600101906020018083116131cc57829003601f168201915b5050505050908060010180546131fe90615204565b80601f016020809104026020016040519081016040528092919081815260200182805461322a90615204565b80156132775780601f1061324c57610100808354040283529160200191613277565b820191906000526020600020905b81548152906001019060200180831161325a57829003601f168201915b50505050509080600201805461328c90615204565b80601f01602080910402602001604051908101604052809291908181526020018280546132b890615204565b80156133055780601f106132da57610100808354040283529160200191613305565b820191906000526020600020905b8154815290600101906020018083116132e857829003601f168201915b50505050509080600301805461331a90615204565b80601f016020809104026020016040519081016040528092919081815260200182805461334690615204565b80156133935780601f1061336857610100808354040283529160200191613393565b820191906000526020600020905b81548152906001019060200180831161337657829003601f168201915b5050505050908060040180546133a890615204565b80601f01602080910402602001604051908101604052809291908181526020018280546133d490615204565b80156134215780601f106133f657610100808354040283529160200191613421565b820191906000526020600020905b81548152906001019060200180831161340457829003601f168201915b50505050509080600501805461343690615204565b80601f016020809104026020016040519081016040528092919081815260200182805461346290615204565b80156134af5780601f10613484576101008083540402835291602001916134af565b820191906000526020600020905b81548152906001019060200180831161349257829003601f168201915b5050505050908060060180546134c490615204565b80601f01602080910402602001604051908101604052809291908181526020018280546134f090615204565b801561353d5780601f106135125761010080835404028352916020019161353d565b820191906000526020600020905b81548152906001019060200180831161352057829003601f168201915b50505050509080600701805461355290615204565b80601f016020809104026020016040519081016040528092919081815260200182805461357e90615204565b80156135cb5780601f106135a0576101008083540402835291602001916135cb565b820191906000526020600020905b8154815290600101906020018083116135ae57829003601f168201915b50505050509080600801549080600901549080600a0160009054906101000a900460ff1690508b565b6060600680548060200260200160405190810160405280929190818152602001828054801561367857602002820191906000526020600020905b8160009054906101000a900473ffffffffffffffffffffffffffffffffffffffff1673ffffffffffffffffffffffffffffffffffffffff168152602001906001019080831161362e575b5050505050905090565b60608060606000806000600160008873ffffffffffffffffffffffffffffffffffffffff1673ffffffffffffffffffffffffffffffffffffffff16815260200190815260200160002060000160009054906101000a900460ff1661371b576040517f08c379a000000000000000000000000000000000000000000000000000000000815260040161371290614f09565b60405180910390fd5b6000600360008973ffffffffffffffffffffffffffffffffffffffff1673ffffffffffffffffffffffffffffffffffffffff1681526020019081526020016000206040518061016001604052908160008201805461377890615204565b80601f01602080910402602001604051908101604052809291908181526020018280546137a490615204565b80156137f15780601f106137c6576101008083540402835291602001916137f1565b820191906000526020600020905b8154815290600101906020018083116137d457829003601f168201915b5050505050815260200160018201805461380a90615204565b80601f016020809104026020016040519081016040528092919081815260200182805461383690615204565b80156138835780601f1061385857610100808354040283529160200191613883565b820191906000526020600020905b81548152906001019060200180831161386657829003601f168201915b5050505050815260200160028201805461389c90615204565b80601f01602080910402602001604051908101604052809291908181526020018280546138c890615204565b80156139155780601f106138ea57610100808354040283529160200191613915565b820191906000526020600020905b8154815290600101906020018083116138f857829003601f168201915b5050505050815260200160038201805461392e90615204565b80601f016020809104026020016040519081016040528092919081815260200182805461395a90615204565b80156139a75780601f1061397c576101008083540402835291602001916139a7565b820191906000526020600020905b81548152906001019060200180831161398a57829003601f168201915b505050505081526020016004820180546139c090615204565b80601f01602080910402602001604051908101604052809291908181526020018280546139ec90615204565b8015613a395780601f10613a0e57610100808354040283529160200191613a39565b820191906000526020600020905b815481529060010190602001808311613a1c57829003601f168201915b50505050508152602001600582018054613a5290615204565b80601f0160208091040260200160405190810160405280929190818152602001828054613a7e90615204565b8015613acb5780601f10613aa057610100808354040283529160200191613acb565b820191906000526020600020905b815481529060010190602001808311613aae57829003601f168201915b50505050508152602001600682018054613ae490615204565b80601f0160208091040260200160405190810160405280929190818152602001828054613b1090615204565b8015613b5d5780601f10613b3257610100808354040283529160200191613b5d565b820191906000526020600020905b815481529060010190602001808311613b4057829003601f168201915b50505050508152602001600782018054613b7690615204565b80601f0160208091040260200160405190810160405280929190818152602001828054613ba290615204565b8015613bef5780601f10613bc457610100808354040283529160200191613bef565b820191906000526020600020905b815481529060010190602001808311613bd257829003601f168201915b505050505081526020016008820154815260200160098201548152602001600a820160009054906101000a900460ff161515151581525050905080600001518160a0015182608001518361010001518461012001518561014001519650965096509650965096505091939550919395565b60056020528060005260406000206000915090505481565b60008054906101000a900473ffffffffffffffffffffffffffffffffffffffff1681565b60006006805490508210613ce5576040517f08c379a0000000000000000000000000000000000000000000000000000000008152600401613cdc90615987565b60405180910390fd5b60068281548110613cf957613cf8614f95565b5b9060005260206000200160009054906101000a900473ffffffffffffffffffffffffffffffffffffffff169050919050565b600080600080613d3a85613d9a565b92509250925060018682858560405160008152602001604052604051613d6394939291906159d2565b6020604051602081039080840390855afa158015613d85573d6000803e3d6000fd5b50505060206040510351935050505092915050565b60008060006041845114613de3576040517f08c379a0000000000000000000000000000000000000000000000000000000008152600401613dda90615a63565b60405180910390fd5b6020840151925060408401519150606084015160001a9050601b8160ff161015613e1757601b81613e149190615a83565b90505b9193909250565b828054613e2a90615204565b90600052602060002090601f016020900481019282613e4c5760008555613e93565b82601f10613e6557805160ff1916838001178555613e93565b82800160010185558215613e93579182015b82811115613e92578251825591602001919060010190613e77565b5b509050613ea09190613f2a565b5090565b828054613eb090615204565b90600052602060002090601f016020900481019282613ed25760008555613f19565b82601f10613eeb57805160ff1916838001178555613f19565b82800160010185558215613f19579182015b82811115613f18578251825591602001919060010190613efd565b5b509050613f269190613f2a565b5090565b5b80821115613f43576000816000905550600101613f2b565b5090565b6000604051905090565b600080fd5b600080fd5b600073ffffffffffffffffffffffffffffffffffffffff82169050919050565b6000613f8682613f5b565b9050919050565b613f9681613f7b565b8114613fa157600080fd5b50565b600081359050613fb381613f8d565b92915050565b6000819050919050565b613fcc81613fb9565b8114613fd757600080fd5b50565b600081359050613fe981613fc3565b92915050565b6000806040838503121561400657614005613f51565b5b600061401485828601613fa4565b925050602061402585828601613fda565b9150509250929050565b600080fd5b600080fd5b6000601f19601f8301169050919050565b7f4e487b7100000000000000000000000000000000000000000000000000000000600052604160045260246000fd5b61408282614039565b810181811067ffffffffffffffff821117156140a1576140a061404a565b5b80604052505050565b60006140b4613f47565b90506140c08282614079565b919050565b600067ffffffffffffffff8211156140e0576140df61404a565b5b6140e982614039565b9050602081019050919050565b82818337600083830152505050565b6000614118614113846140c5565b6140aa565b90508281526020810184848401111561413457614133614034565b5b61413f8482856140f6565b509392505050565b600082601f83011261415c5761415b61402f565b5b813561416c848260208601614105565b91505092915050565b6000806040838503121561418c5761418b613f51565b5b600061419a85828601613fa4565b925050602083013567ffffffffffffffff8111156141bb576141ba613f56565b5b6141c785828601614147565b9150509250929050565b600081519050919050565b600082825260208201905092915050565b60005b8381101561420b5780820151818401526020810190506141f0565b8381111561421a576000848401525b50505050565b600061422b826141d1565b61423581856141dc565b93506142458185602086016141ed565b61424e81614039565b840191505092915050565b60008115159050919050565b61426e81614259565b82525050565b61427d81613fb9565b82525050565b6000606082019050818103600083015261429d8186614220565b90506142ac6020830185614265565b6142b96040830184614274565b949350505050565b600067ffffffffffffffff8211156142dc576142db61404a565b5b6142e582614039565b9050602081019050919050565b6000614305614300846142c1565b6140aa565b90508281526020810184848401111561432157614320614034565b5b61432c8482856140f6565b509392505050565b600082601f8301126143495761434861402f565b5b81356143598482602086016142f2565b91505092915050565b60006020828403121561437857614377613f51565b5b600082013567ffffffffffffffff81111561439657614395613f56565b5b6143a284828501614334565b91505092915050565b6000602082840312156143c1576143c0613f51565b5b60006143cf84828501613fa4565b91505092915050565b60006020820190506143ed6000830184614265565b92915050565b6000819050919050565b614406816143f3565b811461441157600080fd5b50565b600081359050614423816143fd565b92915050565b60008060006060848603121561444257614441613f51565b5b600061445086828701614414565b935050602084013567ffffffffffffffff81111561447157614470613f56565b5b61447d86828701614147565b925050604061448e86828701613fa4565b9150509250925092565b6000602082840312156144ae576144ad613f51565b5b600082013567ffffffffffffffff8111156144cc576144cb613f56565b5b6144d884828501614147565b91505092915050565b6144ea81613f7b565b82525050565b600060208201905061450560008301846144e1565b92915050565b60008060006060848603121561452457614523613f51565b5b600084013567ffffffffffffffff81111561454257614541613f56565b5b61454e86828701614334565b935050602084013567ffffffffffffffff81111561456f5761456e613f56565b5b61457b86828701614334565b925050604084013567ffffffffffffffff81111561459c5761459b613f56565b5b6145a886828701614147565b9150509250925092565b600060208201905081810360008301526145cc8184614220565b905092915050565b600081519050919050565b600082825260208201905092915050565b6000819050602082019050919050565b600082825260208201905092915050565b600061461c826141d1565b6146268185614600565b93506146368185602086016141ed565b61463f81614039565b840191505092915050565b61465381614259565b82525050565b61466281613fb9565b82525050565b600060608301600083015184820360008601526146858282614611565b915050602083015161469a602086018261464a565b5060408301516146ad6040860182614659565b508091505092915050565b60006146c48383614668565b905092915050565b6000602082019050919050565b60006146e4826145d4565b6146ee81856145df565b935083602082028501614700856145f0565b8060005b8581101561473c578484038952815161471d85826146b8565b9450614728836146cc565b925060208a01995050600181019050614704565b50829750879550505050505092915050565b6000602082019050818103600083015261476881846146d9565b905092915050565b60008060008060008060008060006101208a8c03121561479357614792613f51565b5b60008a013567ffffffffffffffff8111156147b1576147b0613f56565b5b6147bd8c828d01614334565b99505060208a013567ffffffffffffffff8111156147de576147dd613f56565b5b6147ea8c828d01614334565b98505060408a013567ffffffffffffffff81111561480b5761480a613f56565b5b6148178c828d01614334565b97505060608a013567ffffffffffffffff81111561483857614837613f56565b5b6148448c828d01614334565b96505060808a013567ffffffffffffffff81111561486557614864613f56565b5b6148718c828d01614334565b95505060a08a013567ffffffffffffffff81111561489257614891613f56565b5b61489e8c828d01614334565b94505060c08a013567ffffffffffffffff8111156148bf576148be613f56565b5b6148cb8c828d01614334565b93505060e08a013567ffffffffffffffff8111156148ec576148eb613f56565b5b6148f88c828d01614334565b92505061010061490a8c828d01613fda565b9150509295985092959850929598565b6000806000806000806000806000806101408b8d03121561493e5761493d613f51565b5b600061494c8d828e01613fa4565b9a505060208b013567ffffffffffffffff81111561496d5761496c613f56565b5b6149798d828e01614334565b99505060408b013567ffffffffffffffff81111561499a57614999613f56565b5b6149a68d828e01614334565b98505060608b013567ffffffffffffffff8111156149c7576149c6613f56565b5b6149d38d828e01614334565b97505060808b013567ffffffffffffffff8111156149f4576149f3613f56565b5b614a008d828e01614334565b96505060a08b013567ffffffffffffffff811115614a2157614a20613f56565b5b614a2d8d828e01614334565b95505060c08b013567ffffffffffffffff811115614a4e57614a4d613f56565b5b614a5a8d828e01614334565b94505060e08b013567ffffffffffffffff811115614a7b57614a7a613f56565b5b614a878d828e01614334565b9350506101008b013567ffffffffffffffff811115614aa957614aa8613f56565b5b614ab58d828e01614334565b925050610120614ac78d828e01613fda565b9150509295989b9194979a5092959850565b600081519050919050565b600082825260208201905092915050565b6000614b0082614ad9565b614b0a8185614ae4565b9350614b1a8185602086016141ed565b614b2381614039565b840191505092915050565b6000606082019050614b436000830186614265565b8181036020830152614b558185614af5565b90508181036040830152614b698184614af5565b9050949350505050565b6000602082019050614b886000830184614274565b92915050565b60006040820190508181036000830152614ba88185614af5565b90508181036020830152614bbc8184614af5565b90509392505050565b600060208284031215614bdb57614bda613f51565b5b6000614be984828501613fda565b91505092915050565b6000610160820190508181036000830152614c0d818e614af5565b90508181036020830152614c21818d614af5565b90508181036040830152614c35818c614af5565b90508181036060830152614c49818b614af5565b90508181036080830152614c5d818a614af5565b905081810360a0830152614c718189614af5565b905081810360c0830152614c858188614af5565b905081810360e0830152614c998187614af5565b9050614ca9610100830186614274565b614cb7610120830185614274565b614cc5610140830184614265565b9c9b505050505050505050505050565b600081519050919050565b600082825260208201905092915050565b6000819050602082019050919050565b614d0a81613f7b565b82525050565b6000614d1c8383614d01565b60208301905092915050565b6000602082019050919050565b6000614d4082614cd5565b614d4a8185614ce0565b9350614d5583614cf1565b8060005b83811015614d86578151614d6d8882614d10565b9750614d7883614d28565b925050600181019050614d59565b5085935050505092915050565b60006020820190508181036000830152614dad8184614d35565b905092915050565b600060c0820190508181036000830152614dcf8189614af5565b90508181036020830152614de38188614af5565b90508181036040830152614df78187614af5565b9050614e066060830186614274565b614e136080830185614274565b614e2060a0830184614265565b979650505050505050565b7f4f6e6c792061646d696e2063616e20706572666f726d2074686973206163746960008201527f6f6e000000000000000000000000000000000000000000000000000000000000602082015250565b6000614e87602283614ae4565b9150614e9282614e2b565b604082019050919050565b60006020820190508181036000830152614eb681614e7a565b9050919050565b7f55736572206e6f74207265676973746572656400000000000000000000000000600082015250565b6000614ef3601383614ae4565b9150614efe82614ebd565b602082019050919050565b60006020820190508181036000830152614f2281614ee6565b9050919050565b7f496e76616c6964206b657920696e646578000000000000000000000000000000600082015250565b6000614f5f601183614ae4565b9150614f6a82614f29565b602082019050919050565b60006020820190508181036000830152614f8e81614f52565b9050919050565b7f4e487b7100000000000000000000000000000000000000000000000000000000600052603260045260246000fd5b7f4b657920616c726561647920696e616374697665000000000000000000000000600082015250565b6000614ffa601483614ae4565b915061500582614fc4565b602082019050919050565b6000602082019050818103600083015261502981614fed565b9050919050565b7f43616e6e6f74206465616374697661746520746865206f6e6c79206b65790000600082015250565b6000615066601e83614ae4565b915061507182615030565b602082019050919050565b6000602082019050818103600083015261509581615059565b9050919050565b7f4e487b7100000000000000000000000000000000000000000000000000000000600052601160045260246000fd5b60006150d682613fb9565b91507fffffffffffffffffffffffffffffffffffffffffffffffffffffffffffffffff82036151085761510761509c565b5b600182019050919050565b7f5075626c6963206b65792063616e6e6f7420626520656d707479000000000000600082015250565b6000615149601a83614ae4565b915061515482615113565b602082019050919050565b600060208201905081810360008301526151788161513c565b9050919050565b600061518a82613fb9565b915061519583613fb9565b9250828210156151a8576151a761509c565b5b828203905092915050565b600060208201905081810360008301526151cd8184614af5565b905092915050565b7f4e487b7100000000000000000000000000000000000000000000000000000000600052602260045260246000fd5b6000600282049050600182168061521c57607f821691505b60208210810361522f5761522e6151d5565b5b50919050565b7f4e6f20636572746966696361746520666f756e64000000000000000000000000600082015250565b600061526b601483614ae4565b915061527682615235565b602082019050919050565b6000602082019050818103600083015261529a8161525e565b9050919050565b7f436572746966696361746520616c7265616479207265766f6b65640000000000600082015250565b60006152d7601b83614ae4565b91506152e2826152a1565b602082019050919050565b60006020820190508181036000830152615306816152ca565b9050919050565b7f5369676e6572206e6f7420726567697374657265640000000000000000000000600082015250565b6000615343601583614ae4565b915061534e8261530d565b602082019050919050565b6000602082019050818103600083015261537281615336565b9050919050565b600081905092915050565b7f19457468657265756d205369676e6564204d6573736167653a0a333200000000600082015250565b60006153ba601c83615379565b91506153c582615384565b601c82019050919050565b6000819050919050565b6153eb6153e6826143f3565b6153d0565b82525050565b60006153fc826153ad565b915061540882846153da565b60208201915081905092915050565b7f456d61696c2063616e6e6f7420626520656d7074790000000000000000000000600082015250565b600061544d601583614ae4565b915061545882615417565b602082019050919050565b6000602082019050818103600083015261547c81615440565b9050919050565b7f557365726e616d652063616e6e6f7420626520656d7074790000000000000000600082015250565b60006154b9601883614ae4565b91506154c482615483565b602082019050919050565b600060208201905081810360008301526154e8816154ac565b9050919050565b7f5573657220616c72656164792072656769737465726564000000000000000000600082015250565b6000615525601783614ae4565b9150615530826154ef565b602082019050919050565b6000602082019050818103600083015261555481615518565b9050919050565b600081905092915050565b6000615571826141d1565b61557b818561555b565b935061558b8185602086016141ed565b80840191505092915050565b60006155a38284615566565b915081905092915050565b7f5075626c6963206b657920616c72656164792072656769737465726564000000600082015250565b60006155e4601d83614ae4565b91506155ef826155ae565b602082019050919050565b60006020820190508181036000830152615613816155d7565b9050919050565b7f4e6f207075626c6963206b65797320666f756e64000000000000000000000000600082015250565b6000615650601483614ae4565b915061565b8261561a565b602082019050919050565b6000602082019050818103600083015261567f81615643565b9050919050565b7f4e6f20616374697665207075626c6963206b6579000000000000000000000000600082015250565b60006156bc601483614ae4565b91506156c782615686565b602082019050919050565b600060208201905081810360008301526156eb816156af565b9050919050565b7f56616c696469747920706572696f64206d75737420626520706f736974697665600082015250565b6000615728602083614ae4565b9150615733826156f2565b602082019050919050565b600060208201905081810360008301526157578161571b565b9050919050565b7f436572746966696361746520616c726561647920657869737473000000000000600082015250565b6000615794601a83614ae4565b915061579f8261575e565b602082019050919050565b600060208201905081810360008301526157c381615787565b9050919050565b60006157d582613fb9565b91506157e083613fb9565b9250817fffffffffffffffffffffffffffffffffffffffffffffffffffffffffffffffff04831182151516156158195761581861509c565b5b828202905092915050565b600061582f82613fb9565b915061583a83613fb9565b9250827fffffffffffffffffffffffffffffffffffffffffffffffffffffffffffffffff0382111561586f5761586e61509c565b5b828201905092915050565b6000819050919050565b61589561589082613fb9565b61587a565b82525050565b60008160601b9050919050565b60006158b38261589b565b9050919050565b60006158c5826158a8565b9050919050565b6158dd6158d882613f7b565b6158ba565b82525050565b60006158ef8286615884565b6020820191506158ff8285615884565b60208201915061590f82846158cc565b601482019150819050949350505050565b600061592c8284615884565b60208201915081905092915050565b7f496e646578206f7574206f6620626f756e647300000000000000000000000000600082015250565b6000615971601383614ae4565b915061597c8261593b565b602082019050919050565b600060208201905081810360008301526159a081615964565b9050919050565b6159b0816143f3565b82525050565b600060ff82169050919050565b6159cc816159b6565b82525050565b60006080820190506159e760008301876159a7565b6159f460208301866159c3565b615a0160408301856159a7565b615a0e60608301846159a7565b95945050505050565b7f496e76616c6964207369676e6174757265206c656e6774680000000000000000600082015250565b6000615a4d601883614ae4565b9150615a5882615a17565b602082019050919050565b60006020820190508181036000830152615a7c81615a40565b9050919050565b6000615a8e826159b6565b9150615a99836159b6565b92508260ff03821115615aaf57615aae61509c565b5b82820190509291505056fea2646970667358221220dc40785c287ae42166bceb8b1e8ac12287811cab853e18978717399be7e5883764736f6c634300080d0033",
  "immutableReferences": {},
  "source": "// SPDX-License-Identifier: MIT\npragma solidity ^0.8.0;\n\ncontract UserCertificateManager {\n    address public admin;\n    \n    modifier onlyAdmin() {\n        require(msg.sender == admin, \"Only admin can perform this action\");\n        _;\n    }\n    // User Management\n    struct User {\n        bool exists;\n        string username;\n        string email;\n    }\n\n    // Certificate Management\n    struct PublicKey {\n        bytes keyData;\n        bool isActive;\n        uint256 addedAt;\n    }\n\n    struct Certificate {\n        string serialNumber;\n        string country;\n        string state;\n        string locality;\n        string organization;\n        string commonName;\n        string publicKey;\n        string signatureAlgorithm;\n        uint256 validFrom;\n        uint256 validTo;\n        bool isRevoked;\n    }\n\n    // Mappings\n    mapping(address => User) public users;\n    mapping(bytes => address) public publicKeyToAddress;\n    mapping(address => Certificate) public userCertificates;\n    mapping(address => PublicKey[]) public userPublicKeys;\n    mapping(address => uint256) public activeKeyIndex;\n    address[] private registeredUsers;\n\n    // Events\n    event UserRegistered(address indexed user, string email, string username);\n    event PublicKeyUpdated(address indexed user, string keyData);\n    event CertificateIssued(address indexed user, string serialNumber);\n    event PublicKeyAdded(address indexed user, string keyData);\n    event PublicKeyDeactivated(address indexed user, uint256 keyIndex);\n    event CertificateRevoked(address indexed user, string reason);\n\n    // User Registration\n    constructor() {\n        admin = msg.sender;\n    }\n\n    function registerUser(\n        string memory email,\n        string memory username,\n        bytes memory publicKey\n    ) public {\n        require(bytes(email).length > 0, \"Email cannot be empty\");\n        require(bytes(username).length > 0, \"Username cannot be empty\");\n        // No longer require publicKey to register a user\n        require(!users[msg.sender].exists, \"User already registered\");\n        require(\n            publicKeyToAddress[publicKey] == address(0),\n            \"Public key already registered\"\n        );\n\n        users[msg.sender] = User({\n            exists: true,\n            username: username,\n            email: email\n        });\n\n        publicKeyToAddress[publicKey] = msg.sender; // Still map for initial key, if provided\n        registeredUsers.push(msg.sender);\n\n        // Add the public key to the keys array\n        userPublicKeys[msg.sender].push(\n            PublicKey({\n                keyData: publicKey,\n                isActive: true,\n                addedAt: block.timestamp\n            })\n        );\n        activeKeyIndex[msg.sender] = 0;\n\n        emit UserRegistered(msg.sender, email, username);\n    }\n\n    // Certificate Management\n    function issueCertificate(\n        string memory _serialNumber,\n        string memory _country,\n        string memory _state,\n        string memory _locality,\n        string memory _organization,\n        string memory _commonName,\n        string memory _publicKey,\n        string memory _signatureAlgorithm,\n        uint256 _validDays\n    ) external {\n        require(users[msg.sender].exists, \"User not registered\");\n        require(bytes(_publicKey).length > 0, \"Public key cannot be empty\");\n        require(_validDays > 0, \"Validity period must be positive\");\n        require(\n            bytes(userCertificates[msg.sender].serialNumber).length == 0,\n            \"Certificate already exists\"\n        );\n\n        uint256 validFrom = block.timestamp;\n        uint256 validTo = validFrom + (_validDays * 1 days);\n\n        userCertificates[msg.sender] = Certificate({\n            serialNumber: _serialNumber,\n            country: _country,\n            state: _state,\n            locality: _locality,\n            organization: _organization,\n            commonName: _commonName,\n            publicKey: _publicKey,\n            signatureAlgorithm: _signatureAlgorithm,\n            validFrom: validFrom,\n            validTo: validTo,\n            isRevoked: false\n        });\n\n        emit CertificateIssued(msg.sender, _serialNumber);\n    }\n\n    // ADMIN: Issue certificate for any user\n    function issueCertificateFor(\n        address user,\n        string memory _serialNumber,\n        string memory _country,\n        string memory _state,\n        string memory _locality,\n        string memory _organization,\n        string memory _commonName,\n        string memory _publicKey,\n        string memory _signatureAlgorithm,\n        uint256 _validDays\n    ) external onlyAdmin {\n        require(users[user].exists, \"User not registered\");\n        require(bytes(_publicKey).length > 0, \"Public key cannot be empty\");\n        require(_validDays > 0, \"Validity period must be positive\");\n        require(\n            bytes(userCertificates[user].serialNumber).length == 0,\n            \"Certificate already exists\"\n        );\n        uint256 validFrom = block.timestamp;\n        uint256 validTo = validFrom + (_validDays * 1 days);\n        userCertificates[user] = Certificate({\n            serialNumber: _serialNumber,\n            country: _country,\n            state: _state,\n            locality: _locality,\n            organization: _organization,\n            commonName: _commonName,\n            publicKey: _publicKey,\n            signatureAlgorithm: _signatureAlgorithm,\n            validFrom: validFrom,\n            validTo: validTo,\n            isRevoked: false\n        });\n        emit CertificateIssued(user, _serialNumber);\n    }\n\n    // Public Key Management\n    function addPublicKey(bytes memory _keyData) public {\n        require(users[msg.sender].exists, \"User not registered\");\n        require(_keyData.length > 0, \"Public key cannot be empty\");\n\n        // Add new public key\n        userPublicKeys[msg.sender].push(\n            PublicKey({\n                keyData: _keyData,\n                isActive: true,\n                addedAt: block.timestamp\n            })\n        );\n\n        // Set the new key as active\n        uint256 newKeyIndex = userPublicKeys[msg.sender].length - 1;\n        activeKeyIndex[msg.sender] = newKeyIndex;\n\n        emit PublicKeyAdded(msg.sender, string(_keyData));\n    }\n\n    // ADMIN: Add public key for any user\n    function addPublicKeyFor(address user, bytes memory _keyData) external onlyAdmin {\n        require(users[user].exists, \"User not registered\");\n        require(_keyData.length > 0, \"Public key cannot be empty\");\n        userPublicKeys[user].push(\n            PublicKey({\n                keyData: _keyData,\n                isActive: true,\n                addedAt: block.timestamp\n            })\n        );\n        uint256 newKeyIndex = userPublicKeys[user].length - 1;\n        activeKeyIndex[user] = newKeyIndex;\n        emit PublicKeyAdded(user, string(_keyData));\n    }\n\n    function deactivatePublicKey(uint256 _keyIndex) external {\n        require(users[msg.sender].exists, \"User not registered\");\n        require(\n            _keyIndex < userPublicKeys[msg.sender].length,\n            \"Invalid key index\"\n        );\n        require(\n            userPublicKeys[msg.sender][_keyIndex].isActive,\n            \"Key already inactive\"\n        );\n        require(\n            userPublicKeys[msg.sender].length > 1,\n            \"Cannot deactivate the only key\"\n        );\n\n        userPublicKeys[msg.sender][_keyIndex].isActive = false;\n\n        if (activeKeyIndex[msg.sender] == _keyIndex) {\n            for (uint256 i = 0; i < userPublicKeys[msg.sender].length; i++) {\n                if (i != _keyIndex && userPublicKeys[msg.sender][i].isActive) {\n                    activeKeyIndex[msg.sender] = i;\n                    break;\n                }\n            }\n        }\n\n        emit PublicKeyDeactivated(msg.sender, _keyIndex);\n    }\n\n    // ADMIN: Deactivate public key for any user\n    function deactivatePublicKeyFor(address user, uint256 _keyIndex) external onlyAdmin {\n        require(users[user].exists, \"User not registered\");\n        require(_keyIndex < userPublicKeys[user].length, \"Invalid key index\");\n        require(userPublicKeys[user][_keyIndex].isActive, \"Key already inactive\");\n        require(userPublicKeys[user].length > 1, \"Cannot deactivate the only key\");\n        userPublicKeys[user][_keyIndex].isActive = false;\n        if (activeKeyIndex[user] == _keyIndex) {\n            for (uint256 i = 0; i < userPublicKeys[user].length; i++) {\n                if (i != _keyIndex && userPublicKeys[user][i].isActive) {\n                    activeKeyIndex[user] = i;\n                    break;\n                }\n            }\n        }\n        emit PublicKeyDeactivated(user, _keyIndex);\n    }\n\n    function revokeCertificate(string memory _reason) external {\n        require(users[msg.sender].exists, \"User not registered\");\n        require(\n            bytes(userCertificates[msg.sender].serialNumber).length != 0,\n            \"No certificate found\"\n        );\n        require(\n            !userCertificates[msg.sender].isRevoked,\n            \"Certificate already revoked\"\n        );\n\n        userCertificates[msg.sender].isRevoked = true;\n\n        // Deactivate all public keys\n        for (uint256 i = 0; i < userPublicKeys[msg.sender].length; i++) {\n            userPublicKeys[msg.sender][i].isActive = false;\n        }\n\n        emit CertificateRevoked(msg.sender, _reason);\n    }\n\n    // View Functions\n    function getActivePublicKey(\n        address _user\n    ) external view returns (bytes memory) {\n        require(users[_user].exists, \"User not registered\");\n        uint256 activeIndex = activeKeyIndex[_user];\n        require(userPublicKeys[_user].length > 0, \"No public keys found\");\n        require(\n            userPublicKeys[_user][activeIndex].isActive,\n            \"No active public key\"\n        );\n\n        return userPublicKeys[_user][activeIndex].keyData;\n    }\n\n    function getUserPublicKeys(\n        address _user\n    ) external view returns (PublicKey[] memory) {\n        require(users[_user].exists, \"User not registered\");\n        return userPublicKeys[_user];\n    } // No change needed here, struct already updated\n\n    function getCertificateInfo(\n        address _user\n    )\n        external\n        view\n        returns (\n            string memory serialNumber,\n            string memory commonName,\n            string memory organization,\n            uint256 validFrom,\n            uint256 validTo,\n            bool isRevoked\n        )\n    {\n        require(users[_user].exists, \"User not registered\");\n        Certificate memory cert = userCertificates[_user];\n        return (\n            cert.serialNumber,\n            cert.commonName,\n            cert.organization,\n            cert.validFrom,\n            cert.validTo,\n            cert.isRevoked\n        );\n    }\n\n    function generateChallenge(\n        address user\n    ) public view returns (bytes memory challenge) {\n        require(users[user].exists, \"User not registered\");\n\n        // Generate random number for challenge\n        uint256 random = uint256(\n            keccak256(abi.encodePacked(block.timestamp, block.difficulty, user))\n        );\n\n        return abi.encodePacked(random);\n    }\n\n    function verifySignature(\n        bytes32 messageHash,\n        bytes memory signature,\n        address signer\n    ) public view returns (bool) {\n        require(users[signer].exists, \"Signer not registered\");\n\n        // This is a simplified version - in production, you'd want to implement proper ECDSA recovery\n        bytes32 ethSignedMessageHash = keccak256(\n            abi.encodePacked(\"\\x19Ethereum Signed Message:\\n32\", messageHash)\n        );\n\n        address recovered = recoverSigner(ethSignedMessageHash, signature);\n        return recovered == signer;\n    }\n\n    function recoverSigner(\n        bytes32 _ethSignedMessageHash,\n        bytes memory _signature\n    ) internal pure returns (address) {\n        (bytes32 r, bytes32 s, uint8 v) = splitSignature(_signature);\n        return ecrecover(_ethSignedMessageHash, v, r, s);\n    }\n\n    function splitSignature(\n        bytes memory sig\n    ) internal pure returns (bytes32 r, bytes32 s, uint8 v) {\n        require(sig.length == 65, \"Invalid signature length\");\n\n        assembly {\n            r := mload(add(sig, 32))\n            s := mload(add(sig, 64))\n            v := byte(0, mload(add(sig, 96)))\n        }\n\n        if (v < 27) v += 27;\n    }\n\n    // Get user details (from UserAuth)\n    function getUserDetails(\n        address user\n    ) public view returns (string memory, string memory) {\n        require(users[user].exists, \"User not registered\");\n        return (users[user].username, users[user].email);\n    }\n\n    // Check if user exists (from UserAuth)\n    function isUserRegistered(address user) public view returns (bool) {\n        return users[user].exists;\n    }\n\n    // Get total number of registered users (from UserAuth)\n    function getUserCount() public view returns (uint) {\n        return registeredUsers.length;\n    }\n\n    // Get user address by index (from UserAuth)\n    function getUserByIndex(uint index) public view returns (address) {\n        require(index < registeredUsers.length, \"Index out of bounds\");\n        return registeredUsers[index];\n    }\n\n    // Get all registered users (from UserAuth)\n    function getAllUsers() public view returns (address[] memory) {\n        return registeredUsers;\n    }\n\n    // Verify solution (from UserAuth)\n    function verifySolution(\n        address user,\n        bytes memory solution\n    ) public view returns (bool) {\n        require(users[user].exists, \"User not registered\");\n        bytes memory challenge = generateChallenge(user);\n        return keccak256(solution) == keccak256(challenge);\n    }\n}\n",
  "sourcePath": "D:\\Praveen\\Personal\\projects\\trustkey\\truffle-pkibckckn\\contracts\\UserCertificateManager.sol",
  "compiler": {
    "name": "solc",
    "version": "0.8.13+commit.abaa5c0e.Emscripten.clang"
  },
  "schemaVersion": "3.4.16",
  "updatedAt": "2025-06-29T18:43:13.998Z",
  "networkType": "ethereum",
  "devdoc": {
    "kind": "dev",
    "methods": {},
    "version": 1
  },
  "userdoc": {
    "kind": "user",
    "methods": {},
    "version": 1
  }
}