{
  "contractName": "UserAuth",
  "abi": [
    {
      "anonymous": false,
      "inputs": [
        {
          "indexed": true,
          "internalType": "address",
          "name": "user",
          "type": "address"
        },
        {
          "indexed": false,
          "internalType": "bytes",
          "name": "publicKey",
          "type": "bytes"
        }
      ],
      "name": "PublicKeyUpdated",
      "type": "event"
    },
    {
      "anonymous": false,
      "inputs": [
        {
          "indexed": true,
          "internalType": "address",
          "name": "user",
          "type": "address"
        },
        {
          "indexed": false,
          "internalType": "string",
          "name": "email",
          "type": "string"
        },
        {
          "indexed": false,
          "internalType": "string",
          "name": "username",
          "type": "string"
        }
      ],
      "name": "UserRegistered",
      "type": "event"
    },
    {
      "inputs": [
        {
          "internalType": "string",
          "name": "email",
          "type": "string"
        },
        {
          "internalType": "string",
          "name": "username",
          "type": "string"
        },
        {
          "internalType": "bytes",
          "name": "publicKey",
          "type": "bytes"
        }
      ],
      "name": "registerUser",
      "outputs": [],
      "stateMutability": "nonpayable",
      "type": "function"
    },
    {
      "inputs": [
        {
          "internalType": "address",
          "name": "user",
          "type": "address"
        }
      ],
      "name": "generateChallenge",
      "outputs": [
        {
          "internalType": "bytes",
          "name": "challenge",
          "type": "bytes"
        }
      ],
      "stateMutability": "view",
      "type": "function",
      "constant": true
    },
    {
      "inputs": [
        {
          "internalType": "address",
          "name": "user",
          "type": "address"
        },
        {
          "internalType": "bytes",
          "name": "solution",
          "type": "bytes"
        }
      ],
      "name": "verifySolution",
      "outputs": [
        {
          "internalType": "bool",
          "name": "",
          "type": "bool"
        }
      ],
      "stateMutability": "view",
      "type": "function",
      "constant": true
    },
    {
      "inputs": [
        {
          "internalType": "address",
          "name": "user",
          "type": "address"
        }
      ],
      "name": "getUserDetails",
      "outputs": [
        {
          "internalType": "string",
          "name": "",
          "type": "string"
        },
        {
          "internalType": "string",
          "name": "",
          "type": "string"
        },
        {
          "internalType": "bytes",
          "name": "",
          "type": "bytes"
        }
      ],
      "stateMutability": "view",
      "type": "function",
      "constant": true
    },
    {
      "inputs": [
        {
          "internalType": "address",
          "name": "user",
          "type": "address"
        }
      ],
      "name": "isUserRegistered",
      "outputs": [
        {
          "internalType": "bool",
          "name": "",
          "type": "bool"
        }
      ],
      "stateMutability": "view",
      "type": "function",
      "constant": true
    }
  ],
  "bytecode": "0x608060405234801561001057600080fd5b50611559806100206000396000f3fe608060405234801561001057600080fd5b50600436106100575760003560e01c8063163f75221461005c5780635ea975db1461008c578063a6c5d5a9146100a8578063c84450f9146100d8578063cc3d967b14610108575b600080fd5b61007660048036038101906100719190610bad565b61013a565b6040516100839190610bf5565b60405180910390f35b6100a660048036038101906100a19190610df7565b610192565b005b6100c260048036038101906100bd9190610e9e565b610528565b6040516100cf9190610bf5565b60405180910390f35b6100f260048036038101906100ed9190610bad565b6105df565b6040516100ff9190610f82565b60405180910390f35b610122600480360381019061011d9190610bad565b61070b565b60405161013193929190610ff9565b60405180910390f35b60008060008373ffffffffffffffffffffffffffffffffffffffff1673ffffffffffffffffffffffffffffffffffffffff16815260200190815260200160002060000160009054906101000a900460ff169050919050565b60008351116101d6576040517f08c379a00000000000000000000000000000000000000000000000000000000081526004016101cd90611091565b60405180910390fd5b600082511161021a576040517f08c379a0000000000000000000000000000000000000000000000000000000008152600401610211906110fd565b60405180910390fd5b600081511161025e576040517f08c379a000000000000000000000000000000000000000000000000000000000815260040161025590611169565b60405180910390fd5b6000803373ffffffffffffffffffffffffffffffffffffffff1673ffffffffffffffffffffffffffffffffffffffff16815260200190815260200160002060000160009054906101000a900460ff16156102ed576040517f08c379a00000000000000000000000000000000000000000000000000000000081526004016102e4906111d5565b60405180910390fd5b600073ffffffffffffffffffffffffffffffffffffffff166001826040516103159190611231565b908152602001604051809103902060009054906101000a900473ffffffffffffffffffffffffffffffffffffffff1673ffffffffffffffffffffffffffffffffffffffff161461039a576040517f08c379a000000000000000000000000000000000000000000000000000000000815260040161039190611294565b60405180910390fd5b6040518060800160405280600115158152602001838152602001848152602001828152506000803373ffffffffffffffffffffffffffffffffffffffff1673ffffffffffffffffffffffffffffffffffffffff16815260200190815260200160002060008201518160000160006101000a81548160ff0219169083151502179055506020820151816001019080519060200190610438929190610a12565b506040820151816002019080519060200190610455929190610a12565b506060820151816003019080519060200190610472929190610a98565b50905050336001826040516104879190611231565b908152602001604051809103902060006101000a81548173ffffffffffffffffffffffffffffffffffffffff021916908373ffffffffffffffffffffffffffffffffffffffff1602179055503373ffffffffffffffffffffffffffffffffffffffff167f92822564bab8864c3a47b34e8d23fbce5c46234eb5da261f94087b995ac0f33b848460405161051b9291906112b4565b60405180910390a2505050565b60008060008473ffffffffffffffffffffffffffffffffffffffff1673ffffffffffffffffffffffffffffffffffffffff16815260200190815260200160002060000160009054906101000a900460ff166105b8576040517f08c379a00000000000000000000000000000000000000000000000000000000081526004016105af90611337565b60405180910390fd5b60006105c3846105df565b9050808051906020012083805190602001201491505092915050565b60606000808373ffffffffffffffffffffffffffffffffffffffff1673ffffffffffffffffffffffffffffffffffffffff16815260200190815260200160002060000160009054906101000a900460ff1661066f576040517f08c379a000000000000000000000000000000000000000000000000000000000815260040161066690611337565b60405180910390fd5b6000424484604051602001610686939291906113ca565b6040516020818303038152906040528051906020012060001c9050806000808573ffffffffffffffffffffffffffffffffffffffff1673ffffffffffffffffffffffffffffffffffffffff1681526020019081526020016000206003016040516020016106f49291906114fb565b604051602081830303815290604052915050919050565b60608060606000808573ffffffffffffffffffffffffffffffffffffffff1673ffffffffffffffffffffffffffffffffffffffff16815260200190815260200160002060000160009054906101000a900460ff1661079e576040517f08c379a000000000000000000000000000000000000000000000000000000000815260040161079590611337565b60405180910390fd5b6000808573ffffffffffffffffffffffffffffffffffffffff1673ffffffffffffffffffffffffffffffffffffffff1681526020019081526020016000206001016000808673ffffffffffffffffffffffffffffffffffffffff1673ffffffffffffffffffffffffffffffffffffffff1681526020019081526020016000206002016000808773ffffffffffffffffffffffffffffffffffffffff1673ffffffffffffffffffffffffffffffffffffffff16815260200190815260200160002060030182805461086d90611436565b80601f016020809104026020016040519081016040528092919081815260200182805461089990611436565b80156108e65780601f106108bb576101008083540402835291602001916108e6565b820191906000526020600020905b8154815290600101906020018083116108c957829003601f168201915b505050505092508180546108f990611436565b80601f016020809104026020016040519081016040528092919081815260200182805461092590611436565b80156109725780601f1061094757610100808354040283529160200191610972565b820191906000526020600020905b81548152906001019060200180831161095557829003601f168201915b5050505050915080805461098590611436565b80601f01602080910402602001604051908101604052809291908181526020018280546109b190611436565b80156109fe5780601f106109d3576101008083540402835291602001916109fe565b820191906000526020600020905b8154815290600101906020018083116109e157829003601f168201915b505050505090509250925092509193909250565b828054610a1e90611436565b90600052602060002090601f016020900481019282610a405760008555610a87565b82601f10610a5957805160ff1916838001178555610a87565b82800160010185558215610a87579182015b82811115610a86578251825591602001919060010190610a6b565b5b509050610a949190610b1e565b5090565b828054610aa490611436565b90600052602060002090601f016020900481019282610ac65760008555610b0d565b82601f10610adf57805160ff1916838001178555610b0d565b82800160010185558215610b0d579182015b82811115610b0c578251825591602001919060010190610af1565b5b509050610b1a9190610b1e565b5090565b5b80821115610b37576000816000905550600101610b1f565b5090565b6000604051905090565b600080fd5b600080fd5b600073ffffffffffffffffffffffffffffffffffffffff82169050919050565b6000610b7a82610b4f565b9050919050565b610b8a81610b6f565b8114610b9557600080fd5b50565b600081359050610ba781610b81565b92915050565b600060208284031215610bc357610bc2610b45565b5b6000610bd184828501610b98565b91505092915050565b60008115159050919050565b610bef81610bda565b82525050565b6000602082019050610c0a6000830184610be6565b92915050565b600080fd5b600080fd5b6000601f19601f8301169050919050565b7f4e487b7100000000000000000000000000000000000000000000000000000000600052604160045260246000fd5b610c6382610c1a565b810181811067ffffffffffffffff82111715610c8257610c81610c2b565b5b80604052505050565b6000610c95610b3b565b9050610ca18282610c5a565b919050565b600067ffffffffffffffff821115610cc157610cc0610c2b565b5b610cca82610c1a565b9050602081019050919050565b82818337600083830152505050565b6000610cf9610cf484610ca6565b610c8b565b905082815260208101848484011115610d1557610d14610c15565b5b610d20848285610cd7565b509392505050565b600082601f830112610d3d57610d3c610c10565b5b8135610d4d848260208601610ce6565b91505092915050565b600067ffffffffffffffff821115610d7157610d70610c2b565b5b610d7a82610c1a565b9050602081019050919050565b6000610d9a610d9584610d56565b610c8b565b905082815260208101848484011115610db657610db5610c15565b5b610dc1848285610cd7565b509392505050565b600082601f830112610dde57610ddd610c10565b5b8135610dee848260208601610d87565b91505092915050565b600080600060608486031215610e1057610e0f610b45565b5b600084013567ffffffffffffffff811115610e2e57610e2d610b4a565b5b610e3a86828701610d28565b935050602084013567ffffffffffffffff811115610e5b57610e5a610b4a565b5b610e6786828701610d28565b925050604084013567ffffffffffffffff811115610e8857610e87610b4a565b5b610e9486828701610dc9565b9150509250925092565b60008060408385031215610eb557610eb4610b45565b5b6000610ec385828601610b98565b925050602083013567ffffffffffffffff811115610ee457610ee3610b4a565b5b610ef085828601610dc9565b9150509250929050565b600081519050919050565b600082825260208201905092915050565b60005b83811015610f34578082015181840152602081019050610f19565b83811115610f43576000848401525b50505050565b6000610f5482610efa565b610f5e8185610f05565b9350610f6e818560208601610f16565b610f7781610c1a565b840191505092915050565b60006020820190508181036000830152610f9c8184610f49565b905092915050565b600081519050919050565b600082825260208201905092915050565b6000610fcb82610fa4565b610fd58185610faf565b9350610fe5818560208601610f16565b610fee81610c1a565b840191505092915050565b600060608201905081810360008301526110138186610fc0565b905081810360208301526110278185610fc0565b9050818103604083015261103b8184610f49565b9050949350505050565b7f456d61696c2063616e6e6f7420626520656d7074790000000000000000000000600082015250565b600061107b601583610faf565b915061108682611045565b602082019050919050565b600060208201905081810360008301526110aa8161106e565b9050919050565b7f557365726e616d652063616e6e6f7420626520656d7074790000000000000000600082015250565b60006110e7601883610faf565b91506110f2826110b1565b602082019050919050565b60006020820190508181036000830152611116816110da565b9050919050565b7f5075626c6963206b65792063616e6e6f7420626520656d707479000000000000600082015250565b6000611153601a83610faf565b915061115e8261111d565b602082019050919050565b6000602082019050818103600083015261118281611146565b9050919050565b7f5573657220616c72656164792072656769737465726564000000000000000000600082015250565b60006111bf601783610faf565b91506111ca82611189565b602082019050919050565b600060208201905081810360008301526111ee816111b2565b9050919050565b600081905092915050565b600061120b82610efa565b61121581856111f5565b9350611225818560208601610f16565b80840191505092915050565b600061123d8284611200565b915081905092915050565b7f5075626c6963206b657920616c72656164792072656769737465726564000000600082015250565b600061127e601d83610faf565b915061128982611248565b602082019050919050565b600060208201905081810360008301526112ad81611271565b9050919050565b600060408201905081810360008301526112ce8185610fc0565b905081810360208301526112e28184610fc0565b90509392505050565b7f55736572206e6f74207265676973746572656400000000000000000000000000600082015250565b6000611321601383610faf565b915061132c826112eb565b602082019050919050565b6000602082019050818103600083015261135081611314565b9050919050565b6000819050919050565b6000819050919050565b61137c61137782611357565b611361565b82525050565b60008160601b9050919050565b600061139a82611382565b9050919050565b60006113ac8261138f565b9050919050565b6113c46113bf82610b6f565b6113a1565b82525050565b60006113d6828661136b565b6020820191506113e6828561136b565b6020820191506113f682846113b3565b601482019150819050949350505050565b7f4e487b7100000000000000000000000000000000000000000000000000000000600052602260045260246000fd5b6000600282049050600182168061144e57607f821691505b60208210810361146157611460611407565b5b50919050565b60008190508160005260206000209050919050565b6000815461148981611436565b61149381866111f5565b945060018216600081146114ae57600181146114bf576114f2565b60ff198316865281860193506114f2565b6114c885611467565b60005b838110156114ea578154818901526001820191506020810190506114cb565b838801955050505b50505092915050565b6000611507828561136b565b602082019150611517828461147c565b9150819050939250505056fea26469706673582212201ac6718e13fd31fe50d1ae35161dda541e5a1441e5ef0f0e25b2be2f1c616dc064736f6c634300080d0033",
  "immutableReferences": {},
  "source": "// SPDX-License-Identifier: MIT\npragma solidity ^0.8.0;\n\ncontract UserAuth {\n    struct User {\n        bool exists;\n        string username;\n        string email;\n        bytes publicKey;\n    }\n\n    mapping(address => User) private users;\n    mapping(bytes => address) private publicKeyToAddress;\n\n    event UserRegistered(address indexed user, string email, string username);\n    event PublicKeyUpdated(address indexed user, bytes publicKey);\n\n    // Register user with generated public key\n    function registerUser(string memory email, string memory username, bytes memory publicKey) public {\n        require(bytes(email).length > 0, \"Email cannot be empty\");\n        require(bytes(username).length > 0, \"Username cannot be empty\");\n        require(publicKey.length > 0, \"Public key cannot be empty\");\n        require(!users[msg.sender].exists, \"User already registered\");\n        require(publicKeyToAddress[publicKey] == address(0), \"Public key already registered\");\n\n        users[msg.sender] = User({\n            exists: true,\n            username: username,\n            email: email,\n            publicKey: publicKey\n        });\n\n        publicKeyToAddress[publicKey] = msg.sender;\n\n        emit UserRegistered(msg.sender, email, username);\n    }\n\n    // Generate challenge for authentication\n    function generateChallenge(address user) public view returns (bytes memory challenge) {\n        require(users[user].exists, \"User not registered\");\n        \n        // Generate random number for challenge\n        uint256 random = uint256(keccak256(\n            abi.encodePacked(\n                block.timestamp,\n                block.difficulty,\n                user\n            )\n        ));\n\n        // Combine random number with user's public key\n        challenge = abi.encodePacked(random, users[user].publicKey);\n        return challenge;\n    }\n\n    // Verify solution\n    function verifySolution(address user, bytes memory solution) public view returns (bool) {\n        require(users[user].exists, \"User not registered\");\n        \n        // Generate the same challenge\n        bytes memory challenge = generateChallenge(user);\n        \n        // Verify solution matches challenge\n        return keccak256(solution) == keccak256(challenge);\n    }\n\n    // Get user details\n    function getUserDetails(address user) public view returns (string memory, string memory, bytes memory) {\n        require(users[user].exists, \"User not registered\");\n        return (users[user].username, users[user].email, users[user].publicKey);\n    }\n\n    // Check if user exists\n    function isUserRegistered(address user) public view returns (bool) {\n        return users[user].exists;\n    }\n}\n",
  "sourcePath": "D:\\Praveen\\Personal\\projects\\trustkey\\truffle-pkibckckn\\contracts\\UserAuth.sol",
  "compiler": {
    "name": "solc",
    "version": "0.8.13+commit.abaa5c0e.Emscripten.clang"
  },
  "schemaVersion": "3.4.16",
  "updatedAt": "2025-06-09T09:10:00.295Z",
  "networkType": "ethereum",
  "devdoc": {
    "kind": "dev",
    "methods": {},
    "version": 1
  },
  "userdoc": {
    "kind": "user",
    "methods": {},
    "version": 1
  }
}