{
  "contractName": "UserCertificateManager",
  "abi": [
    {
      "inputs": [],
      "stateMutability": "nonpayable",
      "type": "constructor"
    },
    {
      "anonymous": false,
      "inputs": [
        {
          "indexed": true,
          "internalType": "address",
          "name": "user",
          "type": "address"
        },
        {
          "indexed": false,
          "internalType": "string",
          "name": "serialNumber",
          "type": "string"
        }
      ],
      "name": "CertificateIssued",
      "type": "event"
    },
    {
      "anonymous": false,
      "inputs": [
        {
          "indexed": true,
          "internalType": "address",
          "name": "user",
          "type": "address"
        },
        {
          "indexed": false,
          "internalType": "string",
          "name": "reason",
          "type": "string"
        }
      ],
      "name": "CertificateRevoked",
      "type": "event"
    },
    {
      "anonymous": false,
      "inputs": [
        {
          "indexed": true,
          "internalType": "address",
          "name": "user",
          "type": "address"
        },
        {
          "indexed": false,
          "internalType": "string",
          "name": "keyData",
          "type": "string"
        }
      ],
      "name": "PublicKeyAdded",
      "type": "event"
    },
    {
      "anonymous": false,
      "inputs": [
        {
          "indexed": true,
          "internalType": "address",
          "name": "user",
          "type": "address"
        },
        {
          "indexed": false,
          "internalType": "uint256",
          "name": "keyIndex",
          "type": "uint256"
        }
      ],
      "name": "PublicKeyDeactivated",
      "type": "event"
    },
    {
      "anonymous": false,
      "inputs": [
        {
          "indexed": true,
          "internalType": "address",
          "name": "user",
          "type": "address"
        },
        {
          "indexed": false,
          "internalType": "string",
          "name": "keyData",
          "type": "string"
        }
      ],
      "name": "PublicKeyUpdated",
      "type": "event"
    },
    {
      "anonymous": false,
      "inputs": [
        {
          "indexed": true,
          "internalType": "address",
          "name": "user",
          "type": "address"
        },
        {
          "indexed": false,
          "internalType": "string",
          "name": "email",
          "type": "string"
        },
        {
          "indexed": false,
          "internalType": "string",
          "name": "username",
          "type": "string"
        }
      ],
      "name": "UserRegistered",
      "type": "event"
    },
    {
      "inputs": [
        {
          "internalType": "address",
          "name": "",
          "type": "address"
        }
      ],
      "name": "activeKeyIndex",
      "outputs": [
        {
          "internalType": "uint256",
          "name": "",
          "type": "uint256"
        }
      ],
      "stateMutability": "view",
      "type": "function",
      "constant": true
    },
    {
      "inputs": [],
      "name": "admin",
      "outputs": [
        {
          "internalType": "address",
          "name": "",
          "type": "address"
        }
      ],
      "stateMutability": "view",
      "type": "function",
      "constant": true
    },
    {
      "inputs": [
        {
          "internalType": "bytes",
          "name": "",
          "type": "bytes"
        }
      ],
      "name": "publicKeyToAddress",
      "outputs": [
        {
          "internalType": "address",
          "name": "",
          "type": "address"
        }
      ],
      "stateMutability": "view",
      "type": "function",
      "constant": true
    },
    {
      "inputs": [
        {
          "internalType": "address",
          "name": "",
          "type": "address"
        }
      ],
      "name": "userCertificates",
      "outputs": [
        {
          "internalType": "string",
          "name": "serialNumber",
          "type": "string"
        },
        {
          "internalType": "string",
          "name": "country",
          "type": "string"
        },
        {
          "internalType": "string",
          "name": "state",
          "type": "string"
        },
        {
          "internalType": "string",
          "name": "locality",
          "type": "string"
        },
        {
          "internalType": "string",
          "name": "organization",
          "type": "string"
        },
        {
          "internalType": "string",
          "name": "commonName",
          "type": "string"
        },
        {
          "internalType": "string",
          "name": "publicKey",
          "type": "string"
        },
        {
          "internalType": "string",
          "name": "signatureAlgorithm",
          "type": "string"
        },
        {
          "internalType": "uint256",
          "name": "validFrom",
          "type": "uint256"
        },
        {
          "internalType": "uint256",
          "name": "validTo",
          "type": "uint256"
        },
        {
          "internalType": "bool",
          "name": "isRevoked",
          "type": "bool"
        }
      ],
      "stateMutability": "view",
      "type": "function",
      "constant": true
    },
    {
      "inputs": [
        {
          "internalType": "address",
          "name": "",
          "type": "address"
        },
        {
          "internalType": "uint256",
          "name": "",
          "type": "uint256"
        }
      ],
      "name": "userPublicKeys",
      "outputs": [
        {
          "internalType": "bytes",
          "name": "keyData",
          "type": "bytes"
        },
        {
          "internalType": "bool",
          "name": "isActive",
          "type": "bool"
        },
        {
          "internalType": "uint256",
          "name": "addedAt",
          "type": "uint256"
        }
      ],
      "stateMutability": "view",
      "type": "function",
      "constant": true
    },
    {
      "inputs": [
        {
          "internalType": "address",
          "name": "",
          "type": "address"
        }
      ],
      "name": "users",
      "outputs": [
        {
          "internalType": "bool",
          "name": "exists",
          "type": "bool"
        },
        {
          "internalType": "string",
          "name": "username",
          "type": "string"
        },
        {
          "internalType": "string",
          "name": "email",
          "type": "string"
        }
      ],
      "stateMutability": "view",
      "type": "function",
      "constant": true
    },
    {
      "inputs": [
        {
          "internalType": "string",
          "name": "email",
          "type": "string"
        },
        {
          "internalType": "string",
          "name": "username",
          "type": "string"
        }
      ],
      "name": "registerUser",
      "outputs": [],
      "stateMutability": "nonpayable",
      "type": "function"
    },
    {
      "inputs": [
        {
          "internalType": "string",
          "name": "_serialNumber",
          "type": "string"
        },
        {
          "internalType": "string",
          "name": "_country",
          "type": "string"
        },
        {
          "internalType": "string",
          "name": "_state",
          "type": "string"
        },
        {
          "internalType": "string",
          "name": "_locality",
          "type": "string"
        },
        {
          "internalType": "string",
          "name": "_organization",
          "type": "string"
        },
        {
          "internalType": "string",
          "name": "_commonName",
          "type": "string"
        },
        {
          "internalType": "string",
          "name": "_publicKey",
          "type": "string"
        },
        {
          "internalType": "string",
          "name": "_signatureAlgorithm",
          "type": "string"
        },
        {
          "internalType": "uint256",
          "name": "_validDays",
          "type": "uint256"
        }
      ],
      "name": "issueCertificate",
      "outputs": [],
      "stateMutability": "nonpayable",
      "type": "function"
    },
    {
      "inputs": [
        {
          "internalType": "address",
          "name": "user",
          "type": "address"
        },
        {
          "internalType": "string",
          "name": "_serialNumber",
          "type": "string"
        },
        {
          "internalType": "string",
          "name": "_country",
          "type": "string"
        },
        {
          "internalType": "string",
          "name": "_state",
          "type": "string"
        },
        {
          "internalType": "string",
          "name": "_locality",
          "type": "string"
        },
        {
          "internalType": "string",
          "name": "_organization",
          "type": "string"
        },
        {
          "internalType": "string",
          "name": "_commonName",
          "type": "string"
        },
        {
          "internalType": "string",
          "name": "_publicKey",
          "type": "string"
        },
        {
          "internalType": "string",
          "name": "_signatureAlgorithm",
          "type": "string"
        },
        {
          "internalType": "uint256",
          "name": "_validDays",
          "type": "uint256"
        }
      ],
      "name": "issueCertificateFor",
      "outputs": [],
      "stateMutability": "nonpayable",
      "type": "function"
    },
    {
      "inputs": [
        {
          "internalType": "bytes",
          "name": "_keyData",
          "type": "bytes"
        }
      ],
      "name": "addPublicKey",
      "outputs": [],
      "stateMutability": "nonpayable",
      "type": "function"
    },
    {
      "inputs": [
        {
          "internalType": "address",
          "name": "user",
          "type": "address"
        },
        {
          "internalType": "bytes",
          "name": "_keyData",
          "type": "bytes"
        }
      ],
      "name": "addPublicKeyFor",
      "outputs": [],
      "stateMutability": "nonpayable",
      "type": "function"
    },
    {
      "inputs": [
        {
          "internalType": "uint256",
          "name": "_keyIndex",
          "type": "uint256"
        }
      ],
      "name": "deactivatePublicKey",
      "outputs": [],
      "stateMutability": "nonpayable",
      "type": "function"
    },
    {
      "inputs": [
        {
          "internalType": "address",
          "name": "user",
          "type": "address"
        },
        {
          "internalType": "uint256",
          "name": "_keyIndex",
          "type": "uint256"
        }
      ],
      "name": "deactivatePublicKeyFor",
      "outputs": [],
      "stateMutability": "nonpayable",
      "type": "function"
    },
    {
      "inputs": [
        {
          "internalType": "string",
          "name": "_reason",
          "type": "string"
        }
      ],
      "name": "revokeCertificate",
      "outputs": [],
      "stateMutability": "nonpayable",
      "type": "function"
    },
    {
      "inputs": [
        {
          "internalType": "address",
          "name": "_user",
          "type": "address"
        }
      ],
      "name": "getActivePublicKey",
      "outputs": [
        {
          "internalType": "bytes",
          "name": "",
          "type": "bytes"
        }
      ],
      "stateMutability": "view",
      "type": "function",
      "constant": true
    },
    {
      "inputs": [
        {
          "internalType": "address",
          "name": "_user",
          "type": "address"
        }
      ],
      "name": "getUserPublicKeys",
      "outputs": [
        {
          "components": [
            {
              "internalType": "bytes",
              "name": "keyData",
              "type": "bytes"
            },
            {
              "internalType": "bool",
              "name": "isActive",
              "type": "bool"
            },
            {
              "internalType": "uint256",
              "name": "addedAt",
              "type": "uint256"
            }
          ],
          "internalType": "struct UserCertificateManager.PublicKey[]",
          "name": "",
          "type": "tuple[]"
        }
      ],
      "stateMutability": "view",
      "type": "function",
      "constant": true
    },
    {
      "inputs": [
        {
          "internalType": "address",
          "name": "_user",
          "type": "address"
        }
      ],
      "name": "getCertificateInfo",
      "outputs": [
        {
          "internalType": "string",
          "name": "serialNumber",
          "type": "string"
        },
        {
          "internalType": "string",
          "name": "commonName",
          "type": "string"
        },
        {
          "internalType": "string",
          "name": "organization",
          "type": "string"
        },
        {
          "internalType": "uint256",
          "name": "validFrom",
          "type": "uint256"
        },
        {
          "internalType": "uint256",
          "name": "validTo",
          "type": "uint256"
        },
        {
          "internalType": "bool",
          "name": "isRevoked",
          "type": "bool"
        }
      ],
      "stateMutability": "view",
      "type": "function",
      "constant": true
    },
    {
      "inputs": [
        {
          "internalType": "address",
          "name": "user",
          "type": "address"
        }
      ],
      "name": "generateChallenge",
      "outputs": [
        {
          "internalType": "bytes",
          "name": "challenge",
          "type": "bytes"
        }
      ],
      "stateMutability": "view",
      "type": "function",
      "constant": true
    },
    {
      "inputs": [
        {
          "internalType": "bytes32",
          "name": "messageHash",
          "type": "bytes32"
        },
        {
          "internalType": "bytes",
          "name": "signature",
          "type": "bytes"
        },
        {
          "internalType": "address",
          "name": "signer",
          "type": "address"
        }
      ],
      "name": "verifySignature",
      "outputs": [
        {
          "internalType": "bool",
          "name": "",
          "type": "bool"
        }
      ],
      "stateMutability": "view",
      "type": "function",
      "constant": true
    },
    {
      "inputs": [
        {
          "internalType": "address",
          "name": "user",
          "type": "address"
        }
      ],
      "name": "getUserDetails",
      "outputs": [
        {
          "internalType": "string",
          "name": "",
          "type": "string"
        },
        {
          "internalType": "string",
          "name": "",
          "type": "string"
        }
      ],
      "stateMutability": "view",
      "type": "function",
      "constant": true
    },
    {
      "inputs": [
        {
          "internalType": "address",
          "name": "user",
          "type": "address"
        }
      ],
      "name": "isUserRegistered",
      "outputs": [
        {
          "internalType": "bool",
          "name": "",
          "type": "bool"
        }
      ],
      "stateMutability": "view",
      "type": "function",
      "constant": true
    },
    {
      "inputs": [],
      "name": "getUserCount",
      "outputs": [
        {
          "internalType": "uint256",
          "name": "",
          "type": "uint256"
        }
      ],
      "stateMutability": "view",
      "type": "function",
      "constant": true
    },
    {
      "inputs": [
        {
          "internalType": "uint256",
          "name": "index",
          "type": "uint256"
        }
      ],
      "name": "getUserByIndex",
      "outputs": [
        {
          "internalType": "address",
          "name": "",
          "type": "address"
        }
      ],
      "stateMutability": "view",
      "type": "function",
      "constant": true
    },
    {
      "inputs": [],
      "name": "getAllUsers",
      "outputs": [
        {
          "internalType": "address[]",
          "name": "",
          "type": "address[]"
        }
      ],
      "stateMutability": "view",
      "type": "function",
      "constant": true
    },
    {
      "inputs": [
        {
          "internalType": "address",
          "name": "user",
          "type": "address"
        },
        {
          "internalType": "bytes",
          "name": "solution",
          "type": "bytes"
        }
      ],
      "name": "verifySolution",
      "outputs": [
        {
          "internalType": "bool",
          "name": "",
          "type": "bool"
        }
      ],
      "stateMutability": "view",
      "type": "function",
      "constant": true
    }
  ],
  "bytecode": "0x608060405234801561001057600080fd5b50336000806101000a81548173ffffffffffffffffffffffffffffffffffffffff021916908373ffffffffffffffffffffffffffffffffffffffff1602179055506157e380620000616000396000f3fe608060405234801561001057600080fd5b50600436106101735760003560e01c806375a64ce8116100de578063cdd4139b11610097578063ebbcf74f11610071578063ebbcf74f146104b3578063f62a2a7e146104e8578063f851a44014610518578063ff5d32fe1461053657610173565b8063cdd4139b1461043f578063d31253cb1461045b578063e2842d791461049557610173565b806375a64ce814610342578063a6c5d5a91461035e578063a87430ba1461038e578063b5cb15f7146103c0578063c84450f9146103de578063cc3d967b1461040e57610173565b806331cd41991161013057806331cd41991461024a57806343ae656c1461027a5780634e21a517146102aa5780635f0b3249146102c6578063645e1415146102f65780636c433b611461032657610173565b80630a72c060146101785780630d6deb381461019457806310eefaf1146101b0578063142e1542146101e2578063163f7522146101fe5780631d2e4afd1461022e575b600080fd5b610192600480360381019061018d9190613dd0565b610566565b005b6101ae60048036038101906101a99190613f56565b610a7a565b005b6101ca60048036038101906101c59190613dd0565b610d94565b6040516101d993929190614064565b60405180910390f35b6101fc60048036038101906101f79190614143565b610e70565b005b6102186004803603810190610213919061418c565b6111a8565b60405161022591906141b9565b60405180910390f35b610248600480360381019061024391906141d4565b611201565b005b610264600480360381019061025f9190614282565b61148a565b60405161027191906141b9565b60405180910390f35b610294600480360381019061028f91906142f1565b61158e565b6040516102a19190614349565b60405180910390f35b6102c460048036038101906102bf91906142f1565b6115d7565b005b6102e060048036038101906102db919061418c565b611862565b6040516102ed9190614364565b60405180910390f35b610310600480360381019061030b919061418c565b611b5e565b60405161031d9190614500565b60405180910390f35b610340600480360381019061033b9190614522565b611d42565b005b61035c600480360381019061035791906146cc565b612117565b005b61037860048036038101906103739190613f56565b61257b565b60405161038591906141b9565b60405180910390f35b6103a860048036038101906103a3919061418c565b612633565b6040516103b7939291906148e0565b60405180910390f35b6103c861277a565b6040516103d59190614925565b60405180910390f35b6103f860048036038101906103f3919061418c565b612787565b6040516104059190614364565b60405180910390f35b6104286004803603810190610423919061418c565b612872565b604051610436929190614940565b60405180910390f35b61045960048036038101906104549190614977565b612aa9565b005b6104756004803603810190610470919061418c565b612f2e565b60405161048c9b9a999897969594939291906149a4565b60405180910390f35b61049d6133d5565b6040516104aa9190614b45565b60405180910390f35b6104cd60048036038101906104c8919061418c565b613463565b6040516104df96959493929190614b67565b60405180910390f35b61050260048036038101906104fd919061418c565b613a41565b60405161050f9190614925565b60405180910390f35b610520613a59565b60405161052d9190614349565b60405180910390f35b610550600480360381019061054b9190614977565b613a7d565b60405161055d9190614349565b60405180910390f35b60008054906101000a900473ffffffffffffffffffffffffffffffffffffffff1673ffffffffffffffffffffffffffffffffffffffff163373ffffffffffffffffffffffffffffffffffffffff16146105f4576040517f08c379a00000000000000000000000000000000000000000000000000000000081526004016105eb90614c4f565b60405180910390fd5b600160008373ffffffffffffffffffffffffffffffffffffffff1673ffffffffffffffffffffffffffffffffffffffff16815260200190815260200160002060000160009054906101000a900460ff16610683576040517f08c379a000000000000000000000000000000000000000000000000000000000815260040161067a90614cbb565b60405180910390fd5b600460008373ffffffffffffffffffffffffffffffffffffffff1673ffffffffffffffffffffffffffffffffffffffff168152602001908152602001600020805490508110610707576040517f08c379a00000000000000000000000000000000000000000000000000000000081526004016106fe90614d27565b60405180910390fd5b600460008373ffffffffffffffffffffffffffffffffffffffff1673ffffffffffffffffffffffffffffffffffffffff168152602001908152602001600020818154811061075857610757614d47565b5b906000526020600020906003020160010160009054906101000a900460ff166107b6576040517f08c379a00000000000000000000000000000000000000000000000000000000081526004016107ad90614dc2565b60405180910390fd5b6001600460008473ffffffffffffffffffffffffffffffffffffffff1673ffffffffffffffffffffffffffffffffffffffff168152602001908152602001600020805490501161083b576040517f08c379a000000000000000000000000000000000000000000000000000000000815260040161083290614e2e565b60405180910390fd5b6000600460008473ffffffffffffffffffffffffffffffffffffffff1673ffffffffffffffffffffffffffffffffffffffff168152602001908152602001600020828154811061088e5761088d614d47565b5b906000526020600020906003020160010160006101000a81548160ff02191690831515021790555080600560008473ffffffffffffffffffffffffffffffffffffffff1673ffffffffffffffffffffffffffffffffffffffff1681526020019081526020016000205403610a285760005b600460008473ffffffffffffffffffffffffffffffffffffffff1673ffffffffffffffffffffffffffffffffffffffff16815260200190815260200160002080549050811015610a26578181141580156109c55750600460008473ffffffffffffffffffffffffffffffffffffffff1673ffffffffffffffffffffffffffffffffffffffff16815260200190815260200160002081815481106109a5576109a4614d47565b5b906000526020600020906003020160010160009054906101000a900460ff165b15610a135780600560008573ffffffffffffffffffffffffffffffffffffffff1673ffffffffffffffffffffffffffffffffffffffff16815260200190815260200160002081905550610a26565b8080610a1e90614e7d565b9150506108ff565b505b8173ffffffffffffffffffffffffffffffffffffffff167f6a0d45f87f64b1fea67d665c12179ba198d35a60fd48a200f61c493ae06b859182604051610a6e9190614925565b60405180910390a25050565b60008054906101000a900473ffffffffffffffffffffffffffffffffffffffff1673ffffffffffffffffffffffffffffffffffffffff163373ffffffffffffffffffffffffffffffffffffffff1614610b08576040517f08c379a0000000000000000000000000000000000000000000000000000000008152600401610aff90614c4f565b60405180910390fd5b600160008373ffffffffffffffffffffffffffffffffffffffff1673ffffffffffffffffffffffffffffffffffffffff16815260200190815260200160002060000160009054906101000a900460ff16610b97576040517f08c379a0000000000000000000000000000000000000000000000000000000008152600401610b8e90614cbb565b60405180910390fd5b6000815111610bdb576040517f08c379a0000000000000000000000000000000000000000000000000000000008152600401610bd290614f11565b60405180910390fd5b600460008373ffffffffffffffffffffffffffffffffffffffff1673ffffffffffffffffffffffffffffffffffffffff16815260200190815260200160002060405180606001604052808381526020016001151581526020014281525090806001815401808255809150506001900390600052602060002090600302016000909190919091506000820151816000019080519060200190610c7d929190613bff565b5060208201518160010160006101000a81548160ff02191690831515021790555060408201518160020155505060006001600460008573ffffffffffffffffffffffffffffffffffffffff1673ffffffffffffffffffffffffffffffffffffffff16815260200190815260200160002080549050610cfb9190614f31565b905080600560008573ffffffffffffffffffffffffffffffffffffffff1673ffffffffffffffffffffffffffffffffffffffff168152602001908152602001600020819055508273ffffffffffffffffffffffffffffffffffffffff167fae3c25feee9ffe53f654a0494566502413eea9041dd7db07da82a2c6bb8ca34e83604051610d879190614f65565b60405180910390a2505050565b60046020528160005260406000208181548110610db057600080fd5b906000526020600020906003020160009150915050806000018054610dd490614fb6565b80601f0160208091040260200160405190810160405280929190818152602001828054610e0090614fb6565b8015610e4d5780601f10610e2257610100808354040283529160200191610e4d565b820191906000526020600020905b815481529060010190602001808311610e3057829003601f168201915b5050505050908060010160009054906101000a900460ff16908060020154905083565b600160003373ffffffffffffffffffffffffffffffffffffffff1673ffffffffffffffffffffffffffffffffffffffff16815260200190815260200160002060000160009054906101000a900460ff16610eff576040517f08c379a0000000000000000000000000000000000000000000000000000000008152600401610ef690614cbb565b60405180910390fd5b6000600360003373ffffffffffffffffffffffffffffffffffffffff1673ffffffffffffffffffffffffffffffffffffffff1681526020019081526020016000206000018054610f4e90614fb6565b905003610f90576040517f08c379a0000000000000000000000000000000000000000000000000000000008152600401610f8790615033565b60405180910390fd5b600360003373ffffffffffffffffffffffffffffffffffffffff1673ffffffffffffffffffffffffffffffffffffffff168152602001908152602001600020600a0160009054906101000a900460ff1615611020576040517f08c379a00000000000000000000000000000000000000000000000000000000081526004016110179061509f565b60405180910390fd5b6001600360003373ffffffffffffffffffffffffffffffffffffffff1673ffffffffffffffffffffffffffffffffffffffff168152602001908152602001600020600a0160006101000a81548160ff02191690831515021790555060005b600460003373ffffffffffffffffffffffffffffffffffffffff1673ffffffffffffffffffffffffffffffffffffffff16815260200190815260200160002080549050811015611156576000600460003373ffffffffffffffffffffffffffffffffffffffff1673ffffffffffffffffffffffffffffffffffffffff168152602001908152602001600020828154811061111b5761111a614d47565b5b906000526020600020906003020160010160006101000a81548160ff021916908315150217905550808061114e90614e7d565b91505061107e565b503373ffffffffffffffffffffffffffffffffffffffff167fea1842a7488747c3224eb14e1621c64aa824ec84dadb16e6122fa8223086d0488260405161119d9190614f65565b60405180910390a250565b6000600160008373ffffffffffffffffffffffffffffffffffffffff1673ffffffffffffffffffffffffffffffffffffffff16815260200190815260200160002060000160009054906101000a900460ff169050919050565b6000825111611245576040517f08c379a000000000000000000000000000000000000000000000000000000000815260040161123c9061510b565b60405180910390fd5b6000815111611289576040517f08c379a000000000000000000000000000000000000000000000000000000000815260040161128090615177565b60405180910390fd5b600160003373ffffffffffffffffffffffffffffffffffffffff1673ffffffffffffffffffffffffffffffffffffffff16815260200190815260200160002060000160009054906101000a900460ff1615611319576040517f08c379a0000000000000000000000000000000000000000000000000000000008152600401611310906151e3565b60405180910390fd5b604051806060016040528060011515815260200182815260200183815250600160003373ffffffffffffffffffffffffffffffffffffffff1673ffffffffffffffffffffffffffffffffffffffff16815260200190815260200160002060008201518160000160006101000a81548160ff02191690831515021790555060208201518160010190805190602001906113b2929190613c85565b5060408201518160020190805190602001906113cf929190613c85565b509050506006339080600181540180825580915050600190039060005260206000200160009091909190916101000a81548173ffffffffffffffffffffffffffffffffffffffff021916908373ffffffffffffffffffffffffffffffffffffffff1602179055503373ffffffffffffffffffffffffffffffffffffffff167f92822564bab8864c3a47b34e8d23fbce5c46234eb5da261f94087b995ac0f33b838360405161147e929190614940565b60405180910390a25050565b6000600160008373ffffffffffffffffffffffffffffffffffffffff1673ffffffffffffffffffffffffffffffffffffffff16815260200190815260200160002060000160009054906101000a900460ff1661151b576040517f08c379a00000000000000000000000000000000000000000000000000000000081526004016115129061524f565b60405180910390fd5b60008460405160200161152e91906152e7565b60405160208183030381529060405280519060200120905060006115528286613b0c565b90508373ffffffffffffffffffffffffffffffffffffffff168173ffffffffffffffffffffffffffffffffffffffff1614925050509392505050565b6002818051602081018201805184825260208301602085012081835280955050505050506000915054906101000a900473ffffffffffffffffffffffffffffffffffffffff1681565b600160003373ffffffffffffffffffffffffffffffffffffffff1673ffffffffffffffffffffffffffffffffffffffff16815260200190815260200160002060000160009054906101000a900460ff16611666576040517f08c379a000000000000000000000000000000000000000000000000000000000815260040161165d90614cbb565b60405180910390fd5b60008151116116aa576040517f08c379a00000000000000000000000000000000000000000000000000000000081526004016116a190614f11565b60405180910390fd5b600460003373ffffffffffffffffffffffffffffffffffffffff1673ffffffffffffffffffffffffffffffffffffffff1681526020019081526020016000206040518060600160405280838152602001600115158152602001428152509080600181540180825580915050600190039060005260206000209060030201600090919091909150600082015181600001908051906020019061174c929190613bff565b5060208201518160010160006101000a81548160ff02191690831515021790555060408201518160020155505060006001600460003373ffffffffffffffffffffffffffffffffffffffff1673ffffffffffffffffffffffffffffffffffffffff168152602001908152602001600020805490506117ca9190614f31565b905080600560003373ffffffffffffffffffffffffffffffffffffffff1673ffffffffffffffffffffffffffffffffffffffff168152602001908152602001600020819055503373ffffffffffffffffffffffffffffffffffffffff167fae3c25feee9ffe53f654a0494566502413eea9041dd7db07da82a2c6bb8ca34e836040516118569190614f65565b60405180910390a25050565b6060600160008373ffffffffffffffffffffffffffffffffffffffff1673ffffffffffffffffffffffffffffffffffffffff16815260200190815260200160002060000160009054906101000a900460ff166118f3576040517f08c379a00000000000000000000000000000000000000000000000000000000081526004016118ea90614cbb565b60405180910390fd5b6000600560008473ffffffffffffffffffffffffffffffffffffffff1673ffffffffffffffffffffffffffffffffffffffff1681526020019081526020016000205490506000600460008573ffffffffffffffffffffffffffffffffffffffff1673ffffffffffffffffffffffffffffffffffffffff16815260200190815260200160002080549050116119bc576040517f08c379a00000000000000000000000000000000000000000000000000000000081526004016119b390615359565b60405180910390fd5b600460008473ffffffffffffffffffffffffffffffffffffffff1673ffffffffffffffffffffffffffffffffffffffff1681526020019081526020016000208181548110611a0d57611a0c614d47565b5b906000526020600020906003020160010160009054906101000a900460ff16611a6b576040517f08c379a0000000000000000000000000000000000000000000000000000000008152600401611a62906153c5565b60405180910390fd5b600460008473ffffffffffffffffffffffffffffffffffffffff1673ffffffffffffffffffffffffffffffffffffffff1681526020019081526020016000208181548110611abc57611abb614d47565b5b90600052602060002090600302016000018054611ad890614fb6565b80601f0160208091040260200160405190810160405280929190818152602001828054611b0490614fb6565b8015611b515780601f10611b2657610100808354040283529160200191611b51565b820191906000526020600020905b815481529060010190602001808311611b3457829003601f168201915b5050505050915050919050565b6060600160008373ffffffffffffffffffffffffffffffffffffffff1673ffffffffffffffffffffffffffffffffffffffff16815260200190815260200160002060000160009054906101000a900460ff16611bef576040517f08c379a0000000000000000000000000000000000000000000000000000000008152600401611be690614cbb565b60405180910390fd5b600460008373ffffffffffffffffffffffffffffffffffffffff1673ffffffffffffffffffffffffffffffffffffffff168152602001908152602001600020805480602002602001604051908101604052809291908181526020016000905b82821015611d375783829060005260206000209060030201604051806060016040529081600082018054611c8190614fb6565b80601f0160208091040260200160405190810160405280929190818152602001828054611cad90614fb6565b8015611cfa5780601f10611ccf57610100808354040283529160200191611cfa565b820191906000526020600020905b815481529060010190602001808311611cdd57829003601f168201915b505050505081526020016001820160009054906101000a900460ff1615151515815260200160028201548152505081526020019060010190611c4e565b505050509050919050565b600160003373ffffffffffffffffffffffffffffffffffffffff1673ffffffffffffffffffffffffffffffffffffffff16815260200190815260200160002060000160009054906101000a900460ff16611dd1576040517f08c379a0000000000000000000000000000000000000000000000000000000008152600401611dc890614cbb565b60405180910390fd5b6000835111611e15576040517f08c379a0000000000000000000000000000000000000000000000000000000008152600401611e0c90614f11565b60405180910390fd5b60008111611e58576040517f08c379a0000000000000000000000000000000000000000000000000000000008152600401611e4f90615431565b60405180910390fd5b6000600360003373ffffffffffffffffffffffffffffffffffffffff1673ffffffffffffffffffffffffffffffffffffffff1681526020019081526020016000206000018054611ea790614fb6565b905014611ee9576040517f08c379a0000000000000000000000000000000000000000000000000000000008152600401611ee09061549d565b60405180910390fd5b600042905060006201518083611eff91906154bd565b82611f0a9190615517565b90506040518061016001604052808c81526020018b81526020018a815260200189815260200188815260200187815260200186815260200185815260200183815260200182815260200160001515815250600360003373ffffffffffffffffffffffffffffffffffffffff1673ffffffffffffffffffffffffffffffffffffffff1681526020019081526020016000206000820151816000019080519060200190611fb6929190613c85565b506020820151816001019080519060200190611fd3929190613c85565b506040820151816002019080519060200190611ff0929190613c85565b50606082015181600301908051906020019061200d929190613c85565b50608082015181600401908051906020019061202a929190613c85565b5060a0820151816005019080519060200190612047929190613c85565b5060c0820151816006019080519060200190612064929190613c85565b5060e0820151816007019080519060200190612081929190613c85565b506101008201518160080155610120820151816009015561014082015181600a0160006101000a81548160ff0219169083151502179055509050503373ffffffffffffffffffffffffffffffffffffffff167f4514a45e6f56567008e790fe2158e66d34e8b8254c060ad061d57027487914798c6040516121029190614f65565b60405180910390a25050505050505050505050565b60008054906101000a900473ffffffffffffffffffffffffffffffffffffffff1673ffffffffffffffffffffffffffffffffffffffff163373ffffffffffffffffffffffffffffffffffffffff16146121a5576040517f08c379a000000000000000000000000000000000000000000000000000000000815260040161219c90614c4f565b60405180910390fd5b600160008b73ffffffffffffffffffffffffffffffffffffffff1673ffffffffffffffffffffffffffffffffffffffff16815260200190815260200160002060000160009054906101000a900460ff16612234576040517f08c379a000000000000000000000000000000000000000000000000000000000815260040161222b90614cbb565b60405180910390fd5b6000835111612278576040517f08c379a000000000000000000000000000000000000000000000000000000000815260040161226f90614f11565b60405180910390fd5b600081116122bb576040517f08c379a00000000000000000000000000000000000000000000000000000000081526004016122b290615431565b60405180910390fd5b6000600360008c73ffffffffffffffffffffffffffffffffffffffff1673ffffffffffffffffffffffffffffffffffffffff168152602001908152602001600020600001805461230a90614fb6565b90501461234c576040517f08c379a00000000000000000000000000000000000000000000000000000000081526004016123439061549d565b60405180910390fd5b60004290506000620151808361236291906154bd565b8261236d9190615517565b90506040518061016001604052808c81526020018b81526020018a815260200189815260200188815260200187815260200186815260200185815260200183815260200182815260200160001515815250600360008e73ffffffffffffffffffffffffffffffffffffffff1673ffffffffffffffffffffffffffffffffffffffff1681526020019081526020016000206000820151816000019080519060200190612419929190613c85565b506020820151816001019080519060200190612436929190613c85565b506040820151816002019080519060200190612453929190613c85565b506060820151816003019080519060200190612470929190613c85565b50608082015181600401908051906020019061248d929190613c85565b5060a08201518160050190805190602001906124aa929190613c85565b5060c08201518160060190805190602001906124c7929190613c85565b5060e08201518160070190805190602001906124e4929190613c85565b506101008201518160080155610120820151816009015561014082015181600a0160006101000a81548160ff0219169083151502179055509050508b73ffffffffffffffffffffffffffffffffffffffff167f4514a45e6f56567008e790fe2158e66d34e8b8254c060ad061d57027487914798c6040516125659190614f65565b60405180910390a2505050505050505050505050565b6000600160008473ffffffffffffffffffffffffffffffffffffffff1673ffffffffffffffffffffffffffffffffffffffff16815260200190815260200160002060000160009054906101000a900460ff1661260c576040517f08c379a000000000000000000000000000000000000000000000000000000000815260040161260390614cbb565b60405180910390fd5b600061261784612787565b9050808051906020012083805190602001201491505092915050565b60016020528060005260406000206000915090508060000160009054906101000a900460ff169080600101805461266990614fb6565b80601f016020809104026020016040519081016040528092919081815260200182805461269590614fb6565b80156126e25780601f106126b7576101008083540402835291602001916126e2565b820191906000526020600020905b8154815290600101906020018083116126c557829003601f168201915b5050505050908060020180546126f790614fb6565b80601f016020809104026020016040519081016040528092919081815260200182805461272390614fb6565b80156127705780601f1061274557610100808354040283529160200191612770565b820191906000526020600020905b81548152906001019060200180831161275357829003601f168201915b5050505050905083565b6000600680549050905090565b6060600160008373ffffffffffffffffffffffffffffffffffffffff1673ffffffffffffffffffffffffffffffffffffffff16815260200190815260200160002060000160009054906101000a900460ff16612818576040517f08c379a000000000000000000000000000000000000000000000000000000000815260040161280f90614cbb565b60405180910390fd5b600042448460405160200161282f939291906155d6565b6040516020818303038152906040528051906020012060001c90508060405160200161285b9190615613565b604051602081830303815290604052915050919050565b606080600160008473ffffffffffffffffffffffffffffffffffffffff1673ffffffffffffffffffffffffffffffffffffffff16815260200190815260200160002060000160009054906101000a900460ff16612904576040517f08c379a00000000000000000000000000000000000000000000000000000000081526004016128fb90614cbb565b60405180910390fd5b600160008473ffffffffffffffffffffffffffffffffffffffff1673ffffffffffffffffffffffffffffffffffffffff168152602001908152602001600020600101600160008573ffffffffffffffffffffffffffffffffffffffff1673ffffffffffffffffffffffffffffffffffffffff16815260200190815260200160002060020181805461299490614fb6565b80601f01602080910402602001604051908101604052809291908181526020018280546129c090614fb6565b8015612a0d5780601f106129e257610100808354040283529160200191612a0d565b820191906000526020600020905b8154815290600101906020018083116129f057829003601f168201915b50505050509150808054612a2090614fb6565b80601f0160208091040260200160405190810160405280929190818152602001828054612a4c90614fb6565b8015612a995780601f10612a6e57610100808354040283529160200191612a99565b820191906000526020600020905b815481529060010190602001808311612a7c57829003601f168201915b5050505050905091509150915091565b600160003373ffffffffffffffffffffffffffffffffffffffff1673ffffffffffffffffffffffffffffffffffffffff16815260200190815260200160002060000160009054906101000a900460ff16612b38576040517f08c379a0000000000000000000000000000000000000000000000000000000008152600401612b2f90614cbb565b60405180910390fd5b600460003373ffffffffffffffffffffffffffffffffffffffff1673ffffffffffffffffffffffffffffffffffffffff168152602001908152602001600020805490508110612bbc576040517f08c379a0000000000000000000000000000000000000000000000000000000008152600401612bb390614d27565b60405180910390fd5b600460003373ffffffffffffffffffffffffffffffffffffffff1673ffffffffffffffffffffffffffffffffffffffff1681526020019081526020016000208181548110612c0d57612c0c614d47565b5b906000526020600020906003020160010160009054906101000a900460ff16612c6b576040517f08c379a0000000000000000000000000000000000000000000000000000000008152600401612c6290614dc2565b60405180910390fd5b6001600460003373ffffffffffffffffffffffffffffffffffffffff1673ffffffffffffffffffffffffffffffffffffffff1681526020019081526020016000208054905011612cf0576040517f08c379a0000000000000000000000000000000000000000000000000000000008152600401612ce790614e2e565b60405180910390fd5b6000600460003373ffffffffffffffffffffffffffffffffffffffff1673ffffffffffffffffffffffffffffffffffffffff1681526020019081526020016000208281548110612d4357612d42614d47565b5b906000526020600020906003020160010160006101000a81548160ff02191690831515021790555080600560003373ffffffffffffffffffffffffffffffffffffffff1673ffffffffffffffffffffffffffffffffffffffff1681526020019081526020016000205403612edd5760005b600460003373ffffffffffffffffffffffffffffffffffffffff1673ffffffffffffffffffffffffffffffffffffffff16815260200190815260200160002080549050811015612edb57818114158015612e7a5750600460003373ffffffffffffffffffffffffffffffffffffffff1673ffffffffffffffffffffffffffffffffffffffff1681526020019081526020016000208181548110612e5a57612e59614d47565b5b906000526020600020906003020160010160009054906101000a900460ff165b15612ec85780600560003373ffffffffffffffffffffffffffffffffffffffff1673ffffffffffffffffffffffffffffffffffffffff16815260200190815260200160002081905550612edb565b8080612ed390614e7d565b915050612db4565b505b3373ffffffffffffffffffffffffffffffffffffffff167f6a0d45f87f64b1fea67d665c12179ba198d35a60fd48a200f61c493ae06b859182604051612f239190614925565b60405180910390a250565b6003602052806000526040600020600091509050806000018054612f5190614fb6565b80601f0160208091040260200160405190810160405280929190818152602001828054612f7d90614fb6565b8015612fca5780601f10612f9f57610100808354040283529160200191612fca565b820191906000526020600020905b815481529060010190602001808311612fad57829003601f168201915b505050505090806001018054612fdf90614fb6565b80601f016020809104026020016040519081016040528092919081815260200182805461300b90614fb6565b80156130585780601f1061302d57610100808354040283529160200191613058565b820191906000526020600020905b81548152906001019060200180831161303b57829003601f168201915b50505050509080600201805461306d90614fb6565b80601f016020809104026020016040519081016040528092919081815260200182805461309990614fb6565b80156130e65780601f106130bb576101008083540402835291602001916130e6565b820191906000526020600020905b8154815290600101906020018083116130c957829003601f168201915b5050505050908060030180546130fb90614fb6565b80601f016020809104026020016040519081016040528092919081815260200182805461312790614fb6565b80156131745780601f1061314957610100808354040283529160200191613174565b820191906000526020600020905b81548152906001019060200180831161315757829003601f168201915b50505050509080600401805461318990614fb6565b80601f01602080910402602001604051908101604052809291908181526020018280546131b590614fb6565b80156132025780601f106131d757610100808354040283529160200191613202565b820191906000526020600020905b8154815290600101906020018083116131e557829003601f168201915b50505050509080600501805461321790614fb6565b80601f016020809104026020016040519081016040528092919081815260200182805461324390614fb6565b80156132905780601f1061326557610100808354040283529160200191613290565b820191906000526020600020905b81548152906001019060200180831161327357829003601f168201915b5050505050908060060180546132a590614fb6565b80601f01602080910402602001604051908101604052809291908181526020018280546132d190614fb6565b801561331e5780601f106132f35761010080835404028352916020019161331e565b820191906000526020600020905b81548152906001019060200180831161330157829003601f168201915b50505050509080600701805461333390614fb6565b80601f016020809104026020016040519081016040528092919081815260200182805461335f90614fb6565b80156133ac5780601f10613381576101008083540402835291602001916133ac565b820191906000526020600020905b81548152906001019060200180831161338f57829003601f168201915b50505050509080600801549080600901549080600a0160009054906101000a900460ff1690508b565b6060600680548060200260200160405190810160405280929190818152602001828054801561345957602002820191906000526020600020905b8160009054906101000a900473ffffffffffffffffffffffffffffffffffffffff1673ffffffffffffffffffffffffffffffffffffffff168152602001906001019080831161340f575b5050505050905090565b60608060606000806000600160008873ffffffffffffffffffffffffffffffffffffffff1673ffffffffffffffffffffffffffffffffffffffff16815260200190815260200160002060000160009054906101000a900460ff166134fc576040517f08c379a00000000000000000000000000000000000000000000000000000000081526004016134f390614cbb565b60405180910390fd5b6000600360008973ffffffffffffffffffffffffffffffffffffffff1673ffffffffffffffffffffffffffffffffffffffff1681526020019081526020016000206040518061016001604052908160008201805461355990614fb6565b80601f016020809104026020016040519081016040528092919081815260200182805461358590614fb6565b80156135d25780601f106135a7576101008083540402835291602001916135d2565b820191906000526020600020905b8154815290600101906020018083116135b557829003601f168201915b505050505081526020016001820180546135eb90614fb6565b80601f016020809104026020016040519081016040528092919081815260200182805461361790614fb6565b80156136645780601f1061363957610100808354040283529160200191613664565b820191906000526020600020905b81548152906001019060200180831161364757829003601f168201915b5050505050815260200160028201805461367d90614fb6565b80601f01602080910402602001604051908101604052809291908181526020018280546136a990614fb6565b80156136f65780601f106136cb576101008083540402835291602001916136f6565b820191906000526020600020905b8154815290600101906020018083116136d957829003601f168201915b5050505050815260200160038201805461370f90614fb6565b80601f016020809104026020016040519081016040528092919081815260200182805461373b90614fb6565b80156137885780601f1061375d57610100808354040283529160200191613788565b820191906000526020600020905b81548152906001019060200180831161376b57829003601f168201915b505050505081526020016004820180546137a190614fb6565b80601f01602080910402602001604051908101604052809291908181526020018280546137cd90614fb6565b801561381a5780601f106137ef5761010080835404028352916020019161381a565b820191906000526020600020905b8154815290600101906020018083116137fd57829003601f168201915b5050505050815260200160058201805461383390614fb6565b80601f016020809104026020016040519081016040528092919081815260200182805461385f90614fb6565b80156138ac5780601f10613881576101008083540402835291602001916138ac565b820191906000526020600020905b81548152906001019060200180831161388f57829003601f168201915b505050505081526020016006820180546138c590614fb6565b80601f01602080910402602001604051908101604052809291908181526020018280546138f190614fb6565b801561393e5780601f106139135761010080835404028352916020019161393e565b820191906000526020600020905b81548152906001019060200180831161392157829003601f168201915b5050505050815260200160078201805461395790614fb6565b80601f016020809104026020016040519081016040528092919081815260200182805461398390614fb6565b80156139d05780601f106139a5576101008083540402835291602001916139d0565b820191906000526020600020905b8154815290600101906020018083116139b357829003601f168201915b505050505081526020016008820154815260200160098201548152602001600a820160009054906101000a900460ff161515151581525050905080600001518160a0015182608001518361010001518461012001518561014001519650965096509650965096505091939550919395565b60056020528060005260406000206000915090505481565b60008054906101000a900473ffffffffffffffffffffffffffffffffffffffff1681565b60006006805490508210613ac6576040517f08c379a0000000000000000000000000000000000000000000000000000000008152600401613abd9061567a565b60405180910390fd5b60068281548110613ada57613ad9614d47565b5b9060005260206000200160009054906101000a900473ffffffffffffffffffffffffffffffffffffffff169050919050565b600080600080613b1b85613b7b565b92509250925060018682858560405160008152602001604052604051613b4494939291906156c5565b6020604051602081039080840390855afa158015613b66573d6000803e3d6000fd5b50505060206040510351935050505092915050565b60008060006041845114613bc4576040517f08c379a0000000000000000000000000000000000000000000000000000000008152600401613bbb90615756565b60405180910390fd5b6020840151925060408401519150606084015160001a9050601b8160ff161015613bf857601b81613bf59190615776565b90505b9193909250565b828054613c0b90614fb6565b90600052602060002090601f016020900481019282613c2d5760008555613c74565b82601f10613c4657805160ff1916838001178555613c74565b82800160010185558215613c74579182015b82811115613c73578251825591602001919060010190613c58565b5b509050613c819190613d0b565b5090565b828054613c9190614fb6565b90600052602060002090601f016020900481019282613cb35760008555613cfa565b82601f10613ccc57805160ff1916838001178555613cfa565b82800160010185558215613cfa579182015b82811115613cf9578251825591602001919060010190613cde565b5b509050613d079190613d0b565b5090565b5b80821115613d24576000816000905550600101613d0c565b5090565b6000604051905090565b600080fd5b600080fd5b600073ffffffffffffffffffffffffffffffffffffffff82169050919050565b6000613d6782613d3c565b9050919050565b613d7781613d5c565b8114613d8257600080fd5b50565b600081359050613d9481613d6e565b92915050565b6000819050919050565b613dad81613d9a565b8114613db857600080fd5b50565b600081359050613dca81613da4565b92915050565b60008060408385031215613de757613de6613d32565b5b6000613df585828601613d85565b9250506020613e0685828601613dbb565b9150509250929050565b600080fd5b600080fd5b6000601f19601f8301169050919050565b7f4e487b7100000000000000000000000000000000000000000000000000000000600052604160045260246000fd5b613e6382613e1a565b810181811067ffffffffffffffff82111715613e8257613e81613e2b565b5b80604052505050565b6000613e95613d28565b9050613ea18282613e5a565b919050565b600067ffffffffffffffff821115613ec157613ec0613e2b565b5b613eca82613e1a565b9050602081019050919050565b82818337600083830152505050565b6000613ef9613ef484613ea6565b613e8b565b905082815260208101848484011115613f1557613f14613e15565b5b613f20848285613ed7565b509392505050565b600082601f830112613f3d57613f3c613e10565b5b8135613f4d848260208601613ee6565b91505092915050565b60008060408385031215613f6d57613f6c613d32565b5b6000613f7b85828601613d85565b925050602083013567ffffffffffffffff811115613f9c57613f9b613d37565b5b613fa885828601613f28565b9150509250929050565b600081519050919050565b600082825260208201905092915050565b60005b83811015613fec578082015181840152602081019050613fd1565b83811115613ffb576000848401525b50505050565b600061400c82613fb2565b6140168185613fbd565b9350614026818560208601613fce565b61402f81613e1a565b840191505092915050565b60008115159050919050565b61404f8161403a565b82525050565b61405e81613d9a565b82525050565b6000606082019050818103600083015261407e8186614001565b905061408d6020830185614046565b61409a6040830184614055565b949350505050565b600067ffffffffffffffff8211156140bd576140bc613e2b565b5b6140c682613e1a565b9050602081019050919050565b60006140e66140e1846140a2565b613e8b565b90508281526020810184848401111561410257614101613e15565b5b61410d848285613ed7565b509392505050565b600082601f83011261412a57614129613e10565b5b813561413a8482602086016140d3565b91505092915050565b60006020828403121561415957614158613d32565b5b600082013567ffffffffffffffff81111561417757614176613d37565b5b61418384828501614115565b91505092915050565b6000602082840312156141a2576141a1613d32565b5b60006141b084828501613d85565b91505092915050565b60006020820190506141ce6000830184614046565b92915050565b600080604083850312156141eb576141ea613d32565b5b600083013567ffffffffffffffff81111561420957614208613d37565b5b61421585828601614115565b925050602083013567ffffffffffffffff81111561423657614235613d37565b5b61424285828601614115565b9150509250929050565b6000819050919050565b61425f8161424c565b811461426a57600080fd5b50565b60008135905061427c81614256565b92915050565b60008060006060848603121561429b5761429a613d32565b5b60006142a98682870161426d565b935050602084013567ffffffffffffffff8111156142ca576142c9613d37565b5b6142d686828701613f28565b92505060406142e786828701613d85565b9150509250925092565b60006020828403121561430757614306613d32565b5b600082013567ffffffffffffffff81111561432557614324613d37565b5b61433184828501613f28565b91505092915050565b61434381613d5c565b82525050565b600060208201905061435e600083018461433a565b92915050565b6000602082019050818103600083015261437e8184614001565b905092915050565b600081519050919050565b600082825260208201905092915050565b6000819050602082019050919050565b600082825260208201905092915050565b60006143ce82613fb2565b6143d881856143b2565b93506143e8818560208601613fce565b6143f181613e1a565b840191505092915050565b6144058161403a565b82525050565b61441481613d9a565b82525050565b6000606083016000830151848203600086015261443782826143c3565b915050602083015161444c60208601826143fc565b50604083015161445f604086018261440b565b508091505092915050565b6000614476838361441a565b905092915050565b6000602082019050919050565b600061449682614386565b6144a08185614391565b9350836020820285016144b2856143a2565b8060005b858110156144ee57848403895281516144cf858261446a565b94506144da8361447e565b925060208a019950506001810190506144b6565b50829750879550505050505092915050565b6000602082019050818103600083015261451a818461448b565b905092915050565b60008060008060008060008060006101208a8c03121561454557614544613d32565b5b60008a013567ffffffffffffffff81111561456357614562613d37565b5b61456f8c828d01614115565b99505060208a013567ffffffffffffffff8111156145905761458f613d37565b5b61459c8c828d01614115565b98505060408a013567ffffffffffffffff8111156145bd576145bc613d37565b5b6145c98c828d01614115565b97505060608a013567ffffffffffffffff8111156145ea576145e9613d37565b5b6145f68c828d01614115565b96505060808a013567ffffffffffffffff81111561461757614616613d37565b5b6146238c828d01614115565b95505060a08a013567ffffffffffffffff81111561464457614643613d37565b5b6146508c828d01614115565b94505060c08a013567ffffffffffffffff81111561467157614670613d37565b5b61467d8c828d01614115565b93505060e08a013567ffffffffffffffff81111561469e5761469d613d37565b5b6146aa8c828d01614115565b9250506101006146bc8c828d01613dbb565b9150509295985092959850929598565b6000806000806000806000806000806101408b8d0312156146f0576146ef613d32565b5b60006146fe8d828e01613d85565b9a505060208b013567ffffffffffffffff81111561471f5761471e613d37565b5b61472b8d828e01614115565b99505060408b013567ffffffffffffffff81111561474c5761474b613d37565b5b6147588d828e01614115565b98505060608b013567ffffffffffffffff81111561477957614778613d37565b5b6147858d828e01614115565b97505060808b013567ffffffffffffffff8111156147a6576147a5613d37565b5b6147b28d828e01614115565b96505060a08b013567ffffffffffffffff8111156147d3576147d2613d37565b5b6147df8d828e01614115565b95505060c08b013567ffffffffffffffff811115614800576147ff613d37565b5b61480c8d828e01614115565b94505060e08b013567ffffffffffffffff81111561482d5761482c613d37565b5b6148398d828e01614115565b9350506101008b013567ffffffffffffffff81111561485b5761485a613d37565b5b6148678d828e01614115565b9250506101206148798d828e01613dbb565b9150509295989b9194979a5092959850565b600081519050919050565b600082825260208201905092915050565b60006148b28261488b565b6148bc8185614896565b93506148cc818560208601613fce565b6148d581613e1a565b840191505092915050565b60006060820190506148f56000830186614046565b818103602083015261490781856148a7565b9050818103604083015261491b81846148a7565b9050949350505050565b600060208201905061493a6000830184614055565b92915050565b6000604082019050818103600083015261495a81856148a7565b9050818103602083015261496e81846148a7565b90509392505050565b60006020828403121561498d5761498c613d32565b5b600061499b84828501613dbb565b91505092915050565b60006101608201905081810360008301526149bf818e6148a7565b905081810360208301526149d3818d6148a7565b905081810360408301526149e7818c6148a7565b905081810360608301526149fb818b6148a7565b90508181036080830152614a0f818a6148a7565b905081810360a0830152614a2381896148a7565b905081810360c0830152614a3781886148a7565b905081810360e0830152614a4b81876148a7565b9050614a5b610100830186614055565b614a69610120830185614055565b614a77610140830184614046565b9c9b505050505050505050505050565b600081519050919050565b600082825260208201905092915050565b6000819050602082019050919050565b614abc81613d5c565b82525050565b6000614ace8383614ab3565b60208301905092915050565b6000602082019050919050565b6000614af282614a87565b614afc8185614a92565b9350614b0783614aa3565b8060005b83811015614b38578151614b1f8882614ac2565b9750614b2a83614ada565b925050600181019050614b0b565b5085935050505092915050565b60006020820190508181036000830152614b5f8184614ae7565b905092915050565b600060c0820190508181036000830152614b8181896148a7565b90508181036020830152614b9581886148a7565b90508181036040830152614ba981876148a7565b9050614bb86060830186614055565b614bc56080830185614055565b614bd260a0830184614046565b979650505050505050565b7f4f6e6c792061646d696e2063616e20706572666f726d2074686973206163746960008201527f6f6e000000000000000000000000000000000000000000000000000000000000602082015250565b6000614c39602283614896565b9150614c4482614bdd565b604082019050919050565b60006020820190508181036000830152614c6881614c2c565b9050919050565b7f55736572206e6f74207265676973746572656400000000000000000000000000600082015250565b6000614ca5601383614896565b9150614cb082614c6f565b602082019050919050565b60006020820190508181036000830152614cd481614c98565b9050919050565b7f496e76616c6964206b657920696e646578000000000000000000000000000000600082015250565b6000614d11601183614896565b9150614d1c82614cdb565b602082019050919050565b60006020820190508181036000830152614d4081614d04565b9050919050565b7f4e487b7100000000000000000000000000000000000000000000000000000000600052603260045260246000fd5b7f4b657920616c726561647920696e616374697665000000000000000000000000600082015250565b6000614dac601483614896565b9150614db782614d76565b602082019050919050565b60006020820190508181036000830152614ddb81614d9f565b9050919050565b7f43616e6e6f74206465616374697661746520746865206f6e6c79206b65790000600082015250565b6000614e18601e83614896565b9150614e2382614de2565b602082019050919050565b60006020820190508181036000830152614e4781614e0b565b9050919050565b7f4e487b7100000000000000000000000000000000000000000000000000000000600052601160045260246000fd5b6000614e8882613d9a565b91507fffffffffffffffffffffffffffffffffffffffffffffffffffffffffffffffff8203614eba57614eb9614e4e565b5b600182019050919050565b7f5075626c6963206b65792063616e6e6f7420626520656d707479000000000000600082015250565b6000614efb601a83614896565b9150614f0682614ec5565b602082019050919050565b60006020820190508181036000830152614f2a81614eee565b9050919050565b6000614f3c82613d9a565b9150614f4783613d9a565b925082821015614f5a57614f59614e4e565b5b828203905092915050565b60006020820190508181036000830152614f7f81846148a7565b905092915050565b7f4e487b7100000000000000000000000000000000000000000000000000000000600052602260045260246000fd5b60006002820490506001821680614fce57607f821691505b602082108103614fe157614fe0614f87565b5b50919050565b7f4e6f20636572746966696361746520666f756e64000000000000000000000000600082015250565b600061501d601483614896565b915061502882614fe7565b602082019050919050565b6000602082019050818103600083015261504c81615010565b9050919050565b7f436572746966696361746520616c7265616479207265766f6b65640000000000600082015250565b6000615089601b83614896565b915061509482615053565b602082019050919050565b600060208201905081810360008301526150b88161507c565b9050919050565b7f456d61696c2063616e6e6f7420626520656d7074790000000000000000000000600082015250565b60006150f5601583614896565b9150615100826150bf565b602082019050919050565b60006020820190508181036000830152615124816150e8565b9050919050565b7f557365726e616d652063616e6e6f7420626520656d7074790000000000000000600082015250565b6000615161601883614896565b915061516c8261512b565b602082019050919050565b6000602082019050818103600083015261519081615154565b9050919050565b7f5573657220616c72656164792072656769737465726564000000000000000000600082015250565b60006151cd601783614896565b91506151d882615197565b602082019050919050565b600060208201905081810360008301526151fc816151c0565b9050919050565b7f5369676e6572206e6f7420726567697374657265640000000000000000000000600082015250565b6000615239601583614896565b915061524482615203565b602082019050919050565b600060208201905081810360008301526152688161522c565b9050919050565b600081905092915050565b7f19457468657265756d205369676e6564204d6573736167653a0a333200000000600082015250565b60006152b0601c8361526f565b91506152bb8261527a565b601c82019050919050565b6000819050919050565b6152e16152dc8261424c565b6152c6565b82525050565b60006152f2826152a3565b91506152fe82846152d0565b60208201915081905092915050565b7f4e6f207075626c6963206b65797320666f756e64000000000000000000000000600082015250565b6000615343601483614896565b915061534e8261530d565b602082019050919050565b6000602082019050818103600083015261537281615336565b9050919050565b7f4e6f20616374697665207075626c6963206b6579000000000000000000000000600082015250565b60006153af601483614896565b91506153ba82615379565b602082019050919050565b600060208201905081810360008301526153de816153a2565b9050919050565b7f56616c696469747920706572696f64206d75737420626520706f736974697665600082015250565b600061541b602083614896565b9150615426826153e5565b602082019050919050565b6000602082019050818103600083015261544a8161540e565b9050919050565b7f436572746966696361746520616c726561647920657869737473000000000000600082015250565b6000615487601a83614896565b915061549282615451565b602082019050919050565b600060208201905081810360008301526154b68161547a565b9050919050565b60006154c882613d9a565b91506154d383613d9a565b9250817fffffffffffffffffffffffffffffffffffffffffffffffffffffffffffffffff048311821515161561550c5761550b614e4e565b5b828202905092915050565b600061552282613d9a565b915061552d83613d9a565b9250827fffffffffffffffffffffffffffffffffffffffffffffffffffffffffffffffff0382111561556257615561614e4e565b5b828201905092915050565b6000819050919050565b61558861558382613d9a565b61556d565b82525050565b60008160601b9050919050565b60006155a68261558e565b9050919050565b60006155b88261559b565b9050919050565b6155d06155cb82613d5c565b6155ad565b82525050565b60006155e28286615577565b6020820191506155f28285615577565b60208201915061560282846155bf565b601482019150819050949350505050565b600061561f8284615577565b60208201915081905092915050565b7f496e646578206f7574206f6620626f756e647300000000000000000000000000600082015250565b6000615664601383614896565b915061566f8261562e565b602082019050919050565b6000602082019050818103600083015261569381615657565b9050919050565b6156a38161424c565b82525050565b600060ff82169050919050565b6156bf816156a9565b82525050565b60006080820190506156da600083018761569a565b6156e760208301866156b6565b6156f4604083018561569a565b615701606083018461569a565b95945050505050565b7f496e76616c6964207369676e6174757265206c656e6774680000000000000000600082015250565b6000615740601883614896565b915061574b8261570a565b602082019050919050565b6000602082019050818103600083015261576f81615733565b9050919050565b6000615781826156a9565b915061578c836156a9565b92508260ff038211156157a2576157a1614e4e565b5b82820190509291505056fea264697066735822122008dec7a479808ea8744713a589f1de3dac964ab7f7304bdbcb6becaf1429c94364736f6c634300080d0033",
  "immutableReferences": {},
  "source": "// SPDX-License-Identifier: MIT\npragma solidity ^0.8.0;\n\ncontract UserCertificateManager {\n    address public admin;\n    \n    modifier onlyAdmin() {\n        require(msg.sender == admin, \"Only admin can perform this action\");\n        _;\n    }\n    // User Management\n    struct User {\n        bool exists;\n        string username;\n        string email;\n    }\n\n    // Certificate Management\n    struct PublicKey {\n        bytes keyData;\n        bool isActive;\n        uint256 addedAt;\n    }\n\n    struct Certificate {\n        string serialNumber;\n        string country;\n        string state;\n        string locality;\n        string organization;\n        string commonName;\n        string publicKey;\n        string signatureAlgorithm;\n        uint256 validFrom;\n        uint256 validTo;\n        bool isRevoked;\n    }\n\n    // Mappings\n    mapping(address => User) public users;\n    mapping(bytes => address) public publicKeyToAddress;\n    mapping(address => Certificate) public userCertificates;\n    mapping(address => PublicKey[]) public userPublicKeys;\n    mapping(address => uint256) public activeKeyIndex;\n    address[] private registeredUsers;\n\n    // Events\n    event UserRegistered(address indexed user, string email, string username);\n    event PublicKeyUpdated(address indexed user, string keyData);\n    event CertificateIssued(address indexed user, string serialNumber);\n    event PublicKeyAdded(address indexed user, string keyData);\n    event PublicKeyDeactivated(address indexed user, uint256 keyIndex);\n    event CertificateRevoked(address indexed user, string reason);\n\n    // User Registration\n    constructor() {\n        admin = msg.sender;\n    }\n\n    function registerUser(\n        string memory email,\n        string memory username\n    ) public {\n        require(bytes(email).length > 0, \"Email cannot be empty\");\n        require(bytes(username).length > 0, \"Username cannot be empty\");\n        require(!users[msg.sender].exists, \"User already registered\");\n        users[msg.sender] = User({\n            exists: true,\n            username: username,\n            email: email\n        });\n        registeredUsers.push(msg.sender);\n        emit UserRegistered(msg.sender, email, username);\n    }\n\n    // Certificate Management\n    function issueCertificate(\n        string memory _serialNumber,\n        string memory _country,\n        string memory _state,\n        string memory _locality,\n        string memory _organization,\n        string memory _commonName,\n        string memory _publicKey,\n        string memory _signatureAlgorithm,\n        uint256 _validDays\n    ) external {\n        require(users[msg.sender].exists, \"User not registered\");\n        require(bytes(_publicKey).length > 0, \"Public key cannot be empty\");\n        require(_validDays > 0, \"Validity period must be positive\");\n        require(\n            bytes(userCertificates[msg.sender].serialNumber).length == 0,\n            \"Certificate already exists\"\n        );\n\n        uint256 validFrom = block.timestamp;\n        uint256 validTo = validFrom + (_validDays * 1 days);\n\n        userCertificates[msg.sender] = Certificate({\n            serialNumber: _serialNumber,\n            country: _country,\n            state: _state,\n            locality: _locality,\n            organization: _organization,\n            commonName: _commonName,\n            publicKey: _publicKey,\n            signatureAlgorithm: _signatureAlgorithm,\n            validFrom: validFrom,\n            validTo: validTo,\n            isRevoked: false\n        });\n\n        emit CertificateIssued(msg.sender, _serialNumber);\n    }\n\n    // ADMIN: Issue certificate for any user\n    function issueCertificateFor(\n        address user,\n        string memory _serialNumber,\n        string memory _country,\n        string memory _state,\n        string memory _locality,\n        string memory _organization,\n        string memory _commonName,\n        string memory _publicKey,\n        string memory _signatureAlgorithm,\n        uint256 _validDays\n    ) external onlyAdmin {\n        require(users[user].exists, \"User not registered\");\n        require(bytes(_publicKey).length > 0, \"Public key cannot be empty\");\n        require(_validDays > 0, \"Validity period must be positive\");\n        require(\n            bytes(userCertificates[user].serialNumber).length == 0,\n            \"Certificate already exists\"\n        );\n        uint256 validFrom = block.timestamp;\n        uint256 validTo = validFrom + (_validDays * 1 days);\n        userCertificates[user] = Certificate({\n            serialNumber: _serialNumber,\n            country: _country,\n            state: _state,\n            locality: _locality,\n            organization: _organization,\n            commonName: _commonName,\n            publicKey: _publicKey,\n            signatureAlgorithm: _signatureAlgorithm,\n            validFrom: validFrom,\n            validTo: validTo,\n            isRevoked: false\n        });\n        emit CertificateIssued(user, _serialNumber);\n    }\n\n    // Public Key Management\n    function addPublicKey(bytes memory _keyData) public {\n        require(users[msg.sender].exists, \"User not registered\");\n        require(_keyData.length > 0, \"Public key cannot be empty\");\n\n        // Add new public key\n        userPublicKeys[msg.sender].push(\n            PublicKey({\n                keyData: _keyData,\n                isActive: true,\n                addedAt: block.timestamp\n            })\n        );\n\n        // Set the new key as active\n        uint256 newKeyIndex = userPublicKeys[msg.sender].length - 1;\n        activeKeyIndex[msg.sender] = newKeyIndex;\n\n        emit PublicKeyAdded(msg.sender, string(_keyData));\n    }\n\n    // ADMIN: Add public key for any user\n    function addPublicKeyFor(address user, bytes memory _keyData) external onlyAdmin {\n        require(users[user].exists, \"User not registered\");\n        require(_keyData.length > 0, \"Public key cannot be empty\");\n        userPublicKeys[user].push(\n            PublicKey({\n                keyData: _keyData,\n                isActive: true,\n                addedAt: block.timestamp\n            })\n        );\n        uint256 newKeyIndex = userPublicKeys[user].length - 1;\n        activeKeyIndex[user] = newKeyIndex;\n        emit PublicKeyAdded(user, string(_keyData));\n    }\n\n    function deactivatePublicKey(uint256 _keyIndex) external {\n        require(users[msg.sender].exists, \"User not registered\");\n        require(\n            _keyIndex < userPublicKeys[msg.sender].length,\n            \"Invalid key index\"\n        );\n        require(\n            userPublicKeys[msg.sender][_keyIndex].isActive,\n            \"Key already inactive\"\n        );\n        require(\n            userPublicKeys[msg.sender].length > 1,\n            \"Cannot deactivate the only key\"\n        );\n\n        userPublicKeys[msg.sender][_keyIndex].isActive = false;\n\n        if (activeKeyIndex[msg.sender] == _keyIndex) {\n            for (uint256 i = 0; i < userPublicKeys[msg.sender].length; i++) {\n                if (i != _keyIndex && userPublicKeys[msg.sender][i].isActive) {\n                    activeKeyIndex[msg.sender] = i;\n                    break;\n                }\n            }\n        }\n\n        emit PublicKeyDeactivated(msg.sender, _keyIndex);\n    }\n\n    // ADMIN: Deactivate public key for any user\n    function deactivatePublicKeyFor(address user, uint256 _keyIndex) external onlyAdmin {\n        require(users[user].exists, \"User not registered\");\n        require(_keyIndex < userPublicKeys[user].length, \"Invalid key index\");\n        require(userPublicKeys[user][_keyIndex].isActive, \"Key already inactive\");\n        require(userPublicKeys[user].length > 1, \"Cannot deactivate the only key\");\n        userPublicKeys[user][_keyIndex].isActive = false;\n        if (activeKeyIndex[user] == _keyIndex) {\n            for (uint256 i = 0; i < userPublicKeys[user].length; i++) {\n                if (i != _keyIndex && userPublicKeys[user][i].isActive) {\n                    activeKeyIndex[user] = i;\n                    break;\n                }\n            }\n        }\n        emit PublicKeyDeactivated(user, _keyIndex);\n    }\n\n    function revokeCertificate(string memory _reason) external {\n        require(users[msg.sender].exists, \"User not registered\");\n        require(\n            bytes(userCertificates[msg.sender].serialNumber).length != 0,\n            \"No certificate found\"\n        );\n        require(\n            !userCertificates[msg.sender].isRevoked,\n            \"Certificate already revoked\"\n        );\n\n        userCertificates[msg.sender].isRevoked = true;\n\n        // Deactivate all public keys\n        for (uint256 i = 0; i < userPublicKeys[msg.sender].length; i++) {\n            userPublicKeys[msg.sender][i].isActive = false;\n        }\n\n        emit CertificateRevoked(msg.sender, _reason);\n    }\n\n    // View Functions\n    function getActivePublicKey(\n        address _user\n    ) external view returns (bytes memory) {\n        require(users[_user].exists, \"User not registered\");\n        uint256 activeIndex = activeKeyIndex[_user];\n        require(userPublicKeys[_user].length > 0, \"No public keys found\");\n        require(\n            userPublicKeys[_user][activeIndex].isActive,\n            \"No active public key\"\n        );\n\n        return userPublicKeys[_user][activeIndex].keyData;\n    }\n\n    function getUserPublicKeys(\n        address _user\n    ) external view returns (PublicKey[] memory) {\n        require(users[_user].exists, \"User not registered\");\n        return userPublicKeys[_user];\n    } // No change needed here, struct already updated\n\n    function getCertificateInfo(\n        address _user\n    )\n        external\n        view\n        returns (\n            string memory serialNumber,\n            string memory commonName,\n            string memory organization,\n            uint256 validFrom,\n            uint256 validTo,\n            bool isRevoked\n        )\n    {\n        require(users[_user].exists, \"User not registered\");\n        Certificate memory cert = userCertificates[_user];\n        return (\n            cert.serialNumber,\n            cert.commonName,\n            cert.organization,\n            cert.validFrom,\n            cert.validTo,\n            cert.isRevoked\n        );\n    }\n\n    function generateChallenge(\n        address user\n    ) public view returns (bytes memory challenge) {\n        require(users[user].exists, \"User not registered\");\n\n        // Generate random number for challenge\n        uint256 random = uint256(\n            keccak256(abi.encodePacked(block.timestamp, block.difficulty, user))\n        );\n\n        return abi.encodePacked(random);\n    }\n\n    function verifySignature(\n        bytes32 messageHash,\n        bytes memory signature,\n        address signer\n    ) public view returns (bool) {\n        require(users[signer].exists, \"Signer not registered\");\n\n        // This is a simplified version - in production, you'd want to implement proper ECDSA recovery\n        bytes32 ethSignedMessageHash = keccak256(\n            abi.encodePacked(\"\\x19Ethereum Signed Message:\\n32\", messageHash)\n        );\n\n        address recovered = recoverSigner(ethSignedMessageHash, signature);\n        return recovered == signer;\n    }\n\n    function recoverSigner(\n        bytes32 _ethSignedMessageHash,\n        bytes memory _signature\n    ) internal pure returns (address) {\n        (bytes32 r, bytes32 s, uint8 v) = splitSignature(_signature);\n        return ecrecover(_ethSignedMessageHash, v, r, s);\n    }\n\n    function splitSignature(\n        bytes memory sig\n    ) internal pure returns (bytes32 r, bytes32 s, uint8 v) {\n        require(sig.length == 65, \"Invalid signature length\");\n\n        assembly {\n            r := mload(add(sig, 32))\n            s := mload(add(sig, 64))\n            v := byte(0, mload(add(sig, 96)))\n        }\n\n        if (v < 27) v += 27;\n    }\n\n    // Get user details (from UserAuth)\n    function getUserDetails(\n        address user\n    ) public view returns (string memory, string memory) {\n        require(users[user].exists, \"User not registered\");\n        return (users[user].username, users[user].email);\n    }\n\n    // Check if user exists (from UserAuth)\n    function isUserRegistered(address user) public view returns (bool) {\n        return users[user].exists;\n    }\n\n    // Get total number of registered users (from UserAuth)\n    function getUserCount() public view returns (uint) {\n        return registeredUsers.length;\n    }\n\n    // Get user address by index (from UserAuth)\n    function getUserByIndex(uint index) public view returns (address) {\n        require(index < registeredUsers.length, \"Index out of bounds\");\n        return registeredUsers[index];\n    }\n\n    // Get all registered users (from UserAuth)\n    function getAllUsers() public view returns (address[] memory) {\n        return registeredUsers;\n    }\n\n    // Verify solution (from UserAuth)\n    function verifySolution(\n        address user,\n        bytes memory solution\n    ) public view returns (bool) {\n        require(users[user].exists, \"User not registered\");\n        bytes memory challenge = generateChallenge(user);\n        return keccak256(solution) == keccak256(challenge);\n    }\n}\n",
  "sourcePath": "D:\\Praveen\\Personal\\projects\\trustkey\\truffle-pkibckckn\\contracts\\UserCertificateManager.sol",
  "compiler": {
    "name": "solc",
    "version": "0.8.13+commit.abaa5c0e.Emscripten.clang"
  },
  "schemaVersion": "3.4.16",
  "updatedAt": "2025-06-30T05:12:47.558Z",
  "networkType": "ethereum",
  "devdoc": {
    "kind": "dev",
    "methods": {},
    "version": 1
  },
  "userdoc": {
    "kind": "user",
    "methods": {},
    "version": 1
  }
}