{
  "contractName": "UserAuthV2",
  "abi": [
    {
      "inputs": [],
      "stateMutability": "nonpayable",
      "type": "constructor"
    },
    {
      "anonymous": false,
      "inputs": [
        {
          "indexed": true,
          "internalType": "address",
          "name": "userAddress",
          "type": "address"
        },
        {
          "indexed": false,
          "internalType": "bool",
          "name": "isAdmin",
          "type": "bool"
        }
      ],
      "name": "AdminStatusChanged",
      "type": "event"
    },
    {
      "anonymous": false,
      "inputs": [
        {
          "indexed": true,
          "internalType": "address",
          "name": "userAddress",
          "type": "address"
        },
        {
          "indexed": false,
          "internalType": "uint256",
          "name": "serialNumber",
          "type": "uint256"
        }
      ],
      "name": "CertificateUpdated",
      "type": "event"
    },
    {
      "anonymous": false,
      "inputs": [
        {
          "indexed": true,
          "internalType": "address",
          "name": "userAddress",
          "type": "address"
        },
        {
          "indexed": false,
          "internalType": "uint256",
          "name": "keyIndex",
          "type": "uint256"
        },
        {
          "indexed": false,
          "internalType": "string",
          "name": "key",
          "type": "string"
        }
      ],
      "name": "PublicKeyAdded",
      "type": "event"
    },
    {
      "anonymous": false,
      "inputs": [
        {
          "indexed": true,
          "internalType": "address",
          "name": "userAddress",
          "type": "address"
        },
        {
          "indexed": false,
          "internalType": "uint256",
          "name": "keyIndex",
          "type": "uint256"
        }
      ],
      "name": "PublicKeyDeactivated",
      "type": "event"
    },
    {
      "anonymous": false,
      "inputs": [
        {
          "indexed": true,
          "internalType": "address",
          "name": "userAddress",
          "type": "address"
        },
        {
          "indexed": false,
          "internalType": "string",
          "name": "username",
          "type": "string"
        }
      ],
      "name": "UserRegistered",
      "type": "event"
    },
    {
      "inputs": [],
      "name": "owner",
      "outputs": [
        {
          "internalType": "address",
          "name": "",
          "type": "address"
        }
      ],
      "stateMutability": "view",
      "type": "function",
      "constant": true
    },
    {
      "inputs": [
        {
          "internalType": "string",
          "name": "",
          "type": "string"
        }
      ],
      "name": "usernameToAddress",
      "outputs": [
        {
          "internalType": "address",
          "name": "",
          "type": "address"
        }
      ],
      "stateMutability": "view",
      "type": "function",
      "constant": true
    },
    {
      "inputs": [
        {
          "internalType": "address",
          "name": "",
          "type": "address"
        }
      ],
      "name": "users",
      "outputs": [
        {
          "internalType": "address",
          "name": "userAddress",
          "type": "address"
        },
        {
          "internalType": "string",
          "name": "username",
          "type": "string"
        },
        {
          "internalType": "bool",
          "name": "isRegistered",
          "type": "bool"
        },
        {
          "internalType": "bool",
          "name": "isAdmin",
          "type": "bool"
        },
        {
          "components": [
            {
              "internalType": "string",
              "name": "country",
              "type": "string"
            },
            {
              "internalType": "string",
              "name": "state",
              "type": "string"
            },
            {
              "internalType": "string",
              "name": "locality",
              "type": "string"
            },
            {
              "internalType": "string",
              "name": "organization",
              "type": "string"
            },
            {
              "internalType": "string",
              "name": "commonName",
              "type": "string"
            },
            {
              "internalType": "uint256",
              "name": "serialNumber",
              "type": "uint256"
            },
            {
              "internalType": "uint256",
              "name": "validFrom",
              "type": "uint256"
            },
            {
              "internalType": "uint256",
              "name": "validTo",
              "type": "uint256"
            }
          ],
          "internalType": "struct UserAuthV2.Certificate",
          "name": "certificate",
          "type": "tuple"
        }
      ],
      "stateMutability": "view",
      "type": "function",
      "constant": true
    },
    {
      "inputs": [
        {
          "internalType": "string",
          "name": "_username",
          "type": "string"
        },
        {
          "internalType": "string",
          "name": "_initialPublicKey",
          "type": "string"
        }
      ],
      "name": "registerUser",
      "outputs": [],
      "stateMutability": "nonpayable",
      "type": "function"
    },
    {
      "inputs": [
        {
          "internalType": "string",
          "name": "_newPublicKey",
          "type": "string"
        }
      ],
      "name": "addPublicKey",
      "outputs": [],
      "stateMutability": "nonpayable",
      "type": "function"
    },
    {
      "inputs": [
        {
          "internalType": "uint256",
          "name": "_keyIndex",
          "type": "uint256"
        }
      ],
      "name": "deactivatePublicKey",
      "outputs": [],
      "stateMutability": "nonpayable",
      "type": "function"
    },
    {
      "inputs": [
        {
          "internalType": "string",
          "name": "_country",
          "type": "string"
        },
        {
          "internalType": "string",
          "name": "_state",
          "type": "string"
        },
        {
          "internalType": "string",
          "name": "_locality",
          "type": "string"
        },
        {
          "internalType": "string",
          "name": "_organization",
          "type": "string"
        },
        {
          "internalType": "string",
          "name": "_commonName",
          "type": "string"
        }
      ],
      "name": "createOrUpdateCertificate",
      "outputs": [],
      "stateMutability": "nonpayable",
      "type": "function"
    },
    {
      "inputs": [],
      "name": "getUserData",
      "outputs": [
        {
          "components": [
            {
              "internalType": "address",
              "name": "userAddress",
              "type": "address"
            },
            {
              "internalType": "string",
              "name": "username",
              "type": "string"
            },
            {
              "internalType": "bool",
              "name": "isRegistered",
              "type": "bool"
            },
            {
              "internalType": "bool",
              "name": "isAdmin",
              "type": "bool"
            },
            {
              "components": [
                {
                  "internalType": "string",
                  "name": "key",
                  "type": "string"
                },
                {
                  "internalType": "bool",
                  "name": "isActive",
                  "type": "bool"
                }
              ],
              "internalType": "struct UserAuthV2.PublicKey[]",
              "name": "publicKeys",
              "type": "tuple[]"
            },
            {
              "components": [
                {
                  "internalType": "string",
                  "name": "country",
                  "type": "string"
                },
                {
                  "internalType": "string",
                  "name": "state",
                  "type": "string"
                },
                {
                  "internalType": "string",
                  "name": "locality",
                  "type": "string"
                },
                {
                  "internalType": "string",
                  "name": "organization",
                  "type": "string"
                },
                {
                  "internalType": "string",
                  "name": "commonName",
                  "type": "string"
                },
                {
                  "internalType": "uint256",
                  "name": "serialNumber",
                  "type": "uint256"
                },
                {
                  "internalType": "uint256",
                  "name": "validFrom",
                  "type": "uint256"
                },
                {
                  "internalType": "uint256",
                  "name": "validTo",
                  "type": "uint256"
                }
              ],
              "internalType": "struct UserAuthV2.Certificate",
              "name": "certificate",
              "type": "tuple"
            }
          ],
          "internalType": "struct UserAuthV2.User",
          "name": "",
          "type": "tuple"
        }
      ],
      "stateMutability": "view",
      "type": "function",
      "constant": true
    },
    {
      "inputs": [
        {
          "internalType": "address",
          "name": "_userAddress",
          "type": "address"
        }
      ],
      "name": "getPublicKeys",
      "outputs": [
        {
          "components": [
            {
              "internalType": "string",
              "name": "key",
              "type": "string"
            },
            {
              "internalType": "bool",
              "name": "isActive",
              "type": "bool"
            }
          ],
          "internalType": "struct UserAuthV2.PublicKey[]",
          "name": "",
          "type": "tuple[]"
        }
      ],
      "stateMutability": "view",
      "type": "function",
      "constant": true
    },
    {
      "inputs": [
        {
          "internalType": "address",
          "name": "_userAddress",
          "type": "address"
        }
      ],
      "name": "getCertificate",
      "outputs": [
        {
          "components": [
            {
              "internalType": "string",
              "name": "country",
              "type": "string"
            },
            {
              "internalType": "string",
              "name": "state",
              "type": "string"
            },
            {
              "internalType": "string",
              "name": "locality",
              "type": "string"
            },
            {
              "internalType": "string",
              "name": "organization",
              "type": "string"
            },
            {
              "internalType": "string",
              "name": "commonName",
              "type": "string"
            },
            {
              "internalType": "uint256",
              "name": "serialNumber",
              "type": "uint256"
            },
            {
              "internalType": "uint256",
              "name": "validFrom",
              "type": "uint256"
            },
            {
              "internalType": "uint256",
              "name": "validTo",
              "type": "uint256"
            }
          ],
          "internalType": "struct UserAuthV2.Certificate",
          "name": "",
          "type": "tuple"
        }
      ],
      "stateMutability": "view",
      "type": "function",
      "constant": true
    },
    {
      "inputs": [
        {
          "internalType": "address",
          "name": "_userAddress",
          "type": "address"
        },
        {
          "internalType": "bool",
          "name": "_isAdmin",
          "type": "bool"
        }
      ],
      "name": "setAdmin",
      "outputs": [],
      "stateMutability": "nonpayable",
      "type": "function"
    }
  ],
  "bytecode": "0x608060405234801561001057600080fd5b5033600360006101000a81548173ffffffffffffffffffffffffffffffffffffffff021916908373ffffffffffffffffffffffffffffffffffffffff1602179055506139d7806100616000396000f3fe608060405234801561001057600080fd5b50600436106100a95760003560e01c80638da5cb5b116100715780638da5cb5b14610150578063a87430ba1461016e578063cdd4139b146101a2578063ce09197e146101be578063f825f143146101da578063fd531e931461020a576100a9565b80631d2e4afd146100ae57806322e8c87d146100ca5780634b0bddd2146100e85780635fcbb7d6146101045780636d5e55ae14610134575b600080fd5b6100c860048036038101906100c391906126a2565b61023a565b005b6100d261070a565b6040516100df9190612a93565b60405180910390f35b61010260048036038101906100fd9190612b0d565b610d25565b005b61011e60048036038101906101199190612b4d565b610eee565b60405161012b9190612c00565b60405180910390f35b61014e60048036038101906101499190612c22565b6110c9565b005b610158611509565b6040516101659190612d4e565b60405180910390f35b61018860048036038101906101839190612b4d565b61152f565b604051610199959493929190612e8e565b60405180910390f35b6101bc60048036038101906101b79190612f1b565b61192a565b005b6101d860048036038101906101d39190612f48565b611ceb565b005b6101f460048036038101906101ef91906130c5565b61203a565b6040516102019190612d4e565b60405180910390f35b610224600480360381019061021f9190612b4d565b612083565b604051610231919061310e565b60405180910390f35b6000803373ffffffffffffffffffffffffffffffffffffffff1673ffffffffffffffffffffffffffffffffffffffff16815260200190815260200160002060020160009054906101000a900460ff16156102c9576040517f08c379a00000000000000000000000000000000000000000000000000000000081526004016102c09061317c565b60405180910390fd5b600073ffffffffffffffffffffffffffffffffffffffff16600185856040516102f39291906131cc565b908152602001604051809103902060009054906101000a900473ffffffffffffffffffffffffffffffffffffffff1673ffffffffffffffffffffffffffffffffffffffff1614610378576040517f08c379a000000000000000000000000000000000000000000000000000000000815260040161036f90613231565b60405180910390fd5b336000803373ffffffffffffffffffffffffffffffffffffffff1673ffffffffffffffffffffffffffffffffffffffff16815260200190815260200160002060000160006101000a81548173ffffffffffffffffffffffffffffffffffffffff021916908373ffffffffffffffffffffffffffffffffffffffff16021790555083836000803373ffffffffffffffffffffffffffffffffffffffff1673ffffffffffffffffffffffffffffffffffffffff1681526020019081526020016000206001019190610448929190612465565b5060016000803373ffffffffffffffffffffffffffffffffffffffff1673ffffffffffffffffffffffffffffffffffffffff16815260200190815260200160002060020160006101000a81548160ff02191690831515021790555060008060003373ffffffffffffffffffffffffffffffffffffffff1673ffffffffffffffffffffffffffffffffffffffff16815260200190815260200160002060020160016101000a81548160ff0219169083151502179055506000803373ffffffffffffffffffffffffffffffffffffffff1673ffffffffffffffffffffffffffffffffffffffff168152602001908152602001600020600301604051806040016040528084848080601f016020809104026020016040519081016040528093929190818152602001838380828437600081840152601f19601f82011690508083019250505050505050815260200160011515815250908060018154018082558091505060019003906000526020600020906002020160009091909190915060008201518160000190805190602001906105df9291906124eb565b5060208201518160010160006101000a81548160ff021916908315150217905550505033600185856040516106159291906131cc565b908152602001604051809103902060006101000a81548173ffffffffffffffffffffffffffffffffffffffff021916908373ffffffffffffffffffffffffffffffffffffffff1602179055503373ffffffffffffffffffffffffffffffffffffffff167f48cac28ad4dc618e15f4c2dd5e97751182f166de97b25618318b2112aa951a2f85856040516106a992919061327e565b60405180910390a23373ffffffffffffffffffffffffffffffffffffffff167f1db90ef6649a624a0a2c7feab665a5fbcd06f216d24366b62c9a738ea33c4dbd600084846040516106fc939291906132e7565b60405180910390a250505050565b610712612571565b6000803373ffffffffffffffffffffffffffffffffffffffff1673ffffffffffffffffffffffffffffffffffffffff16815260200190815260200160002060020160009054906101000a900460ff166107a0576040517f08c379a000000000000000000000000000000000000000000000000000000000815260040161079790613365565b60405180910390fd5b6000803373ffffffffffffffffffffffffffffffffffffffff1673ffffffffffffffffffffffffffffffffffffffff1681526020019081526020016000206040518060c00160405290816000820160009054906101000a900473ffffffffffffffffffffffffffffffffffffffff1673ffffffffffffffffffffffffffffffffffffffff1673ffffffffffffffffffffffffffffffffffffffff16815260200160018201805461084f906133b4565b80601f016020809104026020016040519081016040528092919081815260200182805461087b906133b4565b80156108c85780601f1061089d576101008083540402835291602001916108c8565b820191906000526020600020905b8154815290600101906020018083116108ab57829003601f168201915b505050505081526020016002820160009054906101000a900460ff161515151581526020016002820160019054906101000a900460ff1615151515815260200160038201805480602002602001604051908101604052809291908181526020016000905b82821015610a0b578382906000526020600020906002020160405180604001604052908160008201805461095f906133b4565b80601f016020809104026020016040519081016040528092919081815260200182805461098b906133b4565b80156109d85780601f106109ad576101008083540402835291602001916109d8565b820191906000526020600020905b8154815290600101906020018083116109bb57829003601f168201915b505050505081526020016001820160009054906101000a900460ff1615151515815250508152602001906001019061092c565b5050505081526020016004820160405180610100016040529081600082018054610a34906133b4565b80601f0160208091040260200160405190810160405280929190818152602001828054610a60906133b4565b8015610aad5780601f10610a8257610100808354040283529160200191610aad565b820191906000526020600020905b815481529060010190602001808311610a9057829003601f168201915b50505050508152602001600182018054610ac6906133b4565b80601f0160208091040260200160405190810160405280929190818152602001828054610af2906133b4565b8015610b3f5780601f10610b1457610100808354040283529160200191610b3f565b820191906000526020600020905b815481529060010190602001808311610b2257829003601f168201915b50505050508152602001600282018054610b58906133b4565b80601f0160208091040260200160405190810160405280929190818152602001828054610b84906133b4565b8015610bd15780601f10610ba657610100808354040283529160200191610bd1565b820191906000526020600020905b815481529060010190602001808311610bb457829003601f168201915b50505050508152602001600382018054610bea906133b4565b80601f0160208091040260200160405190810160405280929190818152602001828054610c16906133b4565b8015610c635780601f10610c3857610100808354040283529160200191610c63565b820191906000526020600020905b815481529060010190602001808311610c4657829003601f168201915b50505050508152602001600482018054610c7c906133b4565b80601f0160208091040260200160405190810160405280929190818152602001828054610ca8906133b4565b8015610cf55780601f10610cca57610100808354040283529160200191610cf5565b820191906000526020600020905b815481529060010190602001808311610cd857829003601f168201915b50505050508152602001600582015481526020016006820154815260200160078201548152505081525050905090565b600360009054906101000a900473ffffffffffffffffffffffffffffffffffffffff1673ffffffffffffffffffffffffffffffffffffffff163373ffffffffffffffffffffffffffffffffffffffff1614610db5576040517f08c379a0000000000000000000000000000000000000000000000000000000008152600401610dac90613457565b60405180910390fd5b6000808373ffffffffffffffffffffffffffffffffffffffff1673ffffffffffffffffffffffffffffffffffffffff16815260200190815260200160002060020160009054906101000a900460ff16610e43576040517f08c379a0000000000000000000000000000000000000000000000000000000008152600401610e3a90613365565b60405180910390fd5b806000808473ffffffffffffffffffffffffffffffffffffffff1673ffffffffffffffffffffffffffffffffffffffff16815260200190815260200160002060020160016101000a81548160ff0219169083151502179055508173ffffffffffffffffffffffffffffffffffffffff167fc63c72d6995119c079ef24c02679d49838905c8e81df9e632011b914e6f592f682604051610ee29190613477565b60405180910390a25050565b60606000808373ffffffffffffffffffffffffffffffffffffffff1673ffffffffffffffffffffffffffffffffffffffff16815260200190815260200160002060020160009054906101000a900460ff16610f7e576040517f08c379a0000000000000000000000000000000000000000000000000000000008152600401610f7590613365565b60405180910390fd5b6000808373ffffffffffffffffffffffffffffffffffffffff1673ffffffffffffffffffffffffffffffffffffffff168152602001908152602001600020600301805480602002602001604051908101604052809291908181526020016000905b828210156110be5783829060005260206000209060020201604051806040016040529081600082018054611012906133b4565b80601f016020809104026020016040519081016040528092919081815260200182805461103e906133b4565b801561108b5780601f106110605761010080835404028352916020019161108b565b820191906000526020600020905b81548152906001019060200180831161106e57829003601f168201915b505050505081526020016001820160009054906101000a900460ff16151515158152505081526020019060010190610fdf565b505050509050919050565b6000803373ffffffffffffffffffffffffffffffffffffffff1673ffffffffffffffffffffffffffffffffffffffff16815260200190815260200160002060020160009054906101000a900460ff16611157576040517f08c379a000000000000000000000000000000000000000000000000000000000815260040161114e90613365565b60405180910390fd5b60004233848460405160200161117094939291906134fb565b6040516020818303038152906040528051906020012060001c9050600260008260001b815260200190815260200160002060009054906101000a900460ff16156111ef576040517f08c379a00000000000000000000000000000000000000000000000000000000081526004016111e6906135a8565b60405180910390fd5b6040518061010001604052808c8c8080601f016020809104026020016040519081016040528093929190818152602001838380828437600081840152601f19601f8201169050808301925050505050505081526020018a8a8080601f016020809104026020016040519081016040528093929190818152602001838380828437600081840152601f19601f82011690508083019250505050505050815260200188888080601f016020809104026020016040519081016040528093929190818152602001838380828437600081840152601f19601f82011690508083019250505050505050815260200186868080601f016020809104026020016040519081016040528093929190818152602001838380828437600081840152601f19601f82011690508083019250505050505050815260200184848080601f016020809104026020016040519081016040528093929190818152602001838380828437600081840152601f19601f8201169050808301925050505050505081526020018281526020014281526020016301e133804261138991906135f7565b8152506000803373ffffffffffffffffffffffffffffffffffffffff1673ffffffffffffffffffffffffffffffffffffffff16815260200190815260200160002060040160008201518160000190805190602001906113e99291906124eb565b5060208201518160010190805190602001906114069291906124eb565b5060408201518160020190805190602001906114239291906124eb565b5060608201518160030190805190602001906114409291906124eb565b50608082015181600401908051906020019061145d9291906124eb565b5060a0820151816005015560c0820151816006015560e082015181600701559050506001600260008360001b815260200190815260200160002060006101000a81548160ff0219169083151502179055503373ffffffffffffffffffffffffffffffffffffffff167fc1bf962f0ab824f01c2d4c0ad97036405bf28d884a92f8e09e2565a47fd34c98826040516114f4919061365c565b60405180910390a25050505050505050505050565b600360009054906101000a900473ffffffffffffffffffffffffffffffffffffffff1681565b60006020528060005260406000206000915090508060000160009054906101000a900473ffffffffffffffffffffffffffffffffffffffff1690806001018054611578906133b4565b80601f01602080910402602001604051908101604052809291908181526020018280546115a4906133b4565b80156115f15780601f106115c6576101008083540402835291602001916115f1565b820191906000526020600020905b8154815290600101906020018083116115d457829003601f168201915b5050505050908060020160009054906101000a900460ff16908060020160019054906101000a900460ff1690806004016040518061010001604052908160008201805461163d906133b4565b80601f0160208091040260200160405190810160405280929190818152602001828054611669906133b4565b80156116b65780601f1061168b576101008083540402835291602001916116b6565b820191906000526020600020905b81548152906001019060200180831161169957829003601f168201915b505050505081526020016001820180546116cf906133b4565b80601f01602080910402602001604051908101604052809291908181526020018280546116fb906133b4565b80156117485780601f1061171d57610100808354040283529160200191611748565b820191906000526020600020905b81548152906001019060200180831161172b57829003601f168201915b50505050508152602001600282018054611761906133b4565b80601f016020809104026020016040519081016040528092919081815260200182805461178d906133b4565b80156117da5780601f106117af576101008083540402835291602001916117da565b820191906000526020600020905b8154815290600101906020018083116117bd57829003601f168201915b505050505081526020016003820180546117f3906133b4565b80601f016020809104026020016040519081016040528092919081815260200182805461181f906133b4565b801561186c5780601f106118415761010080835404028352916020019161186c565b820191906000526020600020905b81548152906001019060200180831161184f57829003601f168201915b50505050508152602001600482018054611885906133b4565b80601f01602080910402602001604051908101604052809291908181526020018280546118b1906133b4565b80156118fe5780601f106118d3576101008083540402835291602001916118fe565b820191906000526020600020905b8154815290600101906020018083116118e157829003601f168201915b505050505081526020016005820154815260200160068201548152602001600782015481525050905085565b6000803373ffffffffffffffffffffffffffffffffffffffff1673ffffffffffffffffffffffffffffffffffffffff16815260200190815260200160002060020160009054906101000a900460ff166119b8576040517f08c379a00000000000000000000000000000000000000000000000000000000081526004016119af90613365565b60405180910390fd5b6000803373ffffffffffffffffffffffffffffffffffffffff1673ffffffffffffffffffffffffffffffffffffffff168152602001908152602001600020600301805490508110611a3e576040517f08c379a0000000000000000000000000000000000000000000000000000000008152600401611a35906136c3565b60405180910390fd5b6000803373ffffffffffffffffffffffffffffffffffffffff1673ffffffffffffffffffffffffffffffffffffffff1681526020019081526020016000206003018181548110611a9157611a906136e3565b5b906000526020600020906002020160010160009054906101000a900460ff16611aef576040517f08c379a0000000000000000000000000000000000000000000000000000000008152600401611ae69061375e565b60405180910390fd5b6000805b6000803373ffffffffffffffffffffffffffffffffffffffff1673ffffffffffffffffffffffffffffffffffffffff16815260200190815260200160002060030180549050811015611bd8576000803373ffffffffffffffffffffffffffffffffffffffff1673ffffffffffffffffffffffffffffffffffffffff1681526020019081526020016000206003018181548110611b9257611b916136e3565b5b906000526020600020906002020160010160009054906101000a900460ff1615611bc5578180611bc19061377e565b9250505b8080611bd09061377e565b915050611af3565b5060018111611c1c576040517f08c379a0000000000000000000000000000000000000000000000000000000008152600401611c1390613838565b60405180910390fd5b60008060003373ffffffffffffffffffffffffffffffffffffffff1673ffffffffffffffffffffffffffffffffffffffff1681526020019081526020016000206003018381548110611c7157611c706136e3565b5b906000526020600020906002020160010160006101000a81548160ff0219169083151502179055503373ffffffffffffffffffffffffffffffffffffffff167f6a0d45f87f64b1fea67d665c12179ba198d35a60fd48a200f61c493ae06b859183604051611cdf919061365c565b60405180910390a25050565b6000803373ffffffffffffffffffffffffffffffffffffffff1673ffffffffffffffffffffffffffffffffffffffff16815260200190815260200160002060020160009054906101000a900460ff16611d79576040517f08c379a0000000000000000000000000000000000000000000000000000000008152600401611d7090613365565b60405180910390fd5b60008060003373ffffffffffffffffffffffffffffffffffffffff1673ffffffffffffffffffffffffffffffffffffffff168152602001908152602001600020600301905060005b8180549050811015611e93578383604051602001611de09291906131cc565b60405160208183030381529060405280519060200120828281548110611e0957611e086136e3565b5b9060005260206000209060020201600001604051602001611e2a91906138ec565b6040516020818303038152906040528051906020012003611e80576040517f08c379a0000000000000000000000000000000000000000000000000000000008152600401611e779061394f565b60405180910390fd5b8080611e8b9061377e565b915050611dc1565b5060008060003373ffffffffffffffffffffffffffffffffffffffff1673ffffffffffffffffffffffffffffffffffffffff1681526020019081526020016000206003018054905090506000803373ffffffffffffffffffffffffffffffffffffffff1673ffffffffffffffffffffffffffffffffffffffff168152602001908152602001600020600301604051806040016040528086868080601f016020809104026020016040519081016040528093929190818152602001838380828437600081840152601f19601f8201169050808301925050505050505081526020016001151581525090806001815401808255809150506001900390600052602060002090600202016000909190919091506000820151816000019080519060200190611fbf9291906124eb565b5060208201518160010160006101000a81548160ff02191690831515021790555050503373ffffffffffffffffffffffffffffffffffffffff167f1db90ef6649a624a0a2c7feab665a5fbcd06f216d24366b62c9a738ea33c4dbd82868660405161202c9392919061396f565b60405180910390a250505050565b6001818051602081018201805184825260208301602085012081835280955050505050506000915054906101000a900473ffffffffffffffffffffffffffffffffffffffff1681565b61208b6125c7565b6000808373ffffffffffffffffffffffffffffffffffffffff1673ffffffffffffffffffffffffffffffffffffffff16815260200190815260200160002060020160009054906101000a900460ff16612119576040517f08c379a000000000000000000000000000000000000000000000000000000000815260040161211090613365565b60405180910390fd5b6000808373ffffffffffffffffffffffffffffffffffffffff1673ffffffffffffffffffffffffffffffffffffffff16815260200190815260200160002060040160405180610100016040529081600082018054612176906133b4565b80601f01602080910402602001604051908101604052809291908181526020018280546121a2906133b4565b80156121ef5780601f106121c4576101008083540402835291602001916121ef565b820191906000526020600020905b8154815290600101906020018083116121d257829003601f168201915b50505050508152602001600182018054612208906133b4565b80601f0160208091040260200160405190810160405280929190818152602001828054612234906133b4565b80156122815780601f1061225657610100808354040283529160200191612281565b820191906000526020600020905b81548152906001019060200180831161226457829003601f168201915b5050505050815260200160028201805461229a906133b4565b80601f01602080910402602001604051908101604052809291908181526020018280546122c6906133b4565b80156123135780601f106122e857610100808354040283529160200191612313565b820191906000526020600020905b8154815290600101906020018083116122f657829003601f168201915b5050505050815260200160038201805461232c906133b4565b80601f0160208091040260200160405190810160405280929190818152602001828054612358906133b4565b80156123a55780601f1061237a576101008083540402835291602001916123a5565b820191906000526020600020905b81548152906001019060200180831161238857829003601f168201915b505050505081526020016004820180546123be906133b4565b80601f01602080910402602001604051908101604052809291908181526020018280546123ea906133b4565b80156124375780601f1061240c57610100808354040283529160200191612437565b820191906000526020600020905b81548152906001019060200180831161241a57829003601f168201915b5050505050815260200160058201548152602001600682015481526020016007820154815250509050919050565b828054612471906133b4565b90600052602060002090601f01602090048101928261249357600085556124da565b82601f106124ac57803560ff19168380011785556124da565b828001600101855582156124da579182015b828111156124d95782358255916020019190600101906124be565b5b5090506124e7919061260c565b5090565b8280546124f7906133b4565b90600052602060002090601f0160209004810192826125195760008555612560565b82601f1061253257805160ff1916838001178555612560565b82800160010185558215612560579182015b8281111561255f578251825591602001919060010190612544565b5b50905061256d919061260c565b5090565b6040518060c00160405280600073ffffffffffffffffffffffffffffffffffffffff16815260200160608152602001600015158152602001600015158152602001606081526020016125c16125c7565b81525090565b60405180610100016040528060608152602001606081526020016060815260200160608152602001606081526020016000815260200160008152602001600081525090565b5b8082111561262557600081600090555060010161260d565b5090565b6000604051905090565b600080fd5b600080fd5b600080fd5b600080fd5b600080fd5b60008083601f8401126126625761266161263d565b5b8235905067ffffffffffffffff81111561267f5761267e612642565b5b60208301915083600182028301111561269b5761269a612647565b5b9250929050565b600080600080604085870312156126bc576126bb612633565b5b600085013567ffffffffffffffff8111156126da576126d9612638565b5b6126e68782880161264c565b9450945050602085013567ffffffffffffffff81111561270957612708612638565b5b6127158782880161264c565b925092505092959194509250565b600073ffffffffffffffffffffffffffffffffffffffff82169050919050565b600061274e82612723565b9050919050565b61275e81612743565b82525050565b600081519050919050565b600082825260208201905092915050565b60005b8381101561279e578082015181840152602081019050612783565b838111156127ad576000848401525b50505050565b6000601f19601f8301169050919050565b60006127cf82612764565b6127d9818561276f565b93506127e9818560208601612780565b6127f2816127b3565b840191505092915050565b60008115159050919050565b612812816127fd565b82525050565b600081519050919050565b600082825260208201905092915050565b6000819050602082019050919050565b6000604083016000830151848203600086015261286182826127c4565b91505060208301516128766020860182612809565b508091505092915050565b600061288d8383612844565b905092915050565b6000602082019050919050565b60006128ad82612818565b6128b78185612823565b9350836020820285016128c985612834565b8060005b8581101561290557848403895281516128e68582612881565b94506128f183612895565b925060208a019950506001810190506128cd565b50829750879550505050505092915050565b6000819050919050565b61292a81612917565b82525050565b600061010083016000830151848203600086015261294e82826127c4565b9150506020830151848203602086015261296882826127c4565b9150506040830151848203604086015261298282826127c4565b9150506060830151848203606086015261299c82826127c4565b915050608083015184820360808601526129b682826127c4565b91505060a08301516129cb60a0860182612921565b5060c08301516129de60c0860182612921565b5060e08301516129f160e0860182612921565b508091505092915050565b600060c083016000830151612a146000860182612755565b5060208301518482036020860152612a2c82826127c4565b9150506040830151612a416040860182612809565b506060830151612a546060860182612809565b5060808301518482036080860152612a6c82826128a2565b91505060a083015184820360a0860152612a868282612930565b9150508091505092915050565b60006020820190508181036000830152612aad81846129fc565b905092915050565b612abe81612743565b8114612ac957600080fd5b50565b600081359050612adb81612ab5565b92915050565b612aea816127fd565b8114612af557600080fd5b50565b600081359050612b0781612ae1565b92915050565b60008060408385031215612b2457612b23612633565b5b6000612b3285828601612acc565b9250506020612b4385828601612af8565b9150509250929050565b600060208284031215612b6357612b62612633565b5b6000612b7184828501612acc565b91505092915050565b600082825260208201905092915050565b6000612b9682612818565b612ba08185612b7a565b935083602082028501612bb285612834565b8060005b85811015612bee5784840389528151612bcf8582612881565b9450612bda83612895565b925060208a01995050600181019050612bb6565b50829750879550505050505092915050565b60006020820190508181036000830152612c1a8184612b8b565b905092915050565b60008060008060008060008060008060a08b8d031215612c4557612c44612633565b5b60008b013567ffffffffffffffff811115612c6357612c62612638565b5b612c6f8d828e0161264c565b9a509a505060208b013567ffffffffffffffff811115612c9257612c91612638565b5b612c9e8d828e0161264c565b985098505060408b013567ffffffffffffffff811115612cc157612cc0612638565b5b612ccd8d828e0161264c565b965096505060608b013567ffffffffffffffff811115612cf057612cef612638565b5b612cfc8d828e0161264c565b945094505060808b013567ffffffffffffffff811115612d1f57612d1e612638565b5b612d2b8d828e0161264c565b92509250509295989b9194979a5092959850565b612d4881612743565b82525050565b6000602082019050612d636000830184612d3f565b92915050565b600082825260208201905092915050565b6000612d8582612764565b612d8f8185612d69565b9350612d9f818560208601612780565b612da8816127b3565b840191505092915050565b612dbc816127fd565b82525050565b6000610100830160008301518482036000860152612de082826127c4565b91505060208301518482036020860152612dfa82826127c4565b91505060408301518482036040860152612e1482826127c4565b91505060608301518482036060860152612e2e82826127c4565b91505060808301518482036080860152612e4882826127c4565b91505060a0830151612e5d60a0860182612921565b5060c0830151612e7060c0860182612921565b5060e0830151612e8360e0860182612921565b508091505092915050565b600060a082019050612ea36000830188612d3f565b8181036020830152612eb58187612d7a565b9050612ec46040830186612db3565b612ed16060830185612db3565b8181036080830152612ee38184612dc2565b90509695505050505050565b612ef881612917565b8114612f0357600080fd5b50565b600081359050612f1581612eef565b92915050565b600060208284031215612f3157612f30612633565b5b6000612f3f84828501612f06565b91505092915050565b60008060208385031215612f5f57612f5e612633565b5b600083013567ffffffffffffffff811115612f7d57612f7c612638565b5b612f898582860161264c565b92509250509250929050565b600080fd5b7f4e487b7100000000000000000000000000000000000000000000000000000000600052604160045260246000fd5b612fd2826127b3565b810181811067ffffffffffffffff82111715612ff157612ff0612f9a565b5b80604052505050565b6000613004612629565b90506130108282612fc9565b919050565b600067ffffffffffffffff8211156130305761302f612f9a565b5b613039826127b3565b9050602081019050919050565b82818337600083830152505050565b600061306861306384613015565b612ffa565b90508281526020810184848401111561308457613083612f95565b5b61308f848285613046565b509392505050565b600082601f8301126130ac576130ab61263d565b5b81356130bc848260208601613055565b91505092915050565b6000602082840312156130db576130da612633565b5b600082013567ffffffffffffffff8111156130f9576130f8612638565b5b61310584828501613097565b91505092915050565b600060208201905081810360008301526131288184612dc2565b905092915050565b7f5573657220616c72656164792072656769737465726564000000000000000000600082015250565b6000613166601783612d69565b915061317182613130565b602082019050919050565b6000602082019050818103600083015261319581613159565b9050919050565b600081905092915050565b60006131b3838561319c565b93506131c0838584613046565b82840190509392505050565b60006131d98284866131a7565b91508190509392505050565b7f557365726e616d6520697320616c72656164792074616b656e00000000000000600082015250565b600061321b601983612d69565b9150613226826131e5565b602082019050919050565b6000602082019050818103600083015261324a8161320e565b9050919050565b600061325d8385612d69565b935061326a838584613046565b613273836127b3565b840190509392505050565b60006020820190508181036000830152613299818486613251565b90509392505050565b6000819050919050565b6000819050919050565b60006132d16132cc6132c7846132a2565b6132ac565b612917565b9050919050565b6132e1816132b6565b82525050565b60006040820190506132fc60008301866132d8565b818103602083015261330f818486613251565b9050949350505050565b7f55736572206973206e6f74207265676973746572656400000000000000000000600082015250565b600061334f601683612d69565b915061335a82613319565b602082019050919050565b6000602082019050818103600083015261337e81613342565b9050919050565b7f4e487b7100000000000000000000000000000000000000000000000000000000600052602260045260246000fd5b600060028204905060018216806133cc57607f821691505b6020821081036133df576133de613385565b5b50919050565b7f4f6e6c79206f776e65722063616e2063616c6c20746869732066756e6374696f60008201527f6e00000000000000000000000000000000000000000000000000000000000000602082015250565b6000613441602183612d69565b915061344c826133e5565b604082019050919050565b6000602082019050818103600083015261347081613434565b9050919050565b600060208201905061348c6000830184612db3565b92915050565b6000819050919050565b6134ad6134a882612917565b613492565b82525050565b60008160601b9050919050565b60006134cb826134b3565b9050919050565b60006134dd826134c0565b9050919050565b6134f56134f082612743565b6134d2565b82525050565b6000613507828761349c565b60208201915061351782866134e4565b6014820191506135288284866131a7565b915081905095945050505050565b7f53657269616c206e756d62657220636f6c6c6973696f6e2e20506c656173652060008201527f74727920616761696e2e00000000000000000000000000000000000000000000602082015250565b6000613592602a83612d69565b915061359d82613536565b604082019050919050565b600060208201905081810360008301526135c181613585565b9050919050565b7f4e487b7100000000000000000000000000000000000000000000000000000000600052601160045260246000fd5b600061360282612917565b915061360d83612917565b9250827fffffffffffffffffffffffffffffffffffffffffffffffffffffffffffffffff03821115613642576136416135c8565b5b828201905092915050565b61365681612917565b82525050565b6000602082019050613671600083018461364d565b92915050565b7f496e76616c6964206b657920696e646578000000000000000000000000000000600082015250565b60006136ad601183612d69565b91506136b882613677565b602082019050919050565b600060208201905081810360008301526136dc816136a0565b9050919050565b7f4e487b7100000000000000000000000000000000000000000000000000000000600052603260045260246000fd5b7f4b657920697320616c726561647920696e616374697665000000000000000000600082015250565b6000613748601783612d69565b915061375382613712565b602082019050919050565b600060208201905081810360008301526137778161373b565b9050919050565b600061378982612917565b91507fffffffffffffffffffffffffffffffffffffffffffffffffffffffffffffffff82036137bb576137ba6135c8565b5b600182019050919050565b7f43616e6e6f74206465616374697661746520746865206f6e6c7920616374697660008201527f65206b6579000000000000000000000000000000000000000000000000000000602082015250565b6000613822602583612d69565b915061382d826137c6565b604082019050919050565b6000602082019050818103600083015261385181613815565b9050919050565b60008190508160005260206000209050919050565b6000815461387a816133b4565b613884818661319c565b9450600182166000811461389f57600181146138b0576138e3565b60ff198316865281860193506138e3565b6138b985613858565b60005b838110156138db578154818901526001820191506020810190506138bc565b838801955050505b50505092915050565b60006138f8828461386d565b915081905092915050565b7f5075626c6963206b657920616c72656164792065786973747300000000000000600082015250565b6000613939601983612d69565b915061394482613903565b602082019050919050565b600060208201905081810360008301526139688161392c565b9050919050565b6000604082019050613984600083018661364d565b8181036020830152613997818486613251565b905094935050505056fea2646970667358221220785ff984f0baa019ce834dee979755cc7f8471b7e5d12fdfa9d648a5433070d064736f6c634300080d0033",
  "immutableReferences": {},
  "source": "// SPDX-License-Identifier: MIT\npragma solidity ^0.8.0;\n\ncontract UserAuthV2 {\n    // Struct to hold public key data\n    struct PublicKey {\n        string key;\n        bool isActive;\n    }\n\n    // Struct for digital certificate information\n    struct Certificate {\n        string country;\n        string state;\n        string locality;\n        string organization;\n        string commonName;\n        uint256 serialNumber;\n        uint256 validFrom;\n        uint256 validTo;\n    }\n\n    // Main user struct\n    struct User {\n        address userAddress;\n        string username;\n        bool isRegistered;\n        bool isAdmin;\n        PublicKey[] publicKeys;\n        Certificate certificate;\n    }\n\n    mapping(address => User) public users;\n    mapping(string => address) public usernameToAddress;\n    mapping(bytes32 => bool) private serialNumberExists; // To ensure serial numbers are unique\n\n    address public owner;\n\n    event UserRegistered(address indexed userAddress, string username);\n    event AdminStatusChanged(address indexed userAddress, bool isAdmin);\n    event PublicKeyAdded(address indexed userAddress, uint keyIndex, string key);\n    event PublicKeyDeactivated(address indexed userAddress, uint keyIndex);\n    event CertificateUpdated(address indexed userAddress, uint256 serialNumber);\n\n    modifier onlyOwner() {\n        require(msg.sender == owner, \"Only owner can call this function\");\n        _;\n    }\n\n    modifier isRegistered() {\n        require(users[msg.sender].isRegistered, \"User is not registered\");\n        _;\n    }\n\n    constructor() {\n        owner = msg.sender;\n    }\n\n    function registerUser(string calldata _username, string calldata _initialPublicKey) public {\n        require(!users[msg.sender].isRegistered, \"User already registered\");\n        require(usernameToAddress[_username] == address(0), \"Username is already taken\");\n\n        users[msg.sender].userAddress = msg.sender;\n        users[msg.sender].username = _username;\n        users[msg.sender].isRegistered = true;\n        users[msg.sender].isAdmin = false; // By default, user is not an admin\n\n        // Add the initial public key\n        users[msg.sender].publicKeys.push(PublicKey({\n            key: _initialPublicKey,\n            isActive: true\n        }));\n\n        usernameToAddress[_username] = msg.sender;\n        emit UserRegistered(msg.sender, _username);\n        emit PublicKeyAdded(msg.sender, 0, _initialPublicKey);\n    }\n\n    function addPublicKey(string calldata _newPublicKey) public isRegistered {\n        PublicKey[] storage keys = users[msg.sender].publicKeys;\n        for (uint i = 0; i < keys.length; i++) {\n            require(keccak256(abi.encodePacked(keys[i].key)) != keccak256(abi.encodePacked(_newPublicKey)), \"Public key already exists\");\n        }\n        \n        uint newKeyIndex = users[msg.sender].publicKeys.length;\n        users[msg.sender].publicKeys.push(PublicKey({\n            key: _newPublicKey,\n            isActive: true\n        }));\n        emit PublicKeyAdded(msg.sender, newKeyIndex, _newPublicKey);\n    }\n\n    function deactivatePublicKey(uint _keyIndex) public isRegistered {\n        require(_keyIndex < users[msg.sender].publicKeys.length, \"Invalid key index\");\n        require(users[msg.sender].publicKeys[_keyIndex].isActive, \"Key is already inactive\");\n\n        // Ensure at least one active key remains\n        uint activeKeys = 0;\n        for (uint i = 0; i < users[msg.sender].publicKeys.length; i++) {\n            if (users[msg.sender].publicKeys[i].isActive) {\n                activeKeys++;\n            }\n        }\n        require(activeKeys > 1, \"Cannot deactivate the only active key\");\n\n        users[msg.sender].publicKeys[_keyIndex].isActive = false;\n        emit PublicKeyDeactivated(msg.sender, _keyIndex);\n    }\n\n    function createOrUpdateCertificate(\n        string calldata _country,\n        string calldata _state,\n        string calldata _locality,\n        string calldata _organization,\n        string calldata _commonName\n    ) public isRegistered {\n        // For simplicity, we'll generate a pseudo-random serial number.\n        // In a real-world scenario, this should be handled more robustly.\n        uint256 newSerialNumber = uint256(keccak256(abi.encodePacked(block.timestamp, msg.sender, _commonName)));\n        require(!serialNumberExists[bytes32(newSerialNumber)], \"Serial number collision. Please try again.\");\n\n        users[msg.sender].certificate = Certificate({\n            country: _country,\n            state: _state,\n            locality: _locality,\n            organization: _organization,\n            commonName: _commonName,\n            serialNumber: newSerialNumber,\n            validFrom: block.timestamp,\n            validTo: block.timestamp + 365 days // Certificate valid for 1 year\n        });\n        \n        serialNumberExists[bytes32(newSerialNumber)] = true;\n\n        emit CertificateUpdated(msg.sender, newSerialNumber);\n    }\n\n    function getUserData() public view isRegistered returns (User memory) {\n        return users[msg.sender];\n    }\n\n    function getPublicKeys(address _userAddress) public view returns (PublicKey[] memory) {\n        require(users[_userAddress].isRegistered, \"User is not registered\");\n        return users[_userAddress].publicKeys;\n    }\n\n    function getCertificate(address _userAddress) public view returns (Certificate memory) {\n        require(users[_userAddress].isRegistered, \"User is not registered\");\n        return users[_userAddress].certificate;\n    }\n\n    function setAdmin(address _userAddress, bool _isAdmin) public onlyOwner {\n        require(users[_userAddress].isRegistered, \"User is not registered\");\n        users[_userAddress].isAdmin = _isAdmin;\n        emit AdminStatusChanged(_userAddress, _isAdmin);\n    }\n}\n",
  "sourcePath": "D:\\Praveen\\Personal\\projects\\trustkey\\truffle-pkibckckn\\contracts\\UserAuthV2.sol",
  "compiler": {
    "name": "solc",
    "version": "0.8.13+commit.abaa5c0e.Emscripten.clang"
  },
  "schemaVersion": "3.4.16",
  "updatedAt": "2025-06-17T11:47:48.461Z",
  "networkType": "ethereum",
  "devdoc": {
    "kind": "dev",
    "methods": {},
    "version": 1
  },
  "userdoc": {
    "kind": "user",
    "methods": {},
    "version": 1
  }
}